:020000040800F2
:10000000A0DE0120410200083D2E0008B5240008B2
:10001000ED2D0008B5140008FD7F00080000000069
:10002000000000000000000000000000ED58000883
:1000300039150008000000003F14000809590008A5
:100040005B0200085B0200085B0200085B0200081C
:100050005B0200085B0200085B0200085B0200080C
:100060005B0200085B0200085B0200085B020008FC
:100070005B0200085B0200085B0200085B020008EC
:100080005B0200085B0200085B0200085B020008DC
:100090005B0200085B0200085B0200085B020008CC
:1000A0005B020008CD7C00085B0200085B020008D0
:1000B0005B0200085B0200085B0200085B020008AC
:1000C0005B0200085B0200085B0200085B0200089C
:1000D0005B020008F17F00085B0200085B02000879
:1000E0005B0200085B0200085B0200085B0200087C
:1000F0005B0200085B0200085B0200085B0200086C
:100100005B0200085B0200085B0200085B0200085B
:100110005B0200085B0200085B0200085B0200084B
:100120005B0200085B0200085B0200085B0200083B
:100130005B0200085B0200085B0200085B0200082B
:100140005B0200085B0200085B0200085B0200081B
:100150005B0200085B0200085B0200085B0200080B
:100160005B0200085B0200085B0200085B020008FB
:100170005B0200085B0200085B0200080000000050
:100180005B0200085B02000800F002F800F049F88A
:100190000AA090E8000C82448344AAF10107DA45E2
:1001A00001D100F03EF8AFF2090EBAE80F0013F0EB
:1001B000010F18BFFB1A43F0010318477CCF000062
:1001C0009CCF0000103A24BF78C878C1FAD85207F3
:1001D00024BF30C830C144BF04680C6070470000C1
:1001E0000023002400250026103A28BF78C1FBD840
:1001F000520728BF30C148BF0B607047662908F01E
:100200004783002070471FB508F03DFB00F0AAFBB4
:1002100004000020002108F071F9E0601FBD10B556
:1002200010BD00F0BBFC1146FFF7EDFF08F01CF815
:1002300000F0D9FC03B4FFF7F2FF03BC07F00EFF98
:100240000948804709480047FEE7FEE7FEE7FEE76A
:10025000FEE7FEE7FEE7FEE7FEE7FEE704480549A6
:10026000054A064B70470000AD5900088901000897
:10027000A0D80120A0DE0120A0DA0120A0DA012010
:1002800072B6704762B67047EFF3108072B670476F
:1002900080F31088704730BF704720BF7047B0FAB6
:1002A00080F0704790FAA0F0B0FA80F0704790FAB2
:1002B000A0F07047704753EA020C00F069802DE906
:1002C000F04B4FF00006002B1FBFB3FA83F503FA83
:1002D00005F424FA05F65E4012BF1643B2FA82F521
:1002E00002FA05F4C5F120051EBF22FA05FC44EA16
:1002F0000C04203556EA044C4FEA144418BF641C21
:100300004FF000084FF00009904271EB030C39D315
:10031000002919BFB1FA81F701FA07F6B0FA80F7A0
:1003200000FA07F6C7F120071EBF20FA07FC46EACD
:100330000C062037B6FBF4FCA7EB0507103F07F0CF
:100340001F0BCBF120060CFA0BFB2CFA06F644BF70
:10035000B3460026202FA4BF5E464FF0000B5BEA99
:10036000060C08BF4FF0010B19EB0B09ABFB027C2D
:1003700048EB0608C01B06FB02CC0BFB03CC71EB61
:100380000C01C1E70B46024641464846BDE8F08BEA
:1003900013B54FF000004FF00001AFF30080BDE84F
:1003A0001C4070470FB4044910B503AA029800F02E
:1003B000C7FA10BC5DF814FB040000202DE9F047DB
:1003C0004FF0000A89460446C0F820A02046E168A4
:1003D0008847002876D0252806D0D4E90121904707
:1003E000206A401C2062F1E7E1682046002588472A
:1003F000C4F81CA006460027C4F818A02A2E09D06D
:10040000304607F024FE38B304EB8708303EC8F8C6
:10041000186019E059F8041B204604EB870291612B
:10042000E1688847012F064618D1E069002820DAE4
:1004300025F020051DE0D8F8180000EB800006EB41
:1004400040003038C8F818002046E1688847064662
:1004500007F0FDFD0028EED1012F0AD02E2E08D185
:100460002046E16888477F1C0646022F45F020059C
:10047000C4DBA069002803DA404245F00105A06111
:10048000E80701D025F01005B6B1A6F14100192802
:1004900002D8203645F400654A463146204625609C
:1004A0004D46FFF7ABFE58B1012806D0ED1D25F0F3
:1004B000070000F1080989E704E005F1040985E770
:1004C00030468AE7206ABDE8F0874FF0000200B5A9
:1004D000134694469646203922BFA0E80C50A0E867
:1004E0000C50B1F12001BFF4F7AF090728BFA0E815
:1004F0000C5048BF0CC05DF804EB890028BF40F8E1
:10050000042B08BF704748BF20F8022B11F0804F22
:1005100018BF00F8012B704770477047704770474D
:1005200070472DE9FF4F0C461E464FF0FF378BB04A
:10053000D2E90001DDF860800A908A46C1F30A55CD
:1005400005B93D46002108464FF00000BAF1000F02
:1005500000F4400005DA00EB80004FF4400101EAAE
:1005600050004FEA9059B9F1010F00DDB9460A98E1
:1005700050EA4A000ED044F61050A5F2FF3545432C
:100580002F14B8F1000F1ED07542291E1EDDC9F1CF
:1005900000021CE0B8F1010F4FF0000001D0302143
:1005A00003E0F24305E02154401CB042FBDB30463F
:1005B0000022002121540B99C1F80880C1E90020D4
:1005C0000FB0BDE8F08FBD1B6D1CDEE74A4600DAB8
:1005D000694206A800F068FA06AB93E8070003AB8F
:1005E00083E8070050460A9900F046FB8DE80700B3
:1005F000A0F500501F3800900398002D0ADD42F24C
:100600001F014A460844002303A90390684600F0EE
:10061000AFFD09E0A0F500504A461F38002303A9AA
:100620000390684600F0B9FD8DE807000004000C57
:1006300003D04FF0FF30410800E01046B8F1000F42
:1006400003D00022009215461EE0751E05D400F06E
:100650008DF9303262556D1EF9D5B346012208433B
:1006600002D000227F1C04E02078302801D1002233
:100670007F1E002A099784D01DE0112D07DA00F0B3
:1006800075F9303262556D1C50EA0102F5D108430C
:1006900002D00098C8B10EE00021681E05E0235C7E
:1006A000625C63542254401E491C8142F7DBAB4616
:1006B000A81B401E0990002004F80B000B98099A13
:1006C000C0F80880C0E9002B7AE711264FF0000837
:1006D00057E72DE9F04F88460446D21D22F0070166
:1006E00091B0D1E90001CDE90A0107F088FC02468A
:1006F0000B98C00F01D02D2007E02068810701D59D
:100700002B2002E0202101EAC000032A099001D039
:10071000072A05DB03464146204600F085F90BE138
:100720002078800601D5E06900E00620B8F1650F69
:10073000814606D0B8F1660F18D0B8F1670F70D1B6
:1007400031E00020B9F1110F009001DB112301E02D
:1007500009F101030AAA01A90CA8FFF7E2FEDDE9ED
:100760000C70002609F10105834647E001204B4645
:1007700000904FF000470AAA01A90CA8FFF7D1FE8C
:10078000DDE90DB00C995D46002610B909F10100B4
:100790000D18B9EB050003D4C0F1FF3609F10105CE
:1007A000A5EB09002BE0B9F1010F01DA4FF00109C7
:1007B0000020B9F1110F0090484601DD112300E03F
:1007C00003460AAA01A90CA8FFF7ABFEDDE90C70ED
:1007D0004D4600268346207800070AD4AB4500DA50
:1007E0005D4601A8012D04DD411911F8011C3029D5
:1007F00007D04F4502DA17F1040F04DA01208246D0
:100800000FE06D1EEEE7002F02DCED1B3E4403E01F
:10081000781CA84200DD7D1CB81B00F1010A4FF0D6
:1008200000472078000703D4AA4501DB4FF0FF3AC8
:100830000021B7F1004F0DF143088DF8431024D08B
:1008400002202B23002F01DA7F422D230A21021ED2
:10085000A0F1010000DC5FB197FBF1FC97FBF1F226
:1008600001FB1C7C17460CF1300C08F801CDEEE7BB
:10087000A8F1010003702188090501D5452100E098
:100880006521A0F1010800F8011C09980FA9A1EB4E
:100890000807FF1D00B10120411901EBEA70A169B1
:1008A0003844081A401EA0612078C00602D42046B1
:1008B000AFF30080099828B1D4E901219047206A5C
:1008C000401C20622078C00622D52046AFF300806D
:1008D0001EE0002E04DBB34502DD01A8805D00E0D0
:1008E0003020D4E901219047206A401C2062761C08
:1008F000AAF101005FEA000A0AD100F033F8C068EB
:100900000168405CD4E901219047206A401C2062C4
:10091000281EA5F10105DCDC07E0D4E9012118F867
:10092000010B9047206A401C2062381EA7F1010786
:10093000F3DC2046AFF30080032011B041E6000055
:10094000074B70B50D467B4400F05BF80446284623
:1009500000F01CF910B14FF0FF3070BD204670BDA3
:100960008F7800000048704760D8012030B5B0F1A2
:100970000A024FEA900E71F100034EEA817EB0EB5D
:100980000E0061EB91014FEA101E4EEA017E10EB62
:100990000E0041EB11114FEA102E4EEA016E10EBE2
:1009A0000E0041EB11214FEA104E4EEA014E10EBC2
:1009B0000E0041EB1141401841F100014FEAD00017
:1009C00040EA41704FEAD10110EB80054FEA810403
:1009D00044EA907444EB01046D1944EB0404521B87
:1009E000A3414FF0000348BF0A3200D530BD401C80
:1009F00041F1000130BD000001694A1C0261087824
:100A0000704700B58FB0CDE901310021059105494E
:100A10007944CDE9031011466846FFF7CFFC0FB0CB
:100A200000BD0000E5FFFFFF2DE9F0411F46044631
:100A300003260168072A01F4006004DB08B116A54B
:100A400005E016A503E008B115A500E015A521F005
:100A500010002060A069C01EA0610FB1401EA061FF
:100A60002046AFF300804FB1D4E9012138469047CA
:100A7000206A401C2062C01C206206E0206AFAE75F
:100A8000D4E9012115F8010B9047761EF8D22046D3
:100A9000AFF30080BDE8F0814E414E006E616E0004
:100AA000494E4600696E66002DE9F04781461646BC
:100AB0008AB0354878440DC88DE80D003248784436
:100AC000801C03AC0DC884E80D0041F69B3008443F
:100AD000372190FBF1F290FBF1F5A5F1800501FBC8
:100AE00012041B3C02D56442012000E00020DFF824
:100AF00098A080460027FA44AAF1BE0A0EE0E0075B
:100B00000AD03246684607EB470101230AEB810110
:100B100000F043FB8DE8070064107F1C002CEED131
:100B2000194F7F44AE3F19E0E80715D007EB0410DA
:100B30000DF1180A90E80E008AE80E00C068F04235
:100B400001D1981908903246012306A903A800F0A4
:100B500024FB03AB83E807006D10641C002DE3D178
:100B60004FF0010332466946B8F1000F03A802D0E6
:100B700000F0FEFA01E000F010FBC9E90001C9F83D
:100B800008200AB0BDE8F08768C60000007B00F0CE
:100B9000800070470048704740D801207546FFF735
:100BA000F9FFAE4605006946534620F0070085462A
:100BB00018B020B5FFF752FBBDE820404FF000060B
:100BC0004FF000074FF000084FF0000B21F0070135
:100BD000AC46ACE8C009ACE8C009ACE8C009ACE878
:100BE000C0098D46704710B50446AFF3008020461B
:100BF000BDE81040FFF71EBB4FF0013C50F8042B3E
:100C000051F8043B9A4221D1A2EB0C03934313EA1F
:100C1000CC1317D150F8042B51F8043B9A4215D14C
:100C2000A2EB0C03934313EACC130BD150F8042B23
:100C300051F8043B9A4209D1A2EB0C03934313EA07
:100C4000CC13DBD04FF00000704700BFD01A01BAC0
:100C5000B1FA81F101F0180122FA01F0CB40C1F1A3
:100C60002001DBB2C0B2C01A2CFA01F3D11A9143B1
:100C700011EAC311E6D170475FEA400C08BF91F05A
:100C8000000F4FEA8C234FEAC12243EA51514FEA49
:100C90001C5018BF00F5F0404FEA300018BF41F07B
:100CA00000415FEA6C5C00F02980BCF1FF3F08BFA7
:100CB00040F080407047130C06BF12044FF0100C38
:100CC0004FF0000C130E04BF12020CF1080C130FAE
:100CD00004BF12010CF1040C930F04BF92000CF13D
:100CE000020CD30F04BF52000CF1010C11464FF05F
:100CF0000002A0F11F00A0EB0C00704711F0004FA4
:100D000008BF704731F000413FF4D5AF0B0C06BF70
:100D100009044FF0100C4FF0000C0B0E04BF090239
:100D20000CF1080C0B0F04BF09010CF1040C8B0F24
:100D300004BF89000CF1020CCB0F04BF49000CF179
:100D4000010CCCF12003A0EB0C0022FA03F302FA11
:100D50000CF241EA030100F10100704720F07F4CE2
:100D600080EA030023F07F47ACEB070303F57C53D5
:100D700000F0004003F1FF032DE980494FEA154BD5
:100D800009B44FEA144325EA0B4E24EA03480FF254
:100D9000042606EB132749083E785FEA320203FB7C
:100DA0000667C7F5000707FB06F64FEA54374FEA18
:100DB000D64606F1020607FB066CCCF1005C4FEA52
:100DC0001C472CEA074C07FB06F40CFB06F504EB6A
:100DD00015464FEA961634BF00204FF000404FEA08
:100DE000D13706FB07FC4FEA1C4C0CFB0BF7D21B60
:100DF00003FB0CF761EB07010CFB0EF7B0EB0740B0
:100E000072EB17420CFB08F734BFA2EB0742B2EBC0
:100E1000074261EB17414FEA0C444FEA910706FB8A
:100E200007FC4FEA1C4C0CFB0BF7B0EBC74072EB16
:100E3000573203FB0CF734BFA2EBC742B2EBC742F9
:100E400061EB57310CFB0EF7B0EBC70072EB57723A
:100E50000CFB08F734BFA2EBC702B2EBC70261EB91
:100E60005771039F4FEA816141EA921104EBCC0470
:100E70004FEAD1374FEA826206FB07FC42EA901242
:100E80004FEA80604FEA1C4C0CFB0BF7D21B03FBB4
:100E90000CF761EB07010CFB0EF7B0EB074072EBB0
:100EA00017420CFB08F734BFA2EB0742B2EB074234
:100EB00061EB17414FEA8C554FEA910704EB9C24F4
:100EC00006FB07FC4FEA1C4C0CFB0BF7B0EBC740D2
:100ED00072EB573203FB0CF734BFA2EBC742B2EB05
:100EE000C74261EB57310CFB0EF7B0EBC70072EB5A
:100EF00057720CFB08F734BFA2EBC702B2EBC70274
:100F000061EB577115EB4C254FEA816141EA921173
:100F10004FEA82624FEAD13742EA901206FB07FCA1
:100F200044F100044FEA80604FEA1C4C0CFB0BF7C5
:100F3000D21B03FB0CF761EB07010CFB0EF7B0EBC8
:100F4000074072EB17420CFB08F734BFA2EB0742D5
:100F5000B2EB074261EB174115EB1C154FEA8131EB
:100F600041EA92414FEA823242EA90424FEA8030AF
:100F70004FEA0C7644F1000448EA03434EEA0B487A
:100F80004FF0000EB2EB080C71EB030724BF624672
:100F900039464EEB0E0E4FF0000B001852414941FE
:100FA0004BEB0B0BB2EB080C71EB03077BF1000B67
:100FB00024BF624639464EEB0E0E4FF0000B001870
:100FC000524149414BEB0B0BB2EB080C71EB0307A1
:100FD0007BF1000B24BF624639464EEB0E0E51EA00
:100FE000020718BF46F0010616EB0E7655F1000217
:100FF00054F1000103D5BDE88901BDE80088BDE8D2
:101000008901BDE80048B619524141EB0101A3F145
:101010000103704780807F7E7D7C7B7A797877764C
:1010200076757473727171706F6E6E6D6C6C6B6AC5
:101030006A69686867666665646463636261616063
:10104000605F5F5E5E5D5D5C5C5B5B5A5A595958E0
:10105000585757565655555554545353525252514A
:10106000515050504F4F4F4E4E4D4D4D4C4C4C4BA0
:101070004B4B4A4A4A4949494848484747474746E7
:101080004646454545444444444343434342424223
:1010900042414141002B9C4630D477002BD01CB5F7
:1010A0004FEA370703B44FF010004FF01001BAF1C8
:1010B000000F06D0BCF1000FDCBF40F0080040F08C
:1010C00008014FF000000FBCBDE810400BF1010B10
:1010D000BBF1010F08BF5FEA170722BF12F101023F
:1010E00011F101014FF0004143F1000300F0004015
:1010F00043EA00007047F9D35708D0E746EA0646AE
:1011000013F1400F4FEA16461FDD13F1200FDFBF2A
:1011100016430A46002120335B42BED0C3F12007AC
:1011200046EA064602FA07F74FEA164646EA070677
:10113000C3F1200722FA03F201FA07F721FA03F1BB
:101140004FF0000342EA0702A7E746EA020646EA32
:1011500006464FEA164646EA0106BCBF46EA064680
:10116000360C4FF000034FF000024FF0000194E7FF
:101170002DE9804C9A46934670B491E8380007C830
:1011800031EA400C48BF34EA430C03D5FFF7E6FDD3
:10119000FFF780FFF0BCBDE8008C2DE9804C9A463B
:1011A000934670B491E8380007C810F0804F08BF2C
:1011B00013F0804F03D100F005F8FFF76BFFF0BC90
:1011C000BDE8008C20F07F4780EA030023F07F4CCD
:1011D00007EB0C03A3F57C5300F00040A3F1FE03E2
:1011E00092F0000F00F0B38095F0000F00F07780D0
:1011F0002DE901494FEA11404FEA144621EA00481F
:1012000000FB06FC24EA064708FB06F607FB08F885
:1012100000FB07F718EB06484CEB164C4FEA124B55
:1012200018EB07484FEA15464CEB174022EA0B4EE5
:101230000BFB06FC25EA06470EFB06F607FB0EFE37
:101240000BFB07F71EEB064E4CEB164C4FF000065F
:101250001EEB074E4CEB174B18EB0B0840F1000050
:1012600018EB0E0B58EB000840F100008F1A4FF0FE
:1012700000013CBFC943661B14BFB5EB040C002141
:101280003CBFC943F61B4FEA17444EEA8E0E27EACD
:1012900004454FEA1C4704FB07622CEA074C05FB98
:1012A00007F70CFB05F604FB0CFC16EB074642EBBC
:1012B000174216EB0C4642EB1C421BEB060658EBA2
:1012C0000202414146EA9E0601D5BDE80189B619F0
:1012D000524141EB0101A3F10103BDE801894FEA4D
:1012E00014454FEA114724EA054621EA074C05FB5D
:1012F00007F406FB07F70CFB06F105FB0CFC11EBF2
:10130000074144EB17444FEA124711EB0C4144EB01
:101310001C4422EA074C05FB07F206FB07F70CFB0F
:1013200006F605FB0CFC16EB074642EB174216EBE4
:101330000C4642EB1C456A1854F1000148BF704747
:10134000B619524141EB0101A3F10103704795F039
:10135000000F37D04FEA11424FEA144721EA024604
:1013600024EA074C02FB07F106FB07F70CFB06F427
:1013700002FB0CFC14EB074441EB17414FEA154705
:1013800014EB0C4441EB1C4125EA074C02FB07F52A
:1013900006FB07F70CFB06F602FB0CFC16EB0746F8
:1013A00045EB174516EB0C4645EB1C42121951F163
:1013B000000148BF7047B619524141EB0101A3F14A
:1013C000010370474FEA14454FEA114724EA0546E6
:1013D00021EA074C05FB07F106FB07F70CFB06F2B9
:1013E0004FF0000605FB0CFC12EB074241EB1741E6
:1013F00012EB0C4251EB1C4148BF7047921841EB75
:101400000101A3F10103704722484FF6FF710170FB
:10141000002080F309882048016881F308881F486C
:101420004FF08051016062B6FEE71C484FF08051DA
:101430000160704719484FF080510160704772B6E3
:10144000EFF3098050B11EF0100F08BF20ED108A95
:10145000203880E8F00F12490968086000B511488B
:1014600080475DF804EB104810490A7802700C4878
:101470000F490A680260106890E8F00F20301EF0F3
:10148000100F08BFB0EC108A80F309884EF0040EEC
:1014900062B6704722ED00E02001002004ED00E07C
:1014A00018010020913A0008AA000020AB0000209B
:1014B0001C010020FEE70000044910B50020086070
:1014C00000F01CF8BDE8104000F002B85000002009
:1014D00010B5FEF7D9FE04461021044801F087FC40
:1014E0002046BDE81040FEF7D3BE0000C0BC01207E
:1014F00001490860704700005000002010B500F05E
:101500005DFB08490A6842F080720A6006490022C1
:101510004A600A6842F001020A60BDE81040FFF725
:10152000E7BF0000FCED00E0001000E0014840686B
:1015300070470000001000E07047704770B5B3F5C9
:10154000804F05D06FF0704140F82210002070BD30
:1015500050F82240084B8E891C40D1E9003543EAFF
:1015600005138D6889692D0245EA06452B430B4317
:10157000234340F82230E9E70000F0CFF0B50C68D3
:1015800050F82430114A1340D1E90125D1E903670D
:101590002A433E4332434E6932438E693243CE6919
:1015A00032430E6A32434E6A32438E6A3243CE6A07
:1015B0003243CE6B096B32430A431A43082D01D1E3
:1015C00042F0400240F824200020F0BD8000F0FFEF
:1015D00030B500EB820250688D8900F04043D1E9BC
:1015E000000440EA04108C68240244EA05442043C5
:1015F0000C8A074D05EB045420430C7D6D0105EB6F
:10160000046489692043084318435060002030BDBA
:101610000000F0FF90F83510022903D080214165C9
:1016200001207047052180F835100068016821F01D
:10163000010101600020704770B5044600F04AF9CE
:101640000546601C02D004480078044400F042F9CA
:10165000401BA042FAD370BD10000020F0B587B047
:1016600014216846FEF731FF2048016800293AD16D
:10167000012101601E480024016841F00101016060
:101680000068022500F0010005904FF23F00CDE90F
:10169000000502AA03260C2782E8D00069461548F7
:1016A00000F030F841F23F40CDE9000502AA69465A
:1016B00082E8D000104800F025F84FF68370CDE99D
:1016C000000502AA694682E8D0000C4800F01AF82A
:1016D0004FF63370CDE9000502AA694682E8D000D2
:1016E000074800F00FF807B0F0BD00000800002028
:1016F0003838024000140240001802400010024036
:10170000000C02402DE9F84F00224FF0010803259C
:101710004FF00F0E0B6808FA02F42340A3426ED17B
:101720004E68012E05D0022E03D0112E01D0122EAC
:1017300012D186684FEA420C05FA0CF7BE43CF6817
:1017400007FA0CF7374387604668A6430C79C4F361
:101750000014944034434460C668570005FA07FCFF
:101760008C6826EA0C06BC403443C4604C68022CEA
:1017700001D0122C13D1D40800EB8404A346D4F872
:10178000209054074FEAD46A0EFA0AF629EA0609AD
:101790000E6906FA0AF646EA0906CBF820600668E2
:1017A0000C7926EA0C0604F00304BC4034430460C0
:1017B0004C68E40065D5364C266846F480462660C1
:1017C000246822F0030604F480440094314C34442D
:1017D000A446D4F808489607370F0EFA07F6B44324
:1017E0002D4EB04201D1002624E02C4EB04201D152
:1017F00001261FE02A4EB04202D102261AE040E044
:10180000284EB04201D1032614E0274EB04201D148
:1018100004260FE0254EB04201D105260AE0244EF1
:10182000B04201D1062605E0224EB04201D1072682
:1018300000E00826BE402643CCF808681E4E3468F7
:101840004F689C43FF0300D51C4334601A4C241D91
:1018500026684F689E43BF0300D51E432660164E80
:10186000083634684F689C43FF0200D51C4334603F
:10187000114E0C3634684F689C43BF0200D51C43A0
:101880003460521C102AFFF445AFBDE8F88F000009
:101890004438024000300140000002400004024091
:1018A00000080240000C02400010024000140240F8
:1018B00000180240001C0240003C0140426931EA2D
:1018C000020200D10904816170470AB18161704749
:1018D0000904FBE701488068704700001000002001
:1018E000024881680278114481607047100000202E
:1018F0000B4810B5016841F400710160016841F4C2
:1019000080610160016841F480710160032000F092
:1019100089F8002000F006F800F03EF8002010BD25
:10192000003C024010B5014688B00022192000F0AA
:1019300059F8192000F048F813480024016841F0D4
:1019400001010160006805A900F0010006906846E9
:1019500000F014F900F048F90C494000B0FBF1F137
:101960000C480B4A491E026040F2E732C0E90324EA
:10197000C0E9011400F09EFB10B1012008B010BDB9
:10198000044800F0C7FBF9E74438024040420F002A
:1019900000000140581300200A4808B5016841F4CE
:1019A00080410160006800F4804000900548001FFD
:1019B000016841F080510160006800F080500090A3
:1019C00008BD000044380240002809DB00F01F0277
:1019D000012191404009800000F1E020C0F8001191
:1019E00070470000F0B40E4B1B680C46C3F3022393
:1019F000C3F10705042D00D90425191D072901D2BB
:101A0000002300E0DB1E012606FA05F1491E2140F5
:101A100099409E40761E16403143F0BC06F007BB4D
:101A20000CED00E0064900F0070208684FF6FF03DE
:101A3000184040EA0220034A104308607047000043
:101A40000CED00E00000FA052DE9F0470E46050018
:101A500065D0DFF81481D8F80000F7B200F00F006D
:101A6000B04207D288F80070D8F8000000F00F00EC
:101A7000B04254D128683D4C810712D5400703D5A8
:101A8000206840F4E05020602878000703D52068E3
:101A900040F4604020602068A96820F0F00008430E
:101AA00020602878C0072DD030496868083901289F
:101AB00012D0022813D0032811D009688907002901
:101AC0002DDA216821F0030101432160FFF702FFB5
:101AD000814641F2883A0EE009688903EFE7096818
:101AE0008901ECE7FFF7F6FEA0EB0901514502D9A9
:101AF0000320BDE8F0872068696800F00C00B0EBB7
:101B0000810FEFD1D8F80010404601F00F01B1422B
:101B100007D90770006800F00F00B04201D0012023
:101B2000E7E72878400705D52068E96820F4E05009
:101B3000084320602878000706D52068296920F42A
:101B4000604040EAC100206000F05EF82168084A69
:101B5000C1F30311515CC84006490860064800689B
:101B6000FFF7E0FE0020C4E7003C024008380240D6
:101B7000948800081C000020140000200F2202603E
:101B80000C4A136803F003034360136803F0F00387
:101B90008360136803F4E053C36012684FF4E053AA
:101BA00003EAD20202610448006800F00F000860F6
:101BB0007047000008380240003C024001480068BD
:101BC000704700001C0000200448054900680968AF
:101BD000044AC1F38221515CC84070471C000020B8
:101BE00008380240A48800080448054900680968CC
:101BF000044AC1F34231515CC84070471C000020C8
:101C000008380240A4880008154810B5006810F094
:101C10000C02144813D04110042A0FD0082A0ED108
:101C20000F4C241F2268236802F03F025B0207D595
:101C30002068C0F38810A0FB010106E0084610BD33
:101C40002168C1F38811A1FB00010023FEF733FBDB
:101C50002168C1F30141491C4900B0FBF1F010BDFE
:101C6000083802400024F4002DE9F84F04006ED03B
:101C70002078DFF83C93C007A9F104054AD009F1A8
:101C800004000168C1F38101012908D00068C0F394
:101C9000810002280AD1D9F80000400206D5286840
:101CA000800337D560680028E1D033E06068B0F584
:101CB000803F10D0B0F5A02F286810D020F48030DD
:101CC0002860286820F4802028606068A8B1FFF7A9
:101CD00001FE06460DE0286840F48030F4E740F449
:101CE00080202860F7E700BFFFF7F4FD801B642821
:101CF00073D828688003F7D50CE0FFF7EBFD0646A4
:101D000005E000BFFFF7E6FD801B6428F0D82868D7
:101D10008003F7D42078DFF89C8280074FF0000A18
:101D20003ED5A348001D016811F00C0F08D00068D3
:101D3000C0F3810002280BD1D9F80000400207D47B
:101D40002868800716D5E068012800D112E02BE151
:101D5000E068B8B10120C8F80000FFF7BBFD0646F7
:101D600005E000BFFFF7B6FD801B0228C0D8286839
:101D70008007F7D52868216920F0F80040EAC10003
:101D800028600DE0C8F800A0FFF7A4FD064604E0B7
:101D9000FFF7A0FD801B02281FD828688007F7D412
:101DA0002078000722D5824E83486169703671B170
:101DB00001210160FFF78EFD074604E0FFF78AFD71
:101DC000C01B022809D830688007F7D50EE0C0F89C
:101DD00000A0FFF77FFD074605E082E0FFF77AFDF0
:101DE000C01B02287DD830688007F7D420784007D0
:101DF00068D5DFF8BCB100270BF13C0BDBF8000025
:101E0000C0000BD4DBF8001041F08051CBF800107B
:101E1000DBF80000012700F080500090674E30682A
:101E2000C00510D4306840F480703060FFF752FD78
:101E3000009005E0FFF74EFD0099401A022850D8A7
:101E40003068C005F6D55A4EA0686C3601280FD010
:101E50000528306810D020F001003060306820F094
:101E600004003060A068B8B1FFF734FD00900FE0C7
:101E7000306840F00100F4E740F004003060F7E71C
:101E8000FFF728FD0099411A41F28830814266D857
:101E900030688007F4D50EE0FFF71CFD009007E0E6
:101EA000FFF718FD0099411A41F28830814256D857
:101EB00030688007F4D42FB1DBF8001021F0805196
:101EC000CBF80010A069C8B33949091D0968C1F3EE
:101ED000810102294AD00228504607D0C8F8600084
:101EE00000E03CE0FFF7F6FC04463BE04746C8F85C
:101EF0006000FFF7EFFC064605E000BFFFF7EAFCD5
:101F0000801B02282BD828688001F7D4D4E9070168
:101F10000843A16A2A4A490802EB0141626A41EA80
:101F20008211084394F82C1040EA0161C9F80010AE
:101F300001203866FFF7CEFC044606E036E000BF1D
:101F4000FFF7C8FC001B022809D828688001F7D5D4
:101F50002CE000BFFFF7BEFC001B022802D90320C3
:101F6000BDE8F88F28688001F4D41FE00128F7D07D
:101F7000D9F80000E26900F48001914214D1226A8C
:101F800000F03F0191420FD147F6C071626A0140F3
:101F9000914209D1A26A00F44031914204D1E16A30
:101FA00000F07060884201D00120D9E70020D7E717
:101FB0000438024000004742800E47420070004053
:101FC0000000FFFF70B515460E46040003D094F8DC
:101FD000490010B107E0012070BD002084F84800DE
:101FE000204600F01AF804F108012068FFF7C6FA4D
:101FF0003146A2682068FFF7EBFAD4E901022946CE
:10200000236BFFF79BFAA168206850F8212042F06B
:10201000010240F82120002070BDFFF71FBB704770
:102020007047000070B590F83C20012A32D001249E
:1020300080F83C40022280F83D2003685A689D6881
:1020400022F070060A6832435A60134B02689A42C3
:1020500014D0B2F1804F11D0104B9A420ED0104BD9
:102060009A420BD00F4B9A4208D00F4B9A4205D0A0
:102070000E4B9A4202D00E4B9A4204D1496825F089
:1020800080031943916080F83D40002180F83C10A6
:10209000084670BD022070BD0000014000040040F1
:1020A00000080040000C00400004014000400140D6
:1020B0000018004010B5040003D094F83D0010B1A2
:1020C00007E0012010BD002084F83C00204600F00D
:1020D0000DF8022084F83D00211D206805F0FCFD6C
:1020E000012084F83D00002010BD000008B5006804
:1020F0000649884208D10648016841F02001016084
:10210000006800F02000009008BD000000140040AE
:10211000403802400168CA6842F00102CA600068A3
:10212000816801F00701062903D0016841F001012F
:10213000016000207047704770B50446006801696F
:102140004FF00005C943890715D4C168C943890701
:1021500011D4E91E01610120207720688069800781
:10216000204602D0FFF7E7FF04E000F098F8204691
:1021700000F096F8257720680169C943490717D40C
:10218000C168C943490713D46FF0040101610220FB
:1021900020772068806910F4407F204602D0FFF746
:1021A000CAFF04E000F07BF8204600F079F82577BC
:1021B00020680169C943090716D4C168C9430907E2
:1021C00012D46FF008010161042020772068C069F3
:1021D0008007204602D0FFF7AEFF04E000F05FF872
:1021E000204600F05DF8257720680169C943C906DB
:1021F00017D4C168C943C90613D46FF01001016137
:10220000082020772068C06910F4407F204602D063
:10221000FFF791FF04E000F042F8204600F040F89C
:10222000257720680169C943C90708D1C168C94336
:10223000C90704D1891E0161204600F033F82068E7
:102240000169C943090609D4C168C943090605D40F
:102250006FF0800101612046FFF7E1FE206801690F
:10226000C943490609D4C168C943490605D46FF07A
:1022700040010161204600F01FF820680169C94350
:1022800089060BD4C168C943890607D46FF02001C1
:1022900001612046BDE87040FFF7C2BE70BD7047C7
:1022A0007047000000680349884201D1FFF718BB5E
:1022B00070470000000001407047704770B5026829
:1022C00004461068D168536910F00F0F52D003F024
:1022D000010501F490762E435FD0C20705D0CA05F0
:1022E00003D5E26B42F00102E263420705D5DA074B
:1022F00003D0E26B42F00202E263820705D5DA07FF
:1023000003D0E26B42F00402E263020707D501F05A
:1023100020022A4303D0E26B42F00802E263E26B40
:10232000002A33D0800604D5880602D5204605F061
:102330004DFD20684069E16BC0F38010090700D4AF
:1023400028B3204605F034FD2068416949061AD5B6
:10235000416921F040014161606BA0B11B490165F9
:10236000606BFFF757F9002810D0606B016DBDE876
:1023700070400847830610D58B060ED52046BDE871
:10238000704005F023BD2046FFF797FF70BD204643
:10239000FFF793FF0020E06370BD030606D50B0630
:1023A00004D52046BDE8704005F0F0BD4006F3D5E9
:1023B0004806F1D5D168204621F04001D1602021A6
:1023C00084F8391000F075F870BD0000A17D000898
:1023D00070B5040004D094F83900002510B106E06F
:1023E000012070BD84F83850204600F023F82420E6
:1023F00084F839002068C16821F40051C16020468A
:1024000005F030FD2068016921F4904101612068E8
:10241000416921F02A0141612068C16841F40051FD
:10242000C160E563202084F8390084F83A00002078
:1024300070BD000010B586B0044614216846FEF752
:1024400044F818492068884229D1174800210268B9
:1024500042F010020260006800F01000059012487F
:102460001438026842F001020260006800F00100C6
:1024700005904FF4C06000900220CDE901010320D7
:1024800003900720049069460848FFF73BF90022B3
:1024900011462520FFF7A6FA2520FFF795FA06B08A
:1024A00010BD00000010014044380240000002400E
:1024B00070477047FEE7000070B50B4906460024E0
:1024C00008884D8821464543204600F017FA00F061
:1024D0004BFBB0B24FF0D84103E000BFA1F8800041
:1024E000641CAC42FAD370BD981300202DE9F04F64
:1024F00033492C240A4688712A2592882B2645F2D6
:10250000105B4FF4305E4FF448774FF0F00949F21A
:10251000413A4FF4A07845F2103C4FF4F07358B1B3
:10252000A1F80080A1F80290524501D0624529D15E
:102530000C814D818E8139E0A1F80090A1F80280D4
:10254000524501D0624508D10C814D818E81624592
:1025500031D1A1F800804B802DE05A4508D1A1F877
:1025600008E04FF4285048814FF42C50888106E051
:10257000A2F5C85063381ED10C814E818D810B802D
:102580004F8018E05A4508D1A1F808E04FF42850D0
:1025900048814FF42C50888106E0A2F5C85063387A
:1025A00004D10C814D818E810F804B80624502D118
:1025B0000B80A1F80280BDE8F04F002000F0C2B807
:1025C000981300202DE9F043444C91460246A08820
:1025D00023460D464FEA1128160A5B89A0F51341E0
:1025E000413917D0A0F5A641103913D0A0F5AA4162
:1025F000103914D02646A0F5C857B1793688B61AD6
:10260000761E633F25D0A0F5D047043F3DD0012979
:1026100051D051E0184600F09BFA30463CE0184695
:1026200000F096FA304600F087FA6089401C80B2CC
:1026300000F08EFAD0B200F07FFAA08900F088FA9C
:10264000404600F079FAA089401C80B200F080FA80
:102650002DE001B9B2B2184600F07AFA160A3046F7
:1026600000F06AFAD0B200F067FA304600F064FA7F
:10267000D0B200F061FAA08900F06AFA404600F09A
:102680005BFAE8B200F058FA0EE0012900D1B2B2CC
:10269000184600F05DFA100A00F04EFAD0B200F0D1
:1026A0004BFAA08900F054FA404600F045FAE8B22F
:1026B00000F042FA08E0B2B21146184600F05EFAA5
:1026C000A089294600F05AFA4FF0D840218920F815
:1026D0007E1FA0F80290BDE8F08300009813002050
:1026E00008B54FF0D840B0F88000ADF80000BDF854
:1026F000000008BD10B50246BE2000F029FA0520F2
:1027000000F01AFA104605F03CFF9FED0C1B53EC4D
:10271000112B05F049FF05F007FF80B200F00CFA1D
:10272000012000F009FAFF2000F006FA002000F076
:1027300003FABDE81040002000F0FEB96666666648
:1027400066660440F0B56C4C00232146A279898866
:1027500041F66316012A01D01AB11BE0B14202D141
:1027600018E0B14216D1082814D2DFE800F00406C0
:10277000080A0C0E101206200CE007200AE00420C4
:1027800008E0052006E0012004E0002002E003202C
:1027900000E00220A1F5134745F2103245F2105532
:1027A000413F05D0914203D0A94201D0B14277D137
:1027B000082812D2DFE800F0110406080A0C0E10F7
:1027C00080230AE0402308E0C02306E0202304E041
:1027D000602302E0A02300E0E023A94202D14FF4ED
:1027E000585000E03620914205D0A94203D0B142B2
:1027F00001D043F00803194600F0C0F9A188B142A6
:102800000AD098062088628802D5904202D303E05D
:10281000904201D9228060806089A94241D100F0B4
:1028200097F9002000F088F96089401C80B200F020
:102830008FF9002000F080F96089801C80B200F0E0
:1028400087F92088401EC0F30F2000F075F96089D9
:10285000C01C80B200F07CF92078401EC0B200F0AD
:102860006BF9A08900F074F9002000F065F9A089E7
:10287000401C80B200F06CF9002000F05DF9A089E6
:10288000801C80B200F064F96088401EC0F30F2005
:1028900000F052F9A089C01C80B200F059F922E082
:1028A00028E000F055F9002000F046F9002000F083
:1028B00043F92088401EC0F30F2000F03DF9207836
:1028C000401EC0B200F038F9A08900F041F90020A4
:1028D00000F032F9002000F02FF96088401EC0F3AC
:1028E0000F2000F029F9A078BDE8F040401EC0B2EA
:1028F00000F022B9F0BD000098130020F0B53F4A67
:102900000D460446060A918810462F0A4089A1F513
:102910001343413B28D0A1F5A643103B24D0A1F599
:10292000C853633B2FD0A1F5AA43103B64D100F0FC
:102930000FF9304600F000F95089401C80B200F0D9
:1029400007F9E0B200F0F8F8908900F001F9384694
:1029500000F0F2F89089401C80B200F0F9F8E8B27B
:10296000BDE8F04000F0E8B800F0F2F8304600F0C2
:10297000E3F8E0B200F0E0F8908900F0E9F83846BA
:1029800000F0DAF8EBE7917929B300F0E1F830468E
:1029900000F0D2F8E0B200F0CFF81088401EC0F38B
:1029A0000F2000F0C9F81078401EC0B200F0C4F843
:1029B000908900F0CDF8384600F0BEF8E8B200F09B
:1029C000BBF85088401EC0F30F2000F0B5F8907897
:1029D000401EC0B2C4E71188091B491E8CB200F02A
:1029E000B7F8002000F0A8F8002000F0A5F8200AB1
:1029F00000F0A2F8E0B2D9E7F0BD00009813002083
:102A00002DE9FF4F1D460C468A46580700D001208D
:102A100000EBD500690810FB01F0203A00F0FF0937
:102A2000D0B20026DFF8A4B002904BE00C2D11D0FC
:102A3000102D14D0182D17D0202D45D124490298DF
:102A400001EBC0104FF00008875D380613D5214810
:102A5000026814E00298204900EB400008E01F499A
:102A6000029801EB0010EDE702981D4900EBC00051
:102A700001EB8000E6E70D9828B916484268214628
:102A80000098FFF79FFD7806070E641CBBF8020054
:102A9000A4B2A04218D9A4EB0A00A84209D1009818
:102AA0005446401C80B20090BBF8001081420BD904
:102AB00006E008F1010000F0FF08B8F1080FC4D3E8
:102AC000761CF6B24E45B1D3BDE8FF8F98130020B7
:102AD0006CA0000820000020AC880008208D0008B1
:102AE000109300082DE9F84F044600F0FF09101973
:102AF0000D46DDE90AB61FFA80F8581987B24FF083
:102B0000000A12E0444503D305EB0B004C4685B2A6
:102B1000BD420FD25B4629462046CDF800A0FFF704
:102B20006FFF04EB5B0084B2761C3278A2F12000C8
:102B30005E28E7D9BDE8F88F01B5BDF80000ADF813
:102B40000000BDF800004FF0D841A1F8800008BD9A
:102B500001B5BDF80000ADF80000BDF800004FF071
:102B6000D841A1F87E0008BD03484FF0D841008944
:102B7000A1F87E0070470000981300204FF0D84263
:102B800022F87E0F518070472DE9F04F8FB01C2145
:102B90006846FDF79AFC1C2107A8FDF796FC2E4815
:102BA00006210024C0E902141025C0E9044584610F
:102BB000C4614FF4805B0462C0E9094BA902C0E91B
:102BC0000B414463DFF894A084634FF020484464D1
:102BD000C0E9008A0F2602A900963C201127019621
:102BE00081E8B1000920CDE906400AA84FF00809A4
:102BF00080E8B0000D94CDE9086907AA6946164837
:102C0000FFF7E0F908B1FEF798FC134804215030B3
:102C10000022C0E90214C0E904458461C461046271
:102C2000C0E9094BC4620463446384634464C0E93B
:102C3000008A8DE8500203A8694680E8B000064883
:102C400006945030FFF7BEF9002801D0FEF775FC5E
:102C50000FB0BDE8F08F000038120020040100A082
:102C60002DE9F04387B014216846FDF72EFC3B4860
:102C70000025016841F010010160016801F01001B8
:102C80000591016841F004010160016801F004014F
:102C90000591016841F020010160016801F0200107
:102CA0000591016841F080010160016801F0800137
:102CB0000591016841F001010160016801F0010125
:102CC0000591016841F040010160016801F0400197
:102CD0000591016841F002010160016801F0020103
:102CE0000591016841F0080101600068DFF870801B
:102CF00000F008004FF4C0660590012231464046BE
:102D0000FEF7E3FDDFF85C904FF400470022394600
:102D10004846FEF7DAFD1C20CDE90005012469468E
:102D200002941148FEF7EEFCCDE900640226CDE9DD
:102D3000024669464046FEF7E5FC8DE870006946AC
:102D40000A48FEF7DFFC01AA009782E87000694696
:102D50004846FEF7D7FC07B0BDE8F08330380240A4
:102D60000014024000040240001002400000024033
:102D70001CB500240E4800940C49019401605321B5
:102D8000C0E9011401218461C160FFF793F908B122
:102D9000FEF7D3FB0094694605480194FFF742F91A
:102DA000002801D0FEF7C9FB1CBD00000014004044
:102DB000D81200200C4810B50A4901604FF4E131E7
:102DC0004160002181600C22C160C0E90412816170
:102DD000C161FFF7FDFA002803D0BDE81040FEF7FF
:102DE000ACBB10BD0010014018130020FEE70A46DE
:102DF000002100F001B8000010B500234FEA0304E1
:102E0000641C41EA0323042CFAD310F0030405D117
:102E10000BE000BF521E00F8011B641C002A0CD0FE
:102E2000042CF7D301E008C0121F042AFBD202E0F1
:102E300000F8011B521E002AFAD110BD70477047DE
:102E400002480068002800D0004770476800002052
:102E500010B5044600F0BEF8464800210A22017071
:102E6000454801704548017045480160454801608A
:102E7000454801704548017045480170454801606A
:102E80004548016045480160454801704548006873
:102E9000B0FBF2F0444A1060444A106830B1444834
:102EA000006818B1126802C0521EFCD1414801608E
:102EB000414801604148016041480160414801606A
:102EC00041480160414801604148017001F0D8FB70
:102ED00001F070FC204600F029FF2088002847D12F
:102EE000204601F0D7F92088002841D1204601F082
:102EF000F5F9208800283BD1204601F077FA208898
:102F0000002835D1204601F0E7FB208800282FD18A
:102F1000204601F073FD2088002829D1204601F0C9
:102F20008DFF2088002823D1204601F027F9208832
:102F300000281DD1204600F0CFFF2088002817D19F
:102F4000204602F025FB2088002811D1204601F000
:102F5000D3FE208800280BD1204602F06DFB20888C
:102F6000002805D100F0E0FEBDE81040FFF767BF84
:102F700010BD00007C0000207D000020C400002067
:102F8000180100201C010020AA000020AB00002036
:102F9000AC000020B8000020BC000020C0000020D1
:102FA000CC00002070D00008C800002048D00008E5
:102FB00044D000085C000020600000206400002075
:102FC000680000206C0000207000002074000020C9
:102FD000FA000020054806490068096800EB8100F6
:102FE000044920F0070008607047000044D0000842
:102FF00048D000082001002005480078012805D1AC
:1030000004490878FA2801D2401C08707047000073
:103010007D0000207C000020184810B500780128B1
:103020002BD1FDF731F904461548017801B3491E4B
:1030300011F0FF0101701BD112480078C0B901F0F6
:103040000DFB11490870114900EB400051F82010A8
:103050000F4801600F480068814209D051F8900F75
:10306000401C08600C480168491C0160FEF7E2F949
:103070002046BDE81040FDF70BB910BD7D000020D3
:103080007C000020C4000020AB000020F4D201200E
:103090001C01002018010020F0000020154810B588
:1030A0000078002824D114480078002820D1FDF7AA
:1030B000EBF8044601F0D2FA10490870104900EB11
:1030C000400051F820000F4908600F490968884204
:1030D00009D050F8901F491C01600C480168491C38
:1030E0000160FEF7A2F92046BDE81040FDF7D0B818
:1030F00010BD00007C000020C4000020AB000020B8
:10310000F4D201201C01002018010020F000002052
:1031100070B504461048007810B146F6625019E0C8
:103120000E480078012802D045F6896012E00C4D67
:103130002878FA2802D345F209200BE0FDF7A4F81D
:1031400006462878401C287001F0FAFB3046FDF74F
:103150009FF80020208070BD7C0000207D000020B2
:10316000C40000202DE9F04115460C460746FDF746
:103170008BF80B490026012F01D00E7001E00122CF
:103180000A7008490CB10C6005E0074A0A2312686E
:10319000B2FBF3F20A60FDF77BF82E80BDE8F08108
:1031A000CC000020C800002070D0000870B5044694
:1031B0001548007810B146F6655023E013480078B2
:1031C000012802D045F689601CE0114D287870B1C5
:1031D000FDF75AF806462878401E10F0FF002870C8
:1031E00008D03046FDF754F846F663500AE046F63C
:1031F000645007E001F0B2FB3046FDF749F8FFF7F5
:103200004DFF0020208070BD7C0000207D0000204C
:10321000C400002070B50F4D0446287818B145F65B
:103220008A60208070BD01F019FA0B4908700B49C3
:1032300008700B4900EB400051F820000949086074
:103240000949086001202870FEF7DEF843F699204E
:10325000E7E700007D000020AB000020AA0000206E
:10326000F4D201201C010020180100202DE9F041BA
:103270000646FDF709F8244900240C6023490C8018
:1032800023490C8023490C6023490C6023490C60BE
:1032900023490C6023490C81FCF7FAFFFCF7F4FF8B
:1032A00021490D6816E000BFFCF7EEFFC5F8B440F9
:1032B00045F8784F07462C63AC61AC82EC826C62B7
:1032C000AC62FEF733F945F8200FA5F13400848194
:1032D0006D6A3846FCF7DCFF002DE5D1FCF7D4FF22
:1032E00012490D6804E000BFFCF7CEFFAC85AD6964
:1032F000FCF7CEFF002DF7D102F07AF802F06AFA5F
:103300003480BDE8F0810000900000208A00002099
:10331000DA000020EC00002000010020080100205D
:10332000BC000020E8D20120F4000020B000002002
:10333000F8B5044669461E4800F080FBBDF8000061
:1033400028BB6A460021022000F0CEFBBDF8000039
:10335000E8B9FCF799FF174E00253560FCF798FF98
:10336000154916480A6803689A4202D9B2FBF3F07D
:1033700010B90A21B2FBF1F06A46002100F0B4FB5B
:1033800069460B4800F0A0F9BDF8000008B12080A4
:10339000F8BDFCF779FF0A490A4A0D6031681160EF
:1033A000094A01211170FCF773FF2580F8BD000068
:1033B0007CD70120DC00002070D0000858D0000825
:1033C000EC000020E0000020E80000200248006837
:1033D000002800D0004770476C0000202DE9FF4F07
:1033E00083B004466148DDE91785DDE91096007871
:1033F000DDF854A0139F10B147F24A102AE04CB1F7
:10340000059850B166B15A48006887420BD246F61B
:1034100030601FE047F2AD101CE047F24F1019E09A
:1034200046F62F6016E01298B84202D346F6316095
:1034300010E046F27320B9F1400F0BD25FEA0901A8
:1034400003D0B9F13F0F02D008E04A4900E04A49F1
:103450008C4203D0288007B0BDE8F08F204601F0F1
:10346000FDFC4FF0000BA5F800B05FEAC8700AD071
:103470005FEA887007D5304600215A4601E004C053
:10348000491CB942FBD31298CDE9007806EB8005C0
:10349000DDE905012B46324600F034FA0599A162B8
:1034A0000699E1620499216284F83790C4F854A027
:1034B000A56020605FEA0A003AD0A0651698A7636D
:1034C00066626060A4F83C800020594604EB8002EC
:1034D000401CD16710F0FF00F8D004F1640014998B
:1034E00000F03AFF204600F053F8FCF7CDFE234DE4
:1034F0002978491C2970FCF7CBFE94F8370001F0BD
:10350000CBF8204601F09CF9204601F069FC1C49EB
:103510000888401C08801B48007801281AD0FCF756
:10352000B3FE2978491E11F0FF01297003D00CE089
:1035300015480068C1E71549098831B1FCF7A8FEB4
:1035400007B0BDE8F04F01F0D9B907B0BDE8F04FC2
:10355000FCF79EBEFCF798FE2978491E2970FCF7FF
:1035600097FE07B0BDE8F04FFFF798BD7C00002044
:103570006CD0000824D2012060D10120C4000020BA
:10358000F80000207D000020C800002088000020F6
:1035900002490968002900D0084770475C000020F4
:1035A00070B504463D480E46007810B147F24E1003
:1035B0000AE03B48844202D147F24C1004E039480B
:1035C000844203D147F24D10088070BD2CB9FCF73E
:1035D0005BFE35490C68FCF75BFEFCF755FE334D8E
:1035E0002978491C2970FCF753FE94F83600082806
:1035F0003ED2DFE800F004080C0C1C080C0C20463E
:1036000001F052F913E0204601F0D6FE0FE020460B
:1036100001F0D2FE94F83400072808D2DFE800F069
:103620000704070404040400204600F08AFF04F1A4
:10363000640000F077FE204600F03EF8204601F0DE
:10364000E1FB1B490888401E0880204601F006FC6B
:10365000FF2084F83600FCF717FE2978491E2970F0
:10366000FCF716FE00203080BDE87040FFF716BD65
:10367000FCF70AFE2978491E11F0FF01297007D1D5
:103680000C49098821B1FCF703FE01F037F901E08C
:10369000FCF7FEFD46F62D60308070BD7C000020FA
:1036A00060D1012024D2012018010020C400002094
:1036B000F80000208800002002490968002900D095
:1036C00008477047600000207FB50D460446FCF7B0
:1036D000DBFD1CB1104909688C4205D1FCF7D8FD0F
:1036E00047F2571028807FBDFCF7D2FD0B480078C9
:1036F00058B10020CDE90205009003460246019032
:103700002146074800F01CFC7FBD04B02946204636
:10371000BDE8704001F086BC180100207C0000204C
:103720005452455302490968002900D008477047A0
:10373000640000202DE9F04782464A4814461E46A0
:103740000078884610B146F2AE1006E0080006D0B8
:10375000B1F5004F03D045F62560188035E000270D
:1037600004B12760FCF790FD3F4D81462968486C05
:10377000C8B1401E804648640CB1086C2060FDF75B
:10378000D5FE29680A6C801AC1F8A400D1F8A820D7
:10379000824201D2C1F8A8004846FCF779FD378083
:1037A0004046BDE8F0875FEA084005D54846FCF78B
:1037B0006FFD46F2B01007E02C48017839B1484659
:1037C000FCF766FD46F6635030800020E9E780464E
:1037D000012088F800004846FCF75AFD00215346B6
:1037E0000722084600F00EFEFCF74EFD98F8001088
:1037F000491E88F80010FCF74BFDFFF74FFCFCF763
:1038000043FD8046286890F8351031B1012916D063
:1038100003291AD046F62E601BE074B1006C2060BC
:10382000FDF784FE29680A6C801AC1F8A400D1F85B
:10383000A820824201D2C1F8A80037800AE00CB16A
:10384000006C206046F2A91003E004B1276047F243
:10385000D92030802868446C4046FCF719FD20468A
:103860009FE700007C00002018010020C400002019
:103870002DE9F0410546214816460F4600781C46C2
:1038800010B147F2591007E046F2D52027B11EB11A
:10389000FCF7FAFC1DB104E01880BDE8F08118497E
:1038A0000D684FF00008296841B195F83C10C90730
:1038B0000DD0FCF7EDFC0020696A14E0FCF7E8FC91
:1038C000C7F8008047F25210C6F8008007E0FCF706
:1038D000DFFCC7F8008047F25410C6F80080208053
:1038E000DBE7401C091D0A68002AFAD03860A96B82
:1038F000081A3060A4F80080CFE700007C000020A8
:103900001801002030B54FF48055039C02EB84026F
:1039100022F00702002442E90254152542F80C5C0B
:10392000142542F8105C132542F8145C122542F865
:10393000185C112542F81C5C102542F8205C092512
:1039400042F8245C082542F8285C072542F82C5CE4
:10395000062542F8305C052542F8345C042542F81F
:10396000385C032542F83C5C022542F8405C0125A6
:1039700042E912452C0642E914042F4842F8540C3F
:103980004FF0123042F8580CA2F15C004FF00334B3
:1039900040E90313312140F8101C302140F8141C79
:1039A000292140F8181C282140F81C1C272140F828
:1039B000201C262140F8241C252140F8281C242105
:1039C00040F82C1C232140F8301C222140F8341CE4
:1039D000212140F8381C202140F83C1C192140F8D6
:1039E000401C18214FF0023240F8441C172140F8C7
:1039F000481C162140F84C1C4FF0113140F8501C67
:103A0000D10040F8541C4FF0093140F8581C910087
:103A100040F85C1C4FF0073140F8601C610040F832
:103A2000641C4FF0053140F8681D5100C0E91924AD
:103A300040F8041D30BD0000E15000081FB5104AD9
:103A4000904202D147F25B1004E00E4A904203D14B
:103A500047F25C1008801FBD0B4A127852B1002259
:103A6000CDE902210146009213460192074800F079
:103A700067FA1FBD04B0BDE8104001F0C7BB0000ED
:103A800060D1012024D201207C00002054535553E2
:103A9000114810B5006800B18047FDF747FD0F4998
:103AA0000F4A09681268914209D0D1F89830C31AB8
:103AB000C1F89430D1F89C402344C1F89C30C2F83E
:103AC0009800084AD1F8B4301068834201D2C1F896
:103AD000B4000020106010BD70000020180100200C
:103AE0001C010020C00000202DE9F04107462648B7
:103AF0000E461546007810B147F2752030E0234C91
:103B0000207810B146F663502AE046B1022E06D066
:103B1000042E05D0082E02D045F6256020E0EFB136
:103B2000FCF7B2FB2178491C2170FCF7B1FBDFF8F0
:103B3000608001212B46D8F80000324680F836100C
:103B4000394601F0CDFB288868B1FCF79DFB217850
:103B5000491E2170BDE8F041FCF79ABB47F27E2078
:103B60001080BDE8F081D8F8000000F09DFEFCF761
:103B70008BFB2178491E2170FCF78AFBFFF78EFA38
:103B800000202880EDE700007C000020C400002019
:103B9000180100202DE9F0474B4EDDE90854367836
:103BA00016B147F2752088E0DFF820A19AF800608E
:103BB00016B146F6635080E015F00E0647F27E29F6
:103BC00045F6256705D0022E03D0042E05D0082E19
:103BD00006D113B90AB901B9F0B335F01E0C02D001
:103BE0002780BDE8F087C5F3001547F2792C47F22E
:103BF00078284FF47A7735B142F20F75A94211D97E
:103C0000A4F800C0EDE7BB4202D347F27B2054E0AA
:103C10003B2A02D947F27A204FE03B29F0D86328AB
:103C200002D804E0B84202D3A4F80080D9E7284DB6
:103C30004FF4FA7CC1EB01112D68BCFBF5FC634429
:103C40006B43B3FBF7F34FF46167784300EB8100FC
:103C5000104400FB053700E031E087B3FCF714FBAC
:103C60009AF800105546491C8AF80010FCF710FB22
:103C7000DFF8608001212346D8F80000324680F842
:103C80003610394601F02CFB208840B1FCF7FCFAD5
:103C90002978491E2970BDE8F047FCF7F9BAD8F831
:103CA000000000F001FEFCF7EFFA2978491E2970A8
:103CB000FCF7EEFAFFF7F2F90020208091E7FFE72A
:103CC000A4F800908DE700007C000020C4000020D4
:103CD00070D000081801002000B585B000F01CF875
:103CE000FDF724FC04AA002103920091CDE9011004
:103CF00006480749002300781A4600EB400001EB14
:103D00008001044800F01CF905B000BDAA000020A5
:103D1000F4D201205449434B02480068002800D0E7
:103D2000004770477400002070470000034A0021DC
:103D30001160034A11800180704700009400002048
:103D4000980000202DE9F0479A4690460D4604461B
:103D5000089FFCF799FA5FEA080120D0012907D0F3
:103D6000B1F5004F1BD06FF4004218EB020F11D1D8
:103D7000216AA943C4E9081A218A04F108064FF010
:103D8000000979B1374D2978491C2970FCF780FA70
:103D900036683FE0FCF77CFA45F625605EE0216A74
:103DA0002943E7E7FCF774FAA7F80090206ABDE81A
:103DB000F08790F88810766801F00F01012918D07B
:103DC00002291ED004290AD008290DD0FCF75CFA7C
:103DD0002978491E11F0FF01297033D03AE0216A99
:103DE000D0F88020114009E0216AD0F880201140ED
:103DF0000BE0D0F88010236A0A4699438A4205D026
:103E000007E0D0F88010226A914311B1524600F0C9
:103E10002DF816B1B0680028CBD1FCF735FA297817
:103E2000491E2970FCF734FA5FEA084001D4FFF715
:103E300035F9FCF729FA246AFCF72AFAA7F800906A
:103E40002046B4E70849098821B1FCF721FA00F0BF
:103E500055FD01E0FCF71CFA43F6FF2038800020F6
:103E6000A5E70000C40000208800002070B50025F0
:103E7000C0F8841080F8355080F83450044602644D
:103E800090F8360008280ED2DFE800F00D0D04048B
:103E90000D0D0A0A204601F0B7F884F8365002E00A
:103EA000042084F836002046BDE8704000F049BB8D
:103EB000074C084DFCF7E8F92168491C2160296886
:103EC000491C2960FCF7E4F9FEF7BAFFF2E70000AD
:103ED00078000020DC00002000B50E4A89B00021E7
:103EE00011600B2205910691CDE907200A480B4A83
:103EF0000B4B006812681B680292CDE903013F205A
:103F0000CDE900030023074A07A10C48FFF766FA32
:103F100009B000BD7800002024D0000820D000089F
:103F20001CD00008B13E000875432F4F532D49495E
:103F3000492049646C65205461736B0060D1012095
:103F40002DE9F05F1E46DDE90AAB90460F4681463B
:103F50000D9CFCF799F905461C481D4A01881288FA
:103F600091422BD2491C89B201801A4802888A42A8
:103F700000D2018018490868C0F80090C0E90278B2
:103F80000682C0F814A0A0F818B00C9AC26140686C
:103F9000086012480121018111490160416000203F
:103FA00000F07AFB0F48007808B10F490870002034
:103FB00020802846BDE8F05FFCF76AB90B49088805
:103FC000401C088044F25360F2E7000088000020A3
:103FD00014D000088A00002080000020F4D20120C4
:103FE00024D20120AA000020AC0000208C00002078
:103FF0003EB5374C374B02A920680268D51A9A4261
:1040000045D015DC344BD2182DD0344BD21822D0E9
:10401000334BD21832D0334BDA4208D1C269CDE9E2
:104020000021038B028AC168806800F077FF3EBDE3
:104030002D4AAA181ED02D4BD21824D02C4BDA4270
:10404000F5D1C269CDE90021038B028AC16880687D
:1040500000F04EFB3EBD0091028BC3694169806850
:10406000FFF770FE3EBD018BC269806802AB00F0B5
:10407000D1FC3EBD806800F0D5FF3EBD018BC2691A
:10408000806802AB21E0806801F0C0F83EBD1948AD
:104090001949007800EB400001EB800000F07CFC47
:1040A000206802AB0021C269144801F025F81448C9
:1040B0000168491E0160E9D1124909680160FDF7F4
:1040C00035FA024602AB00210F4801F015F83EBD5B
:1040D000840000205449434BADBAB2BE0DF90BFA2F
:1040E000F2F8F7FF0006F6FF00F7FDF700FFEFFF1D
:1040F00003FE0FFEAC000020F4D20120B8D6012050
:1041000014010020100100207CD70120174D184C0D
:10411000184E00BFFCF7B8F807462088C8B13846EB
:10412000FCF7B6F8FDF702FA0746FFF761FFFDF767
:10413000FDF92968C01B814200D22860FCF7A4F871
:104140003168496831602188491E2180FCF7A0F858
:10415000E0E70949002008810860486000F0ACFAF7
:104160003846FCF795F8FEF799FFD1E7900000205C
:104170008800002084000020F4D20120F0B52F49EF
:104180002F4D89B000220A80296831B12D4E318827
:10419000022905D244F2546135E044F2526132E022
:1041A00029490023294F0A60296801F1200410E001
:1041B00041F8087B5B1C41F8082B9BB241F8042CAA
:1041C00021F8102B41F80C2C21F8082C41F81C4C3C
:1041D0002034B6F800C06345EAD32B6841F81C3C94
:1041E0001B490B601B490B601B490A801B490A8055
:1041F0001B490B6853B11B4B1B4D1C682D68AC420F
:1042000007D244F25661018009B0F0BD44F2556115
:10421000F9E7032405920692CDE907401868134B8D
:1042200009681B68CDE903020092CDE90113002360
:104230000F4A10A11648FFF7D1F8E5E78C000020DF
:104240002CD0000814D00008900000204E4F4E459E
:104250008000002084000020880000208A000020C8
:1042600034D000083CD000086CD0000838D00008DA
:104270000D41000875432F4F532D4949492049539B
:1042800052205175657565205461736B0000000004
:1042900024D20120034A00211160034A11800180C9
:1042A000704700009C000020A000002010B5491EAF
:1042B0008CB2002200F11003114608E0E0E8023160
:1042C000521C20F8081B92B240F8041C1033A24282
:1042D000F4D3016041600181C16010BD70B50E4E24
:1042E0000446306880B10D4D288880B181B23068B5
:1042F000FFF7DCFF0A4831680160298881800021CE
:10430000C1800181218070BD45F21E7001E045F23F
:104310001D70208070BD000054D0000816D0000829
:10432000E8D2012010B5428992B10A4903680C68AD
:104330001C6043680B60CB8844891B1BCB808B8837
:10434000448923448B800021418181810160416047
:10435000104610BDE8D201200181002141818181F8
:104360000160416070470000F0B54489DDE905E770
:104370000589AC4202D346F293501EE01A4DAE8836
:10438000CEB12C68761ED4F800C0C5F800C0AE804F
:10439000EE88761CB6B2EE80B5F808C0B44500D2FF
:1043A0002E814689002556B1DB060CD403681C60BB
:1043B000256004600AE045F21D703880F0BD04609D
:1043C0000123446004E043682360446043895B1C2C
:1043D000438186899BB29E4200D2838161602281A3
:1043E000C4F80CE03D80F0BDE8D20120034A002172
:1043F0001160034A1180018070470000A400002072
:10440000A80000202DE9F041114D07460C46286810
:104410000026194680F8342080F8356000F0CAFC88
:1044200064B1FC6004F1080601223946286800F0F6
:1044300011F83946304600F057F802E02868C68780
:10444000066320462968BDE8F04100F01BB8000073
:104450001801002010B5C2870024234601630EE036
:104460004B6041F8103B641C41F8103BA4B241F88A
:104470000C3C21F8083C41F8043C41F8180C9442EB
:10448000EED310BD38B14268C1F8C0208168896898
:10449000096AC161704791F83400022803D00728E7
:1044A00003D004A002E004A000E005A0C1F8C00011
:1044B00070470000200000005461736B2051000021
:1044C0005461736B2053656D0000000005A2C1F8B4
:1044D000C020816811B18968096A00E001A1C16149
:1044E000704700002000000030B58A68002392F871
:1044F000374002891AB1521C028102680BE0012286
:1045000002814B600B60016014E0956895F83750AC
:10451000A54203D85268002AF7D107E032B11468E7
:1045200054B1C1E900426160116030BD4B60426826
:104530000A605160416030BD1160C1E90032016024
:1045400030BD70B50646C48F056B07E0E8682946A4
:10455000083000F009F8641EA4B22035002CF5D113
:104560000020F087306370BD10B502890023012A56
:104570000BD00A6862B14C6874B154602260028941
:10458000521E02814B600B6010BD03604360F6E772
:104590004A6813600260F2E753604260EFE7F8B5E3
:1045A0000C46064691F836100025069808293BD29D
:1045B000DFE801F03A3A04043A3A202094F8341043
:1045C000032911D0E265A4F86030206436B120469A
:1045D000FFF7B7FF21463046FFF778FF204600F08F
:1045E00013FD84F836501BE000902146304600F061
:1045F00022F8EBE794F83410032916D0E265A4F80A
:1046000060302064204600F0D7FE36B12046FFF728
:1046100098FF21463046FFF759FF042084F8360002
:1046200084F8355084F83450F8BD00902146304667
:1046300000F001F8E6E770B50C6B049DC98F0AE045
:10464000E668864204D1C4E904022383E56170BDB3
:10465000491E89B220340029F2D170BD10B5002462
:10466000064802E02034E4B2001D01680029F9D0B8
:104670000846FBF714FE2044C0B210BD54000020D1
:1046800000200449024600BF41F82020401C0228B7
:10469000FAD370475400002000F01F0241090120A6
:1046A000C2F11F029040034A52F82130034342F8FE
:1046B000213070475400002000F01F024109012002
:1046C000C2F11F029040034A52F82130834342F85E
:1046D0002130704754000020034A00211160034A32
:1046E0001180018070470000B0000020B40000205D
:1046F0002DE9FF4F83B01F46DDE9109A9346064629
:10470000FBF7C2FD294C2178491C2170FBF7C0FD45
:10471000358A06F108001DB1B90525D5006831E0DC
:10472000F80601D4002300E01023CDE9009A5A4690
:1047300006F120000499FFF717FEFBF7A5FD21788D
:10474000491E11F0FF01217009D11949098831B1C1
:10475000FBF79EFD07B0BDE8F04F00F0CFB807B003
:10476000BDE8F04FFBF794BD006801255B46D0E93A
:104770000181CDF800903046049AFFF710FF6D1EBE
:104780004046ADB2002DF1D1FBF77EFD2178491EE8
:104790002170FBF77DFD380401D4FEF77FFC00217A
:1047A000AAF8001007B0BDE8F08F0000C400002098
:1047B000880000200020074B014600BF00EB4002AC
:1047C00003EB8202401C11811160C0B2516040288D
:1047D000F4D37047F4D2012010B5044690F83700A6
:1047E000FFF75AFF074994F83700097888422046B6
:1047F00003D1BDE8104000F023B8BDE8104000F040
:1048000003B80000AA00002090F837100B4A01EB13
:10481000410102EB810100220B8943B15B1C0B813A
:104820000B68C0E903320A68106108607047012311
:104830000B81C2600261086048607047F4D20120B9
:1048400090F837100A4A01EB410102EB8101002286
:104850000B893BB15B1C0B81C2604A680261D0606E
:104860004860704701230B81C26002610860F7E76E
:10487000F4D2012010B50289002A14D0012A12D0E6
:104880000021022A07D0D0E90024D3681961C2E9C7
:104890000314E26005E0D0E90023C2E90313C3E991
:1048A0000321C0E9003210BD70B5054690F837000D
:1048B000114900EB400001EB8001D5E9030200241F
:1048C00042B10B895B1E0B81D06090B102612C61FB
:1048D000EC6070BD28B10A89521E0A81046108602B
:1048E000F5E70C810C604C6095F83700FFF7E4FEAB
:1048F000EDE74A60EBE70000F4D2012010B5FBF7CA
:10490000C3FC0B490446002008700B4809490160AC
:1049100051F8900F401C086008480168491C01606C
:10492000FCF783FD2046BDE81040FBF7B1BC00005A
:10493000AB00002024D201201C010020F000002048
:10494000044810B50078012803D1FCF7EFFD0249B7
:10495000086010BDC4000020B80000200A4810B54F
:10496000007800280ED1FCF7E1FD08490968401ADB
:1049700007490A68824200D2086006490A688242F2
:1049800000D2086010BD0000C4000020B800002064
:10499000BC000020C000002070B504461348007819
:1049A000012822D1FBF770FC2168054641B110486F
:1049B000814218D08A6D3AB1521E8A6513D103E044
:1049C000BDE87040FBF764BC208902280BD309487E
:1049D000007840B92046FFF74DFF2068416D09B9C6
:1049E0000549096881652846EAE770BDCC000020CA
:1049F00060D10120C4000020C8000020034A00212B
:104A00001160034A1180018070470000D00000202F
:104A1000D40000202DE9F84F1E46904689460446F2
:104A2000FBF732FC0146208A04F108074FF0000B27
:104A300078B1DFF890A008469AF80020521C8AF856
:104A40000020FBF725FC5FEA895018D53D893F68B7
:104A500022E0256A681C0AD06D1CC4E90858084683
:104A6000FBF716FCA6F800B02846BDE8F88F08460C
:104A7000FBF70EFC46F6C55030800020F5E73F6896
:104A800001250023B9687F681A462046CDF80080CA
:104A9000FFF785FD6D1EADB2002DF2D1246AFBF744
:104AA000F3FB9AF80020521E8AF80020FBF7F0FB77
:104AB0005FEA094001D4FEF7F1FAA6F800B02046FB
:104AC000D3E70000C40000201CB57A4C7A4E206861
:104AD000450004E028466A460021FFF705F83078D3
:104AE0000128F7D16846FEF7C1FB744822680168C7
:104AF000914204D9B1FBF2F15FEA010903D10068E8
:104B00000A21B0FBF1F9DFF8B8B1DFF8B88142F261
:104B1000107A0026FCF70AFD0190FBF7B5FB6A4905
:104B20006A4C0A6822600E60FBF7B2FB6848236893
:104B300002689A422BD96748824202D2504601212C
:104B400015E06548824203D24FF47A700A210EE0E4
:104B50006248824202D26420014608E060488242F4
:104B600003D20A204FF47A7101E001205146B2FBD2
:104B7000F1F15843B0FBF1F1AAEB0100594980B2C1
:104B8000ABF800000A88824203D2088001E0ABF84B
:104B900000A0FEF71BFC0024FBF776FBD8F80050C2
:104BA00024E000BFFBF770FB4F4F3978491C397088
:104BB000FBF76EFBD5F89C00C5E92760FBF764FBAB
:104BC0003978491E11F0FF01397007D1474909882A
:104BD00021B1FBF75DFBFFF791FE01E0FBF758FB0E
:104BE00055F8A00F0444FBF74FFBED69FBF750FBB2
:104BF000002DD7D1F4B13748844202D25546012066
:104C000015E03548844203D24FF47A750A200EE04D
:104C10003248844202D26425284608E03048844263
:104C200003D20A254FF47A7001E001255046B4FB07
:104C3000F0F701E000250127FBF726FBD8F800403C
:104C40001CE000BFD4F8A0006843B0FBF7F080B2CE
:104C5000504500D95046A4F88C00B4F88E1081421B
:104C600001D2A4F88E0004F1AC026B46111D20465F
:104C7000FEF7FEFDFBF708FBD4F8BC40FBF708FB92
:104C8000002CDFD11A480178012903D1067068464B
:104C9000FEF7ECFAFCF74AFC0199401A15490A683C
:104CA000824200D208606A4600214846FEF71CFF97
:104CB00030E7000058D00008E800002070D000085D
:104CC000D8000020F4000020DC000020E4000020D8
:104CD000E0000020801A060000093D00005A620230
:104CE0000084D717DA000020C400002088000020CC
:104CF000D6000020EC00002030B51D4A89B000210C
:104D000011601C4A11601C4A11601C4A11701C4A37
:104D100011701C4A136843B11B4B1C4D1C682D6855
:104D2000AC4205D246F62C6108E046F62B6105E060
:104D3000174C25783F2D04D346F62A61018009B02F
:104D400030BD032505910691CDE9075011481B6838
:104D500012680068CDE90120CDE903312078009088
:104D600000230D4A0DA11248FEF738FBE7E70000CB
:104D7000DC000020E4000020E0000020E80000202B
:104D8000D60000205CD0000864D000086CD0000879
:104D900010D0000860D00008C94A000875432F4FA2
:104DA000532D4949492053746174205461736B0039
:104DB000F4D5012038B50446022531B16B460222F4
:104DC00000F08EFABDF8000028B184F83650204675
:104DD000FFF76AFD38BD032084F83600F7E70000CE
:104DE000074B0022C0F8B820196829B1C0F8BC10E0
:104DF000C1F8B80018607047C0F8BC20FAE700009E
:104E0000F4000020D0E92E2100234AB181B1C2F87C
:104E1000BC10C1F8B820C0F8BC30C0F8B83070473A
:104E2000054A116009B1C1F8B830C0F8BC3070470C
:104E3000C2F8BC30F1E70000F4000020044A002171
:104E40001160044A1180044A11600180704700001B
:104E5000F4000020F8000020F000002070B50025CC
:104E6000056085604560C5600561456104468561F2
:104E700027A0C4E907506562A562E5622564E5657F
:104E8000A4F86050294604F16400FFF765FA6567ED
:104E9000A567C4F88050A4F888500020C4F8845056
:104EA00004EB8001401CCD6710F0FF00F8D0656472
:104EB000C4F8A450C4F8A850A56384F88A50C4F874
:104EC000B050C4F8AC50A5874FF00040C4E91205BB
:104ED00025656565A565A4F88C50A4F88E50C4F8C6
:104EE0009050C4F894503434FCF720FBC4E9190501
:104EF000C4F8805004F8015B402004F8015B04F81A
:104F0000015B04F8810B04A020C4C4E9005070BD0B
:104F10003F5461736B000000200000002DE9FC5F2E
:104F20009946DDE90C7692468B460546FBF7ACF9CF
:104F3000324C2178491C2170FBF7AAF90DB9304891
:104F400005680020308095F83600DFF8B880082822
:104F50003CD2DFE800F004041E1E04041E1ECDE94E
:104F600000764B465246594605F16400FFF7FCF9BE
:104F7000FBF78AF92178491E11F0FF01217021D138
:104F8000B8F80010F1B1FBF783F9BDE8FC5FFFF75B
:104F9000B5BC95F834000228E1D153465A4629465B
:104FA00000200097FFF7FBFAFBF76EF92178491E06
:104FB0002170FBF76DF95FEA09401CD4BDE8FC5F86
:104FC000FEF76CB8BDE8FC5FFBF762B9FBF75CF974
:104FD0002178491E11F0FF01217007D1B8F80010A7
:104FE00021B1FBF755F9FFF789FC01E0FBF750F918
:104FF00046F62D603080BDE8FC9F0000C400002014
:10500000180100208800002010B5044600F0D4F9F3
:1050100094F83600400704D42046BDE81040FFF75E
:10502000DBBB10BD70B50D460446FBF72DF900261D
:105030002E8094F8361008294AD2DFE801F00404E3
:1050400004040A23333DFBF723F947F25310288069
:1050500024E0224D2978491C2970FBF719F994F8AE
:105060008A00401E10F0FF0084F88A0004D184F802
:1050700036602046FFF7C8FFFBF706F92978491E7E
:10508000297009E094F88A10491E11F0FF0184F894
:105090008A1001D1012118E0FBF7FAF8BDE8704051
:1050A000FDF7FCBF94F88A10491E11F0FF0184F847
:1050B0008A10F1D1022108E094F88A10491E11F0FB
:1050C000FF0184F88A10E7D1032184F83610E3E762
:1050D000FBF7DEF846F62D60288070BDC400002086
:1050E000044808B50068FEF71DFB69460020FEF77E
:1050F00057FA08BD180100202DE9F84F98461546CB
:105100008A460646FBF7C0F83D4C2178491C2170C1
:10511000FBF7BEF80EB93B48066800203A4F3564ED
:10512000A8F8000096F8360046F6C55908284ED271
:10513000DFE800F02626222226262222FBF7A8F806
:10514000FFF7DCFB02E000BFFBF7A2F8A8F8009035
:105150000020BDE8F88F6D1C7564FBF795F8217889
:10516000491E11F0FF0121702ED1398861B3FBF780
:105170008FF8FFF7C3FB40E096F8340007280ED005
:10518000756C681CE7D1FBF77FF82178491E11F098
:10519000FF012170D8D139880029D5D0CEE700236E
:1051A0001A46314618460095FFF7F9F9756CFBF77A
:1051B0006BF82178491E2170FBF76AF85FEA0A4014
:1051C0001BD4FDF76BFF18E0FBF762F815E0FBF767
:1051D0005BF82178491E11F0FF01217006D1398852
:1051E00021B1FBF755F8FFF789FB01E0FBF750F819
:1051F00046F62D60A8F8000000252846A9E7000023
:10520000C400002018010020880000202DE9F04192
:105210000F460446FBF738F8244904B90C680968BE
:10522000234D8C4206D1297821B1FBF731F846F69F
:10523000635038E00021398094F83610012608299F
:105240002DD2DFE801F004171F212727272729780F
:10525000491C2970FBF71CF8042084F8360084F8F8
:105260008A602046FFF720FBFBF70EF82978491EDD
:10527000297001E0052108E0FBF70AF8BDE8F041DC
:10528000FDF70CBF062100E0072184F8361084F8F2
:105290008A60F1E714F88A1F491C2170ECE7FAF7DD
:1052A000F7FF46F62D603880BDE8F0811801002038
:1052B000C400002010B500200146074C074B06E053
:1052C00004EBC002401C11609180D18080B21A882A
:1052D0009042F5D310BD000050CE012018D0000838
:1052E000F0B5324C47F27E2625680024042A08D007
:1052F000B1B32E4E082A36680E440BD0C0E91361B4
:1053000015E04A1B521E12F5803F2AD8521CC0E9F4
:1053100013120CE0826C0A44571B7F1E8F4201D28D
:10532000C26400E0C664C16C4A1B02658164204A05
:10533000C16C1288B1FBF2F602FB16111D4A89B24C
:1053400002EBC102918889B11168F1B1CE6C761B74
:105350000E65076DB74212D94E6966B13146F5E761
:10536000FFE7C4640465C4611E80F0BD44618461CC
:10537000012110600BE0C0E90541486105E08D693D
:1053800075B1C0E90515686188619188491C9180F3
:10539000D58889B28D4200D2D180C2611C80F0BD17
:1053A000C0E9051488611060EFE70000FC000020F0
:1053B00018D0000850CE012010B5C269002A15D0BF
:1053C000002101651368834204D14369136033B13E
:1053D000996104E0D0E90534636103B19C614161E6
:1053E0008161C161C1649088401E908010BD000041
:1053F00010B500200446064B064A04E003EBC0014A
:10540000401CCC8080B211888842F7D310BD0000C8
:1054100050CE012018D000082DE9F05FFAF734FFD4
:105420004B4D2978491C2970FAF732FFFCF77EF8BA
:10543000DFF8208107464849D8F800004FF00009FE
:10544000401CC8F8000009884FF0030AB0FBF1F2D5
:1054500001FB1200414980B24FF0040B51F830407B
:10546000DCB394F836006669082851D2DFE800F012
:105470005004501150285036E06CD8F80010421AF1
:105480002265884246D184F836902046FFF7BCFD5D
:105490003EE0E06CD8F80010421A2265884239D10B
:1054A000C4F85C90A4F86090FCF740F820642046B3
:1054B000FFF747F82046FFF7A7FD84F8369023E072
:1054C000E06CD8F80010421A2265884222D184F894
:1054D00036B02046FFF770FF1AE01BE0E06CD8F80A
:1054E0000010421A2265884214D1C4F85C90A4F8D6
:1054F0006090FCF71BF820642046FFF722F8204656
:10550000FFF75AFF84F836B084F835A084F8349059
:105510003446A5E7FCF70AF81149C01B0A68824225
:1055200000D20860FAF7B0FE2978491E11F0FF0199
:10553000297008D10B49098829B1FAF7A9FEBDE8FD
:10554000F05FFFF7DBB9BDE8F05FFAF7A1BE00003E
:10555000C4000020FC00002018D0000850CE01201C
:1055600000010020880000201CB5084C00216B467B
:1055700001AA0846FEF7DEF8BDF800000028F5D1C4
:1055800020780128F2D1FFF747FFEFE77D000020E8
:1055900030B504461A4889B00025056019480560F1
:1055A000FFF788FE1848016841B11849184B0A688E
:1055B0001B689A4205D247F2132008E047F21220F6
:1055C00005E0144A13783F2B04D347F211202080C2
:1055D00009B030BD0B2305950695CDE907340E4B78
:1055E000096800681B68CDE90103CDE9031510784F
:1055F00000900023094A0AA10E48FDF7EFFEE7E7F5
:10560000FC0000200001002074D000087CD00008BD
:105610006CD0000811D0000878D000086955000847
:1056200075432F4F532D494949205469636B2054CA
:1056300061736B00B8D6012030B52A4A89B00021C9
:10564000294B1160294C2A4A1D681DB12468B4FBFE
:10565000F5F303E023680A24B3FBF4F313601A465E
:10566000244B274D274C1A60234A1160234A1160AE
:10567000002206E005EBC203521C9980D98092B249
:10568000196023889A42F5D31F4B1A6842B11F4A0A
:105690001F4D14682D68AC4205D247F2483108E02E
:1056A00047F2473105E01B4C25783F2D04D347F2E4
:1056B0004631018009B030BD0B2505910691CDE939
:1056C00007501068144A1B681268CDE90301CDE940
:1056D0000132207800900023104A11A11648FDF7EE
:1056E0007DFEE7E70401002088D0000870D00008A4
:1056F00010010020140100200C01002008010020EE
:10570000D8D001201AD000088CD0000894D000080E
:105710006CD0000812D0000890D00008FD57000897
:1057200075432F4F532D4949492054696D657220A7
:105730005461736B000000007CD7012070B5022219
:1057400080F82A20204A012914681ED0016AE1B19C
:105750001E4A214481611288B1FBF2F302FB13124D
:105760001B4B92B203EBC202002315687DB1091BEB
:10577000C1611168D1B18D692D1BCD61C669AE4281
:105780000ED90D6945B12946F5E7416AE0E70361A5
:105790004361106001200BE0C0E90431086105E0BD
:1057A0004C6964B1C0E90414206148619088401CD0
:1057B0009080D18880B2814200D2D08070BDC0E993
:1057C000041348611060F1E70C0100201AD00008B2
:1057D000D8D0012010B500200446064B064A04E04C
:1057E00003EBC001401CCC8080B211888842F7D303
:1057F00010BD0000D8D001201AD000081CB5DFF879
:105800009090DFF890A0244DDFF890B000216B4617
:1058100001AA0846FDF78EFF6846FDF779FCFBF705
:1058200085FE064628684FF00308401C2860B9F83A
:105830000010B0FBF1F201FB120080B25AF83040C8
:10584000C4B1A06929682769884213D1204600F0B5
:1058500027F8208D022808D084F82A80A26812B187
:105860002046E16890473C46EAE701212046FFF7E1
:1058700065FFF3E7FBF75AFE841B6846FDF796FCCD
:10588000DBF80010A142C1D2CBF80040BEE7000017
:105890001AD00008D8D001200C01002008010020F7
:1058A00010B5104A81691288B1FBF2F302FB1311A3
:1058B0000D4A89B202EBC1020023146801698442D7
:1058C00003D1116029B14B6103E04469216101B149
:1058D0004C61012180F82A10036143619088401EC9
:1058E000908010BD1AD00008D8D0012070474FF02A
:1058F000E0210428086903D020F004000861704703
:1059000040F00400FAE70000064810B500780128CE
:1059100007D1FDF771FBFEF7DFF9BDE81040FDF799
:105920007BBB10BD7D00002030B593B030216846B0
:10593000FAF7CBFD14210CA8FAF7C7FD194800258A
:10594000016841F080510160006800F080501190C2
:105950001548016841F4804101600068022400F4A8
:105960008040119001200090000401908001CDE959
:10597000064008AA0420A82182E813000B9068467C
:10598000FCF772F90CA90F2081E831004FF4A05008
:105990000F90E002109005210CA8FCF755F813B009
:1059A00030BD0000403802400070004005480168EA
:1059B00041F47001016003494FF0006080390860D4
:1059C0007047000088ED00E02DE9F05F3220FBF722
:1059D00033FED320FDF7BCF8FCF782FEFE4CA0801E
:1059E000FCF77EFEA080FCF77BFE4FF6FF7909EA0C
:1059F0000020A080FCF774FEA18849F241360843DC
:105A0000A08045F2103745F2105541F66318B042B8
:105A100047D0D420FDF79CF8FCF762FEA080FCF78D
:105A20005FFEA080FCF75CFE09EA00204A46A080E9
:105A3000FCF756FEA1880843A080B84231D04FF44D
:105A40005A40FDF785F8FCF74BFEA0804FF45B4011
:105A5000FDF77EF8FCF744FE02EA0020A0804FF438
:105A60005C40FDF775F8FCF73BFEA1880843A08079
:105A7000B0F5004F7DD0A84213D0A120FDF768F803
:105A8000FCF72EFEA080FCF72BFE02EA0020A0808F
:105A9000FCF726FEA1880843A0F5AE41A08061393D
:105AA00068D080B2B04266D1CF20FDF751F8002017
:105AB000FDF742F8C120FDF73FF83020FDF73CF834
:105AC000ED20FDF745F86420FDF736F80320FDF7DB
:105AD00033F81220FDF730F88120FDF72DF8E8208B
