:020000040800F2
:1000000080AE01209D010008431B00080912000872
:10001000411B00089504000815420008000000007C
:10002000000000000000000000000000471B000866
:100030009704000800000000451B0008491B000849
:10004000B7010008B7010008B7010008B7010008B0
:10005000B7010008B7010008B7010008B7010008A0
:10006000B7010008B7010008B7010008B701000890
:10007000B7010008B7010008B7010008B701000880
:10008000B7010008B7010008B7010008B701000870
:10009000B7010008B7010008B7010008B701000860
:1000A000B7010008B7010008B7010008B701000850
:1000B000B7010008B7010008B7010008B701000840
:1000C000B7010008B7010008B7010008B701000830
:1000D000B701000809420008B7010008B70100088D
:1000E000B7010008B7010008B7010008B701000810
:1000F000B7010008B7010008B7010008B701000800
:10010000B7010008B7010008B7010008B7010008EF
:10011000B7010008B7010008B7010008B7010008DF
:10012000B7010008B7010008B7010008B7010008CF
:10013000B7010008B7010008B7010008B7010008BF
:10014000B7010008B7010008B7010008B7010008AF
:10015000B7010008B7010008B7010008B70100089F
:10016000B7010008B7010008B7010008B70100088F
:10017000B7010008B7010008B7010008000000003F
:10018000B7010008B7010008DFF80CD000F070F9E3
:10019000004800475542000880AE012006488047CD
:1001A00006480047FEE7FEE7FEE7FEE7FEE7FEE75C
:1001B000FEE7FEE7FEE7FEE7D11B00088901000825
:1001C0002DE9F05F0546002092469B46884606468C
:1001D000814640241BE0284641464746224600F01F
:1001E000D9F853465A46C01A914110D311461846C1
:1001F000224600F0C0F82D1A67EB01084F46224650
:100200000120002100F0B7F817EB00094E41201E35
:10021000A4F10104DFDC484631462A464346BDE8E6
:10022000F09FD2B201E000F8012B491EFBD27047CB
:100230000022F6E710B513460A4604461946FFF7B2
:10024000F0FF204610BD2DE9FE4F81EA030404F0C3
:10025000004421F0004100944FF0000B23F00043D4
:1002600050EA01045ED052EA03045BD0C3F30A549F
:10027000C1F30A552C44A4F2F3340194A0FB0254B8
:10028000C1F3130141F48011C3F3130343F480134A
:1002900001FB024400FB034E840A970A44EA81549E
:1002A00047EA8357A4FB076802958D0A05FB07857B
:1002B0004FEA932C04FB0C542705029D4FEA065885
:1002C00047EA1637B5EB08056EEB070C870E920E62
:1002D00047EA811742EA8312A7FB0201B6EB0B0142
:1002E00064EB00042B0D43EA0C335E1844EB1C5006
:1002F000DA465146E7FB0201C5F313044FEA0B331C
:1003000043EA14534FEA0432019C43EA0603A4F182
:100310000C040294009CCDE900B400F05AF803B03C
:10032000BDE8F08F00200146F9E70EB540F23341F9
:1003300002910021CDE900110A460B4600F049F870
:1003400003B000BDC1F30A5210B5C1F3130140F26E
:10035000FF3341F480119A4201DA002010BD40F2CF
:1003600033439A42A2F2334203DC524200F012F8C5
:1003700010BD904010BD202A04DB203A00FA02F1A3
:10038000002070479140C2F1200320FA03F3194383
:1003900090407047202A04DB203A21FA02F0002125
:1003A000704721FA02F3D040C2F120029140084385
:1003B0001946704710B5141E73F1000408DA401C8A
:1003C00041F1000192185B411A4301D120F0010074
:1003D00010BD2DE9F04D92469B4611B1B1FA81F264
:1003E00002E0B0FA80F220329046FFF7C4FF0446E4
:1003F0000F4640EA0A0041EA0B0153465A460843B9
:1004000013D0114653EA010019D0C8F140025046FA
:10041000FFF7C0FF05460E46504659464246FFF7D5
:10042000AAFF084305D0012004E020463946BDE874
:10043000F08D0020054346EAE0762C4337430A98C6
:100440006305E40AA0EB08000022FD0A44EA4754D1
:100450000A3002D500200146E9E70105101969417B
:10046000DDE9084500196941BDE8F04DA2E700004B
:10047000064C074D06E0E06840F0010394E80700F1
:1004800098471034AC42F6D3FFF782FEB88A0008D2
:10049000D88A0008FEE770477047000070B5B3F5D2
:1004A000804F05D06FF0704140F82210002070BDE1
:1004B00050F82240084B8E891C40D1E9003543EAB0
:1004C00005138D6889692D0245EA06452B430B43C8
:1004D000234340F82230E9E70000F0CFF0B50C6884
:1004E00050F82430114A1340D1E90125D1E90367BE
:1004F0002A433E4332434E6932438E693243CE69CA
:1005000032430E6A32434E6A32438E6A3243CE6AB7
:100510003243CE6B096B32430A431A43082D01D193
:1005200042F0400240F824200020F0BD8000F0FF9F
:1005300030B500EB820250688D8900F04043D1E96C
:10054000000440EA04108C68240244EA0544204375
:100550000C8A074D05EB045420430C7D6D0105EB1F
:10056000046489692043084318435060002030BD6B
:100570000000F0FF90F83510022903D0802141657A
:1005800001207047052180F835100068016821F0CE
:10059000010101600020704770B5044600F044F985
:1005A0000546601C02D004480078044400F03CF981
:1005B000401BA042FAD370BD08000020F0B587B000
:1005C00014216846FFF734FE2048016800293AD11B
:1005D000012101601E480024016841F00101016011
:1005E0000068022500F0010005904FF23F00CDE9C0
:1005F000000502AA03260C2782E8D00069461548A8
:1006000000F030F841F23F40CDE9000502AA69460A
:1006100082E8D000104800F025F84FF68370CDE94D
:10062000000502AA694682E8D0000C4800F01AF8DA
:100630004FF63370CDE9000502AA694682E8D00082
:10064000074800F00FF807B0F0BD000000000020E0
:1006500038380240001402400018024000100240E6
:10066000000C02402DE9F84F00224FF0010803254D
:100670004FF00F0E0B6808FA02F42340A3426ED12C
:100680004E68012E05D0022E03D0112E01D0122E5D
:1006900012D186684FEA420C05FA0CF7BE43CF68C8
:1006A00007FA0CF7374387604668A6430C79C4F312
:1006B0000014944034434460C668570005FA07FCB0
:1006C0008C6826EA0C06BC403443C4604C68022C9B
:1006D00001D0122C13D1D40800EB8404A346D4F823
:1006E000209054074FEAD46A0EFA0AF629EA06095E
:1006F0000E6906FA0AF646EA0906CBF82060066893
:100700000C7926EA0C0604F00304BC403443046070
:100710004C68E40065D5364C266846F48046266071
:10072000246822F0030604F480440094314C3444DD
:10073000A446D4F808489607370F0EFA07F6B443D4
:100740002D4EB04201D1002624E02C4EB04201D102
:1007500001261FE02A4EB04202D102261AE040E0F4
:10076000284EB04201D1032614E0274EB04201D1F9
:1007700004260FE0254EB04201D105260AE0244EA2
:10078000B04201D1062605E0224EB04201D1072633
:1007900000E00826BE402643CCF808681E4E3468A8
:1007A0004F689C43FF0300D51C4334601A4C241D42
:1007B00026684F689E43BF0300D51E432660164E31
:1007C000083634684F689C43FF0200D51C433460F0
:1007D000114E0C3634684F689C43BF0200D51C4351
:1007E0003460521C102AFFF445AFBDE8F88F0000BA
:1007F0004438024000300140000002400004024042
:1008000000080240000C02400010024000140240A8
:1008100000180240001C0240003C01400AB1816106
:1008200070470904FBE7000001488068704700003A
:1008300008000020024881680278114481607047F6
:10084000080000200B4810B5016841F400710160F8
:10085000016841F480610160016841F480710160C8
:10086000032000F06FF8002000F006F800F024F8F4
:10087000002010BD003C024070B50D4D04464FF401
:100880007A712878B1FBF0F00A490968B1FBF0F001
:1008900000F02FFB48B9102C07D200222146501E31
:1008A00000F030F800206C6070BD012070BD0000C9
:1008B00008000020140000200A4808B5016841F42F
:1008C00080410160006800F4804000900548001FEE
:1008D000016841F080510160006800F08050009094
:1008E00008BD000044380240002809DB00F01F0268
:1008F000012191404009800000F1E020C0F8001182
:1009000070470000F0B40E4B1B680C46C3F3022383
:10091000C3F10705042D00D90425191D072901D2AB
:10092000002300E0DB1E012606FA05F1491E2140E6
:1009300099409E40761E16403143F0BC03F06BBCDC
:100940000CED00E0064900F0070208684FF6FF03CF
:10095000184040EA0220034A104308607047000034
:100960000CED00E00000FA052DE9F0470E46050009
:1009700065D0DFF81481D8F80000F7B200F00F005E
:10098000B04207D288F80070D8F8000000F00F00DD
:10099000B04254D128683D4C810712D5400703D599
:1009A000206840F4E05020602878000703D52068D4
:1009B00040F4604020602068A96820F0F0000843FF
:1009C00020602878C0072DD0304968680839012890
:1009D00012D0022813D0032811D0096889070029F2
:1009E0002DDA216821F0030101432160FFF71CFF8C
:1009F000814641F2883A0EE009688903EFE7096809
:100A00008901ECE7FFF710FFA0EB0901514502D97E
:100A10000320BDE8F0872068696800F00C00B0EBA7
:100A2000810FEFD1D8F80010404601F00F01B1421C
:100A300007D90770006800F00F00B04201D0012014
:100A4000E7E72878400705D52068E96820F4E050FA
:100A5000084320602878000706D52068296920F41B
:100A6000604040EAC100206000F038F82168084A80
:100A7000C1F30311515CC84006490860064800688C
:100A8000FFF7FAFE0020C4E7003C024008380240AD
:100A90003A430008140000200C00002004480549D7
:100AA00000680968044AC1F38221515CC84070475C
:100AB00014000020083802404A4300080448054951
:100AC00000680968044AC1F34231515CC84070476C
:100AD00014000020083802404A430008154810B5A9
:100AE000006810F00C02144813D04110042A0FD0F3
:100AF000082A0ED10F4C241F2268236802F03F02FF
:100B00005B0207D52068C0F38810A0FB010106E056
:100B1000084610BD2168C1F38811A1FB0001002324
:100B2000FFF74EFB2168C1F30141491C4900B0FBAE
:100B3000F1F010BD083802400024F4002DE9F84F10
:100B400004006ED02078DFF83C93C007A9F10405BB
:100B50004AD009F104000168C1F38101012908D0DC
:100B60000068C0F3810002280AD1D9F800004002D1
:100B700006D52868800337D560680028E1D033E0C7
:100B80006068B0F5803F10D0B0F5A02F286810D075
:100B900020F480302860286820F480202860606875
:100BA000A8B1FFF741FE06460DE0286840F480300A
:100BB000F4E740F480202860F7E700BFFFF734FE39
:100BC000801B642873D828688003F7D50CE0FFF7F2
:100BD0002BFE064605E000BFFFF726FE801B6428BB
:100BE000F0D828688003F7D42078DFF89C8280074B
:100BF0004FF0000A3ED5A348001D016811F00C0F0C
:100C000008D00068C0F3810002280BD1D9F8000099
:100C1000400207D42868800716D5E068012800D173
:100C200012E02BE1E068B8B10120C8F80000FFF73E
:100C3000FBFD064605E000BFFFF7F6FD801B02281E
:100C4000C0D828688007F7D52868216920F0F80007
:100C500040EAC10028600DE0C8F800A0FFF7E4FDFD
:100C6000064604E0FFF7E0FD801B02281FD8286835
:100C70008007F7D42078000722D5824E8348616927
:100C8000703671B101210160FFF7CEFD074604E027
:100C9000FFF7CAFDC01B022809D830688007F7D5C6
:100CA0000EE0C0F800A0FFF7BFFD074605E082E0B8
:100CB000FFF7BAFDC01B02287DD830688007F7D443
:100CC0002078400768D5DFF8BCB100270BF13C0B5A
:100CD000DBF80000C0000BD4DBF8001041F08051BD
:100CE000CBF80010DBF80000012700F080500090E6
:100CF000674E3068C00510D4306840F480703060B2
:100D0000FFF792FD009005E0FFF78EFD0099401A75
:100D1000022850D83068C005F6D55A4EA0686C3607
:100D200001280FD00528306810D020F00100306075
:100D3000306820F004003060A068B8B1FFF774FD9F
:100D400000900FE0306840F00100F4E740F004004C
:100D50003060F7E7FFF768FD0099411A41F28830EB
:100D6000814266D830688007F4D50EE0FFF75CFD5D
:100D7000009007E0FFF758FD0099411A41F28830D2
:100D8000814256D830688007F4D42FB1DBF80010C8
:100D900021F08051CBF80010A069C8B33949091D72
:100DA0000968C1F3810102294AD00228504607D0C0
:100DB000C8F8600000E03CE0FFF736FD04463BE089
:100DC0004746C8F86000FFF72FFD064605E000BF64
:100DD000FFF72AFD801B02282BD828688001F7D452
:100DE000D4E907010843A16A2A4A490802EB0141F4
:100DF000626A41EA8211084394F82C1040EA0161CA
:100E0000C9F8001001203866FFF70EFD044606E021
:100E100036E000BFFFF708FD001B022809D828684C
:100E20008001F7D52CE000BFFFF7FEFC001B022875
:100E300002D90320BDE8F88F28688001F4D41FE0B0
:100E40000128F7D0D9F80000E26900F4800191424E
:100E500014D1226A00F03F0191420FD147F6C071D0
:100E6000626A0140914209D1A26A00F44031914284
:100E700004D1E16A00F07060884201D00120D9E716
:100E80000020D7E70438024000004742800E474266
:100E9000007000400000FFFF70B515460E460400CC
:100EA00003D094F8490010B107E0012070BD002084
:100EB00084F84800204600F01AF804F10801206880
:100EC000FFF70CFB3146A2682068FFF731FBD4E93D
:100ED00001022946236BFFF7E1FAA168206850F868
:100EE000212042F0010240F82120002070BDFFF7D0
:100EF00065BB10B5401EB0F1807F01D3012010BD4D
:100F00004FF0E02460610F21601703F084F90020A6
:100F1000A06107202061002010BD000070B590F88E
:100F20003C20012A32D0012480F83C40022280F883
:100F30003D2003685A689D6822F070060A683243B3
:100F40005A60134B02689A4214D0B2F1804F11D00C
:100F5000104B9A420ED0104B9A420BD00F4B9A4234
:100F600008D00F4B9A4205D00E4B9A4202D00E4B3E
:100F70009A4204D1496825F080031943916080F8B2
:100F80003D40002180F83C10084670BD022070BD35
:100F9000000001400004004000080040000C004038
:100FA00000040140004001400018004010B504005A
:100FB00003D094F83D0010B107E0012010BD0020DF
:100FC00084F83C00204600F00DF8022084F83D0033
:100FD000211D206802F08CFF012084F83D000020D4
:100FE00010BD000008B500680649884208D10648CF
:100FF000016841F020010160006800F020000090CD
:1010000008BD000000140040403802407047000056
:1010100070B5026804461068D168536910F00F0F6C
:1010200052D003F0010501F490762E435FD0C20741
:1010300005D0CA0503D5E26B42F00102E263420724
:1010400005D5DA0703D0E26B42F00202E2638207C1
:1010500005D5DA0703D0E26B42F00402E26302072F
:1010600007D501F020022A4303D0E26B42F00802C8
:10107000E263E26B002A33D0800604D5880602D5ED
:10108000204602F0AFFF20684069E16BC0F380109A
:10109000090700D428B3204602F096FF2068416972
:1010A00049061AD5416921F040014161606BA0B148
:1010B0001B490165606BFFF75DFA002810D0606B7B
:1010C000016DBDE870400847830610D58B060ED52C
:1010D0002046BDE8704002F085BF2046FFF796FF2E
:1010E00070BD2046FFF792FF0020E06370BD03064D
:1010F00006D50B0604D52046BDE8704003F052B873
:101100004006F3D54806F1D5D168204621F04001CC
:10111000D160202184F8391000F075F870BD00000E
:10112000B93F000870B5040004D094F839000025D8
:1011300010B106E0012070BD84F83850204600F060
:1011400023F8242084F839002068C16821F4005174
:10115000C160204602F092FF2068016921F49041AD
:1011600001612068416921F02A0141612068C1685C
:1011700041F40051C160E563202084F8390084F80F
:101180003A00002070BD000010B586B0044614215E
:101190006846FFF74DF818492068884229D117485A
:1011A0000021026842F010020260006800F01000A6
:1011B000059012481438026842F00102026000688B
:1011C00000F0010005904FF4C06000900220CDE9CE
:1011D0000101032003900720049069460848FFF7A7
:1011E00041FA002211462520FFF78CFB2520FFF74E
:1011F0007BFB06B010BD00000010014044380240E7
:101200000000024070477047FEE7000070B50B49D0
:101210000646002408884D8821464543204600F0B4
:1012200017FA00F04BFBB0B24FF0D84103E000BF1B
:10123000A1F88000641CAC42FAD370BD64010020A8
:101240002DE9F04F33492C240A4688712A259288CB
:101250002B2645F2105B4FF4305E4FF448774FF089
:10126000F00949F2413A4FF4A07845F2103C4FF4AE
:10127000F07358B1A1F80080A1F80290524501D056
:10128000624529D10C814D818E8139E0A1F8009011
:10129000A1F80280524501D0624508D10C814D81F0
:1012A0008E81624531D1A1F800804B802DE05A45F6
:1012B00008D1A1F808E04FF4285048814FF42C5091
:1012C000888106E0A2F5C85063381ED10C814E819A
:1012D0008D810B804F8018E05A4508D1A1F808E0B5
:1012E0004FF4285048814FF42C50888106E0A2F535
:1012F000C850633804D10C814D818E810F804B80A2
:10130000624502D10B80A1F80280BDE8F04F0020B9
:1013100000F0C2B8640100202DE9F043444C91462E
:101320000246A08823460D464FEA1128160A5B891B
:10133000A0F51341413917D0A0F5A641103913D0BB
:10134000A0F5AA41103914D02646A0F5C857B179A6
:101350003688B61A761E633F25D0A0F5D047043FE5
:101360003DD0012951D051E0184600F09BFA30469B
:101370003CE0184600F096FA304600F087FA6089A3
:10138000401C80B200F08EFAD0B200F07FFAA08943
:1013900000F088FA404600F079FAA089401C80B23B
:1013A00000F080FA2DE001B9B2B2184600F07AFAE6
:1013B000160A304600F06AFAD0B200F067FA3046FA
:1013C00000F064FAD0B200F061FAA08900F06AFA85
:1013D000404600F05BFAE8B200F058FA0EE001294E
:1013E00000D1B2B2184600F05DFA100A00F04EFAD1
:1013F000D0B200F04BFAA08900F054FA404600F059
:1014000045FAE8B200F042FA08E0B2B211461846D6
:1014100000F05EFAA089294600F05AFA4FF0D84051
:10142000218920F87E1FA0F80290BDE8F08300001B
:101430006401002008B54FF0D840B0F88000ADF846
:101440000000BDF8000008BD10B50246BE2000F047
:1014500029FA052000F01AFA1046FEF766FF9FED04
:101460000C1B53EC112BFEF7EEFEFEF76BFF80B268
:1014700000F00CFA012000F009FAFF2000F006FA53
:10148000002000F003FABDE81040002000F0FEB993
:101490006666666666660440F0B56C4C00232146BD
:1014A000A279898841F66316012A01D01AB11BE09E
:1014B000B14202D118E0B14216D1082814D2DFE8B7
:1014C00000F00406080A0C0E101206200CE007209B
:1014D0000AE0042008E0052006E0012004E00020E6
:1014E00002E0032000E00220A1F5134745F210328C
:1014F00045F21055413F05D0914203D0A94201D099
:10150000B14277D1082812D2DFE800F011040608B2
:101510000A0C0E1080230AE0402308E0C02306E0F6
:10152000202304E0602302E0A02300E0E023A9429E
:1015300002D14FF4585000E03620914205D0A94224
:1015400003D0B14201D043F00803194600F0C0F9BE
:10155000A188B1420AD098062088628802D59042BC
:1015600002D303E0904201D9228060806089A942C1
:1015700041D100F097F9002000F088F96089401C03
:1015800080B200F08FF9002000F080F96089801CA3
:1015900080B200F087F92088401EC0F30F2000F0D1
:1015A00075F96089C01C80B200F07CF92078401E7B
:1015B000C0B200F06BF9A08900F074F9002000F0CF
:1015C00065F9A089401C80B200F06CF9002000F0A1
:1015D0005DF9A089801C80B200F064F96088401E2B
:1015E000C0F30F2000F052F9A089C01C80B200F0B7
:1015F00059F922E028E000F055F9002000F046F902
:10160000002000F043F92088401EC0F30F2000F0B6
:101610003DF92078401EC0B200F038F9A08900F0F2
:1016200041F9002000F032F9002000F02FF9608825
:10163000401EC0F30F2000F029F9A078BDE8F0406B
:10164000401EC0B200F022B9F0BD000064010020CD
:10165000F0B53F4A0D460446060A918810462F0A07
:101660004089A1F51343413B28D0A1F5A643103B87
:1016700024D0A1F5C853633B2FD0A1F5AA43103B5A
:1016800064D100F00FF9304600F000F95089401C99
:1016900080B200F007F9E0B200F0F8F8908900F0AD
:1016A00001F9384600F0F2F89089401C80B200F051
:1016B000F9F8E8B2BDE8F04000F0E8B800F0F2F860
:1016C000304600F0E3F8E0B200F0E0F8908900F076
:1016D000E9F8384600F0DAF8EBE7917929B300F041
:1016E000E1F8304600F0D2F8E0B200F0CFF8108810
:1016F000401EC0F30F2000F0C9F81078401EC0B2A1
:1017000000F0C4F8908900F0CDF8384600F0BEF83B
:10171000E8B200F0BBF85088401EC0F30F2000F084
:10172000B5F89078401EC0B2C4E71188091B491E65
:101730008CB200F0B7F8002000F0A8F8002000F00C
:10174000A5F8200A00F0A2F8E0B2D9E7F0BD000049
:10175000640100202DE9FF4F1D460C468A465807BC
:1017600000D0012000EBD500690810FB01F0203A01
:1017700000F0FF09D0B20026DFF8A4B002904BE0E1
:101780000C2D11D0102D14D0182D17D0202D45D18F
:101790002449029801EBC0104FF00008875D38061D
:1017A00013D52148026814E00298204900EB40005C
:1017B00008E01F49029801EB0010EDE702981D496F
:1017C00000EBC00001EB8000E6E70D9828B9164851
:1017D000426821460098FFF79FFD7806070E641CBB
:1017E000BBF80200A4B2A04218D9A4EB0A00A84298
:1017F00009D100985446401C80B20090BBF80010FC
:1018000081420BD906E008F1010000F0FF08B8F1B1
:10181000080FC4D3761CF6B24E45B1D3BDE8FF8F96
:1018200064010020125B00081800002052430008E9
:10183000C6470008B64D00082DE9F84F044600F0F1
:10184000FF0910190D46DDE90AB61FFA80F858198C
:1018500087B24FF0000A12E0444503D305EB0B00BA
:101860004C4685B2BD420FD25B4629462046CDF894
:1018700000A0FFF76FFF04EB5B0084B2761C3278A8
:10188000A2F120005E28E7D9BDE8F88F01B5BDF8C8
:101890000000ADF80000BDF800004FF0D841A1F8FD
:1018A000800008BD01B5BDF80000ADF80000BDF82E
:1018B00000004FF0D841A1F87E0008BD03484FF06A
:1018C000D8410089A1F87E00704700006401002023
:1018D0004FF0D84222F87E0F518070472DE9F04F2B
:1018E0008FB01C216846FEF7A3FC1C2107A8FEF759
:1018F0009FFC2E4806210024C0E902141025C0E9EF
:1019000004458461C4614FF4805B0462C0E9094B03
:10191000A902C0E90B414463DFF894A084634FF04F
:1019200020484464C0E9008A0F2602A900963C20A2
:101930001127019681E8B1000920CDE906400AA8E7
:101940004FF0080980E8B0000D94CDE9086907AAB6
:1019500069461648FFF7A0FA08B1FEF79DFD134847
:10196000042150300022C0E90214C0E9044584611A
:10197000C4610462C0E9094BC462046344638463C4
:101980004464C0E9008A8DE8500203A8694680E8F3
:10199000B000064806945030FFF77EFA002801D0C8
:1019A000FEF77AFD0FB0BDE8F08F00004400002084
:1019B000040100A02DE9F04387B014216846FEF72A
:1019C00037FC3B480025016841F0100101600168C7
:1019D00001F010010591016841F004010160016806
:1019E00001F004010591016841F0200101600168E6
:1019F00001F020010591016841F08001016001685A
:101A000001F080010591016841F001010160016868
:101A100001F001010591016841F040010160016898
:101A200001F040010591016841F002010160016887
:101A300001F002010591016841F0080101600068B0
:101A4000DFF8708000F008004FF4C06605900122B6
:101A500031464046FEF7E2FEDFF85C904FF4004767
:101A6000002239464846FEF7D9FE1C20CDE9000584
:101A70000124694602941148FEF7F4FDCDE90064A3
:101A80000226CDE9024669464046FEF7EBFD8DE8A9
:101A9000700069460A48FEF7E5FD01AA009782E852
:101AA000700069464846FEF7DDFD07B0BDE8F083EB
:101AB000303802400014024000040240001002408E
:101AC000000002401CB500240E4800940C4901940B
:101AD00001605321C0E9011401218461C160FFF755
:101AE00065FA08B1FEF7D8FC0094694605480194F0
:101AF000FFF714FA002801D0FEF7CEFC1CBD000051
:101B000000140040E40000200C4810B50A490160B0
:101B10004FF4E1314160002181600C22C160C0E9D5
:101B200004128161C161FFF7FDFA002803D0BDE80E
:101B30001040FEF7B1BC10BD001001402401002090
:101B4000FEE7704770477047FEF774BE30B593B03C
:101B500030216846FEF76CFB14210CA8FEF768FBE9
:101B600019480025016841F080510160006800F0CB
:101B7000805011901548016841F48041016000686F
:101B8000022400F480401190012000900004019094
:101B90008001CDE9064008AA0420A82182E81300AC
:101BA0000B906846FEF7CAFF0CA90F2081E83100B0
:101BB0004FF4A0500F90E002109005210CA8FEF702
:101BC000D3FE13B030BD000040380240007000402A
:101BD0000548016841F47001016003494FF000605D
:101BE000803908607047000088ED00E02DE9F05F63
:101BF0003220FEF7D1FCD320FFF754FEFFF71AFC8A
:101C0000FE4CA080FFF716FCA080FFF713FC4FF6F8
:101C1000FF7909EA0020A080FFF70CFCA18849F2B7
:101C200041360843A08045F2103745F2105541F681
:101C30006318B04247D0D420FFF734FEFFF7FAFB19
:101C4000A080FFF7F7FBA080FFF7F4FB09EA002074
:101C50004A46A080FFF7EEFBA1880843A080B84267
:101C600031D04FF45A40FFF71DFEFFF7E3FBA08091
:101C70004FF45B40FFF716FEFFF7DCFB02EA0020A3
:101C8000A0804FF45C40FFF70DFEFFF7D3FBA18867
:101C90000843A080B0F5004F7DD0A84213D0A1200A
:101CA000FFF700FEFFF7C6FBA080FFF7C3FB02EAC9
:101CB0000020A080FFF7BEFBA1880843A0F5AE413D
:101CC000A080613968D080B2B04266D1CF20FFF7E2
:101CD000E9FD0020FFF7DAFDC120FFF7D7FD302036
:101CE000FFF7D4FDED20FFF7DDFD6420FFF7CEFD0B
:101CF0000320FFF7CBFD1220FFF7C8FD8120FFF77F
:101D0000C5FDE820FFF7CEFD8520FFF7BFFD1020C1
:101D1000FFF7BCFD7A20FFF7B9FDCB20FFF7C2FD2E
:101D20003920FFF7B3FD2C20FFF7B0FD0020FFF7AF
:101D3000ADFD3420FFF7AAFD0220FFF7A7FDF72035
:101D4000FFF7B0FD2020FFF7A1FDEA20FFF7AAFD75
:101D50000020FFF79BFD0020FFF798FDC020FFF754
:101D6000A1FD1B20FFF792FDC120FFF79BFD012085
:101D7000FFF78CFDC520FFF795FD3020FFF786FDAE
:101D80003020FFF783FDC720FFF78CFDB720FFF75A
:101D90007DFD362002E0B5E0B0E0B5E0FFF782FD62
:101DA0004820FFF773FD3A20FFF77CFD5520FFF731
:101DB0006DFDB120FFF776FD0020FFF767FD1A20CB
:101DC000FFF764FDB620FFF76DFD0A20FFF75EFD0B
:101DD000A220FFF75BFDF220FFF764FD0020FFF774
:101DE00055FD2620FFF75EFD0120FFF74FFDE020A7
:101DF000FFF758FD0F20FFF749FD2A20FFF746FDAA
:101E00002820FFF743FD0820FFF740FD0E20FFF7D5
:101E10003DFD0820FFF73AFD5420FFF737FDA920CC
:101E2000FFF734FD4320FFF731FD0A20FFF72EFDB9
:101E30000F20FFF72BFD0020FFF728FD0020FFF704
:101E400025FD0020FFF722FD0020FFF71FFDE12008
:101E5000FFF728FD0020FFF719FD1520FFF716FDFD
:101E60001720FFF713FD0720FFF710FD1120FFF7E4
:101E70000DFD0620FFF70AFD2B20FFF707FD56207A
:101E8000FFF704FD3C20FFF701FD0520FFF7FEFCF6
:101E90001020FFF7FBFC0F20FFF7F8FC3F20FFF7B7
:101EA000F5FC3F20FFF7F2FC0F20FFF7EFFC2B20A3
:101EB000FFF7F8FC0020FFF7E9FC0020FFF7E6FC45
:101EC0000120FFF7E3FC3F20FFF7E0FC2A20FFF7AB
:101ED000E9FC0020FFF7DAFC0020FFF7D7FC002028
:101EE000FFF7D4FCEF20FFF7D1FC1120FFF7DAFC5D
:101EF0007820FEF751FB292001F009BFA4F80480E7
:101F000001F00ABFA580FDE3B84276D1ED20FFF7CE
:101F1000C9FC0120FFF7BAFCFE20FFF7B7FCEE205A
:101F2000FFF7C0FCDE20FFF7B1FC2120FFF7AEFC7D
:101F3000F120FFF7B7FC0120FFF7A8FCDF20FFF737
:101F4000B1FC1020FFF7A2FCC420FFF7ABFC8F20F0
:101F5000FFF79CFCC620FFF7A5FC0020FFF796FCCE
:101F6000E220FFF793FCE220FFF790FCE220FFF76E
:101F70008DFCBF20FFF796FCAA20FFF787FCB0205E
:101F8000FFF790FC0D20FFF781FC0020FFF77EFC9F
:101F90000D20FFF77BFC0020FFF778FC1120FFF7F6
:101FA00075FC0020FFF772FC1920FFF76FFC002082
:101FB000FFF76CFC2120FFF769FC0020FFF766FCAF
:101FC0002D20FFF763FC0020FFF760FC3D20FFF7AA
:101FD0005DFC0020FFF75AFC5D20FFF757FC002056
:101FE000FFF754FC5D20FFF751FC0020FFF74EFC8B
:101FF000B120FFF757FC802002E0FDE364010020E0
:10200000FFF744FC0020FFF741FC8B20FFF73EFC6C
:102010000020FFF73BFC9620FFF738FC0020FFF77D
:1020200035FCB220FFF73EFC0020FFF72FFC00201C
:10203000FFF72CFC0220FFF729FC0020FFF726FC0D
:102040000320FFF723FC0020FFF720FCB320FFF75D
:1020500029FC0020FFF71AFC0020FFF717FC0020E6
:10206000FFF714FC0020FFF711FC0020FFF70EFC27
:102070000020FFF70BFC0020FFF708FC0020FFF713
:1020800005FC0020FFF702FC0020FFF7FFFB00200B
:10209000FFF7FCFB0020FFF7F9FB0020FFF7F6FB42
:1020A0000020FFF7F3FB0020FFF7F0FB0020FFF715
:1020B000EDFB0020FFF7EAFB0020FFF7E7FB002025
:1020C000FFF7E4FB0020FFF7E1FB0020FFF7DEFB5A
:1020D0000020FFF7DBFB0020FFF7D8FB0020FFF715
:1020E000D5FBB420FFF7DEFB8B20FFF7CFFB0020F2
:1020F000FFF7CCFB9620FFF7C9FB0020FFF7C6FBDC
:10210000A120FFF7C3FB0020FFF7C0FBB520FFF7BE
:10211000C9FB0220FFF7BAFB0020FFF7B7FB032043
:10212000FFF7B4FB0020FFF7B1FB0420FFF7AEFB85
:102130000020FFF7ABFBB620FFF7B4FB0020FFF752
:10214000A5FB0020FFF7A2FBB720FFF7ABFB0020A9
:10215000FFF79CFB0020FFF799FB3F20FFF796FB62
:102160000020FFF793FB5E20FFF790FB0020FFF7B6
:102170008DFB6420FFF78AFB0020FFF787FB8C2094
:10218000FFF784FB0020FFF781FBAC20FFF77EFB0D
:102190000020FFF77BFBDC20FFF778FB0020FFF738
:1021A00075FB7020FFF772FB0020FFF76FFB90209C
:1021B000FFF76CFB0020FFF769FBEB20FFF766FBE6
:1021C0000020FFF763FBDC20FFF760FB0020FFF738
:1021D0005DFBB820FFF766FB0020FFF757FB0020F0
:1021E000FFF754FB0020FFF751FB0020FFF74EFBE9
:1021F0000020FFF74BFB0020FFF748FB0020FFF714
:1022000045FB0020FFF742FBBA20FFF74BFB2420E1
:10221000FFF73CFB0020FFF739FB0020FFF736FB00
:102220000020FFF733FBC120FFF73CFB2020FFF726
:102230002DFB0020FFF72AFB5420FFF727FB00208F
:10224000FFF724FBFF20FFF721FB0020FFF71EFB19
:10225000C220FFF727FB0A20FFF718FB0020FFF73B
:1022600015FB0420FFF712FB0020FFF70FFBC32034
:10227000FFF718FB3C20FFF709FB0020FFF706FBE8
:102280003A20FFF703FB0020FFF700FB3920FFF7A0
:10229000FDFA0020FFF7FAFA3720FFF7F7FA0020DF
:1022A000FFF7F4FA3C20FFF7F1FA0020FFF7EEFA0F
:1022B0003620FFF7EBFA0020FFF7E8FA3220FFF7AD
:1022C000E5FA0020FFF7E2FA2F20FFF7DFFA0020FF
:1022D000FFF7DCFA2C20FFF7D9FA0020FFF7D6FA37
:1022E0002920FFF7D3FA0020FFF7D0FA2620FFF7C6
:1022F000CDFA0020FFF7CAFA2420FFF7C7FA002022
:10230000FFF7C4FA2420FFF7C1FA0020FFF7BEFA56
:102310002320FFF7BBFA0020FFF7B8FA3C20FFF7B5
:10232000B5FA0020FFF7B2FA3620FFF7AFFA002027
:10233000FFF7ACFA3220FFF7A9FA0020FFF7A6FA60
:102340002F20FFF7A3FA0020FFF7A0FA2C20FFF7B9
:102350009DFA0020FFF79AFA2920FFF797FA00204C
:10236000FFF794FA2620FFF791FA0020FFF78EFA84
:102370002420FFF78BFA0020FFF788FA2420FFF7CC
:1023800085FA0020FFF782FA2320FFF77FFA00206A
:10239000FFF77CFAC420FFF785FA6220FFF776FA90
:1023A0000020FFF773FA0520FFF770FA0020FFF70F
:1023B0006DFA8420FFF76AFA0020FFF767FAF02031
:1023C000FFF764FA0020FFF761FA1820FFF75EFAC2
:1023D0000020FFF75BFAA420FFF758FA0020FFF770
:1023E00055FA1820FFF752FA0020FFF74FFA502055
:1023F000FFF74CFA0020FFF749FA0C20FFF746FAE6
:102400000020FFF743FA1720FFF740FA0020FFF7FC
:102410003DFA9520FFF73AFA0020FFF737FAF3204C
:10242000FFF734FA0020FFF731FAE620FFF72EFA23
:102430000020FFF72BFAC520FFF734FA3220FFF710
:1024400025FA0020FFF722FA4420FFF71FFA0020A8
:10245000FFF71CFA6520FFF719FA0020FFF716FABC
:102460007620FFF713FA0020FFF710FA8820FFF715
:102470000DFA0020FFF70AFAC620FFF713FA202012
:10248000FFF704FA0020FFF701FA1720FFF7FEF923
:102490000020FFF7FBF90120FFF7F8F90020FFF714
:1024A000F5F9C720FFF7FEF90020FFF7EFF900204C
:1024B000FFF7ECF90020FFF7E9F90020FFF7E6F954
:1024C000C820FFF7EFF90020FFF7E0F90020FFF741
:1024D000DDF90020FFF7DAF90020FFF7D7F9C9206E
:1024E000FFF7E0F90020FFF7D1F90020FFF7CEF960
:1024F0000020FFF7CBF90020FFF7C8F90020FFF715
:10250000C5F90020FFF7C2F90020FFF7BFF900204E
:10251000FFF7BCF90020FFF7B9F90020FFF7B6F983
:102520000020FFF7B3F90020FFF7B0F90020FFF714
:10253000ADF90020FFF7AAF90020FFF7A7F9002066
:10254000FFF7A4F9E020FFF7ADF91620FFF79EF999
:102550000020FFF79BF91C20FFF798F90020FFF7F8
:1025600095F92120FFF792F90020FFF78FF9362027
:10257000FFF78CF90020FFF789F94620FFF786F96D
:102580000020FFF783F95220FFF780F90020FFF7C2
:102590007DF96420FFF77AF90020FFF777F97A20B8
:1025A000FFF774F90020FFF771F98B20FFF76EF940
:1025B0000020FFF76BF99920FFF768F90020FFF77B
:1025C00065F9A820FFF762F90020FFF75FF9B9204D
:1025D000FFF75CF90020FFF759F9C420FFF756F91F
:1025E0000020FFF753F9CA20FFF750F90020FFF74A
:1025F0004DF9D220FFF74AF90020FFF747F9D9201B
:10260000FFF744F90020FFF741F9E020FFF73EF91A
:102610000020FFF73BF9F320FFF738F90020FFF720
:1026200035F9E120FFF73EF91620FFF72FF90020DA
:10263000FFF72CF91C20FFF729F90020FFF726F9F6
:102640002220FFF723F90020FFF720F93620FFF7BB
:102650001DF90020FFF71AF94520FFF717F90020B0
:10266000FFF714F95220FFF711F90020FFF70EF9D8
:102670006420FFF70BF90020FFF708F97A20FFF735
:1026800005F90020FFF702F98B20FFF7FFF8002083
:10269000FFF7FCF89920FFF7F9F80020FFF7F6F8AC
:1026A000A820FFF7F3F80020FFF7F0F8B920FFF7B4
:1026B000EDF80020FFF7EAF8C420FFF7E7F8002064
:1026C000FFF7E4F8CA20FFF7E1F80020FFF7DEF893
:1026D000D220FFF7DBF80020FFF7D8F8D820FFF76B
:1026E000D5F80020FFF7D2F8E020FFF7CFF8002060
:1026F000FFF7CCF8F320FFF7C9F80020FFF7C6F882
:10270000E22000E082E3FFF7CDF80520FFF7BEF8F6
:102710000020FFF7BBF80B20FFF7B8F80020FFF709
:10272000B5F81B20FFF7B2F80020FFF7AFF8342010
:10273000FFF7ACF80020FFF7A9F84420FFF7A6F850
:102740000020FFF7A3F84F20FFF7A0F80020FFF7C5
:102750009DF86120FFF79AF80020FFF797F879209D
:10276000FFF794F80020FFF791F88820FFF78EF824
:102770000020FFF78BF89720FFF788F80020FFF77D
:1027800085F8A620FFF782F80020FFF77FF8B72032
:10279000FFF77CF80020FFF779F8C220FFF776F802
:1027A0000020FFF773F8C720FFF770F80020FFF74D
:1027B0006DF8D120FFF76AF80020FFF767F8D62000
:1027C000FFF764F80020FFF761F8DD20FFF75EF8FF
:1027D0000020FFF75BF8F320FFF758F80020FFF721
:1027E00055F8E320FFF75EF80520FFF74FF80020CB
:1027F000FFF74CF80A2000E006E3FFF747F8002057
:10280000FFF744F81C20FFF741F80020FFF73EF8DF
:102810003320FFF73BF80020FFF738F84420FFF79C
:1028200035F80020FFF732F85020FFF72FF800208E
:10283000FFF72CF86220FFF729F80020FFF726F8B1
:102840007820FFF723F80020FFF720F88820FFF713
:102850001DF80020FFF71AF89720FFF717F800205F
:10286000FFF714F8A620FFF711F80020FFF70EF885
:10287000B720FFF70BF80020FFF708F8C220FFF79A
:1028800005F80020FFF702F8C720FEF7FFFF002041
:10289000FEF7FCFFD120FEF7F9FF0020FEF7F6FF60
:1028A000D520FEF7F3FF0020FEF7F0FFDD20FEF756
:1028B000EDFF0020FEF7EAFFF320FEF7E7FF002020
:1028C000FEF7E4FFE420FEF7EDFF0120FEF7DEFF58
:1028D0000020FEF7DBFF0120FEF7D8FF0020FEF707
:1028E000D5FF0220FEF7D2FF0020FEF7CFFF2A20FF
:1028F000FEF7CCFF0020FEF7C9FF3C20FEF7C6FF25
:102900000020FEF7C3FF4B20FEF7C0FF0020FEF7BC
:10291000BDFF5D20FEF7BAFF0020FEF7B7FF742071
:10292000FEF7B4FF0020FEF7B1FF8420FEF7AEFFF4
:102930000020FEF7ABFF9320FEF7A8FF0020FEF774
:10294000A5FFA220FEF7A2FF0020FEF79FFFB32005
:10295000FEF79CFF0020FEF799FFBE20FEF796FFD2
:102960000020FEF793FFC420FEF790FF0020FEF743
:102970008DFFCD20FEF78AFF0020FEF787FFD320D2
:10298000FEF784FF0020FEF781FFDD20FEF77EFFCB
:102990000020FEF77BFFF320FEF778FF0020FEF714
:1029A00075FFE520FEF77EFF0020FEF76FFF002099
:1029B000FEF76CFF0020FEF769FF0020FEF766FFC0
:1029C0000220FEF763FF0020FEF760FF2920FEF7DC
:1029D0005DFF0020FEF75AFF3C20FEF757FF002066
:1029E000FEF754FF4B20FEF751FF0020FEF74EFF8D
:1029F0005D20FEF74BFF0020FEF748FF7420FEF736
:102A000045FF0020FEF742FF8420FEF73FFF002035
:102A1000FEF73CFF9320FEF739FF0020FEF736FF5C
:102A2000A220FEF733FF0020FEF730FFB320FEF7B1
:102A30002DFF0020FEF72AFFBE20FEF727FF002013
:102A4000FEF724FFC420FEF721FF0020FEF71EFF43
:102A5000CD20FEF71BFF0020FEF718FFD320FEF766
:102A600015FF0020FEF712FFDC20FEF70FFF00200D
:102A7000FEF70CFFF320FEF709FF0020FEF706FF2C
:102A8000E620FEF70FFF1120FEF700FF0020FEF703
:102A9000FDFE3420FEF7FAFE0020FEF7F7FE56207A
:102AA000FEF7F4FE0020FEF7F1FE7620FEF7EEFEC4
:102AB0000020FEF7EBFE7720FEF7E8FE0020FEF791
:102AC000E5FE6620FEF7E2FE0020FEF7DFFE88202E
:102AD000FEF7DCFE0020FEF7D9FE9920FEF7D6FEB9
:102AE0000020FEF7D3FEBB20FEF7D0FE0020FEF74D
:102AF000CDFE9920FEF7CAFE0020FEF7C7FE662035
:102B0000FEF7C4FE0020FEF7C1FE5520FEF7BEFE14
:102B10000020FEF7BBFE5520FEF7B8FE0020FEF7B2
:102B2000B5FE4520FEF7B2FE0020FEF7AFFE4320C3
:102B3000FEF7ACFE0020FEF7A9FE4420FEF7A6FE3D
:102B40000020FEF7A3FEE720FEF7ACFE3220FEF7E2
:102B50009DFE0020FEF79AFE5520FEF797FE00200E
:102B6000FEF794FE7620FEF791FE0020FEF78EFE23
:102B70006620FEF78BFE0020FEF788FE6720FEF73A
:102B800085FE0020FEF782FE6720FEF77FFE002014
:102B9000FEF77CFE8720FEF779FE0020FEF776FE2A
:102BA0009920FEF773FE0020FEF770FEBB20FEF7B3
:102BB0006DFE0020FEF76AFE9920FEF767FE0020FA
:102BC000FEF764FE7720FEF761FE0020FEF75EFE52
:102BD0004420FEF75BFE0020FEF758FE5620FEF76D
:102BE00055FE0020FEF752FE2320FEF74FFE002088
:102BF000FEF74CFE3320FEF749FE0020FEF746FEAE
:102C00004520FEF743FE0020FEF740FEE820FEF7D9
:102C100049FE0020FEF73AFE0020FEF737FE99201D
:102C2000FEF734FE0020FEF731FE8720FEF72EFE71
:102C30000020FEF72BFE8820FEF728FE0020FEF77E
:102C400025FE7720FEF722FE0020FEF71FFE6620FD
:102C5000FEF71CFE0020FEF719FE8820FEF716FE88
:102C60000020FEF713FEAA20FEF710FE0020FEF75C
:102C70000DFEBB20FEF70AFE0020FEF707FE99209E
:102C8000FEF704FE0020FEF701FE6620FEF7FEFDC3
:102C90000020FEF7FBFD5520FEF7F8FD0020FEF7B3
:102CA000F5FD5520FEF7F2FD0020FEF7EFFD442074
:102CB000FEF7ECFD0020FEF7E9FD4420FEF7E6FDFF
:102CC0000020FEF7E3FD5520FEF7E0FD0020FEF7B3
:102CD000DDFDE920FEF7E6FDAA20FEF7D7FD002086
:102CE000FEF7D4FD0020FEF7D1FD0020FEF7CEFD5B
:102CF0000020FEF7D7FDAA20FEF7C8FDCF20FEF783
:102D0000D1FD0020FEF7C2FD0020FEF7BFFD002030
:102D1000FEF7BCFD0020FEF7B9FD0020FEF7B6FD72
:102D20000020FEF7B3FD0020FEF7B0FD0020FEF707
:102D3000ADFD0020FEF7AAFD0020FEF7A7FD002054
:102D4000FEF7A4FD0020FEF7A1FD0020FEF79EFD8A
:102D50000020FEF79BFD0020FEF798FD0020FEF707
:102D600095FD0020FEF792FDF020FEF79BFD002070
:102D7000FEF78CFD5020FEF789FD0020FEF786FD52
:102D80000020FEF783FD0020FEF780FDF320FEF714
:102D900089FD0020FEF77AFDF920FEF783FD06206D
:102DA000FEF774FD1020FEF771FD2920FEF76EFD81
:102DB0000020FEF76BFD3A20FEF774FD5520FEF76C
:102DC00065FD1120FEF76EFD6420FDF7E5FB29206F
:102DD000FEF768FD3520FEF765FD0020FEF756FD85
:102DE0005120FEF75FFDFF20FEF750FD5320FEF758
:102DF00059FD2C20FEF74AFD5520FEF753FD822099
:102E0000FEF744FD2C20FCE3A8427CD14FF4704334
:102E100055211846FEF75CFD4FF2010AAA215046E3
:102E2000FEF756FD4FF2020B52215846FEF750FDB9
:102E300008214FF20300FEF74BFD01214FF2040081
:102E4000FEF746FD0D214FF43040FEF741FD0D2108
:102E50004BF20100FEF73CFD0D214BF20200FEF7A4
:102E600037FD34214FF43640FEF732FD34214BF26A
:102E70000160FEF72DFD34214BF20260FEF728FDC4
:102E80000D214FF43140FEF723FD0D214BF20110CF
:102E9000FEF71EFD0D214BF20210FEF719FD342145
:102EA0004FF43740FEF714FD34214BF20170FEF76A
:102EB0000FFD34214BF20270FEF70AFD00214FF4A2
:102EC0003240FEF705FD00214BF20120FEF700FD28
:102ED00000214BF20220FEF7FBFC24214FF4384086
:102EE000FEF7F6FC24214BF60100FEF7F1FC24214D
:102EF0004BF60200FEF7ECFC01214FF43F40FEF7D9
:102F0000E7FC0F2100E0FDE34FF43340FEF7E0FC67
:102F10000F214BF20130FEF7DBFC0F214BF20230A8
:102F2000FEF7D6FC34214FF43940FEF7D1FC3421B2
:102F30004BF60110FEF7CCFC34214BF60210FEF7E5
:102F4000C7FC08214FF43540FEF7C2FC08214BF2C4
:102F50000150FEF7BDFC08214BF20250FEF7B8FC11
:102F600003214FF44240FEF7B3FC24214FF43A40D2
:102F7000FEF7AEFC24214BF60120FEF7A9FC24212C
:102F80004BF60220FEF7A4FC00214FF43C40FEF774
:102F90009FFC78214BF60140FEF79AFC00214BF68E
:102FA0000240FEF795FC00214FF43D40FEF790FCF7
:102FB00078214BF60150FEF78BFC00214BF60250B6
:102FC000FEF786FC00214FF43E40FEF781FC6421B1
:102FD0004BF60160FEF77CFC00214FF45140FEF7F8
:102FE00077FC33214DF20110FEF772FC00214DF207
:102FF0000210FEF76DFC34214DF20310FEF768FC61
:1030000000214DF20410FEF763FC3A214DF2051049
:10301000FEF75EFC00214DF20610FEF759FC4A2136
:103020004DF20710FEF754FC00214DF20810FEF798
:103030004FFC5C214DF20910FEF74AFC00214DF2D5
:103040000A10FEF745FC81214DF20B10FEF740FC03
:1030500000214DF20C10FEF73BFCA6214DF20D10A5
:10306000FEF736FC00214DF20E10FEF731FCE52193
:103070004DF20F10FEF72CFC01214DF21010FEF75F
:1030800027FC13214DF21110FEF722FC01214DF215
:103090001210FEF71DFC54214DF21310FEF718FC20
:1030A00001214DF21410FEF713FC82214DF2151090
:1030B000FEF70EFC01214DF21610FEF709FCCA21A5
:1030C0004DF21710FEF704FC02214DF21810FEF726
:1030D000FFFB00214DF21910FEF7FAFB02214DF221
:1030E0001A10FEF7F5FB01214DF21B10FEF7F0FB65
:1030F00002214DF21C10FEF7EBFB34214DF21D10A6
:10310000FEF7E6FB02214DF21E10FEF7E1FB672100
:103110004DF21F10FEF7DCFB02214DF22010FEF7EE
:10312000D7FB84214DF22110FEF7D2FB02214DF294
:103130002210FEF7CDFBA4214DF22310FEF7C8FBB1
:1031400002214DF22410FEF7C3FBB7214DF22510EA
:10315000FEF7BEFB02214DF22610FEF7B9FBCF2190
:103160004DF22710FEF7B4FB02214DF22810FEF7B6
:10317000AFFBDE214DF22910FEF7AAFB02214DF232
:103180002A10FEF7A5FBF2214DF22B10FEF7A0FB53
:1031900002214DF22C10FEF79BFBFE214DF22D106B
:1031A000FEF796FB03214DF22E10FEF791FB102146
:1031B0004DF22F10FEF78CFB03214DF23010FEF77D
:1031C00087FB33214DF23110FEF782FB03214DF2D4
:1031D0003210FEF77DFB6D214DF23310FEF778FBC8
:1031E00000214FF45240FEF773FB33214DF20120D2
:1031F000FEF76EFB00214DF20220FEF769FB342141
:103200004DF20320FEF764FB00214DF20420FEF78F
:103210005FFB3A214DF20520FEF75AFB00214DF2EB
:103220000620FEF755FB4A214DF20720FEF750FB22
:1032300000214DF20820FEF74BFB5C214DF20920E6
:10324000FEF746FB00214DF20A20FEF741FB8121EB
:103250004DF20B20FEF73CFB00214DF20C20FEF757
:1032600037FBA6214DF20D20FEF732FB00214DF277
:103270000E20FEF72DFBE5214DF20F20FEF728FB77
:1032800001214DF21020FEF723FB13214DF21120F6
:10329000FEF71EFB01214DF21220FEF719FB54210F
:1032A0004DF21320FEF714FB01214DF21420FEF71E
:1032B0000FFB82214DF21520FEF70AFB01214DF292
:1032C0001620FEF705FBCA214DF21720FEF700FB82
:1032D00002214DF21820FEF7FBFA00214DF21920D1
:1032E000FEF7F6FA02214DF21A20FEF7F1FA01215B
:1032F0004DF21B20FEF7ECFA02214DF21C20FEF7E6
:10330000E7FA34214DF21D20FEF7E2FA02214DF2D8
:103310001E20FEF7DDFA67214DF21F20FEF7D8FAD6
:1033200002214DF22020FEF7D3FA84214DF2212014
:10333000FEF7CEFA02214DF22220FEF7C9FAA421AF
:103340004DF22320FEF7C4FA02214DF22420FEF7AD
:10335000BFFAB7214DF22520FEF7BAFA02214DF24D
:103360002620FEF7B5FACF214DF22720FEF7B0FA5E
:1033700002214DF22820FEF7ABFADE214DF2292082
:10338000FEF7A6FA02214DF22A20FEF7A1FAF22159
:103390004DF22B20FEF79CFA02214DF22C20FEF775
:1033A00097FAFE214DF22D20FEF792FA03214DF2FD
:1033B0002E20FEF78DFA10214DF22F20FEF788FA0D
:1033C00003214DF23020FEF783FA33214DF23120F4
:1033D000FEF77EFA03214DF23220FEF779FA6D21D5
:1033E0004DF23320FEF774FA00214FF45340FEF7FC
:1033F0006FFA33214DF20130FEF76AFA00214DF2E7
:103400000230FEF765FA34214DF20330FEF760FA20
:1034100000214DF20430FEF75BFA3A214DF20530FF
:10342000FEF756FA00214DF20630FEF751FA4A2116
:103430004DF20730FEF74CFA00214DF20830FEF74E
:1034400047FA5C214DF20930FEF742FA00214DF2B5
:103450000A30FEF73DFA81214DF20B30FEF738FAC3
:1034600000214DF20C30FEF733FAA6214DF20D305B
:10347000FEF72EFA00214DF20E30FEF729FAE52173
:103480004DF20F30FEF724FA01214DF21030FEF715
:103490001FFA13214DF21130FEF71AFA01214DF2F5
:1034A0001230FEF715FA54214DF21330FEF710FAE0
:1034B00001214DF21430FEF70BFA82214DF2153046
:1034C000FEF706FA01214DF21630FEF701FACA2185
:1034D0004DF21730FEF7FCF902214DF21830FEF7DD
:1034E000F7F900214DF21930FEF7F2F902214DF201
:1034F0001A30FEF7EDF901214DF21B30FEF7E8F925
:1035000002214DF21C30FEF7E3F934214DF21D305B
:10351000FEF7DEF902214DF21E30FEF7D9F96721E0
:103520004DF21F30FEF7D4F902214DF22030FEF7A4
:10353000CFF984214DF22130FEF7CAF902214DF274
:103540002230FEF7C5F9A4214DF22330FEF7C0F971
:1035500002214DF22430FEF7BBF9B7214DF22530A0
:10356000FEF7B6F902214DF22630FEF7B1F9CF2170
:103570004DF22730FEF7ACF902214DF22830FEF76C
:10358000A7F9DE214DF22930FEF7A2F902214DF212
:103590002A30FEF79DF9F2214DF22B30FEF798F913
:1035A00002214DF22C30FEF793F9FE214DF22D3021
:1035B000FEF78EF903214DF22E30FEF789F9102126
:1035C0004DF22F30FEF784F903214DF23030FEF733
:1035D0007FF933214DF23130FEF77AF903214DF2B4
:1035E0003230FEF775F96D214DF23330FEF770F988
:1035F00000214FF45440FEF76BF933214DF20140A6
:1036000000E084E3FEF764F900214DF20240FEF78A
:103610005FF934214DF20340FEF75AF900214DF2D3
:103620000440FEF755F93A214DF20540FEF750F9F6
:1036300000214DF20640FEF74BF94A214DF20740BA
:10364000FEF746F900214DF20840FEF741F95C21F2
:103650004DF20940FEF73CF900214DF20A40FEF719
:1036600037F981214DF20B40FEF732F900214DF27E
:103670000C40FEF72DF9A6214DF20D40FEF728F97A
:1036800000214DF20E40FEF723F9E5214DF20F40E7
:10369000FEF71EF901214DF21040FEF719F9132132
:1036A0004DF21140FEF714F901214DF21240FEF7E0
:1036B0000FF954214DF21340FEF70AF901214DF2A2
:1036C0001440FEF705F982214DF21540FEF700F98E
:1036D00001214DF21640FEF7FBF8CA214DF21740CA
:1036E000FEF7F6F802214DF21840FEF7F1F800213E
:1036F0004DF21940FEF7ECF802214DF21A40FEF7A8
:10370000E7F800E006E301214DF21B40FEF7E0F888
:1037100002214DF21C40FEF7DBF834214DF21D4032
:10372000FEF7D6F802214DF21E40FEF7D1F86721D0
:103730004DF21F40FEF7CCF802214DF22040FEF77B
:10374000C7F884214DF22140FEF7C2F802214DF264
:103750002240FEF7BDF8A4214DF22340FEF7B8F851
:1037600002214DF22440FEF7B3F8B7214DF2254077
:10377000FEF7AEF802214DF22640FEF7A9F8CF2160
:103780004DF22740FEF7A4F802214DF22840FEF743
:103790009FF8DE214DF22940FEF79AF802214DF202
:1037A0002A40FEF795F8F2214DF22B40FEF790F8F3
:1037B00002214DF22C40FEF78BF8FE214DF22D40F8
:1037C000FEF786F803214DF22E40FEF781F8102116
:1037D0004DF22F40FEF77CF803214DF23040FEF70A
:1037E00077F833214DF23140FEF772F803214DF2A4
:1037F0003240FEF76DF86D214DF23340FEF768F868
:1038000000214FF45540FEF763F833214DF201508B
:10381000FEF75EF800214DF20250FEF759F8342110
:103820004DF20350FEF754F800214DF20450FEF71C
:103830004FF83A214DF20550FEF74AF800214DF2BB
:103840000650FEF745F84A214DF20750FEF740F8C2
:1038500000214DF20850FEF73BF85C214DF2095073
:10386000FEF736F800214DF20A50FEF731F88121BB
:103870004DF20B50FEF72CF800214DF20C50FEF7E4
:1038800027F8A6214DF20D50FEF722F800214DF247
:103890000E50FEF71DF8E5214DF20F50FEF718F817
:1038A00001214DF21050FEF713F813214DF2115083
:1038B000FEF70EF801214DF21250FEF709F85421DF
:1038C0004DF21350FEF704F801214DF21450FDF7AC
:1038D000FFFF82214DF21550FDF7FAFF01214DF255
:1038E0001650FDF7F5FFCA214DF21750FDF7F0FF16
:1038F00002214DF21850FDF7EBFF00214DF2195057
:10390000FDF7E6FF02214DF21A50FDF7E1FF01211C
:103910004DF21B50FDF7DCFF02214DF21C50FDF76C
:10392000D7FF34214DF21D50FDF7D2FF02214DF299
:103930001E50FDF7CDFF67214DF21F50FDF7C8FF68
:1039400002214DF22050FDF7C3FF84214DF221509A
:10395000FDF7BEFF02214DF22250FDF7B9FFA42171
:103960004DF22350FDF7B4FF02214DF22450FDF734
:10397000AFFFB7214DF22550FDF7AAFF02214DF20E
:103980002650FDF7A5FFCF214DF22750FDF7A0FFF0
:1039900002214DF22850FDF79BFFDE214DF2295008
:1039A000FDF796FF02214DF22A50FDF791FFF2211B
:1039B0004DF22B50FDF78CFF02214DF22C50FDF7FC
:1039C00087FFFE214DF22D50FDF782FF03214DF2BE
:1039D0002E50FDF77DFF10214DF22F50FDF778FF9F
:1039E00003214DF23050FDF773FF33214DF231507A
:1039F000FDF76EFF03214DF23250FDF769FF6D2197
:103A00004DF23350FDF764FF00214FF45640FDF7AF
:103A10005FFF33214DF20160FDF75AFF00214DF2A7
:103A20000260FDF755FF34214DF20360FDF750FFB2
:103A300000214DF20460FDF74BFF3A214DF2056085
:103A4000FDF746FF00214DF20660FDF741FF4A21D8
:103A50004DF20760FDF73CFF00214DF20860FDF7D5
:103A600037FF5C214DF20960FDF732FF00214DF276
:103A70000A60FDF72DFF81214DF20B60FDF728FF55
:103A800000214DF20C60FDF723FFA6214DF20D60E1
:103A9000FDF71EFF00214DF20E60FDF719FFE52135
:103AA0004DF20F60FDF714FF01214DF21060FDF79C
:103AB0000FFF13214DF21160FDF70AFF01214DF2B6
:103AC0001260FDF705FF54214DF21360FDF700FF72
:103AD00001214DF21460FDF7FBFE82214DF21560CD
:103AE000FDF7F6FE01214DF21660FDF7F1FECA2149
:103AF0004DF21760FDF7ECFE02214DF21860FDF764
:103B0000E7FE00214DF21960FDF7E2FE02214DF2C1
:103B10001A60FDF7DDFE01214DF21B60FDF7D8FEB6
:103B200002214DF21C60FDF7D3FE34214DF21D60E1
:103B3000FDF7CEFE02214DF21E60FDF7C9FE6721A2
:103B40004DF21F60FDF7C4FE02214DF22060FDF72B
:103B5000BFFE84214DF22160FDF7BAFE02214DF235
:103B60002260FDF7B5FEA4214DF22360FDF7B0FE03
:103B700002214DF22460FDF7ABFEB7214DF2256026
:103B8000FDF7A6FE02214DF22660FDF7A1FECF2132
:103B90004DF22760FDF79CFE02214DF22860FDF7F3
:103BA00097FEDE214DF22960FDF792FE02214DF2D3
:103BB0002A60FDF78DFEF2214DF22B60FDF788FEA5
:103BC00002214DF22C60FDF783FEFE214DF22D60A7
:103BD000FDF77EFE03214DF22E60FDF779FE1021E8
:103BE0004DF22F60FDF774FE03214DF23060FDF7BA
:103BF0006FFE33214DF23160FDF76AFE03214DF275
:103C00003260FDF765FE6D214DF23360FDF760FE19
:103C100055211846FDF75CFEAA215046FDF758FED7
:103C200052215846FDF754FE08214FF20300FDF7DC
:103C30004FFE00214FF20400FDF74AFECC214FF465
:103C40003140FDF745FE00214BF20110FDF740FE2B
:103C500005214FF43640FDF73BFE70214FF437400D
:103C6000FDF736FE70214BF20170FDF731FE0121A8
:103C70004FF43840FDF72CFE03214BF60100FDF711
:103C800027FE03214BF60200FDF722FE03214BF62F
:103C90000300FDF71DFE02214FF43C40FDF718FE26
:103CA00000214BF60140FDF713FE00214BF60240C8
:103CB000FDF70EFED0214FF44940FDF709FE022129
:103CC0004CF60110FDF704FE50214CF60210FDF7F2
:103CD000FFFD50214CF60310FDF7FAFD50214CF684
:103CE0000410FDF7F5FD00214FF45450FDF7F0FDF1
:103CF00055214FF46850FDF7EBFD4FF48850FDF768
:103D0000D1FD7720401EC0B2FCD24FF42450FDF705
:103D1000C9FDBAE04045FCD1E220FDF7C3FD1D20FE
:103D2000FDF7B4FD0220FDF7B1FD0420FDF7AEFD67
:103D30006320401EC0B2FCD2E020FDF7B3FD01209D
:103D4000FDF7A4FD0A20FCF727FCE020FDF7AAFD03
:103D50000320FDF79BFD0C20FCF71EFC0120FDF766
:103D6000A1FD0A20FCF718FCE620FDF79BFD2F20A3
:103D7000FDF78CFDFF20FDF789FDFF20FDF786FD97
:103D8000B020FDF78FFD2020FDF780FD0020FDF71E
:103D90007DFD0320FDF77AFD40F21F30FDF776FD33
:103DA0000120FDF773FD40F2DF10FDF76FFD0020ED
:103DB000FDF76CFDB420FDF775FD0420FDF766FDF1
:103DC00040F21F40FDF762FD0020FDF75FFD2E2051
:103DD000FDF75CFD0020FDF759FD0020FDF756FDC5
:103DE0000020FDF753FD0020FDF750FDB620FDF744
:103DF00059FD0220FDF74AFD4FF40370FDF746FD23
:103E00000020FDF743FD1720FDF740FD1520FDF7CD
:103E10003DFD0020FDF73AFD0020FDF737FDF020C5
:103E2000FDF740FD0320FDF731FD2920FDF73AFDA8
:103E3000D020FDF737FD0020FDF728FDBE20FDF75F
:103E400031FD0520FDF722FDFE20FDF71FFD0120BD
:103E5000FDF71CFD0020FDF719FD0020FDF716FD04
:103E60000020FDF713FDB820FDF71CFD0320FDF732
:103E70000DFD0120FDF70AFDBA20FDF713FD01201D
:103E8000FDF704FD6420FDF7DFFAA088B04205D0FD
:103E9000B84203D0A84201D0404519D14FF020408C
:103EA000D0F81C1121F00F01C0F81C11D0F81C1122
:103EB00021F47061C0F81C11D0F81C1141F003010D
:103EC000C0F81C11D0F81C1141F40071C0F81C118D
:103ED0000020FDF7B5F90548016841F40041016093
:103EE0004846BDE8F05FFDF791B9000014040240B8
:103EF000F0B50268254C264D264E274F274B4FF034
:103F0000804CA04209D0604507D0A84205D0B042FD
:103F100003D0B84201D0984204D122F0700E4A6812
:103F200042EA0E02A0421BD0604519D0A84217D029
:103F3000B04215D0B84213D0984211D0184DA842C3
:103F40000ED0184DA8420BD0174DA84208D0174DDF
:103F5000A84205D0164DA84202D0164DA84203D162
:103F600022F44075CA682A434D6922F080022A4330
:103F700002608A68C2620A688262A04201D09842E6
:103F800001D10969016301214161F0BD00000140D7
:103F90000004004000080040000C00400004014004
:103FA000004001400044014000480140001800402A
:103FB000001C00400020004010B5806B0021C1852E
:103FC000C184FDF723F810BD0168CA6822F490721D
:103FD000CA6001684A6922F001024A61202180F822
:103FE0003A10704710B590F83A10222901D00220FB
:103FF00010BD8168B1F5805F11D0016900290168A9
:104000001FD0496801F07F03816A4A1C82620B70ED
:10401000C18D491E0904090CC18518D02BE0026925
:10402000816A002A0268526805D0D2B20A80816A89
:10403000491C8162ECE7C2F308020A80816A891C8C
:10404000F7E74A68816A4B1C83620A70E0E70168FF
:10405000CA6822F02002CA600168CA6822F480722D
:10406000CA6001684A6922F001024A61202180F891
:104070003A10FDF7C7F8002010BD00002DE9F0410F
:10408000044600680169E26821F44051114301616E
:104090002169A068E2690843616911430843216806
:1040A000CA6849F20C639A430243CA6020684169B6
:1040B000A26921F4407111434161E0691927642527
:1040C0003226B0F5004F354A354920684FF00008D8
:1040D00006D0884201D0904236D1FCF7EFFC35E0A3
:1040E000884201D0904202D1FCF7E8FC01E0FCF7E5
:1040F000D5FC61684A18A0FB070148EB0803FCF7F0
:104100005FF80146B0FBF5F00201B1FBF5F06FF08E
:104110001803584301EB800006EBC000B0FBF5F03C
:1041200000F0F80002EB4002B1FBF5F0584301EB60
:10413000800006EBC000B0FBF5F000F0070021683E
:1041400010448860BDE8F081FCF7A8FC61688B0F23
:104150008A00A0FB0701FCF733F80146B0FBF5F03D
:104160006FF01802504301EB800006EB0010B0FB2B
:10417000F5F000F0F002B1FBF5F002EB0012B1FB3C
:10418000F5F06FF01803584301EB800006EB0010C8
:10419000B0FBF5F000F00F00D1E700000014014083
:1041A0000010014090F83910212901D002207047F9
:1041B0008168B1F5805F016A0BD04A1C0262026817
:1041C00009785160C18C491E0904090CC1840ED0C4
:1041D00017E009880268C1F30801516001690029EC
:1041E000016A02D0491C0162ECE7891CFBE7016807
:1041F000CA6822F08002CA600068C16841F04001CC
:10420000C1600020704700000148FCF701BF0000BA
:1042100024010020FEE70907090E002804DB00F155
:10422000E02080F80014704700F00F0000F1E0205B
:1042300080F8141D704702E008C8121F08C1002A48
:10424000FAD170477047002001E001C1121F002A17
:10425000FBD170471CB5FCF7F5FAFDF777FCFDF7CD
:10426000A9FBFDF73BFBFDF74FFCFDF72BFCFDF732
:10427000BDFC002000F020F8012000F01DF8022015
:1042800000F01AF84FF6FF70FCF7C0FF182005A1E8
:10429000CDE900010346D2220A211E20FDF7CCFA07
:1042A000FEE700004D59206E616D6520697320594D
:1042B000594A65642100000070B504460B480C4E55
:1042C000002150F8240006EB84054200686900F0E4
:1042D0002DF806480021183050F82420A86800F076
:1042E00025F80120311981F8200070BD948A00085A
:1042F0002000002010B50B4B0B4C002253F820304F
:10430000114604EB800005E0446934F8114004B123
:10431000521C491C8B42F7D864204243B2FBF3F095
:10432000C0B210BD948A00082000002002E000BF47
:1043300000F8011B521EFBD2704700000000000075
:104340000000010203040607080900000000010242
:104350000304000000000000000000000000000056
:1043600000003F400000000000000000300040005E
:1043700030004000000009000BC03D000BC03D00B4
:10438000090018C024407FE022403180000018005E
:1043900024C01B000D803240018003801C40274058
:1043A0001C8007400040100060000000000000007A
:1043B00000000000000000001F802040402000009E
:1043C000402020401F8000000000090006001F80E0
:1043D000060009000000040004003F8004000400FF
:1043E0000000001000600000000000000000040059
:1043F000040004000400040000000000004000006D
:10440000000000000000002001C00600380040004D
:1044100000001F802040204020401F80000000003E
:1044200010403FC000400000000018C02140224062
:1044300024401840000010802040244024401B806D
:10444000000002000D0011003FC0014000003C8050
:10445000244024402440238000001F802440244026
:104460003440038000003000200027C038002000C6
:1044700000001B802440244024401B8000001C00BE
:1044800022C0224022401F8000000000000008409F
:1044900000000000000000000000046000000000B8
:1044A0000000000004000A001100208040400900C4
:1044B00009000900090009000000000040402080B8
:1044C00011000A00040018002000234024001800F6
:1044D00000001F802040274029401F40000000406E
:1044E00007C039000F0001C0004020403FC02440F9
:1044F00024401B8000001F8020402040204030804E
:10450000000020403FC0204020401F80000020408D
:104510003FC024402E4030C0000020403FC0244017
:104520002E00300000000F00108020402240338019
:10453000020020403FC0040004003FC02040204053
:1045400020403FC02040204000000060202020206C
:104550003FC02000200020403FC024400B0030C05E
:10456000204020403FC020400040004000C03FC0ED
:104570003C0003C03C003FC0000020403FC00C4056
:1045800023003FC020001F802040204020401F808B
:10459000000020403FC024402400180000001F807D
:1045A0002140214020E01FA0000020403FC02440C7
:1045B000260019C0004018C0244024402240318009
:1045C0000000300020403FC02040300000002000AC
:1045D0003F80004000403F80200020003E0001C09E
:1045E000070038002000380007C03C0007C0380032
:1045F0000000204039C0060039C0204000002000E3
:10460000384007C0384020000000304021C026401C
:10461000384020C00000000000007FE04020402023
:104620000000000070000C0003800040000000004B
:10463000402040207FE000000000000020004000FB
:1046400020000000000000100010001000100010FA
:10465000001000000000400000000000000000000A
:1046600002800540054003C0004020003FC00440D8
:104670000440038000000000038004400440064022
:10468000000000000380044024403FC000400000C0
:1046900003800540054003400000000004401FC0A7
:1046A000244024402000000002E005500550065040
:1046B000042020403FC00440040003C0004000002C
:1046C000044027C00040000000000010001004104B
:1046D00027E00000000020403FC00140070004C068
:1046E0000440204020403FC000400040000007C080
:1046F000040007C0040003C00000044007C00440D9
:10470000040003C000400000038004400440038014
:104710000000041007F00450044003800000000073
:1047200003800440045007F00010044007C002401A
:10473000040004000000000006400540054004C0DD
:104740000000000004001F8004400040000004003E
:1047500007800040044007C000400400070004C078
:10476000018006000400060001C0070001C0060029
:104770000000044006C0010006C004400000041010
:10478000071004E00180060004000000044005C09A
:104790000640044000000000000004007BE04020D0
:1047A0000000000000000000FFF00000000000001A
:1047B00040207BE00400000000004000800040003A
:1047C0002000200040000000000000000000000069
:1047D0000000000000000000000000001FCC000CE2
:1047E0000000000000000000080030006000080029
:1047F000300060000000022003FC1E20022003FCA9
:104800001E200220000000000E1811043FFF10843B
:104810000C78000000000F0010840F3800C00778EB
:1048200018840078000000780F8410C411240E98BA
:1048300000E4008400080800680070000000000028
:1048400000000000000000000000000007E0181851
:10485000200440020000000040022004181807E075
:104860000000000000000240024001800FF00180C3
:104870000240024000000080008000800FF80080AD
:104880000080008000000001000D000E000000000C
:104890000000000000000000008000800080008018
:1048A0000080008000800000000C000C0000000070
:1048B00000000000000000000006001800600180F9
:1048C000060018002000000007F00808100410047B
:1048D000080807F000000000080408041FFC00049A
:1048E00000040000000000000E0C101410241044FE
:1048F00011840E0C000000000C18100411041104A7
:1049000012880C700000000000E00320042408243A
:104910001FFC0024000000001F98108411041104E3
:10492000108810700000000007F0088811041104BE
:1049300018880070000000001C00100010FC13001C
:104940001C001000000000000E3811441084108478
:1049500011440E38000000000700088C1044104479
:10496000088807F00000000000000000030C030CA2
:10497000000000000000000000000001010600002F
:104980000000000000000000008001400220041030
:104990000808100400000220022002200220022049
:1049A0000220022000000000100408080410022069
:1049B00001400080000000000E001200100C106C7E
:1049C00010800F00000003E00C1813E4142417C437
:1049D000082807D000000004003C03C41C40074026
:1049E00000E4001C000410041FFC11041104110455
:1049F0000E880070000003E00C181004100410046E
:104A000010081C10000010041FFC100410041004F7
:104A1000080807F0000010041FFC1104110417C45B
:104A200010040818000010041FFC1104110017C026
:104A300010000800000003E00C18100410041044DB
:104A40001C780040000010041FFC108400800080CF
:104A500010841FFC10040000100410041FFC10043C
:104A600010040000000000030001100110011FFEEF
:104A700010001000000010041FFC110403801464D7
:104A8000181C1004000010041FFC10040004000493
:104A90000004000C000010041FFC1F0000FC1F009D
:104AA0001FFC1004000010041FFC0C04030000E0B5
:104AB00010181FFC100007F0080810041004100460
:104AC000080807F0000010041FFC108410801080FC
:104AD00010800F00000007F0081810241024101C8C
:104AE000080A07F2000010041FFC1104110011C095
:104AF00011300E0C000400000E1C110410841084F0
:104B000010441C3800001800100010041FFC100492
:104B100010001800000010001FF81004000400042A
:104B200010041FF8100010001E0011E0001C00709F
:104B300013801C0010001FC0103C00E01F0000E0AC
:104B4000103C1FC000001004180C163401C001C036
:104B50001634180C100410001C00130400FC13047D
:104B60001C00100000000804101C106410841304C2
:104B70001C04101800000000000000007FFE40022E
:104B8000400240020000000030000C000380006082
:104B9000001C0003000000004002400240027FFEB3
:104BA0000000000000000000000020004000400065
:104BB0004000200000000001000100010001000190
:104BC0000001000100010000400040002000000042
:104BD000000000000000000000980124014401448E
:104BE000014400FC000410001FFC008801040104C3
:104BF00000880070000000000070008801040104BB
:104C00000104008800000000007000880104010415
:104C100011081FFC0004000000F801440144014495
:104C2000014400C800000000010401040FFC11044D
:104C3000110411001800000000D6012901290129E2
:104C400001C90106000010041FFC008401000100DE
:104C5000010400FC000400000104190419FC000414
:104C60000004000000000000000300010101190120
:104C700019FE0000000010041FFC0024004001B4D5
:104C8000010C010400000000100410041FFC0004CB
:104C9000000400000000010401FC0104010001FC0B
:104CA0000104010000FC010401FC0084010001007A
:104CB000010400FC0004000000F8010401040104E8
:104CC000010400F80000010101FF00850104010456
:104CD00000880070000000000070008801040104DA
:104CE000010501FF00010104010401FC008401042D
:104CF000010001800000000000CC012401240124F7
:104D000001240198000000000100010007F80104DF
:104D1000010400000000010001F800040004000488
:104D2000010801FC0004010001800170000C00106A
:104D300001600180010001F0010C003001C0003071
:104D4000010C01F0010000000104018C00740170ED
:104D5000018C01040000010101810171000E0018A5
:104D600001600180010000000184010C0134014454
:104D70000184010C000000000000000000000100A0
:104D80003EFC400240020000000000000000FFFF67
:104D90000000000000000000400240023EFC010054
:104DA0000000000000000000600080008000400063
:104DB0004000200020000000000000000000000073
:104DC00000000000000000000000000000000000E3
:104DD00000000000000000000000000000000000D3
:104DE0000000000000000000000F80380FFE380FA8
:104DF00080380000000000000000000000000000FB
:104E0000000000000100000600000C000038000057
:104E10003100000600000C000038000030000000E7
:104E200000000000000061800067F807F980006161
:104E3000800061800061800061800067F807F98070
:104E400000618000000000000000000001C0E003DD
:104E5000E0F00630080418081FFFFE040E0807875C
:104E6000F00381E000000000000001F000060C00EB
:104E7000040408060C7001F9C0000E00003BE000BD
:104E8000EC18070808040C180003E00000000001FB
:104E9000E00007F003F818041C0804170807E1D025
:104EA00003C0E00023B0003C080020080000100010
:104EB00000000000000100003100003200001C0072
:104EC00000000000000000000000000000000000E2
:104ED00000000000000000000000000000000000D2
:104EE0000000000000007F0001FFC00780F00C0000
:104EF0001810000420000200000000000020000242
:104F00001000040C00180780F001FFC0007F0000B3
:104F10000000000000000000000000000000000091
:104F200000004200006600006600003C000018001F
:104F300003FFC0001800003C00006600006600008F
:104F400042000000000008000008000008000008FF
:104F50000000080001FFC000080000080000080071
:104F600000080000080000000000000100003100FF
:104F7000003200001C0000000000000000000000E3
:104F80000000000000000000000000000000080019
:104F900000080000080000080000080000080000E9
:104FA00008000008000008000008000000000000E1
:104FB0000000000000003800003800003800000049
:104FC00000000000000000000000000000000000E1
:104FD000000000000000000600001C00007000013E
:104FE00080000E0000380000C0000700001C000018
:104FF000300000000000000000007F8001FFE0039F
:1050000080700600180400080400080600180380D9
:105010007001FFE0007F8000000000000000000041
:1050200001000801000801000803FFF807FFF8006D
:105030000008000008000008000000000000000058
:105040000001C03802C05804009804011804021876
:10505000040418061C1803F81801E0F8000000000A
:10506000000000000001C0E003C0F00400080408D4
:105070000804080806180803F41801E7F00001E026
:10508000000000000000000000000300000D000010
:10509000110000610000810803010807FFF80FFFFD
:1050A000F80001080001080000000000000000E016
:1050B00007FCD006080806100806100806100806A7
:1050C0001838060FF00607C00000000000000000BE
:1050D00000003F8001FFE00384300208180410083C
:1050E000041008041008071810030FF00007C00090
:1050F000000000000000000003C0000700000600E0
:10510000000600F80607F806180006E00007000091
:1051100006000000000000000001E1E003F7F006D7
:105120003410041808041808040C08040C080616A7
:105130001803F3F001C1E000000000000000F800D7
:1051400003FC3003063804020804020804020804C1
:1051500004100308F001FFC0007F00000000000001
:105160000000000000000000000000000000703897
:1051700000703800703800000000000000000000DF
:10518000000000000000000000000000000000001F
:105190000000301A00301C00000000000000000079
:1051A00000000000000000000000000000080000F7
:1051B0001400002200004100008080010040020035
:1051C000200400100800080000000000000021007A
:1051D000002100002100002100002100002100002A
:1051E000210000210000210000210000000000003B
:1051F0000000000008000804001002002001004028
:10520000008080004100002200001400000800001F
:10521000000000000003C00004C0000400000800FB
:1052200038080F380808380810000C300007E00074
:1052300003C000000000000000003F8000FFE0030A
:105240008070020F1006708804C088048308047FF1
:105250008802C09003012000FE40000008000018F2
:105260000001F8003E0801C20007020007E200004A
:10527000FE00001FC80001F800003800000804000C
:105280000807FFF807FFF8040808040808040808DE
:1052900004080806180803F41801E7F00001E0000C
:1052A0000000000000003F8001FFE003807002006A
:1052B0001804000804000804000804001006002078
:1052C0000780C000000004000807FFF807FFF8048B
:1052D00000080400080400080400180200100380FD
:1052E0007001FFE0007F8000000004000807FFF865
:1052F00007FFF8040808040808040808040808045C
:105300003E080400080600180100600000000400C8
:105310000807FFF807FFF80408080408000408005D
:10532000040800043E0006000006000001800000A2
:105330000000000000003F8001FFE00380700600D5
:10534000180400080402080402080203F00783F0AE
:1053500000020000020004000807FFF807FFF8043D
:105360000808000800000800000800000800040801
:105370000807FFF807FFF80400080000000000001D
:1053800004000804000804000807FFF807FFF804F9
:1053900000080400080400080000000000000000ED
:1053A00000000006000007000001040001040001E5
:1053B00004000307FFFE07FFFC04000004000004D4
:1053C000000004000807FFF807FFF8040C080018A5
:1053D00000003E0004C7800503C80600F80400383A
:1053E00004001800000804000807FFF807FFF8048D
:1053F0000008000008000008000008000008000085
:105400000800001800006000000004000807FFF812
:1054100007800807FC00007FC00003F80007C000F9
:10542000780007800807FFF807FFF8040008040069
:105430000807FFF807000803C00000E0000038007C
:10544000001E000007000001C00400F007FFF80480
:105450000000000000007F8001FFE0038070060074
:105460001804000804000806001803003001FFE0DB
:10547000007F8000000004000807FFF807FFF80421
:105480000408040400040400040400040400060CDE
:105490000003F80001F000000000000000007F8021
:1054A00001FFE00380700600880400880400C8063D
:1054B000003C03003E01FFE6007F84000000040082
:1054C0000807FFF807FFF8040808040800040C00A8
:1054D000040F00040BC00610F003F03801E00800D0
:1054E000000800000001E0F803F030063010041856
:1054F00008041808040C08040C080206180207F037
:105500000781E000000001800006000004000004A4
:10551000000004000807FFF807FFF8040008040073
:105520000004000006000001800004000007FFE006
:1055300007FFF00400180000080000080000080041
:10554000000800000804001007FFE0040000040049
:105550000006000007E00007FE00041FE00001F85D
:105560000000380001E0043E0007C000060000040F
:10557000000004000007E00007FFC0041FF8000758
:10558000C007F80007FF80043FF80007C004F800D8
:1055900007000004000000000004000806001807CF
:1055A000C07805F1C8003E00001F800463E8078052
:1055B000F8060018040008000000040000060000BF
:1055C00007800007E008047C08001FF80007F800C7
:1055D000180804E0080700000600000400000000AE
:1055E000000100080600380400F80403E8040F086E
:1055F000047C0805F00807C00807001804006000D4
:10560000000000000000000000000000000000009A
:10561000003FFFFE200002200002200002200002C6
:105620002000020000000000000000000800000749
:10563000000000C0000038000006000001C00000AB
:105640003000000E0000010000000000000000001B
:105650002000022000022000022000022000023F61
:10566000FFFE00000000000000000000000000003D
:1056700000000000000000080000100000300000E2
:1056800020000030000010000008000000000000B2
:105690000000000001000001000001000001000006
:1056A00001000001000001000001000001000001F4
:1056B00000000100000100000000000000000020C8
:1056C000000020000010000010000000000000009A
:1056D000000000000000000000000000000000F0DA
:1056E0000019F8001B1800220800260800240800F2
:1056F0002410003FF8001FF8000008000018000008
:105700000004000007FFF80FFFF000181800100851
:10571000002008002008003018001FF0000FC00013
:1057200000000000000007C0001FF000183000203B
:1057300008002008002008003C08001C1000006041
:105740000000000000000000000007C0001FF00083
:10575000381800200800200800200804101007FF57
:10576000F80FFFF000001000000000000000000033
:105770000007C0001FF000123000221800220800AD
:105780002208003208001E10000E20000000000059
:105790000000200000200800200801FFF803FFF8A7
:1057A0000620080420080420080720000300000049
:1057B000000000000000000E000E6E001FF300311C
:1057C000B10020B10020B1003191001F13002E1E46
:1057D00000200E00300000000004000807FFF80F52
:1057E000FFF8001008002000002000002008003F03
:1057F000F8001FF800000800000000000000000092
:10580000002008002008002008063FF8063FF800A6
:105810000008000008000008000000000000000070
:105820000000000000000300000300200100200130
:10583000002003063FFE063FFC00000000000000C1
:10584000000000000004000807FFF80FFFF8000147
:1058500088000300002FC00038F80020380020081E
:105860000000080000000000000000000400080420
:10587000000804000807FFF80FFFF8000008000008
:1058800008000008000000000000002008003FF8A9
:10589000003FF8001008002000003FF8003FF8002B
:1058A0001008002000003FF8003FF800000800004A
:1058B00000002008003FF8003FF80010080010002A
:1058C000002000002008003FF8001FF8000008003A
:1058D00000000000000007C0000FF000183000308A
:1058E00008002008002008003008001830000FF0E1
:1058F0000007C0000000000000002001003FFF0082
:105900003FFF00101100200900200800200800308F
:1059100038001FF0000FC00000000000000007C0AA
:10592000001FF0003818002008002008002009009F
:105930001011001FFF003FFF0000010000000020C9
:1059400008002008002008003FF8003FF800080881
:105950000010080020080020000030000030000087
:105960000000000000000000000C78001E1800334A
:10597000080023080021080021880021980030F049
:10598000003860000000000000002000002000003F
:10599000200000FFF003FFF800200800200800208E
:1059A000080000300000000000000000000020009F
:1059B000003FF0007FF80000180000080000080019
:1059C0002010003FF8007FF00000100000000000F1
:1059D00000002000003000003C00003F800023F069
:1059E000000078000070002380003C0000300000C0
:1059F0002000002000003C00003FE00023F80000F1
:105A0000E0002700003E00003FE00021F80001E038
:105A1000003E0000200000000000200800200800D8
:105A20003838003E680027800003C8002CF8003892
:105A300038002018002008000000000000002000AE
:105A4000003003003C01003F830023EC00007000A5
:105A50002380003C00002000002000000000000027
:105A6000000000000038080020380020F80023E87B
:105A7000002F88003E080038080020180000700041
:105A80000000000000000000000000000000000016
:105A9000000008000014001FF7FC30000620000280
:105AA00000000000000000000000000000000000F6
:105AB0000000000000000000FFFFFF0000000000E9
:105AC00000000000000000000000000000000000D6
:105AD0002000023000061FF7FC0014000008000040
