:020000040800F2
:10000000C0AE01209D010008371D0008FD13000847
:10001000351D000895040008294400080000000070
:10002000000000000000000000000000391D000872
:100030009704000800000000B3010008B5010008A3
:10004000B7010008B7010008B7010008B7010008B0
:10005000B7010008B7010008B7010008B7010008A0
:10006000B7010008B7010008B7010008B701000890
:10007000B7010008B7010008B7010008B701000880
:10008000B7010008B7010008B7010008B701000870
:10009000B7010008B7010008B7010008B701000860
:1000A000B7010008F9400008B7010008B7010008CF
:1000B000B7010008B7010008B7010008B701000840
:1000C000B7010008B7010008B7010008B701000830
:1000D000B70100081D440008B7010008B701000877
:1000E000B7010008B7010008B7010008B701000810
:1000F000B7010008B7010008B7010008B701000800
:10010000B7010008B7010008B7010008B7010008EF
:10011000B7010008B7010008B7010008B7010008DF
:10012000B7010008B7010008B7010008B7010008CF
:10013000B7010008B7010008B7010008B7010008BF
:10014000B7010008B7010008B7010008B7010008AF
:10015000B7010008B7010008B7010008B70100089F
:10016000B7010008B7010008B7010008B70100088F
:10017000B7010008B7010008B7010008000000003F
:10018000B7010008B7010008DFF80CD000F070F9E3
:100190000048004795440008C0AE0120064880474B
:1001A00006480047FEE7FEE7FEE7FEE7FEE7FEE75C
:1001B000FEE7FEE7FEE7FEE7D91D0008890100081B
:1001C0002DE9F05F0546002092469B46884606468C
:1001D000814640241BE0284641464746224600F01F
:1001E000D9F853465A46C01A914110D311461846C1
:1001F000224600F0C0F82D1A67EB01084F46224650
:100200000120002100F0B7F817EB00094E41201E35
:10021000A4F10104DFDC484631462A464346BDE8E6
:10022000F09FD2B201E000F8012B491EFBD27047CB
:100230000022F6E710B513460A4604461946FFF7B2
:10024000F0FF204610BD2DE9FE4F81EA030404F0C3
:10025000004421F0004100944FF0000B23F00043D4
:1002600050EA01045ED052EA03045BD0C3F30A549F
:10027000C1F30A552C44A4F2F3340194A0FB0254B8
:10028000C1F3130141F48011C3F3130343F480134A
:1002900001FB024400FB034E840A970A44EA81549E
:1002A00047EA8357A4FB076802958D0A05FB07857B
:1002B0004FEA932C04FB0C542705029D4FEA065885
:1002C00047EA1637B5EB08056EEB070C870E920E62
:1002D00047EA811742EA8312A7FB0201B6EB0B0142
:1002E00064EB00042B0D43EA0C335E1844EB1C5006
:1002F000DA465146E7FB0201C5F313044FEA0B331C
:1003000043EA14534FEA0432019C43EA0603A4F182
:100310000C040294009CCDE900B400F05AF803B03C
:10032000BDE8F08F00200146F9E70EB540F23341F9
:1003300002910021CDE900110A460B4600F049F870
:1003400003B000BDC1F30A5210B5C1F3130140F26E
:10035000FF3341F480119A4201DA002010BD40F2CF
:1003600033439A42A2F2334203DC524200F012F8C5
:1003700010BD904010BD202A04DB203A00FA02F1A3
:10038000002070479140C2F1200320FA03F3194383
:1003900090407047202A04DB203A21FA02F0002125
:1003A000704721FA02F3D040C2F120029140084385
:1003B0001946704710B5141E73F1000408DA401C8A
:1003C00041F1000192185B411A4301D120F0010074
:1003D00010BD2DE9F04D92469B4611B1B1FA81F264
:1003E00002E0B0FA80F220329046FFF7C4FF0446E4
:1003F0000F4640EA0A0041EA0B0153465A460843B9
:1004000013D0114653EA010019D0C8F140025046FA
:10041000FFF7C0FF05460E46504659464246FFF7D5
:10042000AAFF084305D0012004E020463946BDE874
:10043000F08D0020054346EAE0762C4337430A98C6
:100440006305E40AA0EB08000022FD0A44EA4754D1
:100450000A3002D500200146E9E70105101969417B
:10046000DDE9084500196941BDE8F04DA2E700004B
:10047000064C074D06E0E06840F0010394E80700F1
:1004800098471034AC42F6D3FFF782FEFC8C00088C
:100490001C8D0008FEE770477047000070B5B3F58B
:1004A000804F05D06FF0704140F82210002070BDE1
:1004B00050F82240084B8E891C40D1E9003543EAB0
:1004C00005138D6889692D0245EA06452B430B43C8
:1004D000234340F82230E9E70000F0CFF0B50C6884
:1004E00050F82430114A1340D1E90125D1E90367BE
:1004F0002A433E4332434E6932438E693243CE69CA
:1005000032430E6A32434E6A32438E6A3243CE6AB7
:100510003243CE6B096B32430A431A43082D01D193
:1005200042F0400240F824200020F0BD8000F0FF9F
:1005300030B500EB820250688D8900F04043D1E96C
:10054000000440EA04108C68240244EA0544204375
:100550000C8A074D05EB045420430C7D6D0105EB1F
:10056000046489692043084318435060002030BD6B
:100570000000F0FF90F83510022903D0802141657A
:1005800001207047052180F835100068016821F0CE
:10059000010101600020704770B5044600F044F985
:1005A0000546601C02D004480078044400F03CF981
:1005B000401BA042FAD370BD08000020F0B587B000
:1005C00014216846FFF734FE2048016800293AD11B
:1005D000012101601E480024016841F00101016011
:1005E0000068022500F0010005904FF23F00CDE9C0
:1005F000000502AA03260C2782E8D00069461548A8
:1006000000F030F841F23F40CDE9000502AA69460A
:1006100082E8D000104800F025F84FF68370CDE94D
:10062000000502AA694682E8D0000C4800F01AF8DA
:100630004FF63370CDE9000502AA694682E8D00082
:10064000074800F00FF807B0F0BD000000000020E0
:1006500038380240001402400018024000100240E6
:10066000000C02402DE9F84F00224FF0010803254D
:100670004FF00F0E0B6808FA02F42340A3426ED12C
:100680004E68012E05D0022E03D0112E01D0122E5D
:1006900012D186684FEA420C05FA0CF7BE43CF68C8
:1006A00007FA0CF7374387604668A6430C79C4F312
:1006B0000014944034434460C668570005FA07FCB0
:1006C0008C6826EA0C06BC403443C4604C68022C9B
:1006D00001D0122C13D1D40800EB8404A346D4F823
:1006E000209054074FEAD46A0EFA0AF629EA06095E
:1006F0000E6906FA0AF646EA0906CBF82060066893
:100700000C7926EA0C0604F00304BC403443046070
:100710004C68E40065D5364C266846F48046266071
:10072000246822F0030604F480440094314C3444DD
:10073000A446D4F808489607370F0EFA07F6B443D4
:100740002D4EB04201D1002624E02C4EB04201D102
:1007500001261FE02A4EB04202D102261AE040E0F4
:10076000284EB04201D1032614E0274EB04201D1F9
:1007700004260FE0254EB04201D105260AE0244EA2
:10078000B04201D1062605E0224EB04201D1072633
:1007900000E00826BE402643CCF808681E4E3468A8
:1007A0004F689C43FF0300D51C4334601A4C241D42
:1007B00026684F689E43BF0300D51E432660164E31
:1007C000083634684F689C43FF0200D51C433460F0
:1007D000114E0C3634684F689C43BF0200D51C4351
:1007E0003460521C102AFFF445AFBDE8F88F0000BA
:1007F0004438024000300140000002400004024042
:1008000000080240000C02400010024000140240A8
:1008100000180240001C0240003C01400AB1816106
:1008200070470904FBE7000001488068704700003A
:1008300008000020024881680278114481607047F6
:10084000080000200B4810B5016841F400710160F8
:10085000016841F480610160016841F480710160C8
:10086000032000F089F8002000F006F800F03EF8C0
:10087000002010BD003C024010B5014688B00022A7
:10088000192000F059F8192000F048F81348002406
:10089000016841F001010160006805A900F0010054
:1008A0000690684600F014F900F042F90C49400047
:1008B000B0FBF1F10C480B4A491E026040F2E732EE
:1008C000C0E90324C0E9011400F098FB10B1012035
:1008D00008B010BD044800F0C1FBF9E744380240FD
:1008E00040420F0000000140680100200A4808B59E
:1008F000016841F480410160006800F4804000908C
:100900000548001F016841F080510160006800F057
:100910008050009008BD000044380240002809DBE8
:1009200000F01F02012191404009800000F1E02009
:10093000C0F8001170470000F0B40E4B1B680C4665
:10094000C3F30223C3F10705042D00D90425191DA3
:10095000072901D2002300E0DB1E012606FA05F17B
:10096000491E214099409E40761E16403143F0BCFE
:1009700003F05BBD0CED00E0064900F007020868DB
:100980004FF6FF03184040EA0220034A1043086074
:10099000704700000CED00E00000FA052DE9F0477B
:1009A0000E46050065D0DFF81481D8F80000F7B2D4
:1009B00000F00F00B04207D288F80070D8F80000AD
:1009C00000F00F00B04254D128683D4C810712D589
:1009D000400703D5206840F4E050206028780007E5
:1009E00003D5206840F4604020602068A96820F0AA
:1009F000F000084320602878C0072DD0304968688F
:100A00000839012812D0022813D0032811D0096810
:100A1000890700292DDA216821F0030101432160B3
:100A2000FFF702FF814641F2883A0EE00968890328
:100A3000EFE709688901ECE7FFF7F6FEA0EB090193
:100A4000514502D90320BDE8F0872068696800F0AD
:100A50000C00B0EB810FEFD1D8F80010404601F048
:100A60000F01B14207D90770006800F00F00B042D3
:100A700001D00120E7E72878400705D52068E9681C
:100A800020F4E050084320602878000706D520684D
:100A9000296920F4604040EAC100206000F058F865
:100AA0002168084AC1F30311515CC8400649086037
:100AB00006480068FFF7E0FE0020C4E7003C024063
:100AC000083802407E450008140000200C00002079
:100AD0000F2202600C4A136803F00303436013689B
:100AE00003F0F0038360136803F4E053C3601268FB
:100AF0004FF4E05303EAD20202610448006800F0B8
:100B00000F0008607047000008380240003C0240B7
:100B10000448054900680968044AC1F38221515C10
:100B2000C840704714000020083802408E45000875
:100B30000448054900680968044AC1F34231515C20
:100B4000C840704714000020083802408E45000855
:100B5000154810B5006810F00C02144813D041106D
:100B6000042A0FD0082A0ED10F4C241F22682368B4
:100B700002F03F025B0207D52068C0F38810A0FB9B
:100B8000010106E0084610BD2168C1F38811A1FBF0
:100B900000010023FFF714FB2168C1F30141491C48
:100BA0004900B0FBF1F010BD083802400024F40009
:100BB0002DE9F84F04006ED02078DFF83C93C00791
:100BC000A9F104054AD009F104000168C1F38101CB
:100BD000012908D00068C0F3810002280AD1D9F8A1
:100BE0000000400206D52868800337D560680028D9
:100BF000E1D033E06068B0F5803F10D0B0F5A02FB1
:100C0000286810D020F480302860286820F48020E4
:100C100028606068A8B1FFF707FE06460DE0286867
:100C200040F48030F4E740F480202860F7E700BF0C
:100C3000FFF7FAFD801B642873D828688003F7D576
:100C40000CE0FFF7F1FD064605E000BFFFF7ECFD05
:100C5000801B6428F0D828688003F7D42078DFF858
:100C60009C8280074FF0000A3ED5A348001D016812
:100C700011F00C0F08D00068C0F3810002280BD1DE
:100C8000D9F80000400207D42868800716D5E0682C
:100C9000012800D112E02BE1E068B8B10120C8F8CA
:100CA0000000FFF7C1FD064605E000BFFFF7BCFDF1
:100CB000801B0228C0D828688007F7D528682169DA
:100CC00020F0F80040EAC10028600DE0C8F800A05C
:100CD000FFF7AAFD064604E0FFF7A6FD801B0228E9
:100CE0001FD828688007F7D42078000722D5824EC5
:100CF00083486169703671B101210160FFF794FD8D
:100D0000074604E0FFF790FDC01B022809D83068B1
:100D10008007F7D50EE0C0F800A0FFF785FD074675
:100D200005E082E0FFF780FDC01B02287DD8306817
:100D30008007F7D42078400768D5DFF8BCB10027DA
:100D40000BF13C0BDBF80000C0000BD4DBF800100B
:100D500041F08051CBF80010DBF80000012700F0D3
:100D600080500090674E3068C00510D4306840F461
:100D700080703060FFF758FD009005E0FFF754FDEC
:100D80000099401A022850D83068C005F6D55A4E4E
:100D9000A0686C3601280FD00528306810D020F0EC
:100DA00001003060306820F004003060A068B8B105
:100DB000FFF73AFD00900FE0306840F00100F4E7E3
:100DC00040F004003060F7E7FFF72EFD0099411A6C
:100DD00041F28830814266D830688007F4D50EE051
:100DE000FFF722FD009007E0FFF71EFD0099411A72
:100DF00041F28830814256D830688007F4D42FB150
:100E0000DBF8001021F08051CBF80010A069C8B3C6
:100E10003949091D0968C1F3810102294AD0022814
:100E2000504607D0C8F8600000E03CE0FFF7FCFC4B
:100E300004463BE04746C8F86000FFF7F5FC06466D
:100E400005E000BFFFF7F0FC801B02282BD82868C4
:100E50008001F7D4D4E907010843A16A2A4A490866
:100E600002EB0141626A41EA8211084394F82C10B6
:100E700040EA0161C9F8001001203866FFF7D4FC90
:100E8000044606E036E000BFFFF7CEFC001B022858
:100E900009D828688001F7D52CE000BFFFF7C4FC13
:100EA000001B022802D90320BDE8F88F28688001C2
:100EB000F4D41FE00128F7D0D9F80000E26900F46B
:100EC0008001914214D1226A00F03F0191420FD17A
:100ED00047F6C071626A0140914209D1A26A00F4EA
:100EE0004031914204D1E16A00F07060884201D043
:100EF0000120D9E70020D7E704380240000047422C
:100F0000800E4742007000400000FFFF70B515469C
:100F10000E46040003D094F8490010B107E0012008
:100F200070BD002084F84800204600F01AF804F153
:100F300008012068FFF7D2FA3146A2682068FFF75F
:100F4000F7FAD4E901022946236BFFF7A7FAA16853
:100F5000206850F8212042F0010240F821200020B2
:100F600070BDFFF72BBB70477047000070B590F85D
:100F70003C20012A32D0012480F83C40022280F833
:100F80003D2003685A689D6822F070060A68324363
:100F90005A60134B02689A4214D0B2F1804F11D0BC
:100FA000104B9A420ED0104B9A420BD00F4B9A42E4
:100FB00008D00F4B9A4205D00E4B9A4202D00E4BEE
:100FC0009A4204D1496825F080031943916080F862
:100FD0003D40002180F83C10084670BD022070BDE5
:100FE000000001400004004000080040000C0040E8
:100FF00000040140004001400018004010B504000A
:1010000003D094F83D0010B107E0012010BD00208E
:1010100084F83C00204600F00DF8022084F83D00E2
:10102000211D206803F06EF8012084F83D000020A7
:1010300010BD000008B500680649884208D106487E
:10104000016841F020010160006800F0200000907C
:1010500008BD000000140040403802400168CA6822
:1010600042F00102CA600068816801F007010629A8
:1010700003D0016841F00101016000207047704712
:1010800070B50446006801694FF00005C94389073F
:1010900015D4C168C943890711D4E91E0161012033
:1010A0002077206880698007204602D0FFF7E7FF9D
:1010B00004E000F098F8204600F096F825772068C4
:1010C0000169C943490717D4C168C943490713D403
:1010D0006FF004010161022020772068806910F41C
:1010E000407F204602D0FFF7CAFF04E000F07BF803
:1010F000204600F079F8257720680169C94309077F
:1011000016D4C168C943090712D46FF00801016100
:10111000042020772068C0698007204602D0FFF7AE
:10112000AEFF04E000F05FF8204600F05DF82577A0
:1011300020680169C943C90617D4C168C943C906F3
:1011400013D46FF010010161082020772068C06976
:1011500010F4407F204602D0FFF791FF04E000F03A
:1011600042F8204600F040F8257720680169C9431D
:10117000C90708D1C168C943C90704D1891E0161E3
:10118000204600F033F820680169C943090609D4F4
:10119000C168C943090605D46FF08001016120468A
:1011A000FFF7E1FE20680169C943490609D4C16817
:1011B000C943490605D46FF040010161204600F0A3
:1011C0001FF820680169C94389060BD4C168C94367
:1011D000890607D46FF0200101612046BDE8704008
:1011E000FFF7C2BE70BD704770470000006803493A
:1011F000884201D1FFF71EBB70470000000001408C
:101200007047704770B5026804461068D16853692A
:1012100010F00F0F52D003F0010501F490762E4329
:101220005FD0C20705D0CA0503D5E26B42F00102C8
:10123000E263420705D5DA0703D0E26B42F002020F
:10124000E263820705D5DA0703D0E26B42F00402BD
:10125000E263020707D501F020022A4303D0E26BC4
:1012600042F00802E263E26B002A33D0800604D524
:10127000880602D5204602F0BFFF20684069E16B76
:10128000C0F38010090700D428B3204602F0A6FF5F
:101290002068416949061AD5416921F04001416140
:1012A000606BA0B11B490165606BFFF763F9002813
:1012B00010D0606B016DBDE870400847830610D503
:1012C0008B060ED52046BDE8704002F095BF204643
:1012D000FFF797FF70BD2046FFF793FF0020E06304
:1012E00070BD030606D50B0604D52046BDE8704048
:1012F00003F062B84006F3D54806F1D5D168204620
:1013000021F04001D160202184F8391000F075F8F7
:1013100070BD0000CD41000870B5040004D094F801
:101320003900002510B106E0012070BD84F8385066
:10133000204600F023F8242084F839002068C16892
:1013400021F40051C160204602F0A2FF206801692B
:1013500021F4904101612068416921F02A01416135
:101360002068C16841F40051C160E563202084F821
:10137000390084F83A00002070BD000010B586B036
:10138000044614216846FEF753FF18492068884236
:1013900029D117480021026842F01002026000685B
:1013A00000F01000059012481438026842F0010263
:1013B0000260006800F0010005904FF4C0600090EA
:1013C0000220CDE901010320039007200490694623
:1013D0000848FFF747F9002211462520FFF7ACFA2D
:1013E0002520FFF79BFA06B010BD00000010014059
:1013F000443802400000024070477047FEE700009A
:1014000070B50B490646002408884D88214645439F
:10141000204600F017FA00F04BFBB0B24FF0D84175
:1014200003E000BFA1F88000641CAC42FAD370BD99
:10143000A80100202DE9F04F33492C240A46887179
:101440002A2592882B2645F2105B4FF4305E4FF42C
:1014500048774FF0F00949F2413A4FF4A07845F24D
:10146000103C4FF4F07358B1A1F80080A1F802903D
:10147000524501D0624529D10C814D818E8139E0E0
:10148000A1F80090A1F80280524501D0624508D130
:101490000C814D818E81624531D1A1F800804B8055
:1014A0002DE05A4508D1A1F808E04FF428504881B2
:1014B0004FF42C50888106E0A2F5C85063381ED145
:1014C0000C814E818D810B804F8018E05A4508D1E8
:1014D000A1F808E04FF4285048814FF42C5088813F
:1014E00006E0A2F5C850633804D10C814D818E818D
:1014F0000F804B80624502D10B80A1F80280BDE8CD
:10150000F04F002000F0C2B8A80100202DE9F04300
:10151000444C91460246A08823460D464FEA1128C6
:10152000160A5B89A0F51341413917D0A0F5A641F1
:10153000103913D0A0F5AA41103914D02646A0F5D1
:10154000C857B1793688B61A761E633F25D0A0F504
:10155000D047043F3DD0012951D051E0184600F05A
:101560009BFA30463CE0184600F096FA304600F010
:1015700087FA6089401C80B200F08EFAD0B200F089
:101580007FFAA08900F088FA404600F079FAA08935
:10159000401C80B200F080FA2DE001B9B2B21846CA
:1015A00000F07AFA160A304600F06AFAD0B200F07B
:1015B00067FA304600F064FAD0B200F061FAA08910
:1015C00000F06AFA404600F05BFAE8B200F058FA20
:1015D0000EE0012900D1B2B2184600F05DFA100AFF
:1015E00000F04EFAD0B200F04BFAA08900F054FAA5
:1015F000404600F045FAE8B200F042FA08E0B2B224
:101600001146184600F05EFAA089294600F05AFA01
:101610004FF0D840218920F87E1FA0F80290BDE845
:10162000F0830000A801002008B54FF0D840B0F8C2
:101630008000ADF80000BDF8000008BD10B50246FE
:10164000BE2000F029FA052000F01AFA1046FEF735
:101650006CFE9FED0C1B53EC112BFEF7F4FDFEF717
:1016600071FE80B200F00CFA012000F009FAFF20B0
:1016700000F006FA002000F003FABDE81040002058
:1016800000F0FEB96666666666660440F0B56C4CAE
:1016900000232146A279898841F66316012A01D0E8
:1016A0001AB11BE0B14202D118E0B14216D10828AC
:1016B00014D2DFE800F00406080A0C0E101206200F
:1016C0000CE007200AE0042008E0052006E00120E5
:1016D00004E0002002E0032000E00220A1F513470F
:1016E00045F2103245F21055413F05D0914203D0EA
:1016F000A94201D0B14277D1082812D2DFE800F028
:10170000110406080A0C0E1080230AE0402308E0AA
:10171000C02306E0202304E0602302E0A02300E0D1
:10172000E023A94202D14FF4585000E03620914204
:1017300005D0A94203D0B14201D043F008031946B5
:1017400000F0C0F9A188B1420AD0980620886288CA
:1017500002D5904202D303E0904201D922806080FA
:101760006089A94241D100F097F9002000F088F982
:101770006089401C80B200F08FF9002000F080F9F1
:101780006089801C80B200F087F92088401EC0F379
:101790000F2000F075F96089C01C80B200F07CF960
:1017A0002078401EC0B200F06BF9A08900F074F9F7
:1017B000002000F065F9A089401C80B200F06CF9AF
:1017C000002000F05DF9A089801C80B200F064F96F
:1017D0006088401EC0F30F2000F052F9A089C01CA1
:1017E00080B200F059F922E028E000F055F900201D
:1017F00000F046F9002000F043F92088401EC0F3B5
:101800000F2000F03DF92078401EC0B200F038F9FA
:10181000A08900F041F9002000F032F9002000F02A
:101820002FF96088401EC0F30F2000F029F9A0783E
:10183000BDE8F040401EC0B200F022B9F0BD00008B
:10184000A8010020F0B53F4A0D460446060A9188DB
:1018500010462F0A4089A1F51343413B28D0A1F53A
:10186000A643103B24D0A1F5C853633B2FD0A1F56C
:10187000AA43103B64D100F00FF9304600F000F9A4
:101880005089401C80B200F007F9E0B200F0F8F88F
:10189000908900F001F9384600F0F2F89089401C78
:1018A00080B200F0F9F8E8B2BDE8F04000F0E8B826
:1018B00000F0F2F8304600F0E3F8E0B200F0E0F8B3
:1018C000908900F0E9F8384600F0DAF8EBE7917912
:1018D00029B300F0E1F8304600F0D2F8E0B200F0B1
:1018E000CFF81088401EC0F30F2000F0C9F8107820
:1018F000401EC0B200F0C4F8908900F0CDF8384620
:1019000000F0BEF8E8B200F0BBF85088401EC0F30B
:101910000F2000F0B5F89078401EC0B2C4E71188DF
:10192000091B491E8CB200F0B7F8002000F0A8F89F
:10193000002000F0A5F8200A00F0A2F8E0B2D9E7F4
:10194000F0BD0000A80100202DE9FF4F1D460C4608
:101950008A46580700D0012000EBD500690810FB2B
:1019600001F0203A00F0FF09D0B20026DFF8A4B061
:1019700002904BE00C2D11D0102D14D0182D17D043
:10198000202D45D12449029801EBC0104FF00008EA
:10199000875D380613D52148026814E00298204973
:1019A00000EB400008E01F49029801EB0010EDE752
:1019B00002981D4900EBC00001EB8000E6E70D989E
:1019C00028B91648426821460098FFF79FFD78061F
:1019D000070E641CBBF80200A4B2A04218D9A4EB05
:1019E0000A00A84209D100985446401C80B20090D9
:1019F000BBF8001081420BD906E008F1010000F0AD
:101A0000FF08B8F1080FC4D3761CF6B24E45B1D327
:101A1000BDE8FF8FA8010020565D000818000020D7
:101A2000964500080A4A0008FA4F00082DE9F84FC9
:101A3000044600F0FF0910190D46DDE90AB61FFA49
:101A400080F8581987B24FF0000A12E0444503D3DA
:101A500005EB0B004C4685B2BD420FD25B462946D2
:101A60002046CDF800A0FFF76FFF04EB5B0084B2C7
:101A7000761C3278A2F120005E28E7D9BDE8F88F05
:101A800001B5BDF80000ADF80000BDF800004FF052
:101A9000D841A1F8800008BD01B5BDF80000ADF83F
:101AA0000000BDF800004FF0D841A1F87E0008BD4D
:101AB00003484FF0D8410089A1F87E00704700002C
:101AC000A80100204FF0D84222F87E0F51807047C5
:101AD0002DE9F04F8FB01C216846FEF7A9FB1C21B1
:101AE00007A8FEF7A5FB2E4806210024C0E9021432
:101AF0001025C0E904458461C4614FF4805B046231
:101B0000C0E9094BA902C0E90B414463DFF894A086
:101B100084634FF020484464C0E9008A0F2602A97C
:101B200000963C201127019681E8B1000920CDE9FB
:101B300006400AA84FF0080980E8B0000D94CDE9EE
:101B4000086907AA69461648FFF7E0F908B1FEF7E9
:101B5000A3FC1348042150300022C0E90214C0E95C
:101B600004458461C4610462C0E9094BC462046332
:101B7000446384634464C0E9008A8DE8500203A88A
:101B8000694680E8B000064806945030FFF7BEF979
:101B9000002801D0FEF780FC0FB0BDE8F08F0000F8
:101BA00048000020040100A02DE9F04387B0142173
:101BB0006846FEF73DFB3B480025016841F01001F7
:101BC0000160016801F010010591016841F0040114
:101BD0000160016801F004010591016841F02001F4
:101BE0000160016801F020010591016841F0800168
:101BF0000160016801F080010591016841F0010177
:101C00000160016801F001010591016841F04001A6
:101C10000160016801F040010591016841F0020195
:101C20000160016801F002010591016841F00801BD
:101C300001600068DFF8708000F008004FF4C066B3
:101C40000590012231464046FEF7E8FDDFF85C9042
:101C50004FF40047002239464846FEF7DFFD1C20BE
:101C6000CDE900050124694602941148FEF7FAFC0B
:101C7000CDE900640226CDE9024669464046FEF7FA
:101C8000F1FC8DE8700069460A48FEF7EBFC01AAFA
:101C9000009782E8700069464846FEF7E3FC07B00B
:101CA000BDE8F083303802400014024000040240D6
:101CB00000100240000002401CB500240E480094B1
:101CC0000C49019401605321C0E901140121846190
:101CD000C160FFF793F908B1FEF7DEFB0094694697
:101CE00005480194FFF742F9002801D0FEF7D4FB24
:101CF0001CBD000000140040E80000200C4810B596
:101D00000A4901604FF4E1314160002181600C22F9
:101D1000C160C0E904128161C161FFF7FDFA0028CA
:101D200003D0BDE81040FEF7B7BB10BD0010014066
:101D300028010020FEE7704770474FF0E02104289B
:101D4000086903D020F004000861704740F00400E7
:101D5000FAE7000030B593B030216846FEF768FA24
:101D600014210CA8FEF764FA19480025016841F017
:101D700080510160006800F08050119015480168A2
:101D800041F4804101600068022400F48040119019
:101D900001200090000401908001CDE9064008AACE
:101DA0000420A82182E813000B906846FEF700FF8C
:101DB0000CA90F2081E831004FF4A0500F90E002F1
:101DC000109005210CA8FEF7E9FD13B030BD00000E
:101DD00040380240007000400548016841F470013D
:101DE000016003494FF000608039086070470000CF
:101DF00088ED00E02DE9F05F3220FEF7CDFBD32027
:101E0000FFF74AFEFFF710FCFE4CA080FFF70CFC2A
:101E1000A080FFF709FC4FF6FF7909EA0020A080B7
:101E2000FFF702FCA18849F241360843A08045F241
:101E3000103745F2105541F66318B04247D0D42010
:101E4000FFF72AFEFFF7F0FBA080FFF7EDFBA08075
:101E5000FFF7EAFB09EA00204A46A080FFF7E4FB0F
:101E6000A1880843A080B84231D04FF45A40FFF710
:101E700013FEFFF7D9FBA0804FF45B40FFF70CFE89
:101E8000FFF7D2FB02EA0020A0804FF45C40FFF78E
:101E900003FEFFF7C9FBA1880843A080B0F5004FFF
:101EA0007DD0A84213D0A120FFF7F6FDFFF7BCFBC1
:101EB000A080FFF7B9FB02EA0020A080FFF7B4FB87
:101EC000A1880843A0F5AE41A080613968D080B2F6
:101ED000B04266D1CF20FFF7DFFD0020FFF7D0FD35
:101EE000C120FFF7CDFD3020FFF7CAFDED20FFF741
:101EF000D3FD6420FFF7C4FD0320FFF7C1FD1220CE
:101F0000FFF7BEFD8120FFF7BBFDE820FFF7C4FD12
:101F10008520FFF7B5FD1020FFF7B2FD7A20FFF70F
:101F2000AFFDCB20FFF7B8FD3920FFF7A9FD2C202E
:101F3000FFF7A6FD0020FFF7A3FD3420FFF7A0FD6B
:101F40000220FFF79DFDF720FFF7A6FD2020FFF7F9
:101F500097FDEA20FFF7A0FD0020FFF791FD00208C
:101F6000FFF78EFDC020FFF797FD1B20FFF788FDD0
:101F7000C120FFF791FD0120FFF782FDC520FFF78B
:101F80008BFD3020FFF77CFD3020FFF779FDC72067
:101F9000FFF782FDB720FFF773FD362002E0B5E0C2
:101FA000B0E0B5E0FFF778FD4820FFF769FD3A2083
:101FB000FFF772FD5520FFF763FDB120FFF76CFDC1
:101FC0000020FFF75DFD1A20FFF75AFDB620FFF74E
:101FD00063FD0A20FFF754FDA220FFF751FDF22018
:101FE000FFF75AFD0020FFF74BFD2620FFF754FDB9
:101FF0000120FFF745FDE020FFF74EFD0F20FFF722
:102000003FFD2A20FFF73CFD2820FFF739FD08207F
:10201000FFF736FD0E20FFF733FD0820FFF730FDF8
:102020005420FFF72DFDA920FFF72AFD4320FFF7DD
:1020300027FD0A20FFF724FD0F20FFF721FD0020D8
:10204000FFF71EFD0020FFF71BFD0020FFF718FD26
:102050000020FFF715FDE120FFF71EFD0020FFF730
:102060000FFD1520FFF70CFD1720FFF709FD0720D6
:10207000FFF706FD1120FFF703FD0620FFF700FD27
:102080002B20FFF7FDFC5620FFF7FAFC3C20FFF762
:10209000F7FC0520FFF7F4FC1020FFF7F1FC0F2000
:1020A000FFF7EEFC3F20FFF7EBFC3F20FFF7E8FCDB
:1020B0000F20FFF7E5FC2B20FFF7EEFC0020FFF7D9
:1020C000DFFC0020FFF7DCFC0120FFF7D9FC3F20FC
:1020D000FFF7D6FC2A20FFF7DFFC0020FFF7D0FC3B
:1020E0000020FFF7CDFC0020FFF7CAFCEF20FFF730
:1020F000C7FC1120FFF7D0FC7820FEF74DFA29200D
:1021000001F009BFA4F8048001F00ABFA580FDE337
:10211000B84276D1ED20FFF7BFFC0120FFF7B0FCFD
:10212000FE20FFF7ADFCEE20FFF7B6FCDE20FFF748
:10213000A7FC2120FFF7A4FCF120FFF7ADFC012054
:10214000FFF79EFCDF20FFF7A7FC1020FFF798FCAD
:10215000C420FFF7A1FC8F20FFF792FCC620FFF7F9
:102160009BFC0020FFF78CFCE220FFF789FCE220BB
:10217000FFF786FCE220FFF783FCBF20FFF78CFC13
:10218000AA20FFF77DFCB020FFF786FC0D20FFF7AB
:1021900077FC0020FFF774FC0D20FFF771FC002096
:1021A000FFF76EFC1120FFF76BFC0020FFF768FCC7
:1021B0001920FFF765FC0020FFF762FC2120FFF7E4
:1021C0005FFC0020FFF75CFC2D20FFF759FC00208E
:1021D000FFF756FC3D20FFF753FC0020FFF750FCB3
:1021E0005D20FFF74DFC0020FFF74AFC5D20FFF764
:1021F00047FC0020FFF744FCB120FFF74DFC802096
:1022000002E0FDE3A8010020FFF73AFC0020FFF701
:1022100037FC8B20FFF734FC0020FFF731FC9620C1
:10222000FFF72EFC0020FFF72BFCB220FFF734FC59
:102230000020FFF725FC0020FFF722FC0220FFF71B
:102240001FFC0020FFF71CFC0320FFF719FC0020F7
:10225000FFF716FCB320FFF71FFC0020FFF710FC70
:102260000020FFF70DFC0020FFF70AFC0020FFF71D
:1022700007FC0020FFF704FC0020FFF701FC002012
:10228000FFF7FEFB0020FFF7FBFB0020FFF7F8FB4A
:102290000020FFF7F5FB0020FFF7F2FB0020FFF71F
:1022A000EFFB0020FFF7ECFB0020FFF7E9FB00202D
:1022B000FFF7E6FB0020FFF7E3FB0020FFF7E0FB62
:1022C0000020FFF7DDFB0020FFF7DAFB0020FFF71F
:1022D000D7FB0020FFF7D4FB0020FFF7D1FB002045
:1022E000FFF7CEFB0020FFF7CBFBB420FFF7D4FBBA
:1022F0008B20FFF7C5FB0020FFF7C2FB9620FFF7FE
:10230000BFFB0020FFF7BCFBA120FFF7B9FB0020BB
:10231000FFF7B6FBB520FFF7BFFB0220FFF7B0FBCE
:102320000020FFF7ADFB0320FFF7AAFB0020FFF71B
:10233000A7FB0420FFF7A4FB0020FFF7A1FBB620BA
:10234000FFF7AAFB0020FFF79BFB0020FFF798FB9D
:10235000B720FFF7A1FB0020FFF792FB0020FFF75B
:102360008FFB3F20FFF78CFB0020FFF789FB5E20EF
:10237000FFF786FB0020FFF783FB6420FFF780FB5D
:102380000020FFF77DFB8C20FFF77AFB0020FFF792
:1023900077FBAC20FFF774FB0020FFF771FBDC201C
:1023A000FFF76EFB0020FFF76BFB7020FFF768FB69
:1023B0000020FFF765FB9020FFF762FB0020FFF78E
:1023C0005FFBEB20FFF75CFB0020FFF759FBDC20F5
:1023D000FFF756FB0020FFF753FBB820FFF75CFB2D
:1023E0000020FFF74DFB0020FFF74AFB0020FFF71E
:1023F00047FB0020FFF744FB0020FFF741FB0020D4
:10240000FFF73EFB0020FFF73BFB0020FFF738FB08
:10241000BA20FFF741FB2420FFF732FB0020FFF733
:102420002FFB0020FFF72CFB0020FFF729FBC1202A
:10243000FFF732FB2020FFF723FB0020FFF720FBF4
:102440005420FFF71DFB0020FFF71AFBFF20FFF7CA
:1024500017FB0020FFF714FBC220FFF71DFB0A202B
:10246000FFF70EFB0020FFF70BFB0420FFF708FB34
:102470000020FFF705FBC320FFF70EFB3C20FFF712
:10248000FFFA0020FFF7FCFA3A20FFF7F9FA0020E4
:10249000FFF7F6FA3920FFF7F3FA0020FFF7F0FA1A
:1024A0003720FFF7EDFA0020FFF7EAFA3C20FFF7AC
:1024B000E7FA0020FFF7E4FA3620FFF7E1FA002000
:1024C000FFF7DEFA3220FFF7DBFA0020FFF7D8FA39
:1024D0002F20FFF7D5FA0020FFF7D2FA2C20FFF7C4
:1024E000CFFA0020FFF7CCFA2920FFF7C9FA002025
:1024F000FFF7C6FA2620FFF7C3FA0020FFF7C0FA5D
:102500002420FFF7BDFA0020FFF7BAFA2420FFF7D6
:10251000B7FA0020FFF7B4FA2320FFF7B1FA002042
:10252000FFF7AEFA3C20FFF7ABFA0020FFF7A8FA5E
:102530003620FFF7A5FA0020FFF7A2FA3220FFF7B6
:102540009FFA0020FFF79CFA2F20FFF799FA00204E
:10255000FFF796FA2C20FFF793FA0020FFF790FA86
:102560002920FFF78DFA0020FFF78AFA2620FFF7CF
:1025700087FA0020FFF784FA2420FFF781FA002071
:10258000FFF77EFA2420FFF77BFA0020FFF778FAA6
:102590002320FFF775FA0020FFF772FAC420FFF737
:1025A0007BFA6220FFF76CFA0020FFF769FA05203A
:1025B000FFF766FA0020FFF763FA8420FFF760FA5E
:1025C0000020FFF75DFAF020FFF75AFA0020FFF72E
:1025D00057FA1820FFF754FA0020FFF751FAA42009
:1025E000FFF74EFA0020FFF74BFA1820FFF748FAE2
:1025F0000020FFF745FA5020FFF742FA0020FFF7CE
:102600003FFA0C20FFF73CFA0020FFF739FA1720B9
:10261000FFF736FA0020FFF733FA9520FFF730FA7C
:102620000020FFF72DFAF320FFF72AFA0020FFF72A
:1026300027FAE620FFF724FA0020FFF721FAC52049
:10264000FFF72AFA3220FFF71BFA0020FFF718FAEB
:102650004420FFF715FA0020FFF712FA6520FFF774
:102660000FFA0020FFF70CFA7620FFF709FA002096
:10267000FFF706FA8820FFF703FA0020FFF700FAB9
:10268000C620FFF709FA2020FFF7FAF90020FFF72C
:10269000F7F91720FFF7F4F90020FFF7F1F901200F
:1026A000FFF7EEF90020FFF7EBF9C720FFF7F4F989
:1026B0000020FFF7E5F90020FFF7E2F90020FFF71F
:1026C000DFF90020FFF7DCF9C820FFF7E5F900206B
:1026D000FFF7D6F90020FFF7D3F90020FFF7D0F974
:1026E0000020FFF7CDF9C920FFF7D6F90020FFF74A
:1026F000C7F90020FFF7C4F90020FFF7C1F9002057
:10270000FFF7BEF90020FFF7BBF90020FFF7B8F98B
:102710000020FFF7B5F90020FFF7B2F90020FFF71E
:10272000AFF90020FFF7ACF90020FFF7A9F900206E
:10273000FFF7A6F90020FFF7A3F90020FFF7A0F9A3
:102740000020FFF79DF90020FFF79AF9E020FFF73E
:10275000A3F91620FFF794F90020FFF791F91C2048
:10276000FFF78EF90020FFF78BF92120FFF788F99A
:102770000020FFF785F93620FFF782F90020FFF7E8
:102780007FF94620FFF77CF90020FFF779F9522006
:10279000FFF776F90020FFF773F96420FFF770F96F
:1027A0000020FFF76DF97A20FFF76AF90020FFF7A4
:1027B00067F98B20FFF764F90020FFF761F9992092
:1027C000FFF75EF90020FFF75BF9A820FFF758F943
:1027D0000020FFF755F9B920FFF752F90020FFF765
:1027E0004FF9C420FFF74CF90020FFF749F9CA2040
:1027F000FFF746F90020FFF743F9D220FFF740F931
:102800000020FFF73DF9D920FFF73AF90020FFF744
:1028100037F9E020FFF734F90020FFF731F9F32012
:10282000FFF72EF90020FFF72BF9E120FFF734F92D
:102830001620FFF725F90020FFF722F91C20FFF7EB
:102840001FF90020FFF71CF92220FFF719F90020DB
:10285000FFF716F93620FFF713F90020FFF710F9FC
:102860004520FFF70DF90020FFF70AF95220FFF786
:1028700007F90020FFF704F96420FFF701F90020B1
:10288000FFF7FEF87A20FFF7FBF80020FFF7F8F8D3
:102890008B20FFF7F5F80020FFF7F2F89920FFF7FB
:1028A000EFF80020FFF7ECF8A820FFF7E9F8002088
:1028B000FFF7E6F8B920FFF7E3F80020FFF7E0F8AC
:1028C000C420FFF7DDF80020FFF7DAF8CA20FFF791
:1028D000D7F80020FFF7D4F8D220FFF7D1F8002076
:1028E000FFF7CEF8D820FFF7CBF80020FFF7C8F8A5
:1028F000E020FFF7C5F80020FFF7C2F8F320FFF74C
:10290000BFF80020FFF7BCF8E22000E082E3FFF709
:10291000C3F80520FFF7B4F80020FFF7B1F80B204B
:10292000FFF7AEF80020FFF7ABF81B20FFF7A8F881
:102930000020FFF7A5F83420FFF7A2F80020FFF7EA
:102940009FF84420FFF79CF80020FFF799F84F20EC
:10295000FFF796F80020FFF793F86120FFF790F853
:102960000020FFF78DF87920FFF78AF80020FFF7A5
:1029700087F88820FFF784F80020FFF781F8972078
:10298000FFF77EF80020FFF77BF8A620FFF778F826
:102990000020FFF775F8B720FFF772F80020FFF767
:1029A0006FF8C220FFF76CF80020FFF769F8C72026
:1029B000FFF766F80020FFF763F8D120FFF760F813
:1029C0000020FFF75DF8D620FFF75AF80020FFF748
:1029D00057F8DD20FFF754F80020FFF751F8F320F7
:1029E000FFF74EF80020FFF74BF8E320FFF754F80D
:1029F0000520FFF745F80020FFF742F80A2000E025
:102A000006E3FFF73DF80020FFF73AF81C20FFF738
:102A100037F80020FFF734F83320FFF731F80020B3
:102A2000FFF72EF84420FFF72BF80020FFF728F8D7
:102A30005020FFF725F80020FFF722F86220FFF76B
:102A40001FF80020FFF71CF87820FFF719F8002086
:102A5000FFF716F88820FFF713F80020FFF710F8AB
:102A60009720FFF70DF80020FFF70AF8A620FFF7E0
:102A700007F80020FFF704F8B720FFF701F800205F
:102A8000FEF7FEFFC220FEF7FBFF0020FEF7F8FF77
:102A9000C720FEF7F5FF0020FEF7F2FFD120FEF77A
:102AA000EFFF0020FEF7ECFFD520FEF7E9FF002046
:102AB000FEF7E6FFDD20FEF7E3FF0020FEF7E0FF74
:102AC000F320FEF7DDFF0020FEF7DAFFE420FEF73B
:102AD000E3FF0120FEF7D4FF0020FEF7D1FF012025
:102AE000FEF7CEFF0020FEF7CBFF0220FEF7C8FF67
:102AF0000020FEF7C5FF2A20FEF7C2FF0020FEF7E8
:102B0000BFFF3C20FEF7BCFF0020FEF7B9FF4B20C3
:102B1000FEF7B6FF0020FEF7B3FF5D20FEF7B0FF23
:102B20000020FEF7ADFF7420FEF7AAFF0020FEF79D
:102B3000A7FF8420FEF7A4FF0020FEF7A1FF93204B
:102B4000FEF79EFF0020FEF79BFFA220FEF798FFF6
:102B50000020FEF795FFB320FEF792FF0020FEF75E
:102B60008FFFBE20FEF78CFF0020FEF789FFC420F8
:102B7000FEF786FF0020FEF783FFCD20FEF780FFE3
:102B80000020FEF77DFFD320FEF77AFF0020FEF73E
:102B900077FFDD20FEF774FF0020FEF771FFF320C2
:102BA000FEF76EFF0020FEF76BFFE520FEF774FFD7
:102BB0000020FEF765FF0020FEF762FF0020FEF711
:102BC0005FFF0020FEF75CFF0220FEF759FF0020A8
:102BD000FEF756FF2920FEF753FF0020FEF750FFB7
:102BE0003C20FEF74DFF0020FEF74AFF4B20FEF78A
:102BF00047FF0020FEF744FF5D20FEF741FF002065
:102C0000FEF73EFF7420FEF73BFF0020FEF738FF83
:102C10008420FEF735FF0020FEF732FF9320FEF7F9
:102C20002FFF0020FEF72CFFA220FEF729FF002037
:102C3000FEF726FFB320FEF723FF0020FEF720FF5C
:102C4000BE20FEF71DFF0020FEF71AFFC420FEF78E
:102C500017FF0020FEF714FFCD20FEF711FF002024
:102C6000FEF70EFFD320FEF70BFF0020FEF708FF54
:102C7000DC20FEF705FF0020FEF702FFF320FEF741
:102C8000FFFE0020FEF7FCFEE620FEF705FF112008
:102C9000FEF7F6FE0020FEF7F3FE3420FEF7F0FE0E
:102CA0000020FEF7EDFE5620FEF7EAFE0020FEF7BC
:102CB000E7FE7620FEF7E4FE0020FEF7E1FE772037
:102CC000FEF7DEFE0020FEF7DBFE6620FEF7D8FEF4
:102CD0000020FEF7D5FE8820FEF7D2FE0020FEF78A
:102CE000CFFE9920FEF7CCFE0020FEF7C9FEBB20E8
:102CF000FEF7C6FE0020FEF7C3FE9920FEF7C0FED9
:102D00000020FEF7BDFE6620FEF7BAFE0020FEF7AB
:102D1000B7FE5520FEF7B4FE0020FEF7B1FE5520A9
:102D2000FEF7AEFE0020FEF7ABFE4520FEF7A8FE44
:102D30000020FEF7A5FE4320FEF7A2FE0020FEF7CE
:102D40009FFE4420FEF79CFE0020FEF799FEE72040
:102D5000FEF7A2FE3220FEF793FE0020FEF790FE63
:102D60005520FEF78DFE0020FEF78AFE7620FEF746
:102D700087FE0020FEF784FE6620FEF781FE00201D
:102D8000FEF77EFE6720FEF77BFE0020FEF778FE52
:102D90006720FEF775FE0020FEF772FE8720FEF723
:102DA0006FFE0020FEF76CFE9920FEF769FE002002
:102DB000FEF766FEBB20FEF763FE0020FEF760FE16
:102DC0009920FEF75DFE0020FEF75AFE7720FEF701
:102DD00057FE0020FEF754FE4420FEF751FE00206F
:102DE000FEF74EFE5620FEF74BFE0020FEF748FE93
:102DF0002320FEF745FE0020FEF742FE3320FEF7BB
:102E00003FFE0020FEF73CFE4520FEF739FE002085
:102E1000FEF736FEE820FEF73FFE0020FEF730FE0C
:102E20000020FEF72DFE9920FEF72AFE0020FEF777
:102E300027FE8720FEF724FE0020FEF721FE8820D3
:102E4000FEF71EFE0020FEF71BFE7720FEF718FEA1
:102E50000020FEF715FE6620FEF712FE0020FEF7AA
:102E60000FFE8820FEF70CFE0020FEF709FEAA20C8
:102E7000FEF706FE0020FEF703FEBB20FEF700FE75
:102E80000020FEF7FDFD9920FEF7FAFD0020FEF779
:102E9000F7FD6620FEF7F4FD0020FEF7F1FD55205A
:102EA000FEF7EEFD0020FEF7EBFD5520FEF7E8FDF6
:102EB0000020FEF7E5FD4420FEF7E2FD0020FEF7CE
:102EC000DFFD4420FEF7DCFD0020FEF7D9FD552094
:102ED000FEF7D6FD0020FEF7D3FDE920FEF7DCFD6E
:102EE000AA20FEF7CDFD0020FEF7CAFD0020FEF768
:102EF000C7FD0020FEF7C4FD0020FEF7CDFDAA208F
:102F0000FEF7BEFDCF20FEF7C7FD0020FEF7B8FD9F
:102F10000020FEF7B5FD0020FEF7B2FD0020FEF711
:102F2000AFFD0020FEF7ACFD0020FEF7A9FD00205C
:102F3000FEF7A6FD0020FEF7A3FD0020FEF7A0FD92
:102F40000020FEF79DFD0020FEF79AFD0020FEF711
:102F500097FD0020FEF794FD0020FEF791FD002074
:102F6000FEF78EFD0020FEF78BFD0020FEF788FDAA
:102F7000F020FEF791FD0020FEF782FD5020FEF7C5
:102F80007FFD0020FEF77CFD0020FEF779FD00208C
:102F9000FEF776FDF320FEF77FFD0020FEF770FDC3
:102FA000F920FEF779FD0620FEF76AFD1020FEF7F6
:102FB00067FD2920FEF764FD0020FEF761FD3A2041
:102FC000FEF76AFD5520FEF75BFD1120FEF764FD5C
:102FD0006420FDF7E1FA2920FEF75EFD3520FEF7BB
:102FE0005BFD0020FEF74CFD5120FEF755FDFF2054
:102FF000FEF746FD5320FEF74FFD2C20FEF740FD67
:103000005520FEF749FD8220FEF73AFD2C20FCE317
:10301000A8427CD14FF4704355211846FEF752FD6B
:103020004FF2010AAA215046FEF74CFD4FF2020B67
:1030300052215846FEF746FD08214FF20300FEF7E5
:1030400041FD01214FF20400FEF73CFD0D214FF43C
:103050003040FEF737FD0D214BF20100FEF732FD47
:103060000D214BF20200FEF72DFD34214FF43640C6
:10307000FEF728FD34214BF20160FEF723FD3421D9
:103080004BF20260FEF71EFD0D214FF43140FEF7BA
:1030900019FD0D214BF20110FEF714FD0D214BF22D
:1030A0000210FEF70FFD34214FF43740FEF70AFD02
:1030B00034214BF20170FEF705FD34214BF2027012
:1030C000FEF700FD00214FF43240FEF7FBFC00212B
:1030D0004BF20120FEF7F6FC00214BF20220FEF736
:1030E000F1FC24214FF43840FEF7ECFC24214BF690
:1030F0000100FEF7E7FC24214BF60200FEF7E2FC9C
:1031000001214FF43F40FEF7DDFC0F2100E0FDE31D
:103110004FF43340FEF7D6FC0F214BF20130FEF79F
:10312000D1FC0F214BF20230FEF7CCFC34214FF4DE
:103130003940FEF7C7FC34214BF60110FEF7C2FC04
:1031400034214BF60210FEF7BDFC08214FF4354048
:10315000FEF7B8FC08214BF20150FEF7B3FC082142
:103160004BF20250FEF7AEFC03214FF44240FEF753
:10317000A9FC24214FF43A40FEF7A4FC24214BF68D
:103180000120FEF79FFC24214BF60220FEF79AFC5B
:1031900000214FF43C40FEF795FC78214BF60140AE
:1031A000FEF790FC00214BF60240FEF78BFC00215D
:1031B0004FF43D40FEF786FC78214BF60150FEF7B8
:1031C00081FC00214BF60250FEF77CFC00214FF4FD
:1031D0003E40FEF777FC64214BF60160FEF772FC7F
:1031E00000214FF45140FEF76DFC33214DF20110E8
:1031F000FEF768FC00214DF20210FEF763FC34215B
:103200004DF20310FEF75EFC00214DF20410FEF7B4
:1032100059FC3A214DF20510FEF754FC00214DF205
:103220000610FEF74FFC4A214DF20710FEF74AFC4C
:1032300000214DF20810FEF745FC5C214DF209100B
:10324000FEF740FC00214DF20A10FEF73BFC812105
:103250004DF20B10FEF736FC00214DF20C10FEF77C
:1032600031FCA6214DF20D10FEF72CFC00214DF291
:103270000E10FEF727FCE5214DF20F10FEF722FCA1
:1032800001214DF21010FEF71DFC13214DF211101B
:10329000FEF718FC01214DF21210FEF713FC542129
:1032A0004DF21310FEF70EFC01214DF21410FEF743
:1032B00009FC82214DF21510FEF704FC01214DF2AC
:1032C0001610FEF7FFFBCA214DF21710FEF7FAFBAE
:1032D00002214DF21810FEF7F5FB00214DF21910F6
:1032E000FEF7F0FB02214DF21A10FEF7EBFB012175
:1032F0004DF21B10FEF7E6FB02214DF21C10FEF70B
:10330000E1FB34214DF21D10FEF7DCFB02214DF2F2
:103310001E10FEF7D7FB67214DF21F10FEF7D2FB00
:1033200002214DF22010FEF7CDFB84214DF2211039
:10333000FEF7C8FB02214DF22210FEF7C3FBA421C9
:103340004DF22310FEF7BEFB02214DF22410FEF7D2
:10335000B9FBB7214DF22510FEF7B4FB02214DF267
:103360002610FEF7AFFBCF214DF22710FEF7AAFB88
:1033700002214DF22810FEF7A5FBDE214DF22910A7
:10338000FEF7A0FB02214DF22A10FEF79BFBF22173
:103390004DF22B10FEF796FB02214DF22C10FEF79A
:1033A00091FBFE214DF22D10FEF78CFB03214DF217
:1033B0002E10FEF787FB10214DF22F10FEF782FB37
:1033C00003214DF23010FEF77DFB33214DF2311019
:1033D000FEF778FB03214DF23210FEF773FB6D21EF
:1033E0004DF23310FEF76EFB00214FF45240FEF712
:1033F00069FB33214DF20120FEF764FB00214DF201
:103400000220FEF75FFB34214DF20320FEF75AFB4A
:1034100000214DF20420FEF755FB3A214DF2052024
:10342000FEF750FB00214DF20620FEF74BFB4A2130
:103430004DF20720FEF746FB00214DF20820FEF773
:1034400041FB5C214DF20920FEF73CFB00214DF2CF
:103450000A20FEF737FB81214DF20B20FEF732FBED
:1034600000214DF20C20FEF72DFBA6214DF20D2080
:10347000FEF728FB00214DF20E20FEF723FBE5218D
:103480004DF20F20FEF71EFB01214DF21020FEF73A
:1034900019FB13214DF21120FEF714FB01214DF20F
:1034A0001220FEF70FFB54214DF21320FEF70AFB0A
:1034B00001214DF21420FEF705FB82214DF215206B
:1034C000FEF700FB01214DF21620FEF7FBFACA21A0
:1034D0004DF21720FEF7F6FA02214DF21820FEF702
:1034E000F1FA00214DF21920FEF7ECFA02214DF21B
:1034F0001A20FEF7E7FA01214DF21B20FEF7E2FA4F
:1035000002214DF21C20FEF7DDFA34214DF21D2080
:10351000FEF7D8FA02214DF21E20FEF7D3FA6721FA
:103520004DF21F20FEF7CEFA02214DF22020FEF7C9
:10353000C9FA84214DF22120FEF7C4FA02214DF28E
:103540002220FEF7BFFAA4214DF22320FEF7BAFA9B
:1035500002214DF22420FEF7B5FAB7214DF22520C5
:10356000FEF7B0FA02214DF22620FEF7ABFACF218A
:103570004DF22720FEF7A6FA02214DF22820FEF791
:10358000A1FADE214DF22920FEF79CFA02214DF22C
:103590002A20FEF797FAF2214DF22B20FEF792FA3D
:1035A00002214DF22C20FEF78DFAFE214DF22D2046
:1035B000FEF788FA03214DF22E20FEF783FA102140
:1035C0004DF22F20FEF77EFA03214DF23020FEF758
:1035D00079FA33214DF23120FEF774FA03214DF2CE
:1035E0003220FEF76FFA6D214DF23320FEF76AFAB2
:1035F00000214FF45340FEF765FA33214DF20130BC
:10360000FEF760FA00214DF20230FEF75BFA34213A
:103610004DF20330FEF756FA00214DF20430FEF76A
:1036200051FA3A214DF20530FEF74CFA00214DF2E5
:103630000630FEF747FA4A214DF20730FEF742FA0C
:1036400000214DF20830FEF73DFA5C214DF20930C1
:10365000FEF738FA00214DF20A30FEF733FA8121E5
:103660004DF20B30FEF72EFA00214DF20C30FEF732
:1036700029FAA6214DF20D30FEF724FA00214DF271
:103680000E30FEF71FFAE5214DF20F30FEF71AFA61
:1036900001214DF21030FEF715FA13214DF21130D1
:1036A000FEF710FA01214DF21230FEF70BFA542109
:1036B0004DF21330FEF706FA01214DF21430FEF7F9
:1036C00001FA82214DF21530FEF7FCF901214DF28D
:1036D0001630FEF7F7F9CA214DF21730FEF7F2F96E
:1036E00002214DF21830FEF7EDF900214DF21930AC
:1036F000FEF7E8F902214DF21A30FEF7E3F9012155
:103700004DF21B30FEF7DEF902214DF21C30FEF7C0
:10371000D9F934214DF21D30FEF7D4F902214DF2D2
:103720001E30FEF7CFF967214DF21F30FEF7CAF9C0
:1037300002214DF22030FEF7C5F984214DF22130EF
:10374000FEF7C0F902214DF22230FEF7BBF9A421A9
:103750004DF22330FEF7B6F902214DF22430FEF788
:10376000B1F9B7214DF22530FEF7ACF902214DF247
:103770002630FEF7A7F9CF214DF22730FEF7A2F948
:1037800002214DF22830FEF79DF9DE214DF229305D
:10379000FEF798F902214DF22A30FEF793F9F22153
:1037A0004DF22B30FEF78EF902214DF22C30FEF750
:1037B00089F9FE214DF22D30FEF784F903214DF2F7
:1037C0002E30FEF77FF910214DF22F30FEF77AF9F7
:1037D00003214DF23030FEF775F933214DF23130CF
:1037E000FEF770F903214DF23230FEF76BF96D21CF
:1037F0004DF23330FEF766F900214FF45440FEF7E6
:1038000061F933214DF2014000E084E3FEF75AF9FB
:1038100000214DF20240FEF755F934214DF20340EC
:10382000FEF750F900214DF20440FEF74BF93A2122
:103830004DF20540FEF746F900214DF20640FEF735
:1038400041F94A214DF20740FEF73CF900214DF2C3
:103850000840FEF737F95C214DF20940FEF732F9D6
:1038600000214DF20A40FEF72DF981214DF20B4067
:10387000FEF728F900214DF20C40FEF723F9A621AE
:103880004DF20D40FEF71EF900214DF20E40FEF7FD
:1038900019F9E5214DF20F40FEF714F901214DF21F
:1038A0001040FEF70FF913214DF21140FEF70AF90F
:1038B00001214DF21240FEF705F954214DF213405B
:1038C000FEF700F901214DF21440FEF7FBF88221CA
:1038D0004DF21540FEF7F6F801214DF21640FEF7C5
:1038E000F1F8CA214DF21740FEF7ECF802214DF233
:1038F0001840FEF7E7F800214DF21940FEF7E2F814
:1039000002214DF21A40FEF7DDF800E006E3012146
:103910004DF21B40FEF7D6F802214DF21C40FEF797
:10392000D1F834214DF21D40FEF7CCF802214DF2C2
:103930001E40FEF7C7F867214DF21F40FEF7C2F8A0
:1039400002214DF22040FEF7BDF884214DF22140C6
:10395000FEF7B8F802214DF22240FEF7B3F8A42199
:103960004DF22340FEF7AEF802214DF22440FEF75F
:10397000A9F8B7214DF22540FEF7A4F802214DF237
:103980002640FEF79FF8CF214DF22740FEF79AF828
:1039900002214DF22840FEF795F8DE214DF2294034
:1039A000FEF790F802214DF22A40FEF78BF8F22143
:1039B0004DF22B40FEF786F802214DF22C40FEF727
:1039C00081F8FE214DF22D40FEF77CF803214DF2E7
:1039D0002E40FEF777F810214DF22F40FEF772F8D7
:1039E00003214DF23040FEF76DF833214DF23140A6
:1039F000FEF768F803214DF23240FEF763F86D21BF
:103A00004DF23340FEF75EF800214FF45540FEF7CB
:103A100059F833214DF20150FEF754F800214DF2D0
:103A20000250FEF74FF834214DF20350FEF74AF8EA
:103A300000214DF20450FEF745F83A214DF20550B1
:103A4000FEF740F800214DF20650FEF73BF84A2100
:103A50004DF20750FEF736F800214DF20850FEF700
:103A600031F85C214DF20950FEF72CF800214DF29F
:103A70000A50FEF727F881214DF20B50FEF722F88D
:103A800000214DF20C50FEF71DF8A6214DF20D500D
:103A9000FEF718F800214DF20E50FEF713F8E5215D
:103AA0004DF20F50FEF70EF801214DF21050FEF7C7
:103AB00009F813214DF21150FEF704F801214DF2DF
:103AC0001250FDF7FFFF54214DF21350FDF7FAFF9E
:103AD00001214DF21450FDF7F5FF82214DF21550F2
:103AE000FDF7F0FF01214DF21650FDF7EBFFCA2163
:103AF0004DF21750FDF7E6FF02214DF21850FDF789
:103B0000E1FF00214DF21950FDF7DCFF02214DF2DB
:103B10001A50FDF7D7FF01214DF21B50FDF7D2FFE0
:103B200002214DF21C50FDF7CDFF34214DF21D5006
:103B3000FDF7C8FF02214DF21E50FDF7C3FF6721BC
:103B40004DF21F50FDF7BEFF02214DF22050FDF750
:103B5000B9FF84214DF22150FDF7B4FF02214DF24F
:103B60002250FDF7AFFFA4214DF22350FDF7AAFF2D
:103B700002214DF22450FDF7A5FFB7214DF225504B
:103B8000FDF7A0FF02214DF22650FDF79BFFCF214C
:103B90004DF22750FDF796FF02214DF22850FDF718
:103BA00091FFDE214DF22950FDF78CFF02214DF2ED
:103BB0002A50FDF787FFF2214DF22B50FDF782FFCF
:103BC00002214DF22C50FDF77DFFFE214DF22D50CC
:103BD000FDF778FF03214DF22E50FDF773FF102102
:103BE0004DF22F50FDF76EFF03214DF23050FDF7DF
:103BF00069FF33214DF23150FDF764FF03214DF28F
:103C00003250FDF75FFF6D214DF23350FDF75AFF43
:103C100000214FF45640FDF755FF33214DF201606E
:103C2000FDF750FF00214DF20260FDF74BFF3421FC
:103C30004DF20360FDF746FF00214DF20460FDF7F1
:103C400041FF3A214DF20560FDF73CFF00214DF2A6
:103C50000660FDF737FF4A214DF20760FDF732FF9E
:103C600000214DF20860FDF72DFF5C214DF2096047
:103C7000FDF728FF00214DF20A60FDF723FF8121A7
:103C80004DF20B60FDF71EFF00214DF20C60FDF7B9
:103C900019FFA6214DF20D60FDF714FF00214DF232
:103CA0000E60FDF70FFFE5214DF20F60FDF70AFFF3
:103CB00001214DF21060FDF705FF13214DF2116057
:103CC000FDF700FF01214DF21260FDF7FBFE5421CC
:103CD0004DF21360FDF7F6FE01214DF21460FDF781
:103CE000F1FE82214DF21560FDF7ECFE01214DF24F
:103CF0001660FDF7E7FECA214DF21760FDF7E2FE00
:103D000002214DF21860FDF7DDFE00214DF2196031
:103D1000FDF7D8FE02214DF21A60FDF7D3FE012116
:103D20004DF21B60FDF7CEFE02214DF21C60FDF747
:103D3000C9FE34214DF21D60FDF7C4FE02214DF293
:103D40001E60FDF7BFFE67214DF21F60FDF7BAFE52
:103D500002214DF22060FDF7B5FE84214DF2216075
:103D6000FDF7B0FE02214DF22260FDF7ABFEA4216B
:103D70004DF22360FDF7A6FE02214DF22460FDF70F
:103D8000A1FEB7214DF22560FDF79CFE02214DF208
:103D90002660FDF797FECF214DF22760FDF792FEDA
:103DA00002214DF22860FDF78DFEDE214DF22960E3
:103DB000FDF788FE02214DF22A60FDF783FEF22115
:103DC0004DF22B60FDF77EFE02214DF22C60FDF7D7
:103DD00079FEFE214DF22D60FDF774FE03214DF2B8
:103DE0002E60FDF76FFE10214DF22F60FDF76AFE89
:103DF00003214DF23060FDF765FE33214DF2316055
:103E0000FDF760FE03214DF23260FDF75BFE6D2190
:103E10004DF23360FDF756FE55211846FDF752FE70
:103E2000AA215046FDF74EFE52215846FDF74AFEA4
:103E300008214FF20300FDF745FE00214FF2040078
:103E4000FDF740FECC214FF43140FDF73BFE002151
:103E50004BF20110FDF736FE05214FF43640FDF719
:103E600031FE70214FF43740FDF72CFE70214BF2EC
:103E70000170FDF727FE01214FF43840FDF722FEC7
:103E800003214BF60100FDF71DFE03214BF6020056
:103E9000FDF718FE03214BF60300FDF713FE022188
:103EA0004FF43C40FDF70EFE00214BF60140FDF7BC
:103EB00009FE00214BF60240FDF704FED0214FF42D
:103EC0004940FDF7FFFD02214CF60110FDF7FAFD18
:103ED00050214CF60210FDF7F5FD50214CF6031071
:103EE000FDF7F0FD50214CF60410FDF7EBFD00212D
:103EF0004FF45450FDF7E6FD55214FF46850FDF79F
:103F0000E1FD4FF48850FDF7C7FD7720401EC0B299
:103F1000FCD24FF42450FDF7BFFDBAE04045FCD180
:103F2000E220FDF7B9FD1D20FDF7AAFD0220FDF7F7
:103F3000A7FD0420FDF7A4FD6320401EC0B2FCD203
:103F4000E020FDF7A9FD0120FDF79AFD0A20FCF70E
:103F500023FBE020FDF7A0FD0320FDF791FD0C20E1
:103F6000FCF71AFB0120FDF797FD0A20FCF714FB74
:103F7000E620FDF791FD2F20FDF782FDFF20FDF7E4
:103F80007FFDFF20FDF77CFDB020FDF785FD2020A3
:103F9000FDF776FD0020FDF773FD0320FDF770FDB2
:103FA00040F21F30FDF76CFD0120FDF769FD40F286
:103FB000DF10FDF765FD0020FDF762FDB420FDF781
:103FC0006BFD0420FDF75CFD40F21F40FDF758FD3E
:103FD0000020FDF755FD2E20FDF752FD0020FDF7D6
:103FE0004FFD0020FDF74CFD0020FDF749FD0020AE
:103FF000FDF746FDB620FDF74FFD0220FDF740FD21
:104000004FF40370FDF73CFD0020FDF739FD17204C
:10401000FDF736FD1520FDF733FD0020FDF730FDDF
:104020000020FDF72DFDF020FDF736FD0320FDF704
:1040300027FD2920FDF730FDD020FDF72DFD0020C4
:10404000FDF71EFDBE20FDF727FD0520FDF718FD3D
:10405000FE20FDF715FD0120FDF712FD0020FDF704
:104060000FFD0020FDF70CFD0020FDF709FDB82035
:10407000FDF712FD0320FDF703FD0120FDF700FD14
:10408000BA20FDF709FD0120FDF7FAFC6420FDF7D9
:10409000D5FAA088B04205D0B84203D0A84201D0DA
:1040A000404519D14FF02040D0F81C1121F00F01EC
:1040B000C0F81C11D0F81C1121F47061C0F81C115B
:1040C000D0F81C1141F00301C0F81C11D0F81C11EC
:1040D00041F40071C0F81C110020FDF7ABF9054850
:1040E000016841F4004101604846BDE8F05FFDF71A
:1040F00087B90000140402400148FCF7C1BF00006A
:1041000068010020F0B50268254C264D264E274F49
:10411000274B4FF0804CA04209D0604507D0A84201
:1041200005D0B04203D0B84201D0984204D122F069
:10413000700E4A6842EA0E02A0421BD0604519D0B8
:10414000A84217D0B04215D0B84213D0984211D02F
:10415000184DA8420ED0184DA8420BD0174DA842BA
:1041600008D0174DA84205D0164DA84202D0164DD2
:10417000A84203D122F44075CA682A434D6922F04F
:1041800080022A4302608A68C2620A688262A04290
:1041900001D0984201D10969016301214161F0BD5B
:1041A000000001400004004000080040000C0040F6
:1041B000000401400040014000440140004801402B
:1041C00000180040001C00400020004010B5806B2B
:1041D0000021C185C184FDF714F810BD0168CA68CB
:1041E00022F49072CA6001684A6922F001024A61B1
:1041F000202180F83A10704710B590F83A10222923
:1042000001D0022010BD8168B1F5805F11D0016935
:10421000002901681FD0496801F07F03816A4A1CA8
:1042200082620B70C18D491E0904090CC18518D02A
:104230002BE00269816A002A0268526805D0D2B276
:104240000A80816A491C8162ECE7C2F308020A8095
:10425000816A891CF7E74A68816A4B1C83620A708D
:10426000E0E70168CA6822F02002CA600168CA68F3
:1042700022F48072CA6001684A6922F001024A6130
:10428000202180F83A10FDF7B7F8002010BD00009B
:104290002DE9F041044600680169E26821F44051CB
:1042A000114301612169A068E26908436169114312
:1042B00008432168CA6849F20C639A430243CA6002
:1042C00020684169A26921F4407111434161E069AC
:1042D000192764253226B0F5004F354A3549206844
:1042E0004FF0000806D0884201D0904236D1FCF74A
:1042F0001FFC35E0884201D0904202D1FCF718FC47
:1043000001E0FCF705FC61684A18A0FB070148EBD7
:104310000803FBF755FF0146B0FBF5F00201B1FBC6
:10432000F5F06FF01803584301EB800006EBC00076
:10433000B0FBF5F000F0F80002EB4002B1FBF5F045
:10434000584301EB800006EBC000B0FBF5F000F035
:104350000700216810448860BDE8F081FCF7D8FBB5
:1043600061688B0F8A00A0FB0701FBF729FF01465C
:10437000B0FBF5F06FF01802504301EB800006EB44
:104380000010B0FBF5F000F0F002B1FBF5F002EB2D
:104390000012B1FBF5F06FF01803584301EB8000F9
:1043A00006EB0010B0FBF5F000F00F00D1E70000C5
:1043B000001401400010014090F83910212901D06B
:1043C000022070478168B1F5805F016A0BD04A1CFA
:1043D0000262026809785160C18C491E0904090C07
:1043E000C1840ED017E009880268C1F3080151604A
:1043F00001690029016A02D0491C0162ECE7891CAD
:10440000FBE70168CA6822F08002CA600068C168E0
:1044100041F04001C1600020704700000148FCF7F6
:10442000F1BE000028010020FEE70907090E002860
:1044300004DB00F1E02080F80014704700F00F006A
:1044400000F1E02080F8141D704702E008C8121F38
:1044500008C1002AFAD170477047002001E001C16D
:10446000121F002AFBD1704700B502466FF004000E
:10447000FDF763FC0648D10801EB41020170C2EB75
:10448000C1114FF6FF7202EAC101418000BD000078
:10449000440000201CB5FCF7D5F9FDF75BFCFDF7E7
:1044A00083FBFDF715FBFDF729FCFDF705FCA820B4
:1044B000FFF7DAFFFDF79EFC002000F01FF8012057
:1044C00000F01CF8022000F019F84FF6FF70FCF71E
:1044D00097FF182004A1CDE900010346D2220A214A
:1044E0001E20FDF7A3FAFEE74D59206E616D652091
:1044F00069732059594A65642100000070B504466B
:104500000B480C4E002150F8240006EB84054200B5
:10451000686900F02DF806480021183050F8242072
:10452000A86800F025F80120311981F8200070BD3D
:10453000D88C00082000002010B50B4B0B4C00223B
:1045400053F82030114604EB800005E0446934F84C
:10455000114004B1521C491C8B42F7D864204243DD
:10456000B2FBF3F0C0B210BDD88C000820000020D0
:1045700002E000BF00F8011B521EFBD27047000092
:104580000000000000000102030406070809000003
:104590000000010203040000000000000000000011
:1045A0000000000000003F4000000000000000008C
:1045B0003000400030004000000009000BC03D000A
:1045C0000BC03D00090018C024407FE0224031802C
:1045D0000000180024C01B000D80324001800380C1
:1045E0001C4027401C800740004010006000000075
:1045F0000000000000000000000000001F802040BC
:1046000040200000402020401F80000000000900E2
:1046100006001F80060009000000040004003F801F
:104620000400040000000010006000000000000012
:104630000000040004000400040004000000000066
:1046400000400000000000000000002001C0060043
:104650003800400000001F802040204020401F8084
:104660000000000010403FC000400000000018C0E3
:104670002140224024401840000010802040244067
:1046800024401B80000002000D0011003FC00140CB
:1046900000003C80244024402440238000001F80F0
:1046A000244024403440038000003000200027C014
:1046B0003800200000001B802440244024401B8040
:1046C00000001C0022C0224022401F800000000089
:1046D000000008400000000000000000000004602E
:1046E000000000000000000004000A00110020800B
:1046F000404009000900090009000900000000000D
:104700004040208011000A000400180020002340CF
:104710002400180000001F802040274029401F402F
:104720000000004007C039000F0001C000402040D9
:104730003FC0244024401B8000001F8020402040B8
:1047400020403080000020403FC0204020401F809B
:10475000000020403FC024402E4030C000002040D8
:104760003FC024402E00300000000F001080204089
:1047700022403380020020403FC0040004003FC0BC
:104780002040204020403FC02040204000000060EA
:10479000202020203FC02000200020403FC0244097
:1047A0000B0030C0204020403FC02040004000406F
:1047B00000C03FC03C0003C03C003FC000002040A0
:1047C0003FC00C4023003FC020001F8020402040FD
:1047D00020401F80000020403FC0244024001800DB
:1047E00000001F802140214020E01FA00000204049
:1047F0003FC02440260019C0004018C02440244077
:10480000224031800000300020403FC02040300076
:10481000000020003F80004000403F80200020003A
:104820003E0001C0070038002000380007C03C00EF
:1048300007C038000000204039C0060039C02040C1
:1048400000002000384007C0384020000000304001
:1048500021C02640384020C00000000000007FE05A
:10486000402040200000000070000C000380004049
:1048700000000000402040207FE000000000000019
:104880002000400020000000000000100010001078
:1048900000100010001000000000400000000000A8
:1048A0000000000002800540054003C000402000D9
:1048B0003FC0044004400380000000000380044027
:1048C00004400640000000000380044024403FC034
:1048D0000040000003800540054003400000000048
:1048E00004401FC0244024402000000002E0055086
:1048F00005500650042020403FC00440040003C07F
:1049000000400000044027C00040000000000010EC
:104910000010041027E00000000020403FC00140CC
:10492000070004C00440204020403FC00040004039
:10493000000007C0040007C0040003C000000440DA
:1049400007C00440040003C000400000038004408E
:10495000044003800000041007F00450044003806A
:104960000000000003800440045007F000100440E1
:1049700007C002400400040000000000064005409B
:10498000054004C00000000004001F8004400040F7
:104990000000040007800040044007C000400400FD
:1049A000070004C0018006000400060001C00700E3
:1049B00001C006000000044006C0010006C004401B
:1049C00000000410071004E001800600040000004D
:1049D000044005C006400440000000000000040040
:1049E0007BE040200000000000000000FFF000001D
:1049F0000000000040207BE00400000000004000B8
:104A00008000400020002000400000000000000066
:104A10000000000000000000000000000000000096
:104A20001FCC000C00000000000000000800300057
:104A300060000800300060000000022003FC1E201F
:104A4000022003FC1E200220000000000E181104AA
:104A50003FFF10840C78000000000F0010840F3816
:104A600000C0077818840078000000780F8410C414
:104A700011240E9800E4008400080800680070000B
:104A80000000000000000000000000000000000026
:104A900007E0181820044002000000004002200433
:104AA000181807E0000000000000024002400180EA
:104AB0000FF0018002400240000000800080008072
:104AC0000FF800800080008000000001000D000E43
:104AD00000000000000000000000000000800080D6
:104AE000008000800080008000800000000C000C2E
:104AF0000000000000000000000000000006001898
:104B000000600180060018002000000007F008087F
:104B100010041004080807F000000000080408044E
:104B20001FFC000400040000000000000E0C101424
:104B30001024104411840E0C000000000C18100406
:104B40001104110412880C700000000000E0032022
:104B5000042408241FFC0024000000001F98108477
:104B600011041104108810700000000007F008887C
:104B70001104110418880070000000001C001000CF
:104B800010FC13001C001000000000000E3811443F
:104B90001084108411440E38000000000700088CB7
:104BA00010441044088807F00000000000000000D6
:104BB000030C030C000000000000000000000001D6
:104BC000010600000000000000000000008001401D
:104BD0000220041008081004000002200220022015
:104BE0000220022002200220000000001004080819
:104BF0000410022001400080000000000E0012009E
:104C0000100C106C10800F00000003E00C1813E46F
:104C1000142417C4082807D000000004003C03C473
:104C20001C40074000E4001C000410041FFC110499
:104C3000110411040E880070000003E00C18100429
:104C40001004100410081C10000010041FFC1004B5
:104C500010041004080807F0000010041FFC1104E1
:104C6000110417C410040818000010041FFC1104DC
:104C7000110017C010000800000003E00C18100419
:104C8000100410441C780040000010041FFC108425
:104C90000080008010841FFC100400001004100429
:104CA0001FFC1004100400000000000300011001AC
:104CB00010011FFE10001000000010041FFC110462
:104CC00003801464181C1004000010041FFC10045E
:104CD000000400040004000C000010041FFC1F006E
:104CE00000FC1F001FFC1004000010041FFC0C043B
:104CF000030000E010181FFC100007F00808100463
:104D000010041004080807F0000010041FFC1084B1
:104D10001080108010800F00000007F00818102489
:104D20001024101C080A07F2000010041FFC1104D4
:104D3000110011C011300E0C000400000E1C1104F3
:104D40001084108410441C38000018001000100457
:104D50001FFC100410001800000010001FF81004C1
:104D60000004000410041FF8100010001E0011E0E1
:104D7000001C007013801C0010001FC0103C00E0DD
:104D80001F0000E0103C1FC000001004180C163477
:104D900001C001C01634180C100410001C001304CC
:104DA00000FC13041C00100000000804101C106418
:104DB000108413041C041018000000000000000000
:104DC0007FFE4002400240020000000030000C0064
:104DD00003800060001C000300000000400240024D
:104DE00040027FFE000000000000000000002000E4
:104DF00040004000400020000000000100010001D0
:104E0000000100010001000100010000400040001D
:104E100020000000000000000000000000980124B5
:104E200001440144014400FC000410001FFC008800
:104E30000104010400880070000000000070008878
:104E400001040104010400880000000000700088D3
:104E50000104010411081FFC0004000000F80144D3
:104E600001440144014400C80000000001040104A1
:104E70000FFC1104110411001800000000D60129D4
:104E80000129012901C90106000010041FFC00844A
:104E900001000100010400FC0004000001041904E9
:104EA00019FC0004000400000000000000030001E1
:104EB0000101190119FE0000000010041FFC00246C
:104EC000004001B4010C01040000000010041004B3
:104ED0001FFC0004000400000000010401FC0104A8
:104EE000010001FC0104010000FC010401FC00843C
:104EF00001000100010400FC0004000000F80104AE
:104F000001040104010400F80000010101FF008513
:104F10000104010400880070000000000070008897
:104F200001040104010501FF00010104010401FC69
:104F300000840104010001800000000000CC012475
:104F40000124012401240198000000000100010057
:104F500007F80104010400000000010001F800044A
:104F600000040004010801FC00040100018001703C
:104F7000000C001001600180010001F0010C003004
:104F800001C00030010C01F0010000000104018C9F
:104F900000740170018C01040000010101810171A4
:104FA000000E001801600180010000000184010C66
:104FB000013401440184010C0000000000000000E5
:104FC000000001003EFC4002400200000000000022
:104FD0000000FFFF0000000000000000400240024F
:104FE0003EFC0100000000000000000060008000A6
:104FF0008000400040002000200000000000000071
:1050000000000000000000000000000000000000A0
:105010000000000000000000000000000000000090
:10502000000000000000000000000000000F8038B9
:105030000FFE380F80380000000000000000000064
:1050400000000000000000000100000600000C004D
:10505000003800003100000600000C00003800009D
:105060003000000000000000000061800067F807C9
:10507000F9800061800061800061800061800067CC
:10508000F807F980006180000000000000000000C7
:1050900001C0E003E0F00630080418081FFFFE041A
:1050A0000E080787F00381E000000000000001F017
:1050B00000060C00040408060C7001F9C0000E0084
:1050C000003BE000EC18070808040C180003E0009F
:1050D00000000001E00007F003F818041C080417A2
:1050E0000807E1D003C0E00023B0003C080020081E
:1050F000000010000000000000010000310000323C
:1051000000001C0000000000000000000000000083
:10511000000000000000000000000000000000008F
:10512000000000000000000000007F0001FFC00739
:1051300080F00C00181000042000020000000000A5
:10514000002000021000040C00180780F001FFC0CE
:10515000007F0000000000000000000000000000D0
:105160000000000000004200006600006600003CF5
:105170000000180003FFC0001800003C000066009B
:105180000066000042000000000008000008000067
:10519000080000080000080001FFC0000800000827
:1051A00000000800000800000800000000000001E6
:1051B00000003100003200001C0000000000000070
:1051C00000000000000000000000000000000000DF
:1051D00000000800000800000800000800000800A7
:1051E0000008000008000008000008000008000097
:1051F000000000000000000000003800003800003F
:105200003800000000000000000000000000000066
:1052100000000000000000000000000600001C006C
:105220000070000180000E0000380000C000070080
:10523000001C0000300000000000000000007F8023
:1052400001FFE0038070060018040008040008064F
:10525000001803807001FFE0007F80000000000064
:105260000000000001000801000801000803FFF829
:1052700007FFF80000080000080000080000000018
:10528000000000000001C03802C05804009804016A
:1052900018040218040418061C1803F81801E0F892
:1052A00000000000000000000001C0E003C0F004A6
:1052B000000804080804080806180803F41801E7A1
:1052C000F00001E00000000000000000000003000A
:1052D000000D0000110000610000810803010807B3
:1052E000FFF80FFFF80001080001080000000000AF
:1052F000000000E007FCD0060808061008061008A9
:10530000061008061838060FF00607C00000000057
:105310000000000000003F8001FFE003843002082D
:1053200018041008041008041008071810030FF0E0
:105330000007C000000000000000000003C00007DC
:1053400000000600000600F80607F806180006E050
:105350000007000006000000000000000001E1E07E
:1053600003F7F0063410041808041808040C0804A5
:105370000C0806161803F3F001C1E000000000005D
:105380000000F80003FC3003063804020804020899
:105390000402080404100308F001FFC0007F0000AD
:1053A00000000000000000000000000000000000FD
:1053B00000007038007038007038000000000000F5
:1053C00000000000000000000000000000000000DD
:1053D000000000000000301A00301C000000000037
:1053E00000000000000000000000000000000000BD
:1053F000000800001400002200004100008080012D
:105400000040020020040010080008000000000016
:1054100000002100002100002100002100002100E7
:1054200000210000210000210000210000210000D7
:105430000000000000000000080008040010020046
:105440002001004000808000410000220000140084
:1054500000080000000000000003C00004C00004B9
:105460000000080038080F380808380810000C3011
:105470000007E00003C000000000000000003F80C3
:1054800000FFE0038070020F1006708804C08804DB
:105490008308047F8802C09003012000FE400000C2
:1054A000080000180001F8003E0801C200070200D1
:1054B00007E20000FE00001FC80001F800003800ED
:1054C000000804000807FFF807FFF80408080408AC
:1054D0000804080804080806180803F41801E7F08F
:1054E0000001E0000000000000003F8001FFE00339
:1054F000807002001804000804000804000804007A
:10550000100600200780C000000004000807FFF814
:1055100007FFF8040008040008040008040018024B
:10552000001003807001FFE0007F80000000040095
:105530000807FFF807FFF80408080408080408082B
:10554000040808043E080400080600180100600072
:10555000000004000807FFF807FFF8040808040823
:1055600000040800040800043E00060000060000D5
:10557000018000000000000000003F8001FFE00308
:1055800080700600180400080402080402080203E0
:10559000F00783F000020000020004000807FFF893
:1055A00007FFF804080800080000080000080000D1
:1055B000080004080807FFF807FFF80400080000C7
:1055C0000000000004000804000804000807FFF8B9
:1055D00007FFF804000804000804000800000000A9
:1055E00000000000000000060000070000010400A9
:1055F0000104000104000307FFFE07FFFC04000094
:1056000004000004000004000807FFF807FFF80486
:105610000C08001800003E0004C7800503C80600FF
:10562000F804003804001800000804000807FFF818
:1056300007FFF80400080000080000080000080048
:1056400000080000080000180000600000000400CE
:105650000807FFF807800807FC00007FC00003F878
:105660000007C000780007800807FFF807FFF8046C
:10567000000804000807FFF807000803C00000E066
:1056800000003800001E000007000001C00400F008
:1056900007FFF8040000000000007F8001FFE00326
:1056A00080700600180400080400080600180300B3
:1056B0003001FFE0007F8000000004000807FFF8D1
:1056C00007FFF804040804040004040004040004B0
:1056D0000400060C0003F80001F0000000000000C8
:1056E00000007F8001FFE0038070060088040088CE
:1056F0000400C806003C03003E01FFE6007F840072
:10570000000004000807FFF807FFF8040808040871
:1057100000040C00040F00040BC00610F003F03866
:1057200001E00800000800000001E0F803F0300686
:105730003010041808041808040C08040C080206A9
:10574000180207F00781E000000001800006000059
:1057500004000004000004000807FFF807FFF80435
:10576000000804000004000006000001800004009E
:105770000007FFE007FFF004001800000800000821
:1057800000000800000800000804001007FFE00403
:10579000000004000006000007E00007FE00041FF0
:1057A000E00001F80000380001E0043E0007C000FE
:1057B00006000004000004000007E00007FFC0042A
:1057C0001FF80007C007F80007FF80043FF8000734
:1057D000C004F800070000040000000000040008F6
:1057E00006001807C07805F1C8003E00001F8004BD
:1057F00063E80780F80600180400080000000400B1
:105800000006000007800007E008047C08001FF87D
:105810000007F800180804E008070000060000046C
:1058200000000000000100080600380400F804032E
:10583000E8040F08047C0805F00807C008070018F2
:1058400004006000000000000000000000000000F4
:1058500000000000003FFFFE2000022000022000A8
:1058600002200002200002000000000000000000F2
:1058700008000007000000C000003800000600001B
:1058800001C000003000000E000001000000000018
:105890000000000020000220000220000220000280
:1058A0002000023FFFFE000000000000000000009A
:1058B00000000000000000000000000800001000D0
:1058C0000030000020000030000010000008000040
:1058D00000000000000000000100000100000100C5
:1058E00000010000010000010000010000010000B3
:1058F00001000001000001000001000000000000A4
:105900000000002000002000001000001000000037
:105910000000000000000000000000000000000087
:10592000000000F00019F8001B18002208002608EB
:10593000002408002410003FF8001FF800000800B1
:10594000001800000004000007FFF80FFFF0001827
:1059500018001008002008002008003018001FF070
:10596000000FC00000000000000007C0001FF00092
:105970001830002008002008002008003C08001C07
:10598000100000600000000000000000000007C0E0
:10599000001FF0003818002008002008002008042C
:1059A000101007FFF80FFFF00000100000000000CB
:1059B000000000000007C0001FF000123000221895
:1059C000002208002208003208001E10000E2000ED
:1059D000000000000000200000200800200801FF57
:1059E000F803FFF806200804200804200807200018
:1059F00003000000000000000000000E000E6E001A
:105A00001FF30031B10020B10020B1003191001F1F
:105A100013002E1E00200E003000000000040008BD
:105A200007FFF80FFFF8001008002000002000001A
:105A30002008003FF8001FF80000080000000000E8
:105A400000000000002008002008002008063FF8A1
:105A5000063FF800000800000800000800000000F1
:105A60000000000000000000000003000003002010
:105A700001002001002003063FFE063FFC0000005D
:105A800000000000000000000004000807FFF80FFD
:105A9000FFF8000188000300002FC00038F8002044
:105AA000380020080000080000000000000000008E
:105AB00004000804000804000807FFF80FFFF800BE
:105AC000000800000800000800000000000000209E
:105AD00008003FF8003FF8001008002000003FF8E1
