:020000040800F2
:10000000C00400209D010008971900081511000880
:100010009519000895040008A13F000800000000A1
:100020000000000000000000000000009B19000814
:100030009704000800000000991900089D190008A5
:10004000B7010008B7010008B7010008B7010008B0
:10005000B7010008B7010008B7010008B7010008A0
:10006000B7010008B7010008B7010008B701000890
:10007000B7010008B7010008B7010008B701000880
:10008000B7010008B7010008B7010008B701000870
:10009000B7010008B7010008B7010008B701000860
:1000A000B7010008B7010008B7010008B701000850
:1000B000B7010008B7010008B7010008B701000840
:1000C000B7010008B7010008B7010008B701000830
:1000D000B7010008953F0008B7010008B701000804
:1000E000B7010008B7010008B7010008B701000810
:1000F000B7010008B7010008B7010008B701000800
:10010000B7010008B7010008B7010008B7010008EF
:10011000B7010008B7010008B7010008B7010008DF
:10012000B7010008B7010008B7010008B7010008CF
:10013000B7010008B7010008B7010008B7010008BF
:10014000B7010008B7010008B7010008B7010008AF
:10015000B7010008B7010008B7010008B70100089F
:10016000B7010008B7010008B7010008B70100088F
:10017000B7010008B7010008B7010008000000003F
:10018000B7010008B7010008DFF80CD000F070F9E3
:1001900000480047E13F0008C004002006488047AF
:1001A00006480047FEE7FEE7FEE7FEE7FEE7FEE75C
:1001B000FEE7FEE7FEE7FEE7251A000889010008D2
:1001C0002DE9F05F0546002092469B46884606468C
:1001D000814640241BE0284641464746224600F01F
:1001E000D9F853465A46C01A914110D311461846C1
:1001F000224600F0C0F82D1A67EB01084F46224650
:100200000120002100F0B7F817EB00094E41201E35
:10021000A4F10104DFDC484631462A464346BDE8E6
:10022000F09FD2B201E000F8012B491EFBD27047CB
:100230000022F6E710B513460A4604461946FFF7B2
:10024000F0FF204610BD2DE9FE4F81EA030404F0C3
:10025000004421F0004100944FF0000B23F00043D4
:1002600050EA01045ED052EA03045BD0C3F30A549F
:10027000C1F30A552C44A4F2F3340194A0FB0254B8
:10028000C1F3130141F48011C3F3130343F480134A
:1002900001FB024400FB034E840A970A44EA81549E
:1002A00047EA8357A4FB076802958D0A05FB07857B
:1002B0004FEA932C04FB0C542705029D4FEA065885
:1002C00047EA1637B5EB08056EEB070C870E920E62
:1002D00047EA811742EA8312A7FB0201B6EB0B0142
:1002E00064EB00042B0D43EA0C335E1844EB1C5006
:1002F000DA465146E7FB0201C5F313044FEA0B331C
:1003000043EA14534FEA0432019C43EA0603A4F182
:100310000C040294009CCDE900B400F05AF803B03C
:10032000BDE8F08F00200146F9E70EB540F23341F9
:1003300002910021CDE900110A460B4600F049F870
:1003400003B000BDC1F30A5210B5C1F3130140F26E
:10035000FF3341F480119A4201DA002010BD40F2CF
:1003600033439A42A2F2334203DC524200F012F8C5
:1003700010BD904010BD202A04DB203A00FA02F1A3
:10038000002070479140C2F1200320FA03F3194383
:1003900090407047202A04DB203A21FA02F0002125
:1003A000704721FA02F3D040C2F120029140084385
:1003B0001946704710B5141E73F1000408DA401C8A
:1003C00041F1000192185B411A4301D120F0010074
:1003D00010BD2DE9F04D92469B4611B1B1FA81F264
:1003E00002E0B0FA80F220329046FFF7C4FF0446E4
:1003F0000F4640EA0A0041EA0B0153465A460843B9
:1004000013D0114653EA010019D0C8F140025046FA
:10041000FFF7C0FF05460E46504659464246FFF7D5
:10042000AAFF084305D0012004E020463946BDE874
:10043000F08D0020054346EAE0762C4337430A98C6
:100440006305E40AA0EB08000022FD0A44EA4754D1
:100450000A3002D500200146E9E70105101969417B
:10046000DDE9084500196941BDE8F04DA2E700004B
:10047000064C074D06E0E06840F0010394E80700F1
:1004800098471034AC42F6D3FFF782FE8487000809
:10049000A4870008FEE770477047000070B5B3F509
:1004A000804F05D06FF0704140F82210002070BDE1
:1004B00050F82240084B8E891C40D1E9003543EAB0
:1004C00005138D6889692D0245EA06452B430B43C8
:1004D000234340F82230E9E70000F0CFF0B50C6884
:1004E00050F82430114A1340D1E90125D1E90367BE
:1004F0002A433E4332434E6932438E693243CE69CA
:1005000032430E6A32434E6A32438E6A3243CE6AB7
:100510003243CE6B096B32430A431A43082D01D193
:1005200042F0400240F824200020F0BD8000F0FF9F
:1005300030B500EB820250688D8900F04043D1E96C
:10054000000440EA04108C68240244EA0544204375
:100550000C8A074D05EB045420430C7D6D0105EB1F
:10056000046489692043084318435060002030BD6B
:100570000000F0FF90F83510022903D0802141657A
:1005800001207047052180F835100068016821F0CE
:10059000010101600020704770B5044600F044F985
:1005A0000546601C02D004480078044400F03CF981
:1005B000401BA042FAD370BD080000202DE9F04195
:1005C00086B014216846FFF733FE204801680029F1
:1005D00039D1012101601E480024016841F0010168
:1005E000016000684FF4805800F001000C27CDF83E
:1005F0000080CDE90470032602250396CDE901545D
:100600006946144800F02EF84FF68070CDE90005D9
:1006100002AA694682E8D0000F4800F023F84CF2A5
:100620003370CDE9000502AA694682E8D0000B4884
:1006300000F018F802AA694682E8D000CDE90085EA
:10064000074800F00FF806B0BDE8F0810000002078
:10065000383802400014024000100240000C0240F2
:10066000001802402DE9F84F00224FF00108032541
:100670004FF00F0E0B6808FA02F42340A3426ED12C
:100680004E68012E05D0022E03D0112E01D0122E5D
:1006900012D186684FEA420C05FA0CF7BE43CF68C8
:1006A00007FA0CF7374387604668A6430C79C4F312
:1006B0000014944034434460C668570005FA07FCB0
:1006C0008C6826EA0C06BC403443C4604C68022C9B
:1006D00001D0122C13D1D40800EB8404A346D4F823
:1006E000209054074FEAD46A0EFA0AF629EA06095E
:1006F0000E6906FA0AF646EA0906CBF82060066893
:100700000C7926EA0C0604F00304BC403443046070
:100710004C68E40065D5364C266846F48046266071
:10072000246822F0030604F480440094314C3444DD
:10073000A446D4F808489607370F0EFA07F6B443D4
:100740002D4EB04201D1002624E02C4EB04201D102
:1007500001261FE02A4EB04202D102261AE040E0F4
:10076000284EB04201D1032614E0274EB04201D1F9
:1007700004260FE0254EB04201D105260AE0244EA2
:10078000B04201D1062605E0224EB04201D1072633
:1007900000E00826BE402643CCF808681E4E3468A8
:1007A0004F689C43FF0300D51C4334601A4C241D42
:1007B00026684F689E43BF0300D51E432660164E31
:1007C000083634684F689C43FF0200D51C433460F0
:1007D000114E0C3634684F689C43BF0200D51C4351
:1007E0003460521C102AFFF445AFBDE8F88F0000BA
:1007F0004438024000300140000002400004024042
:1008000000080240000C02400010024000140240A8
:1008100000180240001C0240003C01400AB1816106
:1008200070470904FBE7000001488068704700003A
:1008300008000020024881680278114481607047F6
:10084000080000200B4810B5016841F400710160F8
:10085000016841F480610160016841F480710160C8
:10086000032000F06FF8002000F006F800F024F8F4
:10087000002010BD003C024070B50D4D04464FF401
:100880007A712878B1FBF0F00A490968B1FBF0F001
:1008900000F02FFB48B9102C07D200222146501E31
:1008A00000F030F800206C6070BD012070BD0000C9
:1008B00008000020140000200A4808B5016841F42F
:1008C00080410160006800F4804000900548001FEE
:1008D000016841F080510160006800F08050009094
:1008E00008BD000044380240002809DB00F01F0268
:1008F000012191404009800000F1E020C0F8001182
:1009000070470000F0B40E4B1B680C46C3F3022383
:10091000C3F10705042D00D90425191D072901D2AB
:10092000002300E0DB1E012606FA05F1491E2140E6
:1009300099409E40761E16403143F0BC03F031BB17
:100940000CED00E0064900F0070208684FF6FF03CF
:10095000184040EA0220034A104308607047000034
:100960000CED00E00000FA052DE9F0470E46050009
:1009700065D0DFF81481D8F80000F7B200F00F005E
:10098000B04207D288F80070D8F8000000F00F00DD
:10099000B04254D128683D4C810712D5400703D599
:1009A000206840F4E05020602878000703D52068D4
:1009B00040F4604020602068A96820F0F0000843FF
:1009C00020602878C0072DD0304968680839012890
:1009D00012D0022813D0032811D0096889070029F2
:1009E0002DDA216821F0030101432160FFF71CFF8C
:1009F000814641F2883A0EE009688903EFE7096809
:100A00008901ECE7FFF710FFA0EB0901514502D97E
:100A10000320BDE8F0872068696800F00C00B0EBA7
:100A2000810FEFD1D8F80010404601F00F01B1421C
:100A300007D90770006800F00F00B04201D0012014
:100A4000E7E72878400705D52068E96820F4E050FA
:100A5000084320602878000706D52068296920F41B
:100A6000604040EAC100206000F038F82168084A80
:100A7000C1F30311515CC84006490860064800688C
:100A8000FFF7FAFE0020C4E7003C024008380240AD
:100A90002C400008140000200C00002004480549E8
:100AA00000680968044AC1F38221515CC84070475C
:100AB00014000020083802403C4000080448054962
:100AC00000680968044AC1F34231515CC84070476C
:100AD00014000020083802403C400008154810B5BA
:100AE000006810F00C02144813D04110042A0FD0F3
:100AF000082A0ED10F4C241F2268236802F03F02FF
:100B00005B0207D52068C0F38810A0FB010106E056
:100B1000084610BD2168C1F38811A1FB0001002324
:100B2000FFF74EFB2168C1F30141491C4900B0FBAE
:100B3000F1F010BD083802400024F4002DE9F84F10
:100B400004006ED02078DFF83C93C007A9F10405BB
:100B50004AD009F104000168C1F38101012908D0DC
:100B60000068C0F3810002280AD1D9F800004002D1
:100B700006D52868800337D560680028E1D033E0C7
:100B80006068B0F5803F10D0B0F5A02F286810D075
:100B900020F480302860286820F480202860606875
:100BA000A8B1FFF741FE06460DE0286840F480300A
:100BB000F4E740F480202860F7E700BFFFF734FE39
:100BC000801B642873D828688003F7D50CE0FFF7F2
:100BD0002BFE064605E000BFFFF726FE801B6428BB
:100BE000F0D828688003F7D42078DFF89C8280074B
:100BF0004FF0000A3ED5A348001D016811F00C0F0C
:100C000008D00068C0F3810002280BD1D9F8000099
:100C1000400207D42868800716D5E068012800D173
:100C200012E02BE1E068B8B10120C8F80000FFF73E
:100C3000FBFD064605E000BFFFF7F6FD801B02281E
:100C4000C0D828688007F7D52868216920F0F80007
:100C500040EAC10028600DE0C8F800A0FFF7E4FDFD
:100C6000064604E0FFF7E0FD801B02281FD8286835
:100C70008007F7D42078000722D5824E8348616927
:100C8000703671B101210160FFF7CEFD074604E027
:100C9000FFF7CAFDC01B022809D830688007F7D5C6
:100CA0000EE0C0F800A0FFF7BFFD074605E082E0B8
:100CB000FFF7BAFDC01B02287DD830688007F7D443
:100CC0002078400768D5DFF8BCB100270BF13C0B5A
:100CD000DBF80000C0000BD4DBF8001041F08051BD
:100CE000CBF80010DBF80000012700F080500090E6
:100CF000674E3068C00510D4306840F480703060B2
:100D0000FFF792FD009005E0FFF78EFD0099401A75
:100D1000022850D83068C005F6D55A4EA0686C3607
:100D200001280FD00528306810D020F00100306075
:100D3000306820F004003060A068B8B1FFF774FD9F
:100D400000900FE0306840F00100F4E740F004004C
:100D50003060F7E7FFF768FD0099411A41F28830EB
:100D6000814266D830688007F4D50EE0FFF75CFD5D
:100D7000009007E0FFF758FD0099411A41F28830D2
:100D8000814256D830688007F4D42FB1DBF80010C8
:100D900021F08051CBF80010A069C8B33949091D72
:100DA0000968C1F3810102294AD00228504607D0C0
:100DB000C8F8600000E03CE0FFF736FD04463BE089
:100DC0004746C8F86000FFF72FFD064605E000BF64
:100DD000FFF72AFD801B02282BD828688001F7D452
:100DE000D4E907010843A16A2A4A490802EB0141F4
:100DF000626A41EA8211084394F82C1040EA0161CA
:100E0000C9F8001001203866FFF70EFD044606E021
:100E100036E000BFFFF708FD001B022809D828684C
:100E20008001F7D52CE000BFFFF7FEFC001B022875
:100E300002D90320BDE8F88F28688001F4D41FE0B0
:100E40000128F7D0D9F80000E26900F4800191424E
:100E500014D1226A00F03F0191420FD147F6C071D0
:100E6000626A0140914209D1A26A00F44031914284
:100E700004D1E16A00F07060884201D00120D9E716
:100E80000020D7E70438024000004742800E474266
:100E9000007000400000FFFF70B515460E460400CC
:100EA00003D094F8490010B107E0012070BD002084
:100EB00084F84800204600F01AF804F10801206880
:100EC000FFF70CFB3146A2682068FFF731FBD4E93D
:100ED00001022946236BFFF7E1FAA168206850F868
:100EE000212042F0010240F82120002070BDFFF7D0
:100EF00065BB10B5401EB0F1807F01D3012010BD4D
:100F00004FF0E02460610F21601703F04AF80020E1
:100F1000A06107202061002010BD704770B50268F5
:100F200004461068D168536910F00F0F52D003F0D7
:100F3000010501F490762E435FD0C20705D0CA05A3
:100F400003D5E26B42F00102E263420705D5DA07FE
:100F500003D0E26B42F00202E263820705D5DA07B2
:100F600003D0E26B42F00402E263020707D501F00E
:100F700020022A4303D0E26B42F00802E263E26BF4
:100F8000002A33D0800604D5880602D5204602F018
:100F9000EFFE20684069E16BC0F38010090700D4C0
:100FA00028B3204602F0D6FE2068416949061AD5CA
:100FB000416921F040014161606BA0B11B490165AD
:100FC000606BFFF7D7FA002810D0606B016DBDE8A9
:100FD00070400847830610D58B060ED52046BDE825
:100FE000704002F0C5BE2046FFF797FF70BD204657
:100FF000FFF793FF0020E06370BD030606D50B06E4
:1010000004D52046BDE8704002F092BF4006F3D5FB
:101010004806F1D5D168204621F04001D160202159
:1010200084F8391000F075F870BD0000453D0008E7
:1010300070B5040004D094F83900002510B106E022
:10104000012070BD84F83850204600F023F8242099
:1010500084F839002068C16821F40051C16020463D
:1010600002F0D2FE2068016921F4904101612068FC
:10107000416921F02A0141612068C16841F40051B1
:10108000C160E563202084F8390084F83A0000202C
:1010900070BD000010B586B0044614216846FFF705
:1010A000C7F818492068884229D1174800210268EA
:1010B00042F010020260006800F010000590124833
:1010C0001438026842F001020260006800F001007A
:1010D00005904FF4C06000900220CDE9010103208B
:1010E00003900720049069460848FFF7BBFA0022E6
:1010F00011462520FFF706FC2520FFF7F5FB06B07B
:1011000010BD0000001001404438024000000240C1
:1011100070477047FEE7000070B50B490646002493
:1011200008884D8821464543204600F017FA00F014
:101130004BFBB0B24FF0D84103E000BFA1F88000F4
:10114000641CAC42FAD370BDB00000202DE9F04F12
:1011500033492C240A4688712A2592882B2645F289
:10116000105B4FF4305E4FF448774FF0F00949F2CE
:10117000413A4FF4A07845F2103C4FF4F07358B167
:10118000A1F80080A1F80290524501D0624529D112
:101190000C814D818E8139E0A1F80090A1F8028088
:1011A000524501D0624508D10C814D818E81624546
:1011B00031D1A1F800804B802DE05A4508D1A1F82B
:1011C00008E04FF4285048814FF42C50888106E005
:1011D000A2F5C85063381ED10C814E818D810B80E1
:1011E0004F8018E05A4508D1A1F808E04FF4285084
:1011F00048814FF42C50888106E0A2F5C85063382E
:1012000004D10C814D818E810F804B80624502D1CB
:101210000B80A1F80280BDE8F04F002000F0C2B8BA
:10122000B00000202DE9F043444C91460246A088CE
:1012300023460D464FEA1128160A5B89A0F5134193
:10124000413917D0A0F5A641103913D0A0F5AA4115
:10125000103914D02646A0F5C857B1793688B61A89
:10126000761E633F25D0A0F5D047043F3DD001292D
:1012700051D051E0184600F09BFA30463CE0184649
:1012800000F096FA304600F087FA6089401C80B280
:1012900000F08EFAD0B200F07FFAA08900F088FA50
:1012A000404600F079FAA089401C80B200F080FA34
:1012B0002DE001B9B2B2184600F07AFA160A3046AB
:1012C00000F06AFAD0B200F067FA304600F064FA33
:1012D000D0B200F061FAA08900F06AFA404600F04E
:1012E0005BFAE8B200F058FA0EE0012900D1B2B280
:1012F000184600F05DFA100A00F04EFAD0B200F085
:101300004BFAA08900F054FA404600F045FAE8B2E2
:1013100000F042FA08E0B2B21146184600F05EFA58
:10132000A089294600F05AFA4FF0D840218920F8C8
:101330007E1FA0F80290BDE8F0830000B0000020FE
:1013400008B54FF0D840B0F88000ADF80000BDF807
:10135000000008BD10B50246BE2000F029FA0520A5
:1013600000F01AFA1046FEF7E0FF9FED0C1B53EC5D
:10137000112BFEF768FFFEF7E5FF80B200F00CFAD4
:10138000012000F009FAFF2000F006FA002000F02A
:1013900003FABDE81040002000F0FEB966666666FC
:1013A00066660440F0B56C4C00232146A27989881A
:1013B00041F66316012A01D01AB11BE0B14202D1F5
:1013C00018E0B14216D1082814D2DFE800F0040674
:1013D000080A0C0E101206200CE007200AE0042078
:1013E00008E0052006E0012004E0002002E00320E0
:1013F00000E00220A1F5134745F2103245F21055E6
:10140000413F05D0914203D0A94201D0B14277D1EA
:10141000082812D2DFE800F0110406080A0C0E10AA
:1014200080230AE0402308E0C02306E0202304E0F4
:10143000602302E0A02300E0E023A94202D14FF4A0
:10144000585000E03620914205D0A94203D0B14265
:1014500001D043F00803194600F0C0F9A188B14259
:101460000AD098062088628802D5904202D303E011
:10147000904201D9228060806089A94241D100F068
:1014800097F9002000F088F96089401C80B200F0D4
:101490008FF9002000F080F96089801C80B200F094
:1014A00087F92088401EC0F30F2000F075F960898D
:1014B000C01C80B200F07CF92078401EC0B200F061
:1014C0006BF9A08900F074F9002000F065F9A0899B
:1014D000401C80B200F06CF9002000F05DF9A0899A
:1014E000801C80B200F064F96088401EC0F30F20B9
:1014F00000F052F9A089C01C80B200F059F922E036
:1015000028E000F055F9002000F046F9002000F036
:1015100043F92088401EC0F30F2000F03DF92078E9
:10152000401EC0B200F038F9A08900F041F9002057
:1015300000F032F9002000F02FF96088401EC0F35F
:101540000F2000F029F9A078BDE8F040401EC0B29D
:1015500000F022B9F0BD0000B0000020F0B53F4A15
:101560000D460446060A918810462F0A4089A1F5C7
:101570001343413B28D0A1F5A643103B24D0A1F54D
:10158000C853633B2FD0A1F5AA43103B64D100F0B0
:101590000FF9304600F000F95089401C80B200F08D
:1015A00007F9E0B200F0F8F8908900F001F9384648
:1015B00000F0F2F89089401C80B200F0F9F8E8B22F
:1015C000BDE8F04000F0E8B800F0F2F8304600F076
:1015D000E3F8E0B200F0E0F8908900F0E9F838466E
:1015E00000F0DAF8EBE7917929B300F0E1F8304642
:1015F00000F0D2F8E0B200F0CFF81088401EC0F33F
:101600000F2000F0C9F81078401EC0B200F0C4F8F6
:10161000908900F0CDF8384600F0BEF8E8B200F04E
:10162000BBF85088401EC0F30F2000F0B5F890784A
:10163000401EC0B2C4E71188091B491E8CB200F0DD
:10164000B7F8002000F0A8F8002000F0A5F8200A64
:1016500000F0A2F8E0B2D9E7F0BD0000B000002031
:101660002DE9FF4F1D460C468A46580700D0012041
:1016700000EBD500690810FB01F0203A00F0FF09EB
:10168000D0B20026DFF8A4B002904BE00C2D11D0B0
:10169000102D14D0182D17D0202D45D12449029893
:1016A00001EBC0104FF00008875D380613D52148C4
:1016B000026814E00298204900EB400008E01F494E
:1016C000029801EB0010EDE702981D4900EBC00005
:1016D00001EB8000E6E70D9828B9164842682146DC
:1016E0000098FFF79FFD7806070E641CBBF8020008
:1016F000A4B2A04218D9A4EB0A00A84209D10098CC
:101700005446401C80B20090BBF8001081420BD9B7
:1017100006E008F1010000F0FF08B8F1080FC4D39B
:10172000761CF6B24E45B1D3BDE8FF8FB000002065
:10173000045800081800002044400008B84400087D
:10174000A84A00082DE9F84F044600F0FF091019D7
:101750000D46DDE90AB61FFA80F8581987B24FF036
:10176000000A12E0444503D305EB0B004C4685B25A
:10177000BD420FD25B4629462046CDF800A0FFF7B8
:101780006FFF04EB5B0084B2761C3278A2F120007C
:101790005E28E7D9BDE8F88F01B5BDF80000ADF8C7
:1017A0000000BDF800004FF0D841A1F8800008BD4E
:1017B00001B5BDF80000ADF80000BDF800004FF025
:1017C000D841A1F87E0008BD03484FF0D8410089F8
:1017D000A1F87E0070470000B00000204FF0D84212
:1017E00022F87E0F5180704710B58EB01C216846DC
:1017F000FEF71EFD1C2107A8FEF71AFD1A484FF040
:1018000020411022016019494160062181600021B8
:10181000C160C0E904128161C16113020162C0E9C3
:1018200009139302C0E90B134163816341640F20E4
:101830003C230090CDE9010303AC112384E80E00A2
:1018400009240691CDE9074009AC082084E80F007F
:101850000D9107AA69460448FFF71EFB002801D036
:10186000FEF71AFE0EB010BD20000020040100A0FB
:101870002DE9F04387B014216846FEF7D9FC3448BF
:101880004FF00009016841F004010160016801F0B6
:1018900004010591016841F020010160016801F037
:1018A00020010591016841F080010160016801F0AB
:1018B00080010591016841F010010160016801F0AB
:1018C00010010591016841F002010160016801F019
:1018D00002010591016841F008010160016801F011
:1018E00008010591016841F001010160016801F002
:1018F00001010591016841F0400101600068154F48
:1019000000F040004FF4C0640590012221463846A3
:10191000FEF784FFDFF840804FF400460022314696
:101920004046FEF77BFF00940124022569463846B5
:101930000194CDE90245FEF795FECDE90064CDE9BD
:10194000029569464046FEF78DFE07B0BDE8F0837C
:101950003038024000140240000402400C4810B528
:101960000A4901604FF4E1314160002181600C229D
:10197000C160C0E904128161C161FFF759FB002811
:1019800003D0BDE81040FEF787BD10BD0010014038
:1019900070000020FEE7704770477047FEF74ABFAF
:1019A00030B593B030216846FEF742FC14210CA8F4
:1019B000FEF73EFC19480025016841F080510160A6
:1019C000006800F0805011901548016841F4804192
:1019D00001600068022400F4804011900120009012
:1019E000000401908001CDE9064008AA0420A82146
:1019F00082E813000B906846FFF7A0F80CA90F20AF
:101A000081E831004FF4A0500F90E00210900521C2
:101A10000CA8FEF7A9FF13B030BD0000403802400B
:101A2000007000400548016841F4700101600349FD
:101A30004FF00060803908607047000088ED00E0DA
:101A40002DE9F05F3220FEF7A7FDD320FFF7B0FEAF
:101A5000FFF776FCFE4CA080FFF772FCA080FFF73A
:101A60006FFC4FF6FF7909EA0020A080FFF768FCC1
:101A7000A18849F241360843A08045F2103745F26B
:101A8000105541F66318B04247D0D420FFF790FEBE
:101A9000FFF756FCA080FFF753FCA080FFF750FC37
:101AA00009EA00204A46A080FFF74AFCA1880843C3
:101AB000A080B84231D04FF45A40FFF779FEFFF7CB
:101AC0003FFCA0804FF45B40FFF772FEFFF738FC4D
:101AD00002EA0020A0804FF45C40FFF769FEFFF7A8
:101AE0002FFCA1880843A080B0F5004F7DD0A8420C
:101AF00013D0A120FFF75CFEFFF722FCA080FFF7C8
:101B00001FFC02EA0020A080FFF71AFCA18808430E
:101B1000A0F5AE41A080613968D080B2B04266D1F4
:101B2000CF20FFF745FE0020FFF736FEC120FFF76C
:101B300033FE3020FFF730FEED20FFF739FE642042
:101B4000FFF72AFE0320FFF727FE1220FFF724FEEF
:101B50008120FFF721FEE820FFF72AFE8520FFF70E
:101B60001BFE1020FFF718FE7A20FFF715FECB2092
:101B7000FFF71EFE3920FFF70FFE2C20FFF70CFEAB
:101B80000020FFF709FE3420FFF706FE0220FFF7D2
:101B900003FEF720FFF70CFE2020FFF7FDFDEA20F3
:101BA000FFF706FE0020FFF7F7FD0020FFF7F4FD2A
:101BB000C020FFF7FDFD1B20FFF7EEFDC120FFF762
:101BC000F7FD0120FFF7E8FDC520FFF7F1FD30200C
:101BD000FFF7E2FD3020FFF7DFFDC720FFF7E8FD4C
:101BE000B720FFF7D9FD362002E0B5E0B0E0B5E060
:101BF000FFF7DEFD4820FFF7CFFD3A20FFF7D8FDC5
:101C00005520FFF7C9FDB120FFF7D2FD0020FFF7F7
:101C1000C3FD1A20FFF7C0FDB620FFF7C9FD0A205B
:101C2000FFF7BAFDA220FFF7B7FDF220FFF7C0FDD6
:101C30000020FFF7B1FD2620FFF7BAFD0120FFF7D6
:101C4000ABFDE020FFF7B4FD0F20FFF7A5FD2A2034
:101C5000FFF7A2FD2820FFF79FFD0820FFF79CFD5E
:101C60000E20FFF799FD0820FFF796FD5420FFF79F
:101C700093FDA920FFF790FD4320FFF78DFD0A207B
:101C8000FFF78AFD0F20FFF787FD0020FFF784FD97
:101C90000020FFF781FD0020FFF77EFD0020FFF709
:101CA0007BFDE120FFF784FD0020FFF775FD152087
:101CB000FFF772FD1720FFF76FFD0720FFF76CFDA0
:101CC0001120FFF769FD0620FFF766FD2B20FFF7C7
:101CD00063FD5620FFF760FD3C20FFF75DFD05200A
:101CE000FFF75AFD1020FFF757FD0F20FFF754FDB7
:101CF0003F20FFF751FD3F20FFF74EFD0F20FFF77C
:101D00004BFD2B20FFF754FD0020FFF745FD002081
:101D1000FFF742FD0120FFF73FFD3F20FFF73CFDAD
:101D20002A20FFF745FD0020FFF736FD0020FFF7D2
:101D300033FD0020FFF730FDEF20FFF72DFD1120D0
:101D4000FFF736FD7820FEF727FC292001F009BFB8
:101D5000A4F8048001F00ABFA580FDE3B84276D163
:101D6000ED20FFF725FD0120FFF716FDFE20FFF710
:101D700013FDEE20FFF71CFDDE20FFF70DFD2120F7
:101D8000FFF70AFDF120FFF713FD0120FFF704FD27
:101D9000DF20FFF70DFD1020FFF7FEFCC420FFF74A
:101DA00007FD8F20FFF7F8FCC620FFF701FD00209C
:101DB000FFF7F2FCE220FFF7EFFCE220FFF7ECFC7C
:101DC000E220FFF7E9FCBF20FFF7F2FCAA20FFF7B3
:101DD000E3FCB020FFF7ECFC0D20FFF7DDFC00205A
:101DE000FFF7DAFC0D20FFF7D7FC0020FFF7D4FC4B
:101DF0001120FFF7D1FC0020FFF7CEFC1920FFF7E0
:101E0000CBFC0020FFF7C8FC2120FFF7C5FC002019
:101E1000FFF7C2FC2D20FFF7BFFC0020FFF7BCFC42
:101E20003D20FFF7B9FC0020FFF7B6FC5D20FFF76F
:101E3000B3FC0020FFF7B0FC5D20FFF7ADFC0020F5
:101E4000FFF7AAFCB120FFF7B3FC802002E0FDE31E
:101E5000B0000020FFF7A0FC0020FFF79DFC8B20C6
:101E6000FFF79AFC0020FFF797FC9620FFF794FC01
:101E70000020FFF791FCB220FFF79AFC0020FFF74B
:101E80008BFC0020FFF788FC0220FFF785FC002078
:101E9000FFF782FC0320FFF77FFC0020FFF77CFCAC
:101EA000B320FFF785FC0020FFF776FC0020FFF74A
:101EB00073FC0020FFF770FC0020FFF76DFC002092
:101EC000FFF76AFC0020FFF767FC0020FFF764FCC7
:101ED0000020FFF761FC0020FFF75EFC0020FFF709
:101EE0005BFC0020FFF758FC0020FFF755FC0020AA
:101EF000FFF752FC0020FFF74FFC0020FFF74CFCDF
:101F00000020FFF749FC0020FFF746FC0020FFF708
:101F100043FC0020FFF740FC0020FFF73DFC0020C1
:101F2000FFF73AFC0020FFF737FC0020FFF734FCF6
:101F30000020FFF731FCB420FFF73AFC8B20FFF7BD
:101F40002BFC0020FFF728FC9620FFF725FC002043
:101F5000FFF722FCA120FFF71FFC0020FFF71CFC6D
:101F6000B520FFF725FC0220FFF716FC0020FFF745
:101F700013FC0320FFF710FC0020FFF70DFC0420EA
:101F8000FFF70AFC0020FFF707FCB620FFF710FC64
:101F90000020FFF701FC0020FFF7FEFBB720FFF752
:101FA00007FC0020FFF7F8FB0020FFF7F5FB3F20C0
:101FB000FFF7F2FB0020FFF7EFFB5E20FFF7ECFBE3
:101FC0000020FFF7E9FB6420FFF7E6FB0020FFF7A6
:101FD000E3FB8C20FFF7E0FB0020FFF7DDFBAC20EC
:101FE000FFF7DAFB0020FFF7D7FBDC20FFF7D4FB7D
:101FF0000020FFF7D1FB7020FFF7CEFB0020FFF79A
:10200000CBFB9020FFF7C8FB0020FFF7C5FBEB20C0
:10201000FFF7C2FB0020FFF7BFFBDC20FFF7BCFB94
:102020000020FFF7B9FBB820FFF7C2FB0020FFF745
:10203000B3FB0020FFF7B0FB0020FFF7ADFB002053
:10204000FFF7AAFB0020FFF7A7FB0020FFF7A4FB88
:102050000020FFF7A1FB0020FFF79EFBBA20FFF74F
:10206000A7FB2420FFF798FB0020FFF795FB00203B
:10207000FFF792FB0020FFF78FFBC120FFF798FBD3
:102080002020FFF789FB0020FFF786FB5420FFF795
:1020900083FB0020FFF780FBFF20FFF77DFB002084
:1020A000FFF77AFBC220FFF783FB0A20FFF774FBE0
:1020B0000020FFF771FB0420FFF76EFB0020FFF705
:1020C0006BFBC320FFF774FB3C20FFF765FB002090
:1020D000FFF762FB3A20FFF75FFB0020FFF75CFB96
:1020E0003920FFF759FB0020FFF756FB3720FFF799
:1020F00053FB0020FFF750FB3C20FFF74DFB002077
:10210000FFF74AFB3620FFF747FB0020FFF744FBB1
:102110003220FFF741FB0020FFF73EFB2F20FFF7A7
:102120003BFB0020FFF738FB2C20FFF735FB00209E
:10213000FFF732FB2920FFF72FFB0020FFF72CFBD6
:102140002620FFF729FB0020FFF726FB2420FFF7BE
:1021500023FB0020FFF720FB2420FFF71DFB0020BE
:10216000FFF71AFB2320FFF717FB0020FFF714FBF4
:102170003C20FFF711FB0020FFF70EFB3620FFF796
:102180000BFB0020FFF708FB3220FFF705FB0020C8
:10219000FFF702FB2F20FFF7FFFA0020FFF7FCFA02
:1021A0002C20FFF7F9FA0020FFF7F6FA2920FFF7B5
:1021B000F3FA0020FFF7F0FA2620FFF7EDFA0020EF
:1021C000FFF7EAFA2420FFF7E7FA0020FFF7E4FA26
:1021D0002420FFF7E1FA0020FFF7DEFA2320FFF7C3
:1021E000DBFA0020FFF7D8FAC420FFF7E1FA6220FB
:1021F000FFF7D2FA0020FFF7CFFA0520FFF7CCFA5D
:102200000020FFF7C9FA8420FFF7C6FA0020FFF785
:10221000C3FAF020FFF7C0FA0020FFF7BDFA18203C
:10222000FFF7BAFA0020FFF7B7FAA420FFF7B4FAD5
:102230000020FFF7B1FA1820FFF7AEFA0020FFF7F1
:10224000ABFA5020FFF7A8FA0020FFF7A5FA0C2000
:10225000FFF7A2FA0020FFF79FFA1720FFF79CFA7A
:102260000020FFF799FA9520FFF796FA0020FFF774
:1022700093FAF320FFF790FA0020FFF78DFAE6209B
:10228000FFF78AFA0020FFF787FAC520FFF790FAD8
:102290003220FFF781FA0020FFF77EFA4420FFF793
:1022A0007BFA0020FFF778FA6520FFF775FA002027
:1022B000FFF772FA7620FFF76FFA0020FFF76CFA4B
:1022C0008820FFF769FA0020FFF766FAC620FFF7BB
:1022D0006FFA2020FFF760FA0020FFF75DFA172061
:1022E000FFF75AFA0020FFF757FA0120FFF754FAD8
:1022F0000020FFF751FAC720FFF75AFA0020FFF736
:102300004BFA0020FFF748FA0020FFF745FA0020BB
:10231000FFF742FAC820FFF74BFA0020FFF73CFA1C
:102320000020FFF739FA0020FFF736FA0020FFF708
:1023300033FAC920FFF73CFA0020FFF72DFA0020FE
:10234000FFF72AFA0020FFF727FA0020FFF724FA08
:102350000020FFF721FA0020FFF71EFA0020FFF708
:102360001BFA0020FFF718FA0020FFF715FA0020EB
:10237000FFF712FA0020FFF70FFA0020FFF70CFA20
:102380000020FFF709FA0020FFF706FA0020FFF708
:1023900003FA0020FFF700FAE020FFF709FA162001
:1023A000FFF7FAF90020FFF7F7F91C20FFF7F4F91F
:1023B0000020FFF7F1F92120FFF7EEF90020FFF7E9
:1023C000EBF93620FFF7E8F90020FFF7E5F94620A2
:1023D000FFF7E2F90020FFF7DFF95220FFF7DCF901
:1023E0000020FFF7D9F96420FFF7D6F90020FFF7A6
:1023F000D3F97A20FFF7D0F90020FFF7CDF98B2031
:10240000FFF7CAF90020FFF7C7F99920FFF7C4F9D1
:102410000020FFF7C1F9A820FFF7BEF90020FFF761
:10242000BBF9B920FFF7B8F90020FFF7B5F9C420D0
:10243000FFF7B2F90020FFF7AFF9CA20FFF7ACF9B8
:102440000020FFF7A9F9D220FFF7A6F90020FFF737
:10245000A3F9D920FFF7A0F90020FFF79DF9E020AC
:10246000FFF79AF90020FFF797F9F320FFF794F9A7
:102470000020FFF791F9E120FFF79AF91620FFF706
:102480008BF90020FFF788F91C20FFF785F9002061
:10249000FFF782F92220FFF77FF90020FFF77CF990
:1024A0003620FFF779F90020FFF776F94520FFF78E
:1024B00073F90020FFF770F95220FFF76DF9002043
:1024C000FFF76AF96420FFF767F90020FFF764F966
:1024D0007A20FFF761F90020FFF75EF98B20FFF704
:1024E0005BF90020FFF758F99920FFF755F9002014
:1024F000FFF752F9A820FFF74FF90020FFF74CF93A
:10250000B920FFF749F90020FFF746F9C420FFF78B
:1025100043F90020FFF740F9CA20FFF73DF90020FA
:10252000FFF73AF9D220FFF737F90020FFF734F927
:10253000D820FFF731F90020FFF72EF9E020FFF750
:102540002BF90020FFF728F9F320FFF725F90020E9
:10255000FFF722F9E22000E082E3FFF729F90520E6
:10256000FFF71AF90020FFF717F90B20FFF714F90E
:102570000020FFF711F91B20FFF70EF90020FFF7ED
:102580000BF93420FFF708F90020FFF705F9442084
:10259000FFF702F90020FFF7FFF84F20FFF7FCF8E4
:1025A0000020FFF7F9F86120FFF7F6F80020FFF7A9
:1025B000F3F87920FFF7F0F80020FFF7EDF8882016
:1025C000FFF7EAF80020FFF7E7F89720FFF7E4F8B5
:1025D0000020FFF7E1F8A620FFF7DEF80020FFF764
:1025E000DBF8B720FFF7D8F80020FFF7D5F8C220B6
:1025F000FFF7D2F80020FFF7CFF8C720FFF7CCF89D
:102600000020FFF7C9F8D120FFF7C6F80020FFF738
:10261000C3F8D620FFF7C0F80020FFF7BDF8DD2093
:10262000FFF7BAF80020FFF7B7F8F320FFF7B4F888
:102630000020FFF7B1F8E320FFF7BAF80520FFF715
:10264000ABF80020FFF7A8F80A2000E006E3FFF748
:10265000A3F80020FFF7A0F81C20FFF79DF800204A
:10266000FFF79AF83320FFF797F80020FFF794F868
:102670004420FFF791F80020FFF78EF85020FFF775
:102680008BF80020FFF788F86220FFF785F800201C
:10269000FFF782F87820FFF77FF80020FFF77CF83B
:1026A0008820FFF779F80020FFF776F89720FFF7EA
:1026B00073F80020FFF770F8A620FFF76DF80020F0
:1026C000FFF76AF8B720FFF767F80020FFF764F814
:1026D000C220FFF761F80020FFF75EF8C720FFF780
:1026E0005BF80020FFF758F8D120FFF755F80020DD
:1026F000FFF752F8D520FFF74FF80020FFF74CF80E
:10270000DD20FFF749F80020FFF746F8F320FFF738
:1027100043F80020FFF740F8E420FFF749F80120D4
:10272000FFF73AF80020FFF737F80120FFF734F8F9
:102730000020FFF731F80220FFF72EF80020FFF706
:102740002BF82A20FFF728F80020FFF725F83C2077
:10275000FFF722F80020FFF71FF84B20FFF71CF8C7
:102760000020FFF719F85D20FFF716F80020FFF7AB
:1027700013F87420FFF710F80020FFF70DF88420FD
:10278000FFF70AF80020FFF707F89320FFF704F897
:102790000020FFF701F8A220FEF7FEFF0020FEF761
:1027A000FBFFB320FEF7F8FF0020FEF7F5FFBE2089
:1027B000FEF7F2FF0020FEF7EFFFC420FEF7ECFF6C
:1027C0000020FEF7E9FFCD20FEF7E6FF0020FEF730
:1027D000E3FFD320FEF7E0FF0020FEF7DDFFDD2062
:1027E000FEF7DAFF0020FEF7D7FFF320FEF7D4FF55
:1027F0000020FEF7D1FFE520FEF7DAFF0020FEF70C
:10280000CBFF0020FEF7C8FF0020FEF7C5FF002029
:10281000FEF7C2FF0220FEF7BFFF0020FEF7BCFF5D
:102820002920FEF7B9FF0020FEF7B6FF3C20FEF797
:10283000B3FF0020FEF7B0FF4B20FEF7ADFF0020F6
:10284000FEF7AAFF5D20FEF7A7FF0020FEF7A4FF1A
:102850007420FEF7A1FF0020FEF79EFF8420FEF704
:102860009BFF0020FEF798FF9320FEF795FF0020C6
:10287000FEF792FFA220FEF78FFF0020FEF78CFFED
:10288000B320FEF789FF0020FEF786FFBE20FEF78B
:1028900083FF0020FEF780FFC420FEF77DFF0020AD
:1028A000FEF77AFFCD20FEF777FF0020FEF774FFDA
:1028B000D320FEF771FF0020FEF76EFFDC20FEF74D
:1028C0006BFF0020FEF768FFF320FEF765FF002096
:1028D000FEF762FFE620FEF76BFF1120FEF75CFFBC
:1028E0000020FEF759FF3420FEF756FF0020FEF7C8
:1028F00053FF5620FEF750FF0020FEF74DFF7620D5
:10290000FEF74AFF0020FEF747FF7720FEF744FF5F
:102910000020FEF741FF6620FEF73EFF0020FEF795
:102920003BFF8820FEF738FF0020FEF735FF992097
:10293000FEF732FF0020FEF72FFFBB20FEF72CFF33
:102940000020FEF729FF9920FEF726FF0020FEF762
:1029500023FF6620FEF720FF0020FEF71DFF552015
:10296000FEF71AFF0020FEF717FF5520FEF714FFB1
:102970000020FEF711FF4520FEF70EFF0020FEF7B6
:102980000BFF4320FEF708FF0020FEF705FF442061
:10299000FEF702FF0020FEF7FFFEE720FEF708FF2C
:1029A0003220FEF7F9FE0020FEF7F6FE5520FEF776
:1029B000F3FE0020FEF7F0FE7620FEF7EDFE00208D
:1029C000FEF7EAFE6620FEF7E7FE0020FEF7E4FED3
:1029D0006720FEF7E1FE0020FEF7DEFE6720FEF72F
:1029E000DBFE0020FEF7D8FE8720FEF7D5FE002094
:1029F000FEF7D2FE9920FEF7CFFE0020FEF7CCFEB8
:102A0000BB20FEF7C9FE0020FEF7C6FE9920FEF7A8
:102A1000C3FE0020FEF7C0FE7720FEF7BDFE0020BB
:102A2000FEF7BAFE4420FEF7B7FE0020FEF7B4FE24
:102A30005620FEF7B1FE0020FEF7AEFE2320FEF783
:102A4000ABFE0020FEF7A8FE3320FEF7A5FE002017
:102A5000FEF7A2FE4520FEF79FFE0020FEF79CFE3B
:102A6000E820FEF7A5FE0020FEF796FE0020FEF708
:102A700093FE9920FEF790FE0020FEF78DFE872042
:102A8000FEF78AFE0020FEF787FE8820FEF784FE10
:102A90000020FEF781FE7720FEF77EFE0020FEF785
:102AA0007BFE6620FEF778FE0020FEF775FE88208C
:102AB000FEF772FE0020FEF76FFEAA20FEF76CFE06
:102AC0000020FEF769FEBB20FEF766FE0020FEF741
:102AD00063FE9920FEF760FE0020FEF75DFE662093
:102AE000FEF75AFE0020FEF757FE5520FEF754FE73
:102AF0000020FEF751FE5520FEF74EFE0020FEF7A7
:102B00004BFE4420FEF748FE0020FEF745FE442021
:102B1000FEF742FE0020FEF73FFE5520FEF73CFE8A
:102B20000020FEF739FEE920FEF742FEAA20FEF75C
:102B300033FE0020FEF730FE0020FEF72DFE0020C1
:102B4000FEF72AFE0020FEF733FEAA20FEF724FE41
:102B5000CF20FEF72DFE0020FEF71EFE0020FEF720
:102B60001BFE0020FEF718FE0020FEF715FE0020D9
:102B7000FEF712FE0020FEF70FFE0020FEF70CFE0F
:102B80000020FEF709FE0020FEF706FE0020FEF7FB
:102B900003FE0020FEF700FE0020FEF7FDFD0020F2
:102BA000FEF7FAFD0020FEF7F7FD0020FEF7F4FD2A
:102BB0000020FEF7F1FD0020FEF7EEFDF020FEF70D
:102BC000F7FD0020FEF7E8FD5020FEF7E5FD0020B0
:102BD000FEF7E2FD0020FEF7DFFD0020FEF7DCFD42
:102BE000F320FEF7E5FD0020FEF7D6FDF920FEF705
:102BF000DFFD0620FEF7D0FD1020FEF7CDFD2920D9
:102C0000FEF7CAFD0020FEF7C7FD3A20FEF7D0FD13
:102C10005520FEF7C1FD1120FEF7CAFD6420FDF727
:102C2000BBFC2920FEF7C4FD3520FEF7C1FD0020C6
:102C3000FEF7B2FD5120FEF7BBFDFF20FEF7ACFD15
:102C40005320FEF7B5FD2C20FEF7A6FD5520FEF71C
:102C5000AFFD8220FEF7A0FD2C20FCE3A8427CD132
:102C60004FF4704355211846FEF7B8FD4FF2010AA4
:102C7000AA215046FEF7B2FD4FF2020B52215846F0
:102C8000FEF7ACFD08214FF20300FEF7A7FD01217E
:102C90004FF20400FEF7A2FD0D214FF43040FEF785
:102CA0009DFD0D214BF20100FEF798FD0D214BF229
:102CB0000200FEF793FD34214FF43640FEF78EFDFF
:102CC00034214BF20160FEF789FD34214BF20260A2
:102CD000FEF784FD0D214FF43140FEF77FFD0D21FD
:102CE0004BF20110FEF77AFD0D214BF20210FEF7B8
:102CF00075FD34214FF43740FEF770FD34214BF25F
:102D00000170FEF76BFD34214BF20270FEF766FD99
:102D100000214FF43240FEF761FD00214BF201200B
:102D2000FEF75CFD00214BF20220FEF757FD242147
:102D30004FF43840FEF752FD24214BF60100FEF718
:102D40004DFD24214BF60200FEF748FD01214FF412
:102D50003F40FEF743FD0F2100E0FDE34FF4334019
:102D6000FEF73CFD0F214BF20130FEF737FD0F213E
:102D70004BF20230FEF732FD34214FF43940FEF7BA
:102D80002DFD34214BF60110FEF728FD34214BF6C2
:102D90000210FEF723FD08214FF43540FEF71EFD1B
:102DA00008214BF20150FEF719FD08214BF20250A9
:102DB000FEF714FD03214FF44240FEF70FFD2421DE
:102DC0004FF43A40FEF70AFD24214BF60120FEF7AE
:102DD00005FD24214BF60220FEF700FD00214FF4F3
:102DE0003C40FEF7FBFC78214BF60140FEF7F6FC79
:102DF00000214BF60240FEF7F1FC00214FF43D406C
:102E0000FEF7ECFC78214BF60150FEF7E7FC0021C1
:102E10004BF60250FEF7E2FC00214FF43E40FEF775
:102E2000DDFC64214BF60160FEF7D8FC00214FF475
:102E30005140FEF7D3FC33214DF20110FEF7CEFCDA
:102E400000214DF20210FEF7C9FC34214DF20310AF
:102E5000FEF7C4FC00214DF20410FEF7BFFC3A213E
:102E60004DF20510FEF7BAFC00214DF20610FEF7F8
:102E7000B5FC4A214DF20710FEF7B0FC00214DF2DF
:102E80000810FEF7ABFC5C214DF20910FEF7A6FC22
:102E900000214DF20A10FEF7A1FC81214DF20B102A
:102EA000FEF79CFC00214DF20C10FEF797FCA621CA
:102EB0004DF20D10FEF792FC00214DF20E10FEF7C0
:102EC0008DFCE5214DF20F10FEF788FC01214DF23B
:102ED0001010FEF783FC13214DF21110FEF77EFC5B
:102EE00001214DF21210FEF779FC54214DF213101E
:102EF000FEF774FC01214DF21410FEF76FFC8221E5
:102F00004DF21510FEF76AFC01214DF21610FEF786
:102F100065FCCA214DF21710FEF760FC02214DF24C
:102F20001810FEF75BFC00214DF21910FEF756FC5D
:102F300002214DF21A10FEF751FC01214DF21B1037
:102F4000FEF74CFC02214DF21C10FEF747FC342129
:102F50004DF21D10FEF742FC02214DF21E10FEF74D
:102F60003DFC67214DF21F10FEF738FC02214DF2A7
:102F70002010FEF733FC84214DF22110FEF72EFCC9
:102F800002214DF22210FEF729FCA4214DF223105C
:102F9000FEF724FC02214DF22410FEF71FFCB7219E
:102FA0004DF22510FEF71AFC02214DF22610FEF715
:102FB00015FCCF214DF22710FEF710FC02214DF237
:102FC0002810FEF70BFCDE214DF22910FEF706FC5F
:102FD00002214DF22A10FEF701FCF2214DF22B10D6
:102FE000FEF7FCFB02214DF22C10FEF7F7FBFE2151
:102FF0004DF22D10FEF7F2FB03214DF22E10FEF7DD
:10300000EDFB10214DF22F10FEF7E8FB03214DF2EE
:103010003010FEF7E3FB33214DF23110FEF7DEFBFB
:1030200003214DF23210FEF7D9FB6D214DF2331022
:10303000FEF7D4FB00214FF45240FEF7CFFB3321C3
:103040004DF20120FEF7CAFB00214DF20220FEF7EF
:10305000C5FB34214DF20320FEF7C0FB00214DF2E9
:103060000420FEF7BBFB3A214DF20520FEF7B6FB2C
:1030700000214DF20620FEF7B1FB4A214DF2072058
:10308000FEF7ACFB00214DF20820FEF7A7FB5C2108
:103090004DF20920FEF7A2FB00214DF20A20FEF7B7
:1030A0009DFB81214DF20B20FEF798FB00214DF294
:1030B0000C20FEF793FBA6214DF20D20FEF78EFBB0
:1030C00000214DF20E20FEF789FBE5214DF20F2085
:1030D000FEF784FB01214DF21020FEF77FFB132148
:1030E0004DF21120FEF77AFB01214DF21220FEF77E
:1030F00075FB54214DF21320FEF770FB01214DF2B8
:103100001420FEF76BFB82214DF21520FEF766FBC3
:1031100001214DF21620FEF761FBCA214DF2172066
:10312000FEF75CFB02214DF21820FEF757FB002151
:103130004DF21920FEF752FB02214DF21A20FEF744
:103140004DFB01214DF21B20FEF748FB02214DF201
:103150001C20FEF743FB34214DF21D20FEF73EFB01
:1031600002214DF21E20FEF739FB67214DF21F2090
:10317000FEF734FB02214DF22020FEF72FFB8421C5
:103180004DF22120FEF72AFB02214DF22220FEF70C
:1031900025FBA4214DF22320FEF720FB02214DF256
:1031A0002420FEF71BFBB7214DF22520FEF716FB6E
:1031B00002214DF22620FEF711FBCF214DF22720F0
:1031C000FEF70CFB02214DF22820FEF707FBDE2163
:1031D0004DF22920FEF702FB02214DF22A20FEF7D4
:1031E000FDFAF2214DF22B20FEF7F8FA02214DF202
:1031F0002C20FEF7F3FAFE214DF22D20FEF7EEFA19
:1032000003214DF22E20FEF7E9FA10214DF22F2076
:10321000FEF7E4FA03214DF23020FEF7DFFA332106
:103220004DF23120FEF7DAFA03214DF23220FEF79B
:10323000D5FA6D214DF23320FEF7D0FA00214FF47C
:103240005340FEF7CBFA33214DF20130FEF7C6FAB8
:1032500000214DF20230FEF7C1FA34214DF2033065
:10326000FEF7BCFA00214DF20430FEF7B7FA3A211E
:103270004DF20530FEF7B2FA00214DF20630FEF7AE
:10328000ADFA4A214DF20730FEF7A8FA00214DF2BF
:103290000830FEF7A3FA5C214DF20930FEF79EFAE2
:1032A00000214DF20A30FEF799FA81214DF20B30E0
:1032B000FEF794FA00214DF20C30FEF78FFAA621AA
:1032C0004DF20D30FEF78AFA00214DF20E30FEF776
:1032D00085FAE5214DF20F30FEF780FA01214DF21B
:1032E0001030FEF77BFA13214DF21130FEF776FA1B
:1032F00001214DF21230FEF771FA54214DF21330D4
:10330000FEF76CFA01214DF21430FEF767FA8221C4
:103310004DF21530FEF762FA01214DF21630FEF73C
:103320005DFACA214DF21730FEF758FA02214DF22C
:103330001830FEF753FA00214DF21930FEF74EFA1D
:1033400002214DF21A30FEF749FA01214DF21B30ED
:10335000FEF744FA02214DF21C30FEF73FFA342109
:103360004DF21D30FEF73AFA02214DF21E30FEF703
:1033700035FA67214DF21F30FEF730FA02214DF287
:103380002030FEF72BFA84214DF22130FEF726FA89
:1033900002214DF22230FEF721FAA4214DF2233012
:1033A000FEF71CFA02214DF22430FEF717FAB7217E
:1033B0004DF22530FEF712FA02214DF22630FEF7CB
:1033C0000DFACF214DF22730FEF708FA02214DF217
:1033D0002830FEF703FADE214DF22930FEF7FEF920
:1033E00002214DF22A30FEF7F9F9F2214DF22B308D
:1033F000FEF7F4F902214DF22C30FEF7EFF9FE2131
:103400004DF22D30FEF7EAF903214DF22E30FEF792
:10341000E5F910214DF22F30FEF7E0F903214DF2CE
:103420003030FEF7DBF933214DF23130FEF7D6F9BB
:1034300003214DF23230FEF7D1F96D214DF23330D8
:10344000FEF7CCF900214FF45440FEF7C7F93321C1
:103450004DF2014000E084E3FEF7C0F900214DF297
:103460000240FEF7BBF934214DF20340FEF7B6F9F6
:1034700000214DF20440FEF7B1F93A214DF205402A
:10348000FEF7ACF900214DF20640FEF7A7F94A21FC
:103490004DF20740FEF7A2F900214DF20840FEF779
:1034A0009DF95C214DF20940FEF798F900214DF29B
:1034B0000A40FEF793F981214DF20B40FEF78EF999
:1034C00000214DF20C40FEF789F9A6214DF20D4086
:1034D000FEF784F900214DF20E40FEF77FF9E52159
:1034E0004DF20F40FEF77AF901214DF21040FEF740
:1034F00075F913214DF21140FEF770F901214DF2DB
:103500001240FEF76BF954214DF21340FEF766F9B5
:1035100001214DF21440FEF761F982214DF2154070
:10352000FEF75CF901214DF21640FEF757F9CA216A
:103530004DF21740FEF752F902214DF21840FEF706
:103540004DF900214DF21940FEF748F902214DF2E4
:103550001A40FEF743F900E006E301214DF21B405B
:10356000FEF73CF902214DF21C40FEF737F93421F9
:103570004DF21D40FEF732F902214DF21E40FEF7DA
:103580002DF967214DF21F40FEF728F902214DF277
:103590002040FEF723F984214DF22140FEF71EF969
:1035A00002214DF22240FEF719F9A4214DF22340E9
:1035B000FEF714F902214DF22440FEF70FF9B7216E
:1035C0004DF22540FEF70AF902214DF22640FEF7A2
:1035D00005F9CF214DF22740FEF700F902214DF207
:1035E0002840FEF7FBF8DE214DF22940FEF7F6F801
:1035F00002214DF22A40FEF7F1F8F2214DF22B4064
:10360000FEF7ECF802214DF22C40FEF7E7F8FE2120
:103610004DF22D40FEF7E2F803214DF22E40FEF769
:10362000DDF810214DF22F40FEF7D8F803214DF2BE
:103630003040FEF7D3F833214DF23140FEF7CEF89B
:1036400003214DF23240FEF7C9F86D214DF23340AF
:10365000FEF7C4F800214FF45540FEF7BFF83321C0
:103660004DF20150FEF7BAF800214DF20250FEF77C
:10367000B5F834214DF20350FEF7B0F800214DF2B9
:103680000450FEF7ABF83A214DF20550FEF7A6F8CC
:1036900000214DF20650FEF7A1F84A214DF20750E5
:1036A000FEF79CF800214DF20850FEF797F85C21D8
:1036B0004DF20950FEF792F800214DF20A50FEF744
:1036C0008DF881214DF20B50FEF788F800214DF264
:1036D0000C50FEF783F8A6214DF20D50FEF77EF850
:1036E00000214DF20E50FEF779F8E5214DF20F5012
:1036F000FEF774F801214DF21050FEF76FF8132118
:103700004DF21150FEF76AF801214DF21250FEF70A
:1037100065F854214DF21350FEF760F801214DF287
:103720001450FEF75BF882214DF21550FEF756F863
:1037300001214DF21650FEF751F8CA214DF21750F3
:10374000FEF74CF802214DF21850FEF747F8002121
:103750004DF21950FEF742F802214DF21A50FEF7D1
:103760003DF801214DF21B50FEF738F802214DF2D1
:103770001C50FEF733F834214DF21D50FEF72EF8A1
:1037800002214DF21E50FEF729F867214DF21F501D
:10379000FEF724F802214DF22050FEF71FF8842195
:1037A0004DF22150FEF71AF802214DF22250FEF799
:1037B00015F8A4214DF22350FEF710F802214DF226
:1037C0002450FEF70BF8B7214DF22550FEF706F80E
:1037D00002214DF22650FEF701F8CF214DF227507D
:1037E000FDF7FCFF02214DF22850FDF7F7FFDE2127
:1037F0004DF22950FDF7F2FF02214DF22A50FDF75C
:10380000EDFFF2214DF22B50FDF7E8FF02214DF2C2
:103810002C50FDF7E3FFFE214DF22D50FDF7DEFFAA
:1038200003214DF22E50FDF7D9FF10214DF22F50FC
:10383000FDF7D4FF03214DF23050FDF7CFFF3321C8
:103840004DF23150FDF7CAFF03214DF23250FDF722
:10385000C5FF6D214DF23350FDF7C0FF00214FF43D
:103860005640FDF7BBFF33214DF20160FDF7B6FF77
:1038700000214DF20260FDF7B1FF34214DF20360EB
:10388000FDF7ACFF00214DF20460FDF7A7FF3A21E0
:103890004DF20560FDF7A2FF00214DF20660FDF735
:1038A0009DFF4A214DF20760FDF798FF00214DF280
:1038B0000860FDF793FF5C214DF20960FDF78EFF74
:1038C00000214DF20A60FDF789FF81214DF20B6066
:1038D000FDF784FF00214DF20C60FDF77FFFA6216C
:1038E0004DF20D60FDF77AFF00214DF20E60FDF7FD
:1038F00075FFE5214DF20F60FDF770FF01214DF2DC
:103900001060FDF76BFF13214DF21160FDF766FFAC
:1039100001214DF21260FDF761FF54214DF2136059
:10392000FDF75CFF01214DF21460FDF757FF822186
:103930004DF21560FDF752FF01214DF21660FDF7C3
:103940004DFFCA214DF21760FDF748FF02214DF2ED
:103950001860FDF743FF00214DF21960FDF73EFFAF
:1039600002214DF21A60FDF739FF01214DF21B6073
:10397000FDF734FF02214DF21C60FDF72FFF3421CB
:103980004DF21D60FDF72AFF02214DF21E60FDF78A
:1039900025FF67214DF21F60FDF720FF02214DF248
:1039A0002060FDF71BFF84214DF22160FDF716FF1B
:1039B00002214DF22260FDF711FFA4214DF2236098
:1039C000FDF70CFF02214DF22460FDF707FFB72140
:1039D0004DF22560FDF702FF02214DF22660FDF752
:1039E000FDFECF214DF22760FDF7F8FE02214DF2DA
:1039F0002860FDF7F3FEDE214DF22960FDF7EEFEB3
:103A000002214DF22A60FDF7E9FEF2214DF22B6012
:103A1000FDF7E4FE02214DF22C60FDF7DFFEFE21F2
:103A20004DF22D60FDF7DAFE03214DF22E60FDF719
:103A3000D5FE10214DF22F60FDF7D0FE03214DF28F
:103A40003060FDF7CBFE33214DF23160FDF7C6FE4D
:103A500003214DF23260FDF7C1FE6D214DF233605E
:103A6000FDF7BCFE55211846FDF7B8FEAA215046C9
:103A7000FDF7B4FE52215846FDF7B0FE08214FF283
:103A80000300FDF7ABFE00214FF20400FDF7A6FE98
:103A9000CC214FF43140FDF7A1FE00214BF2011083
:103AA000FDF79CFE05214FF43640FDF797FE70218F
:103AB0004FF43740FDF792FE70214BF20170FDF795
:103AC0008DFE01214FF43840FDF788FE03214BF6AF
:103AD0000100FDF783FE03214BF60200FDF77EFE99
:103AE00003214BF60300FDF779FE02214FF43C4021
:103AF000FDF774FE00214BF60140FDF76FFE00213B
:103B00004BF60240FDF76AFED0214FF44940FDF725
:103B100065FE02214CF60110FDF760FE50214CF6C7
:103B20000210FDF75BFE50214CF60310FDF756FE28
:103B300050214CF60410FDF751FE00214FF4545073
:103B4000FDF74CFE55214FF46850FDF747FE4FF44A
:103B50008850FDF72DFE7720401EC0B2FCD24FF4F6
:103B60002450FDF725FEBAE04045FCD1E220FDF7E8
:103B70001FFE1D20FDF710FE0220FDF70DFE0420A4
:103B8000FDF70AFE6320401EC0B2FCD2E020FDF724
:103B90000FFE0120FDF700FE0A20FCF7FDFCE020EF
:103BA000FDF706FE0320FDF7F7FD0C20FCF7F4FC03
:103BB0000120FDF7FDFD0A20FCF7EEFCE620FDF7F5
:103BC000F7FD2F20FDF7E8FDFF20FDF7E5FDFF20C5
:103BD000FDF7E2FDB020FDF7EBFD2020FDF7DCFD59
:103BE0000020FDF7D9FD0320FDF7D6FD40F21F3080
:103BF000FDF7D2FD0120FDF7CFFD40F2DF10FDF70C
:103C0000CBFD0020FDF7C8FDB420FDF7D1FD042059
:103C1000FDF7C2FD40F21F40FDF7BEFD0020FDF79D
:103C2000BBFD2E20FDF7B8FD0020FDF7B5FD0020FF
:103C3000FDF7B2FD0020FDF7AFFD0020FDF7ACFD64
:103C4000B620FDF7B5FD0220FDF7A6FD4FF4037089
:103C5000FDF7A2FD0020FDF79FFD1720FDF79CFD5D
:103C60001520FDF799FD0020FDF796FD0020FDF7DA
:103C700093FDF020FDF79CFD0320FDF78DFD29202D
:103C8000FDF796FDD020FDF793FD0020FDF784FDA4
:103C9000BE20FDF78DFD0520FDF77EFDFE20FDF722
:103CA0007BFD0120FDF778FD0020FDF775FD00206C
:103CB000FDF772FD0020FDF76FFDB820FDF778FDE0
:103CC0000320FDF769FD0120FDF766FDBA20FDF731
:103CD0006FFD0120FDF760FD6420FDF73BFBA08830
:103CE000B04205D0B84203D0A84201D0404519D116
:103CF0004FF02040D0F81C1121F00F01C0F81C112A
:103D0000D0F81C1121F47061C0F81C11D0F81C11FE
:103D100041F00301C0F81C11D0F81C1141F40071EE
:103D2000C0F81C110020FDF711FA0548016841F4A4
:103D3000004101604846BDE8F05FFDF7EDB90000C5
:103D40001404024010B5806B0021C185C184FDF7C9
:103D5000E4F810BD0168CA6822F49072CA60016874
:103D60004A6922F001024A61202180F83A10704726
:103D700010B590F83A10222901D0022010BD8168B8
:103D8000B1F5805F11D00169002901681FD0496831
:103D900001F07F03816A4A1C82620B70C18D491E4B
:103DA0000904090CC18518D02BE00269816A002A38
:103DB0000268526805D0D2B20A80816A491C8162C9
:103DC000ECE7C2F308020A80816A891CF7E74A68B7
:103DD000816A4B1C83620A70E0E70168CA6822F0BE
:103DE0002002CA600168CA6822F48072CA60016851
:103DF0004A6922F001024A61202180F83A10FDF759
:103E000087F9002010BD00002DE9F041044600684C
:103E10000169E26821F44051114301612169A06800
:103E2000E26908436169114308432168CA6849F29D
:103E30000C639A430243CA6020684169A26921F475
:103E4000407111434161E069192764253226B0F5BC
:103E5000004F354A354920684FF0000806D08842A7
:103E600001D0904236D1FCF729FE35E0884201D0DE
:103E7000904202D1FCF722FE01E0FCF70FFE6168E0
:103E80004A18A0FB070148EB0803FCF799F9014623
:103E9000B0FBF5F00201B1FBF5F06FF018035843E9
:103EA00001EB800006EBC000B0FBF5F000F0F8007D
:103EB00002EB4002B1FBF5F0584301EB800006EB4A
:103EC000C000B0FBF5F000F00700216810448860E6
:103ED000BDE8F081FCF7E2FD61688B0F8A00A0FB72
:103EE0000701FCF76DF90146B0FBF5F06FF0180221
:103EF000504301EB800006EB0010B0FBF5F000F042
:103F0000F002B1FBF5F002EB0012B1FBF5F06FF03F
:103F10001803584301EB800006EB0010B0FBF5F0EE
:103F200000F00F00D1E70000001401400010014034
:103F300090F83910212901D0022070478168B1F52D
:103F4000805F016A0BD04A1C0262026809785160E6
:103F5000C18C491E0904090CC1840ED017E00988E0
:103F60000268C1F30801516001690029016A02D0A9
:103F7000491C0162ECE7891CFBE70168CA6822F072
:103F80008002CA600068C16841F04001C160002041
:103F9000704700000148FCF7C1BF0000700000201E
:103FA000FEE70907090E002804DB00F1E02080F895
:103FB0000014704700F00F0000F1E02080F8141D9D
:103FC000704702E008C8121F08C1002AFAD17047E2
:103FD0007047002001E001C1121F002AFBD1704789
:103FE0001CB5FCF72FFCFDF7DBFCFDF741FCFDF7F2
:103FF000FBFBFDF7B3FCFDF723FD1F20FDF78CF85D
:10400000182005A1CDE900010346D22228211E2057
:10401000FDF798FBFEE700004D59206E616D6520AD
:1040200069732059594A65642100000000000000AE
:104030000000000001020304060708090000000058
:104040000102030400000000000000000000000066
:10405000000000003F4000000000000000003000B1
:10406000400030004000000009000BC03D000BC0C4
:104070003D00090018C024407FE02240318000004C
:10408000180024C01B000D803240018003801C40BA
:1040900027401C8007400040100060000000000026
:1040A000000000000000000000001F8020404020B1
:1040B0000000402020401F80000000000900060092
:1040C0001F80060009000000040004003F80040077
:1040D000040000000010006000000000000000006C
:1040E000040004000400040004000000000000407C
:1040F0000000000000000000002001C006003800A1
:10410000400000001F802040204020401F80000011
:10411000000010403FC000400000000018C02140D7
:1041200022402440184000001080204024402440B9
:104130001B80000002000D0011003FC00140000084
:104140003C80244024402440238000001F802440E1
:1041500024403440038000003000200027C0380095
:10416000200000001B802440244024401B800000CD
:104170001C0022C0224022401F80000000000000DE
:104180000840000000000000000000000460000083
:1041900000000000000004000A00110020804040E0
:1041A0000900090009000900090000000000404062
:1041B000208011000A000400180020002340240081
:1041C000180000001F802040274029401F400000A9
:1041D000004007C039000F0001C0004020403FC030
:1041E000244024401B8000001F80204020402040AD
:1041F0003080000020403FC0204020401F80000051
:1042000020403FC024402E4030C0000020403FC02E
:1042100024402E00300000000F001080204022407B
:104220003380020020403FC0040004003FC0204013
:10423000204020403FC0204020400000006020205F
:1042400020203FC02000200020403FC024400B0021
:1042500030C0204020403FC020400040004000C00F
:104260003FC03C0003C03C003FC0000020403FC0B6
:104270000C4023003FC020001F80204020402040F1
:104280001F80000020403FC0244024001800000090
:104290001F802140214020E01FA0000020403FC09F
:1042A0002440260019C0004018C024402440224069
:1042B00031800000300020403FC02040300000002E
:1042C00020003F80004000403F80200020003E0052
:1042D00001C0070038002000380007C03C0007C0BC
:1042E00038000000204039C0060039C020400000DE
:1042F0002000384007C0384020000000304021C076
:104300002640384020C00000000000007FE0402030
:1043100040200000000070000C00038000400000FE
:104320000000402040207FE000000000000020004E
:1043300040002000000000000010001000100010DD
:10434000001000100000000040000000000000000D
:10435000000002800540054003C0004020003FC02F
:104360000440044003800000000003800440044037
:104370000640000000000380044024403FC000408D
:104380000000038005400540034000000000044099
:104390001FC0244024402000000002E005500550CA
:1043A0000650042020403FC00440040003C00040E9
:1043B0000000044027C00040000000000010001072
:1043C000041027E00000000020403FC0014007002B
:1043D00004C00440204020403FC000400040000096
:1043E00007C0040007C0040003C00000044007C069
:1043F0000440040003C00040000003800440044067
:1044000003800000041007F0045004400380000003
:10441000000003800440045007F00010044007C06F
:104420000240040004000000000006400540054072
:1044300004C00000000004001F8004400040000091
:10444000040007800040044007C00040040007004B
:1044500004C0018006000400060001C0070001C07E
:1044600006000000044006C0010006C00440000031
:104470000410071004E0018006000400000004405E
:1044800005C00640044000000000000004007BE07E
:1044900040200000000000000000FFF000000000CD
:1044A000000040207BE0040000000000400080008D
:1044B000400020002000400000000000000000003C
:1044C00000000000000000000000000000001FCC01
:1044D000000C000000000000000008003000600038
:1044E0000800300060000000022003FC1E200220B3
:1044F00003FC1E200220000000000E1811043FFFE4
:1045000010840C78000000000F0010840F3800C0E9
:10451000077818840078000000780F8410C41124F4
:104520000E9800E400840008080068007000000095
:10453000000000000000000000000000000007E094
:10454000181820044002000000004002200418183F
:1045500007E00000000000000240024001800FF070
:1045600001800240024000000080008000800FF8BF
:1045700000800080008000000001000D000E00009F
:1045800000000000000000000000008000800080AB
:1045900000800080008000800000000C000C000003
:1045A000000000000000000000000006001800608D
:1045B0000180060018002000000007F00808100421
:1045C0001004080807F000000000080408041FFC9D
:1045D000000400040000000000000E0C1014102461
:1045E000104411840E0C000000000C18100411047B
:1045F000110412880C700000000000E00320042465
:1046000008241FFC0024000000001F9810841104DF
:104610001104108810700000000007F008881104D1
:10462000110418880070000000001C00100010FC2D
:1046300013001C001000000000000E38114410840C
:10464000108411440E38000000000700088C10444C
:104650001044088807F00000000000000000030C70
:10466000030C000000000000000000000001010633
:104670000000000000000000000000800140022057
:10468000041008081004000002200220022002206A
:10469000022002200220000000001004080804107C
:1046A000022001400080000000000E001200100CEB
:1046B000106C10800F00000003E00C1813E41424A9
:1046C00017C4082807D000000004003C03C41C40A5
:1046D000074000E4001C000410041FFC1104110436
:1046E00011040E880070000003E00C181004100480
:1046F000100410081C10000010041FFC100410040B
:104700001004080807F0000010041FFC1104110435
:1047100017C410040818000010041FFC1104110035
:1047200017C010000800000003E00C18100410046B
:1047300010441C780040000010041FFC108400800E
:10474000008010841FFC10040000100410041FFCE3
:10475000100410040000000000030001100110010B
:104760001FFE10001000000010041FFC1104038045
:104770001464181C1004000010041FFC1004000432
:1047800000040004000C000010041FFC1F0000FCCB
:104790001F001FFC1004000010041FFC0C04030089
:1047A00000E010181FFC100007F0080810041004A7
:1047B0001004080807F0000010041FFC108410808B
:1047C000108010800F00000007F00818102410243B
:1047D000101C080A07F2000010041FFC110411004D
:1047E00011C011300E0C000400000E1C11041084C6
:1047F000108410441C3800001800100010041FFC26
:10480000100410001800000010001FF8100400042D
:10481000000410041FF8100010001E0011E0001C1E
:10482000007013801C0010001FC0103C00E01F002F
:1048300000E0103C1FC000001004180C163401C02A
:1048400001C01634180C100410001C00130400FCE6
:1048500013041C00100000000804101C10641084D5
:1048600013041C04101800000000000000007FFE6C
:104870004002400240020000000030000C000380B3
:104880000060001C000300000000400240024002E3
:104890007FFE00000000000000000000200040003B
:1048A0004000400020000000000100010001000164
:1048B0000001000100010001000040004000200054
:1048C00000000000000000000000009801240144E6
:1048D0000144014400FC000410001FFC0088010496
:1048E00001040088007000000000007000880104CE
:1048F0000104010400880000000000700088010429
:10490000010411081FFC0004000000F801440144E8
:104910000144014400C800000000010401040FFC30
:104920001104110411001800000000D6012901290A
:10493000012901C90106000010041FFC00840100C8
:104940000100010400FC000400000104190419FC2A
:104950000004000400000000000000030001010149
:10496000190119FE0000000010041FFC0024004083
:1049700001B4010C010400000000100410041FFC2D
:104980000004000400000000010401FC0104010017
:1049900001FC0104010000FC010401FC0084010091
:1049A0000100010400FC0004000000F801040104FF
:1049B0000104010400F80000010101FF0085010469
:1049C00001040088007000000000007000880104ED
:1049D0000104010501FF00010104010401FC008440
:1049E0000104010001800000000000CC012401242A
:1049F000012401240198000000000100010007F8D3
:104A00000104010400000000010001F8000400049A
:104A10000004010801FC0004010001800170000C89
:104A2000001001600180010001F0010C003001C0A4
:104A30000030010C01F0010000000104018C007441
:104A40000170018C01040000010101810171000E5F
:104A5000001801600180010000000184010C013494
:104A600001440184010C000000000000000000006F
:104A700001003EFC40024002000000000000000077
:104A8000FFFF0000000000000000400240023EFC6A
:104A900001000000000000000000600080008000B5
:104AA0004000400020002000000000000000000046
:104AB00000000000000000000000000000000000F6
:104AC00000000000000000000000000000000000E6
:104AD00000000000000000000000000F80380FFE02
:104AE000380F8038000000000000000000000000C7
:104AF0000000000000000100000600000C0000386B
:104B000000003100000600000C00003800003000FA
:104B1000000000000000000061800067F807F980D5
:104B20000061800061800061800061800067F8079B
:104B3000F98000618000000000000000000001C05A
:104B4000E003E0F00630080418081FFFFE040E081A
:104B50000787F00381E000000000000001F000067C
:104B60000C00040408060C7001F9C0000E00003BA4
:104B7000E000EC18070808040C180003E00000002F
:104B80000001E00007F003F818041C0804170807E8
:104B9000E1D003C0E00023B0003C08002008000082
:104BA0001000000000000001000031000032000091
:104BB0001C000000000000000000000000000000D9
:104BC00000000000000000000000000000000000E5
:104BD00000000000000000007F0001FFC00780F01F
:104BE0000C0018100004200002000000000000204B
:104BF00000021000040C00180780F001FFC0007FC5
:104C000000000000000000000000000000000000A4
:104C1000000000004200006600006600003C00004A
:104C2000180003FFC0001800003C0000660000668A
:104C3000000042000000000008000008000008001A
:104C400000080000080001FFC00008000008000084
:104C5000080000080000080000000000000100003B
:104C60003100003200001C000000000000000000C5
:104C70000000000000000000000000000000000034
:104C800008000008000008000008000008000008F4
:104C900000000800000800000800000800000000F4
:104CA000000000000000000038000038000038005C
:104CB00000000000000000000000000000000000F4
:104CC0000000000000000000000600001C00007052
:104CD000000180000E0000380000C0000700001C2A
:104CE0000000300000000000000000007F8001FF95
:104CF000E00380700600180400080400080600188D
:104D000003807001FFE0007F8000000000000000D1
:104D1000000001000801000801000803FFF807FF78
:104D2000F800000800000800000800000000000073
:104D300000000001C03802C05804009804011804A3
:104D40000218040418061C1803F81801E0F8000003
:104D50000000000000000001C0E003C0F0040008F3
:104D600004080804080806180803F41801E7F0000E
:104D700001E0000000000000000000000300000D42
:104D80000000110000610000810803010807FFF81E
:104D90000FFFF800010800010800000000000000FB
:104DA00000E007FCD00608080610080610080610E8
:104DB00008061838060FF00607C0000000000000C3
:104DC000000000003F8001FFE00384300208180467
:104DD0001008041008041008071810030FF000074B
:104DE000C000000000000000000003C00007000039
:104DF0000600000600F80607F806180006E000079F
:104E0000000006000000000000000001E1E003F7E0
:104E1000F0063410041808041808040C08040C08E0
:104E200006161803F3F001C1E000000000000000C6
:104E3000F80003FC300306380402080402080402E8
:104E4000080404100308F001FFC0007F0000000008
:104E50000000000000000000000000000000000052
:104E6000703800703800703800000000000000004A
:104E70000000000000000000000000000000000032
:104E800000000000301A00301C000000000000008C
:104E9000000000000000000000000000000000080A
:104EA000000014000022000041000080800100404A
:104EB00002002004001008000800000000000000AC
:104EC000210000210000210000210000210000211C
:104ED000000021000021000021000021000000004E
:104EE000000000000000080008040010020020017B
:104EF00000400080800041000022000014000008F3
:104F00000000000000000003C00004C00004000016
:104F1000080038080F380808380810000C3000075F
:104F2000E00003C000000000000000003F8000FF20
:104F3000E0038070020F1006708804C088048308A4
:104F4000047F8802C09003012000FE40000008009A
:104F500000180001F8003E0801C20007020007E245
:104F60000000FE00001FC80001F800003800000823
:104F700004000807FFF807FFF804080804080804FD
:104F8000080804080806180803F41801E7F00001EF
:104F9000E0000000000000003F8001FFE00380709F
:104FA00002001804000804000804000804001006A9
:104FB00000200780C000000004000807FFF807FF7A
:104FC000F804000804000804000804001802001097
:104FD00003807001FFE0007F8000000004000807EC
:104FE000FFF807FFF8040808040808040808040884
:104FF00008043E08040008060018010060000000D4
:1050000004000807FFF807FFF80408080408000474
:105010000800040800043E000600000600000180AD
:1050200000000000000000003F8001FFE0038070EE
:105030000600180400080402080402080203F0072E
:1050400083F000020000020004000807FFF807FFD9
:10505000F804080800080000080000080000080024
:1050600004080807FFF807FFF80400080000000024
:10507000000004000804000804000807FFF807FF08
:10508000F804000804000804000800000000000004
:1050900000000000000600000700000104000104F9
:1050A000000104000307FFFE07FFFC0400000400EA
:1050B0000004000004000807FFF807FFF8040C08CC
:1050C000001800003E0004C7800503C80600F8046D
:1050D000003804001800000804000807FFF807FF64
:1050E000F80400080000080000080000080000089C
:1050F000000008000018000060000000040008071D
:10510000FFF807800807FC00007FC00003F80007D5
:10511000C000780007800807FFF807FFF8040008C0
:1051200004000807FFF807000803C00000E00000C3
:105130003800001E000007000001C00400F007FF57
:10514000F8040000000000007F8001FFE003807091
:1051500006001804000804000806001803003001C7
:10516000FFE0007F8000000004000807FFF807FF51
:10517000F804040804040004040004040004040007
:10518000060C0003F80001F0000000000000000021
:105190007F8001FFE003807006008804008804001F
:1051A000C806003C03003E01FFE6007F84000000CB
:1051B00004000807FFF807FFF804080804080004C3
:1051C0000C00040F00040BC00610F003F03801E0DF
:1051D0000800000800000001E0F803F0300630107D
:1051E000041808041808040C08040C080206180225
:1051F00007F00781E00000000180000600000400C5
:105200000004000004000807FFF807FFF804000886
:1052100004000004000006000001800004000007F4
:10522000FFE007FFF004001800000800000800007D
:105230000800000800000804001007FFE004000058
:1052400004000006000007E00007FE00041FE00065
:1052500001F80000380001E0043E0007C00006002D
:105260000004000004000007E00007FFC0041FF86E
:105270000007C007F80007FF80043FF80007C004DC
:10528000F800070000040000000000040008060009
:105290001807C07805F1C8003E00001F800463E8CD
:1052A0000780F8060018040008000000040000064B
:1052B000000007800007E008047C08001FF80007D2
:1052C000F800180804E008070000060000040000C9
:1052D0000000000100080600380400F80403E80498
:1052E0000F08047C0805F00807C008070018040030
:1052F000600000000000000000000000000000004E
:105300000000003FFFFE20000220000220000220DB
:105310000002200002000000000000000000080061
:105320000007000000C0000038000006000001C0B7
:1053300000003000000E000001000000000000002E
:1053400000002000022000022000022000022000B5
:10535000023FFFFE0000000000000000000000000F
:1053600000000000000000000008000010000030F5
:1053700000002000003000001000000800000000C5
:105380000000000000000100000100000100000119
:105390000000010000010000010000010000010008
:1053A00000010000010000010000000000000000FA
:1053B000002000002000001000001000000000008D
:1053C00000000000000000000000000000000000DD
:1053D00000F00019F8001B1800220800260800241D
:1053E00008002410003FF8001FF800000800001813
:1053F00000000004000007FFF80FFFF0001818007D
:105400001008002008002008003018001FF0000FCE
:10541000C00000000000000007C0001FF0001830AE
:10542000002008002008002008003C08001C100094
:1054300000600000000000000000000007C0001F26
:10544000F000381800200800200800200804101080
:1054500007FFF80FFFF00000100000000000000040
:1054600000000007C0001FF00012300022180022C8
:1054700008002208003208001E10000E2000000064
:1054800000000000200000200800200801FFF803B1
:10549000FFF8062008042008042008072000030065
:1054A0000000000000000000000E000E6E001FF360
:1054B0000031B10020B10020B1003191001F130074
:1054C0002E1E00200E00300000000004000807FF20
:1054D000F80FFFF80010080020000020000020084E
:1054E000003FF8001FF80000080000000000000066
:1054F0000000002008002008002008063FF8063FB2
:10550000F80000080000080000080000000000008B
:105510000000000000000000030000030020010064
:105520002001002003063FFE063FFC0000000000B3
:105530000000000000000004000807FFF80FFFF85B
:10554000000188000300002FC00038F80020380058
:105550002008000008000000000000000000040017
:105560000804000804000807FFF80FFFF80000080F
:1055700000000800000800000000000000200800F3
:105580003FF8003FF8001008002000003FF8003FFF
:10559000F8001008002000003FF8003FF800000865
:1055A000000000002008003FF8003FF8001008004D
:1055B0001000002000002008003FF8001FF8000045
:1055C000080000000000000007C0000FF0001830C5
:1055D00000300800200800200800300800183000C3
:1055E0000FF00007C0000000000000002001003F95
:1055F000FF003FFF001011002009002008002008D4
:10560000003038001FF0000FC00000000000000054
:1056100007C0001FF00038180020080020080020F4
:1056200009001011001FFF003FFF000001000000F3
:10563000002008002008002008003FF8003FF80084
:10564000080800100800200800200000300000308A
:1056500000000000000000000000000C78001E1890
:105660000033080023080021080021880021980049
:1056700030F0003860000000000000002000002032
:105680000000200000FFF003FFF8002008002008C1
:1056900000200800003000000000000000000000B2
:1056A0002000003FF0007FF8000018000008000014
:1056B00008002010003FF8007FF0000010000000FC
:1056C000000000002000003000003C00003F80008F
:1056D00023F0000078000070002380003C000030C0
:1056E00000002000002000003C00003FE00023F804
:1056F0000000E0002700003E00003FE00021F8002D
:1057000001E0003E00002000000000002008002012
:1057100008003838003E680027800003C8002CF8D5
:1057200000383800201800200800000000000000A9
:105730002000003003003C01003F830023EC000008
:1057400070002380003C00002000002000000000CA
:105750000000000000000038080020380020F80099
:1057600023E8002F88003E080038080020180000B9
:1057700070000000000000000000000000000000B9
:105780000000000008000014001FF7FC3000062095
:105790000002000000000000000000000000000007
:1057A00000000000000000000000FFFFFF000000FC
:1057B00000000000000000000000000000000000E9
:1057C00000002000023000061FF7FC001400000853
:1057D00000000000000000000000000000000000C9
:1057E00000000018000060000040000040000020A1
:1057F00000001000000800000400000400000C007D
:105800000010000000000000000000000000000088
:105810000000000000000000000000000000000088
:105820000000000000000000000000000000000078
:105830000000000000000000000000000000000068
:105840000000000000000000000000000000000058
:105850000000000000000000000000000000000048
:105860000000000000000000000000000000000038
:105870000000000000000000000000000000000028
:105880000000000000000000000000000000000018
:1058900000000000000000000000000007F000C051
:1058A00007FFE1E007F001E0000000C00000000099
:1058B00000000000000000000000000000000000E8
:1058C00000000000000000000000000000000000D8
:1058D00000000000000000000000000000000000C8
:1058E00000000000000000000000000000000000B8
:1058F00000000000000000000000000000000000A8
:105900000000000000000000000000000020000077
:1059100001C00000078000001F0000001E00000002
:105920001C20000001C00000078000001F000000D4
:105930001E0000001C00000000000000000000002D
:105940000000000000000000000000000000000057
:105950000000000000000000000000000000000047
:105960000000000000000000000000000000000037
:105970000000000000000000000000000000000027
:10598000000000000000000000180C0000180C00CF
:1059900000180FE0001FFC0003F80C0000180C00BA
:1059A00000180C0000180C0000180C0000180FE084
:1059B000001FFC0003F80C0000180C0000180C007D
:1059C00000000000000000000000000000000000D7
:1059D00000000000000000000000000000000000C7
:1059E00000000000000000000000000000000000B7
:1059F00000000000000000000000000000000000A7
:105A0000000000000000000000000000000007800F
:105A1000007807C000FC0640010E002003070020AC
:105A2000020380200FFFFFFC0201C0200200E060A3
:105A30000130704001F03F8000F01F0000000000C6
:105A40000000000000000000000000000000000056
:105A50000000000000000000000000000000000046
:105A60000000000000000000000000000000000036
:105A70000000000000000000000000000000000026
:105A80000000000000FE000001FF00000301800094
:105A900002008060030181C001FF070000FE1800C2
:105AA0000000E0000003BF00000CFFC00071806038
:105AB00001C10020030180600000FFC000003F0022
:105AC00000000000000000000000000000000000D6
:105AD00000000000000000000000000000000000C6
