:020000040800F2
:10000000580500209D010008F31C00085512000847
:10001000F11C000895040008C5430008000000001A
:10002000000000000000000000000000F71C0008B5
:100030009704000800000000F51C0008F91C0008E7
:10004000B7010008B7010008B7010008B7010008B0
:10005000B7010008B7010008B7010008B7010008A0
:10006000B7010008B7010008B7010008B701000890
:10007000B7010008B7010008B7010008B701000880
:10008000B7010008B7010008B7010008B701000870
:10009000B7010008B7010008B7010008B701000860
:1000A000B7010008B7010008B7010008B701000850
:1000B000B7010008B7010008B7010008B701000840
:1000C000B7010008B7010008B7010008B701000830
:1000D000B7010008B9430008B7010008B7010008DC
:1000E000B7010008B7010008B7010008B701000810
:1000F000B7010008B7010008B7010008B701000800
:10010000B7010008B7010008B7010008B7010008EF
:10011000B7010008B7010008B7010008B7010008DF
:10012000B7010008B7010008B7010008B7010008CF
:10013000B7010008B7010008B7010008B7010008BF
:10014000B7010008B7010008B7010008B7010008AF
:10015000B7010008B7010008B7010008B70100089F
:10016000B7010008B7010008B7010008B70100088F
:10017000B7010008B7010008B7010008000000003F
:10018000B7010008B7010008DFF80CD000F070F9E3
:1001900000480047DD440008580500200648804715
:1001A00006480047FEE7FEE7FEE7FEE7FEE7FEE75C
:1001B000FEE7FEE7FEE7FEE7811D00088901000873
:1001C0002DE9F05F0546002092469B46884606468C
:1001D000814640241BE0284641464746224600F01F
:1001E000D9F853465A46C01A914110D311461846C1
:1001F000224600F0C0F82D1A67EB01084F46224650
:100200000120002100F0B7F817EB00094E41201E35
:10021000A4F10104DFDC484631462A464346BDE8E6
:10022000F09FD2B201E000F8012B491EFBD27047CB
:100230000022F6E710B513460A4604461946FFF7B2
:10024000F0FF204610BD2DE9FE4F81EA030404F0C3
:10025000004421F0004100944FF0000B23F00043D4
:1002600050EA01045ED052EA03045BD0C3F30A549F
:10027000C1F30A552C44A4F2F3340194A0FB0254B8
:10028000C1F3130141F48011C3F3130343F480134A
:1002900001FB024400FB034E840A970A44EA81549E
:1002A00047EA8357A4FB076802958D0A05FB07857B
:1002B0004FEA932C04FB0C542705029D4FEA065885
:1002C00047EA1637B5EB08056EEB070C870E920E62
:1002D00047EA811742EA8312A7FB0201B6EB0B0142
:1002E00064EB00042B0D43EA0C335E1844EB1C5006
:1002F000DA465146E7FB0201C5F313044FEA0B331C
:1003000043EA14534FEA0432019C43EA0603A4F182
:100310000C040294009CCDE900B400F05AF803B03C
:10032000BDE8F08F00200146F9E70EB540F23341F9
:1003300002910021CDE900110A460B4600F049F870
:1003400003B000BDC1F30A5210B5C1F3130140F26E
:10035000FF3341F480119A4201DA002010BD40F2CF
:1003600033439A42A2F2334203DC524200F012F8C5
:1003700010BD904010BD202A04DB203A00FA02F1A3
:10038000002070479140C2F1200320FA03F3194383
:1003900090407047202A04DB203A21FA02F0002125
:1003A000704721FA02F3D040C2F120029140084385
:1003B0001946704710B5141E73F1000408DA401C8A
:1003C00041F1000192185B411A4301D120F0010074
:1003D00010BD2DE9F04D92469B4611B1B1FA81F264
:1003E00002E0B0FA80F220329046FFF7C4FF0446E4
:1003F0000F4640EA0A0041EA0B0153465A460843B9
:1004000013D0114653EA010019D0C8F140025046FA
:10041000FFF7C0FF05460E46504659464246FFF7D5
:10042000AAFF084305D0012004E020463946BDE874
:10043000F08D0020054346EAE0762C4337430A98C6
:100440006305E40AA0EB08000022FD0A44EA4754D1
:100450000A3002D500200146E9E70105101969417B
:10046000DDE9084500196941BDE8F04DA2E700004B
:10047000064C074D06E0E06840F0010394E80700F1
:1004800098471034AC42F6D3FFF782FED88D0008AF
:10049000F88D0008FEE770477047000070B5B3F5AF
:1004A000804F05D06FF0704140F82210002070BDE1
:1004B00050F82240084B8E891C40D1E9003543EAB0
:1004C00005138D6889692D0245EA06452B430B43C8
:1004D000234340F82230E9E70000F0CFF0B50C6884
:1004E00050F82430114A1340D1E90125D1E90367BE
:1004F0002A433E4332434E6932438E693243CE69CA
:1005000032430E6A32434E6A32438E6A3243CE6AB7
:100510003243CE6B096B32430A431A43082D01D193
:1005200042F0400240F824200020F0BD8000F0FF9F
:1005300030B500EB820250688D8900F04043D1E96C
:10054000000440EA04108C68240244EA0544204375
:100550000C8A074D05EB045420430C7D6D0105EB1F
:10056000046489692043084318435060002030BD6B
:100570000000F0FF002A07D04FF0D0435B5C491C1D
:1005800000F8013B521EF7D17047000010B5002A59
:1005900008D000BF4FF0D04310F8014B5C54491C09
:1005A000521EF7D110BD90F83510022903D08021DA
:1005B000416501207047052180F835100068016809
:1005C00021F00101016000207047000070B5044671
:1005D00000F050F90546601C02D00448007804443D
:1005E00000F048F9401BA042FAD370BD080000207B
:1005F000F0B587B014216846FFF71AFE204801685D
:1006000000293AD1012101601E480024016841F00F
:10061000010101600068022500F0010005904FF221
:100620003F00CDE9000502AA03260C2782E8D0008E
:100630006946154800F030F841F23F40CDE9000529
:1006400002AA694682E8D000104800F025F84FF66B
:100650008370CDE9000502AA694682E8D0000C4803
:1006600000F01AF84FF63370CDE9000502AA69468A
:1006700082E8D000074800F00FF807B0F0BD000096
:1006800000000020383802400014024000180240E8
:1006900000100240000C02402DE9F84F00224FF0FC
:1006A000010803254FF00F0E0B6808FA02F42340EF
:1006B000A3426ED14E68012E05D0022E03D0112E1A
:1006C00001D0122E12D186684FEA420C05FA0CF7BF
:1006D000BE43CF6807FA0CF7374387604668A643E6
:1006E0000C79C4F30014944034434460C668570046
:1006F00005FA07FC8C6826EA0C06BC403443C4604B
:100700004C68022C01D0122C13D1D40800EB8404C5
:10071000A346D4F8209054074FEAD46A0EFA0AF69A
:1007200029EA06090E6906FA0AF646EA0906CBF82E
:10073000206006680C7926EA0C0604F00304BC402D
:10074000344304604C68E40065D5364C266846F4B2
:1007500080462660246822F0030604F48044009456
:10076000314C3444A446D4F808489607370F0EFAA3
:1007700007F6B4432D4EB04201D1002624E02C4EA2
:10078000B04201D101261FE02A4EB04202D102261A
:100790001AE040E0284EB04201D1032614E0274E73
:1007A000B04201D104260FE0254EB04201D105260A
:1007B0000AE0244EB04201D1062605E0224EB042A6
:1007C00001D1072600E00826BE402643CCF8086881
:1007D0001E4E34684F689C43FF0300D51C433460B1
:1007E0001A4C241D26684F689E43BF0300D51E4344
:1007F0002660164E083634684F689C43FF0200D5C9
:100800001C433460114E0C3634684F689C43BF0261
:1008100000D51C433460521C102AFFF445AFBDE8DC
:10082000F88F0000443802400030014000000240D0
:100830000004024000080240000C02400010024088
:100840000014024000180240001C0240003C01401D
:100850000069084000D001207047426931EA020275
:1008600000D10904816170470AB1816170470904B0
:10087000FBE7000001488068704700000800002086
:1008800002488168027811448160704708000020A6
:100890000B4810B5016841F400710160016841F432
:1008A00080610160016841F480710160032000F003
:1008B0006FF8002000F006F800F024F8002010BDCA
:1008C000003C024070B50D4D04464FF47A71287813
:1008D000B1FBF0F00A490968B1FBF0F000F02FFB22
:1008E00048B9102C07D200222146501E00F030F8E3
:1008F00000206C6070BD012070BD00000800002069
:10090000140000200A4808B5016841F480410160E4
:10091000006800F4804000900548001F016841F025
:1009200080510160006800F08050009008BD000018
:1009300044380240002809DB00F01F0201219140E9
:100940004009800000F1E020C0F80011704700006D
:10095000F0B40E4B1B680C46C3F30223C3F107052A
:10096000042D00D90425191D072901D2002300E018
:10097000DB1E012606FA05F1491E214099409E40E2
:10098000761E16403143F0BC03F01DBD0CED00E0B7
:10099000064900F0070208684FF6FF03184040EAD6
:1009A0000220034A10430860704700000CED00E08D
:1009B0000000FA052DE9F0470E46050065D0DFF886
:1009C0001481D8F80000F7B200F00F00B04207D24F
:1009D00088F80070D8F8000000F00F00B04254D141
:1009E00028683D4C810712D5400703D5206840F4A4
:1009F000E05020602878000703D5206840F460406C
:100A000020602068A96820F0F00008432060287862
:100A1000C0072DD0304968680839012812D0022853
:100A200013D0032811D00968890700292DDA21681D
:100A300021F0030101432160FFF71CFF814641F2D1
:100A4000883A0EE009688903EFE709688901ECE755
:100A5000FFF710FFA0EB0901514502D90320BDE8C3
:100A6000F0872068696800F00C00B0EB810FEFD1CF
:100A7000D8F80010404601F00F01B14207D90770C5
:100A8000006800F00F00B04201D00120E7E72878AD
:100A9000400705D52068E96820F4E050084320604D
:100AA0002878000706D52068296920F4604040EACC
:100AB000C100206000F038F82168084AC1F3031132
:100AC000515CC8400649086006480068FFF7FAFE16
:100AD0000020C4E7003C024008380240804600087D
:100AE000140000200C000020044805490068096833
:100AF000044AC1F38221515CC840704714000020B1
:100B00000838024090460008044805490068096812
:100B1000044AC1F34231515CC840704714000020C0
:100B20000838024090460008154810B5006810F0DB
:100B30000C02144813D04110042A0FD0082A0ED1F9
:100B40000F4C241F2268236802F03F025B0207D586
:100B50002068C0F38810A0FB010106E0084610BD24
:100B60002168C1F38811A1FB00010023FFF728FBD6
:100B70002168C1F30141491C4900B0FBF1F010BDEF
:100B8000083802400024F4002DE9F84F04006ED02C
:100B90002078DFF83C93C007A9F104054AD009F199
:100BA00004000168C1F38101012908D00068C0F385
:100BB000810002280AD1D9F80000400206D5286831
:100BC000800337D560680028E1D033E06068B0F575
:100BD000803F10D0B0F5A02F286810D020F48030CE
:100BE0002860286820F4802028606068A8B1FFF79A
:100BF00041FE06460DE0286840F48030F4E740F4FA
:100C000080202860F7E700BFFFF734FE801B6428D0
:100C100073D828688003F7D50CE0FFF72BFE064653
:100C200005E000BFFFF726FE801B6428F0D8286887
:100C30008003F7D42078DFF89C8280074FF0000A09
:100C40003ED5A348001D016811F00C0F08D00068C4
:100C5000C0F3810002280BD1D9F80000400207D46C
:100C60002868800716D5E068012800D112E02BE142
:100C7000E068B8B10120C8F80000FFF7FBFD0646A8
:100C800005E000BFFFF7F6FD801B0228C0D82868EA
:100C90008007F7D52868216920F0F80040EAC100F4
:100CA00028600DE0C8F800A0FFF7E4FD064604E068
:100CB000FFF7E0FD801B02281FD828688007F7D4C3
:100CC0002078000722D5824E83486169703671B161
:100CD00001210160FFF7CEFD074604E0FFF7CAFDE2
:100CE000C01B022809D830688007F7D50EE0C0F88D
:100CF00000A0FFF7BFFD074605E082E0FFF7BAFD61
:100D0000C01B02287DD830688007F7D420784007C0
:100D100068D5DFF8BCB100270BF13C0BDBF8000015
:100D2000C0000BD4DBF8001041F08051CBF800106C
:100D3000DBF80000012700F080500090674E30681B
:100D4000C00510D4306840F480703060FFF792FD29
:100D5000009005E0FFF78EFD0099401A022850D858
:100D60003068C005F6D55A4EA0686C3601280FD001
:100D70000528306810D020F001003060306820F085
:100D800004003060A068B8B1FFF774FD00900FE078
:100D9000306840F00100F4E740F004003060F7E70D
:100DA000FFF768FD0099411A41F28830814266D808
:100DB00030688007F4D50EE0FFF75CFD009007E097
:100DC000FFF758FD0099411A41F28830814256D808
:100DD00030688007F4D42FB1DBF8001021F0805187
:100DE000CBF80010A069C8B33949091D0968C1F3DF
:100DF000810102294AD00228504607D0C8F8600075
:100E000000E03CE0FFF736FD04463BE04746C8F80B
:100E10006000FFF72FFD064605E000BFFFF72AFD43
:100E2000801B02282BD828688001F7D4D4E9070159
:100E30000843A16A2A4A490802EB0141626A41EA71
:100E40008211084394F82C1040EA0161C9F800109F
:100E500001203866FFF70EFD044606E036E000BFCD
:100E6000FFF708FD001B022809D828688001F7D584
:100E70002CE000BFFFF7FEFC001B022802D9032074
:100E8000BDE8F88F28688001F4D41FE00128F7D06E
:100E9000D9F80000E26900F48001914214D1226A7D
:100EA00000F03F0191420FD147F6C071626A0140E4
:100EB000914209D1A26A00F44031914204D1E16A21
:100EC00000F07060884201D00120D9E70020D7E708
:100ED0000438024000004742800E47420070004044
:100EE0000000FFFF70B515460E46040003D094F8CD
:100EF000490010B107E0012070BD002084F84800CF
:100F0000204600F01AF804F108012068FFF7E6FA1D
:100F10003146A2682068FFF70BFBD4E9010229469D
:100F2000236BFFF7BBFAA168206850F8212042F03C
:100F3000010240F82120002070BDFFF759BB10B519
:100F4000401EB0F1807F01D3012010BD4FF0E0249E
:100F500060610F21601703F036FA0020A0610720BE
:100F60002061002010BD000070B590F83C20012ADF
:100F700032D0012480F83C40022280F83D200368F2
:100F80005A689D6822F070060A6832435A60134B13
:100F900002689A4214D0B2F1804F11D0104B9A429D
:100FA0000ED0104B9A420BD00F4B9A4208D00F4BE9
:100FB0009A4205D00E4B9A4202D00E4B9A4204D16F
:100FC000496825F080031943916080F83D40002175
:100FD00080F83C10084670BD022070BD0000014042
:100FE0000004004000080040000C004000040140E4
:100FF000004001400018004010B5040003D094F8F0
:101000003D0010B107E0012010BD002084F83C0035
:10101000204600F00DF8022084F83D00211D2068D4
:1010200003F03EF8012084F83D00002010BD0000D0
:1010300008B500680649884208D10648016841F0B1
:1010400020010160006800F02000009008BD000051
:1010500000140040403802407047000070B502683C
:1010600004461068D168536910F00F0F52D003F096
:10107000010501F490762E435FD0C20705D0CA0562
:1010800003D5E26B42F00102E263420705D5DA07BD
:1010900003D0E26B42F00202E263820705D5DA0771
:1010A00003D0E26B42F00402E263020707D501F0CD
:1010B00020022A4303D0E26B42F00802E263E26BB3
:1010C000002A33D0800604D5880602D5204603F0D6
:1010D00061F820684069E16BC0F38010090700D413
:1010E00028B3204603F048F82068416949061AD51C
:1010F000416921F040014161606BA0B11B4901656C
:10110000606BFFF750FA002810D0606B016DBDE8EE
:1011100070400847830610D58B060ED52046BDE8E3
:10112000704003F037B82046FFF796FF70BD2046A9
:10113000FFF792FF0020E06370BD030606D50B06A3
:1011400004D52046BDE8704003F004B94006F3D54D
:101150004806F1D5D168204621F04001D160202118
:1011600084F8391000F075F870BD0000694100087E
:1011700070B5040004D094F83900002510B106E0E1
:10118000012070BD84F83850204600F023F8242058
:1011900084F839002068C16821F40051C1602046FC
:1011A00003F044F82068016921F49041016120684E
:1011B000416921F02A0141612068C16841F4005170
:1011C000C160E563202084F8390084F83A000020EB
:1011D00070BD000010B586B0044614216846FFF7C4
:1011E00027F818492068884229D117480021026849
:1011F00042F010020260006800F0100005901248F2
:101200001438026842F001020260006800F0010038
:1012100005904FF4C06000900220CDE90101032049
:1012200003900720049069460848FFF735FA00222A
:1012300011462520FFF78CFB2520FFF77BFB06B02E
:1012400010BD000000100140443802400000024080
:1012500070477047FEE700002DE9F0412E4D2F4FFB
:101260002F4C012608B12E7001E02878A0B1102182
:101270002046FFF7EDFAB0B108212046FFF7E8FA63
:1012800088B104212046FFF7E3FA60B10121384616
:10129000FFF7DEFA012806D010212046FFF7D8FA22
:1012A000012824D035E00A2003F0ACF80020287093
:1012B00010212046FFF7CCFA80B108212046FFF725
:1012C000C7FA70B104212046FFF7C2FA58B10121D4
:1012D0003846FFF7BDFA012807D01AE00120BDE823
:1012E000F0810220FBE70320F9E70420F7E708215B
:1012F0002046FFF7ADFA01280BD104212046FFF765
:10130000A7FA012805D101213846FFF7A1FA00B953
:101310002E700020E3E700002000002000000240C3
:101320000010024070B50B490646002408884D881D
:1013300021464543204600F01FFA00F097FBB0B26B
:101340004FF0D84103E000BFA1F88000641CAC421C
:10135000FAD370BD440100202DE9F04F33492C240D
:101360000A4688712A2592882B2645F2105B4FF495
:10137000305E4FF448774FF0F00949F2413A4FF4AC
:10138000A07845F2103C4FF4F07358B1A1F80080FA
:10139000A1F80290524501D0624529D10C814D81BE
:1013A0008E8139E0A1F80090A1F80280524501D069
:1013B000624508D10C814D818E81624531D1A1F801
:1013C00000804B802DE05A4508D1A1F808E04FF489
:1013D000285048814FF42C50888106E0A2F5C8506F
:1013E00063381ED10C814E818D810B804F8018E0B7
:1013F0005A4508D1A1F808E04FF4285048814FF42D
:101400002C50888106E0A2F5C850633804D10C81C5
:101410004D818E810F804B80624502D10B80A1F8F7
:101420000280BDE8F04F002000F0CAB8440100205F
:101430002DE9F043444C91460246A08823460D46D0
:101440004FEA1128160A5B89A0F51341413917D0DC
:10145000A0F5A641103913D0A0F5AA41103914D037
:101460002646A0F5C857B1793688B61A761E633F6E
:1014700025D0A0F5D047043F3DD0012951D051E0FF
:10148000184600F0E6FA30463CE0184600F0E1FA73
:10149000304600F0D2FA6089401C80B200F0D9FAE0
:1014A000D0B200F0CAFAA08900F0D3FA404600F0AA
:1014B000C4FAA089401C80B200F0CBFA2DE001B93B
:1014C000B2B2184600F0C5FA160A304600F0B5FA76
:1014D000D0B200F0B2FA304600F0AFFAD0B200F06D
:1014E000ACFAA08900F0B5FA404600F0A6FAE8B2DE
:1014F00000F0A3FA0EE0012900D1B2B2184600F0C4
:10150000A8FA100A00F099FAD0B200F096FAA08971
:1015100000F09FFA404600F090FAE8B200F08DFA31
:1015200008E0B2B21146184600F0AAFAA08929468E
:1015300000F0A6FA4FF0D840218920F87E1FA0F8CD
:101540000290BDE8F0830000440100200246012023
:1015500000E05043491EC9B2FBD2704708B54FF0B6
:10156000D840B0F88000ADF80000BDF8000008BD1C
:1015700010B50246BE2000F06CFA052000F05DFABE
:101580001046FEF7D2FE9FED0C1B53EC112BFEF71D
:101590005AFEFEF7D7FE80B200F04FFA012000F0AD
:1015A0004CFAFF2000F049FA002000F046FABDE8AE
:1015B0001040002000F041BA666666666666044028
:1015C000F0B56C4C00232146A279898841F6631658
:1015D000012A01D01AB11BE0B14202D118E0B14298
:1015E00016D1082814D2DFE800F00406080A0C0E11
:1015F000101206200CE007200AE0042008E0052075
:1016000006E0012004E0002002E0032000E00220C8
:10161000A1F5134745F2103245F21055413F05D070
:10162000914203D0A94201D0B14277D1082812D209
:10163000DFE800F0110406080A0C0E1080230AE00F
:10164000402308E0C02306E0202304E0602302E0FA
:10165000A02300E0E023A94202D14FF4585000E05B
:101660003620914205D0A94203D0B14201D043F0C7
:101670000803194600F004FAA188B1420AD098067E
:101680002088628802D5904202D303E0904201D9BB
:10169000228060806089A94241D100F0DAF90020FF
:1016A00000F0CBF96089401C80B200F0D2F9002034
:1016B00000F0C3F96089801C80B200F0CAF920886C
:1016C000401EC0F30F2000F0B8F96089C01C80B242
:1016D00000F0BFF92078401EC0B200F0AEF9A0893A
:1016E00000F0B7F9002000F0A8F9A089401C80B2F2
:1016F00000F0AFF9002000F0A0F9A089801C80B2B2
:1017000000F0A7F96088401EC0F30F2000F095F9A3
:10171000A089C01C80B200F09CF922E028E000F013
:1017200098F9002000F089F9002000F086F920885F
:10173000401EC0F30F2000F080F92078401EC0B298
:1017400000F07BF9A08900F084F9002000F075F921
:10175000002000F072F96088401EC0F30F2000F0F6
:101760006CF9A078BDE8F040401EC0B200F065B949
:10177000F0BD000044010020F0B53F4A0D4604468C
:10178000060A918810462F0A4089A1F51343413B70
:1017900028D0A1F5A643103B24D0A1F5C853633B44
:1017A0002FD0A1F5AA43103B64D100F052F9304686
:1017B00000F043F95089401C80B200F04AF9E0B2D1
:1017C00000F03BF9908900F044F9384600F035F913
:1017D0009089401C80B200F03CF9E8B2BDE8F040CE
:1017E00000F02BB900F035F9304600F026F9E0B2F0
:1017F00000F023F9908900F02CF9384600F01DF92B
:10180000EBE7917929B300F024F9304600F015F99F
:10181000E0B200F012F91088401EC0F30F2000F073
:101820000CF91078401EC0B200F007F9908900F062
:1018300010F9384600F001F9E8B200F0FEF85088DF
:10184000401EC0F30F2000F0F8F89078401EC0B2A0
:10185000C4E71188091B491E8CB200F0FAF8002079
:1018600000F0EBF8002000F0E8F8200A00F0E5F8BE
:10187000E0B2D9E7F0BD0000440100202DE9FF4FA0
:101880001D460C468A46580700D0012000EBD500C3
:10189000690810FB01F0203A00F0FF09D0B20026E1
:1018A000DFF8A4B002904BE00C2D11D0102D14D015
:1018B000182D17D0202D45D12449029801EBC010D6
:1018C0004FF00008875D380613D52148026814E000
:1018D0000298204900EB400008E01F49029801EB04
:1018E0000010EDE702981D4900EBC00001EB8000FD
:1018F000E6E70D9828B91648426821460098FFF798
:1019000097FD7806070E641CBBF80200A4B2A04243
:1019100018D9A4EB0A00A84209D100985446401CEB
:1019200080B20090BBF8001081420BD906E008F1AC
:10193000010000F0FF08B8F1080FC4D3761CF6B21E
:101940004E45B1D3BDE8FF8F44010020585E00082A
:1019500018000020984600080C4B0008FC500008B6
:101960002DE9F84F044600F0FF0910190D46DDE996
:101970000AB61FFA80F8581987B24FF0000A12E031
:10198000444503D305EB0B004C4685B2BD420FD254
:101990005B4629462046CDF800A0FFF76FFF04EB19
:1019A0005B0084B2761C3278A2F120005E28E7D971
:1019B000BDE8F88F2DE9FF4F81B04FF00008DDE959
:1019C0000EBA1E46814644460AF001054FEA5B07FF
:1019D0002CE0301B401EC1B20A20FFF7B7FD03996F
:1019E000B1FBF0F00A21B0FBF1F201FB1200B8F1FB
:1019F000000F05D1711E8C4202DA48B14FF0010888
:101A00003030C2B207FB049080B25B46009508E01C
:101A10005FEA0A6007FB049080B25B4600950AD536
:101A200030220299FFF72AFF641CE4B2B442D0D3FB
:101A300005B0BDE8F08F2022F3E701B5BDF8000046
:101A4000ADF80000BDF800004FF0D841A1F88000CB
:101A500008BD01B5BDF80000ADF80000BDF80000FC
:101A60004FF0D841A1F87E0008BD000003484FF0B8
:101A7000D8410089A1F87E00704700004401002091
:101A80004FF0D84222F87E0F518070472DE9F04F79
:101A90008FB01C216846FEF7CBFB1C2107A8FEF780
:101AA000C7FB2E4806210024C0E902141025C0E916
:101AB00004458461C4614FF4805B0462C0E9094B52
:101AC000A902C0E90B414463DFF894A084634FF09E
:101AD00020484464C0E9008A0F2602A900963C20F1
:101AE0001127019681E8B1000920CDE906400AA836
:101AF0004FF0080980E8B0000D94CDE9086907AA05
:101B000069461648FFF7EEF908B1FEF7C5FC134821
:101B1000042150300022C0E90214C0E90445846168
:101B2000C4610462C0E9094BC46204634463846312
:101B30004464C0E9008A8DE8500203A8694680E841
:101B4000B000064806945030FFF7CCF9002801D0C9
:101B5000FEF7A2FC0FB0BDE8F08F000024000020CB
:101B6000040100A02DE9F04387B014216846FEF778
:101B70005FFB3B480025016841F0100101600168EE
:101B800001F010010591016841F004010160016854
:101B900001F004010591016841F020010160016834
:101BA00001F020010591016841F0800101600168A8
:101BB00001F080010591016841F0010101600168B7
:101BC00001F001010591016841F0400101600168E7
:101BD00001F040010591016841F0020101600168D6
:101BE00001F002010591016841F0080101600068FF
:101BF000DFF8708000F008004FF4C0660590012205
:101C000031464046FEF730FEDFF85C904FF4004767
:101C1000002239464846FEF727FE1C20CDE9000584
:101C20000124694602941148FEF736FDCDE90064AF
:101C30000226CDE9024669464046FEF72DFD8DE8B5
:101C4000700069460A48FEF727FD01AA009782E85E
:101C5000700069464846FEF71FFD07B0BDE8F083F7
:101C600030380240001402400004024000100240DC
:101C7000000002401CB500240E4800940C49019459
:101C800001605321C0E9011401218461C160FFF7A3
:101C9000B3F908B1FEF700FC0094694605480194C9
:101CA000FFF762F9002801D0FEF7F6FB1CBD00002B
:101CB00000140040C40000200C4810B50A4901601F
:101CC0004FF4E1314160002181600C22C160C0E924
:101CD00004128161C161FFF74BFA002803D0BDE80F
:101CE0001040FEF7D9BB10BD0010014004010020D8
:101CF000FEE7704770477047FEF7C2BD30B593B03E
:101D000030216846FEF794FA14210CA8FEF790FAE9
:101D100019480025016841F080510160006800F019
:101D2000805011901548016841F4804101600068BD
:101D3000022400F4804011900120009000040190E2
:101D40008001CDE9064008AA0420A82182E81300FA
:101D50000B906846FEF718FF0CA90F2081E83100B0
:101D60004FF4A0500F90E002109005210CA8FEF750
:101D700021FE13B030BD000040380240007000402A
:101D80000548016841F47001016003494FF00060AB
:101D9000803908607047000088ED00E02DE9F05FB1
:101DA0003220FEF713FCD320FFF753FEFFF7D6FBDC
:101DB000FE4CA080FFF7D2FBA080FFF7CFFB4FF6D1
:101DC000FF7909EA0020A080FFF7C8FBA18849F24B
:101DD00041360843A08045F2103745F2105541F6D0
:101DE0006318B04247D0D420FFF733FEFFF7B6FBAD
:101DF000A080FFF7B3FBA080FFF7B0FB09EA00204B
:101E00004A46A080FFF7AAFBA1880843A080B842F9
:101E100031D04FF45A40FFF71CFEFFF79FFBA08024
:101E20004FF45B40FFF715FEFFF798FB02EA002036
:101E3000A0804FF45C40FFF70CFEFFF78FFBA188FA
:101E40000843A080B0F5004F7DD0A84213D0A12058
:101E5000FFF7FFFDFFF782FBA080FFF77FFB02EAA1
:101E60000020A080FFF77AFBA1880843A0F5AE41CF
:101E7000A080613968D080B2B04266D1CF20FFF730
:101E8000E8FD0020FFF7D9FDC120FFF7D6FD302087
:101E9000FFF7D3FDED20FFF7DCFD6420FFF7CDFD5C
:101EA0000320FFF7CAFD1220FFF7C7FD8120FFF7CF
:101EB000C4FDE820FFF7CDFD8520FFF7BEFD102013
:101EC000FFF7BBFD7A20FFF7B8FDCB20FFF7C1FD80
:101ED0003920FFF7B2FD2C20FFF7AFFD0020FFF700
:101EE000ACFD3420FFF7A9FD0220FFF7A6FDF72087
:101EF000FFF7AFFD2020FFF7A0FDEA20FFF7A9FDC7
:101F00000020FFF79AFD0020FFF797FDC020FFF7A4
:101F1000A0FD1B20FFF791FDC120FFF79AFD0120D6
:101F2000FFF78BFDC520FFF794FD3020FFF785FDFF
:101F30003020FFF782FDC720FFF78BFDB720FFF7AA
:101F40007CFD362002E0B5E0B0E0B5E0FFF781FDB2
:101F50004820FFF772FD3A20FFF77BFD5520FFF781
:101F60006CFDB120FFF775FD0020FFF766FD1A201C
:101F7000FFF763FDB620FFF76CFD0A20FFF75DFD5C
:101F8000A220FFF75AFDF220FFF763FD0020FFF7C4
:101F900054FD2620FFF75DFD0120FFF74EFDE020F8
:101FA000FFF757FD0F20FFF748FD2A20FFF745FDFB
:101FB0002820FFF742FD0820FFF73FFD0E20FFF726
:101FC0003CFD0820FFF739FD5420FFF736FDA9201E
:101FD000FFF733FD4320FFF730FD0A20FFF72DFD0B
:101FE0000F20FFF72AFD0020FFF727FD0020FFF755
:101FF00024FD0020FFF721FD0020FFF71EFDE1205A
:10200000FFF727FD0020FFF718FD1520FFF715FD4E
:102010001720FFF712FD0720FFF70FFD1120FFF734
:102020000CFD0620FFF709FD2B20FFF706FD5620CB
:10203000FFF703FD3C20FFF700FD0520FFF7FDFC47
:102040001020FFF7FAFC0F20FFF7F7FC3F20FFF707
:10205000F4FC3F20FFF7F1FC0F20FFF7EEFC2B20F4
:10206000FFF7F7FC0020FFF7E8FC0020FFF7E5FC96
:102070000120FFF7E2FC3F20FFF7DFFC2A20FFF7FB
:10208000E8FC0020FFF7D9FC0020FFF7D6FC002079
:10209000FFF7D3FCEF20FFF7D0FC1120FFF7D9FCAE
:1020A0007820FEF793FA292001F009BFA4F80480F4
:1020B00001F00ABFA580FDE3B84276D1ED20FFF71D
:1020C000C8FC0120FFF7B9FCFE20FFF7B6FCEE20AC
:1020D000FFF7BFFCDE20FFF7B0FC2120FFF7ADFCCF
:1020E000F120FFF7B6FC0120FFF7A7FCDF20FFF788
:1020F000B0FC1020FFF7A1FCC420FFF7AAFC8F2042
:10210000FFF79BFCC620FFF7A4FC0020FFF795FC1F
:10211000E220FFF792FCE220FFF78FFCE220FFF7BE
:102120008CFCBF20FFF795FCAA20FFF786FCB020AF
:10213000FFF78FFC0D20FFF780FC0020FFF77DFCF0
:102140000D20FFF77AFC0020FFF777FC1120FFF746
:1021500074FC0020FFF771FC1920FFF76EFC0020D3
:10216000FFF76BFC2120FFF768FC0020FFF765FC00
:102170002D20FFF762FC0020FFF75FFC3D20FFF7FA
:102180005CFC0020FFF759FC5D20FFF756FC0020A7
:10219000FFF753FC5D20FFF750FC0020FFF74DFCDC
:1021A000B120FFF756FC802002E0FDE3440100204F
:1021B000FFF743FC0020FFF740FC8B20FFF73DFCBE
:1021C0000020FFF73AFC9620FFF737FC0020FFF7CE
:1021D00034FCB220FFF73DFC0020FFF72EFC00206E
:1021E000FFF72BFC0220FFF728FC0020FFF725FC5F
:1021F0000320FFF722FC0020FFF71FFCB320FFF7AE
:1022000028FC0020FFF719FC0020FFF716FC002037
:10221000FFF713FC0020FFF710FC0020FFF70DFC78
:102220000020FFF70AFC0020FFF707FC0020FFF763
:1022300004FC0020FFF701FC0020FFF7FEFB00205C
:10224000FFF7FBFB0020FFF7F8FB0020FFF7F5FB93
:102250000020FFF7F2FB0020FFF7EFFB0020FFF765
:10226000ECFB0020FFF7E9FB0020FFF7E6FB002076
:10227000FFF7E3FB0020FFF7E0FB0020FFF7DDFBAB
:102280000020FFF7DAFB0020FFF7D7FB0020FFF765
:10229000D4FBB420FFF7DDFB8B20FFF7CEFB002043
:1022A000FFF7CBFB9620FFF7C8FB0020FFF7C5FB2D
:1022B000A120FFF7C2FB0020FFF7BFFBB520FFF70F
:1022C000C8FB0220FFF7B9FB0020FFF7B6FB032095
:1022D000FFF7B3FB0020FFF7B0FB0420FFF7ADFBD7
:1022E0000020FFF7AAFBB620FFF7B3FB0020FFF7A3
:1022F000A4FB0020FFF7A1FBB720FFF7AAFB0020FB
:10230000FFF79BFB0020FFF798FB3F20FFF795FBB3
:102310000020FFF792FB5E20FFF78FFB0020FFF706
:102320008CFB6420FFF789FB0020FFF786FB8C20E5
:10233000FFF783FB0020FFF780FBAC20FFF77DFB5E
:102340000020FFF77AFBDC20FFF777FB0020FFF788
:1023500074FB7020FFF771FB0020FFF76EFB9020ED
:10236000FFF76BFB0020FFF768FBEB20FFF765FB37
:102370000020FFF762FBDC20FFF75FFB0020FFF788
:102380005CFBB820FFF765FB0020FFF756FB002041
:10239000FFF753FB0020FFF750FB0020FFF74DFB3A
:1023A0000020FFF74AFB0020FFF747FB0020FFF764
:1023B00044FB0020FFF741FBBA20FFF74AFB242033
:1023C000FFF73BFB0020FFF738FB0020FFF735FB52
:1023D0000020FFF732FBC120FFF73BFB2020FFF777
:1023E0002CFB0020FFF729FB5420FFF726FB0020E1
:1023F000FFF723FBFF20FFF720FB0020FFF71DFB6B
:10240000C220FFF726FB0A20FFF717FB0020FFF78B
:1024100014FB0420FFF711FB0020FFF70EFBC32085
:10242000FFF717FB3C20FFF708FB0020FFF705FB39
:102430003A20FFF702FB0020FFF7FFFA3920FFF7F1
:10244000FCFA0020FFF7F9FA3720FFF7F6FA002030
:10245000FFF7F3FA3C20FFF7F0FA0020FFF7EDFA60
:102460003620FFF7EAFA0020FFF7E7FA3220FFF7FD
:10247000E4FA0020FFF7E1FA2F20FFF7DEFA002050
:10248000FFF7DBFA2C20FFF7D8FA0020FFF7D5FA88
:102490002920FFF7D2FA0020FFF7CFFA2620FFF716
:1024A000CCFA0020FFF7C9FA2420FFF7C6FA002073
:1024B000FFF7C3FA2420FFF7C0FA0020FFF7BDFAA8
:1024C0002320FFF7BAFA0020FFF7B7FA3C20FFF706
:1024D000B4FA0020FFF7B1FA3620FFF7AEFA002079
:1024E000FFF7ABFA3220FFF7A8FA0020FFF7A5FAB2
:1024F0002F20FFF7A2FA0020FFF79FFA2C20FFF70A
:102500009CFA0020FFF799FA2920FFF796FA00209D
:10251000FFF793FA2620FFF790FA0020FFF78DFAD5
:102520002420FFF78AFA0020FFF787FA2420FFF71C
:1025300084FA0020FFF781FA2320FFF77EFA0020BB
:10254000FFF77BFAC420FFF784FA6220FFF775FAE1
:102550000020FFF772FA0520FFF76FFA0020FFF75F
:102560006CFA8420FFF769FA0020FFF766FAF02082
:10257000FFF763FA0020FFF760FA1820FFF75DFA13
:102580000020FFF75AFAA420FFF757FA0020FFF7C0
:1025900054FA1820FFF751FA0020FFF74EFA5020A6
:1025A000FFF74BFA0020FFF748FA0C20FFF745FA37
:1025B0000020FFF742FA1720FFF73FFA0020FFF74D
:1025C0003CFA9520FFF739FA0020FFF736FAF3209E
:1025D000FFF733FA0020FFF730FAE620FFF72DFA75
:1025E0000020FFF72AFAC520FFF733FA3220FFF761
:1025F00024FA0020FFF721FA4420FFF71EFA0020FA
:10260000FFF71BFA6520FFF718FA0020FFF715FA0D
:102610007620FFF712FA0020FFF70FFA8820FFF765
:102620000CFA0020FFF709FAC620FFF712FA202063
:10263000FFF703FA0020FFF700FA1720FFF7FDF974
:102640000020FFF7FAF90120FFF7F7F90020FFF764
:10265000F4F9C720FFF7FDF90020FFF7EEF900209D
:10266000FFF7EBF90020FFF7E8F90020FFF7E5F9A5
:10267000C820FFF7EEF90020FFF7DFF90020FFF791
:10268000DCF90020FFF7D9F90020FFF7D6F9C920BF
:10269000FFF7DFF90020FFF7D0F90020FFF7CDF9B1
:1026A0000020FFF7CAF90020FFF7C7F90020FFF765
:1026B000C4F90020FFF7C1F90020FFF7BEF90020A0
:1026C000FFF7BBF90020FFF7B8F90020FFF7B5F9D5
:1026D0000020FFF7B2F90020FFF7AFF90020FFF765
:1026E000ACF90020FFF7A9F90020FFF7A6F90020B8
:1026F000FFF7A3F9E020FFF7ACF91620FFF79DF9EB
:102700000020FFF79AF91C20FFF797F90020FFF748
:1027100094F92120FFF791F90020FFF78EF9362078
:10272000FFF78BF90020FFF788F94620FFF785F9BE
:102730000020FFF782F95220FFF77FF90020FFF712
:102740007CF96420FFF779F90020FFF776F97A2009
:10275000FFF773F90020FFF770F98B20FFF76DF991
:102760000020FFF76AF99920FFF767F90020FFF7CB
:1027700064F9A820FFF761F90020FFF75EF9B9209E
:10278000FFF75BF90020FFF758F9C420FFF755F970
:102790000020FFF752F9CA20FFF74FF90020FFF79A
:1027A0004CF9D220FFF749F90020FFF746F9D9206C
:1027B000FFF743F90020FFF740F9E020FFF73DF96C
:1027C0000020FFF73AF9F320FFF737F90020FFF771
:1027D00034F9E120FFF73DF91620FFF72EF900202C
:1027E000FFF72BF91C20FFF728F90020FFF725F948
:1027F0002220FFF722F90020FFF71FF93620FFF70C
:102800001CF90020FFF719F94520FFF716F9002001
:10281000FFF713F95220FFF710F90020FFF70DF929
:102820006420FFF70AF90020FFF707F97A20FFF785
:1028300004F90020FFF701F98B20FFF7FEF80020D4
:10284000FFF7FBF89920FFF7F8F80020FFF7F5F8FD
:10285000A820FFF7F2F80020FFF7EFF8B920FFF704
:10286000ECF80020FFF7E9F8C420FFF7E6F80020B5
:10287000FFF7E3F8CA20FFF7E0F80020FFF7DDF8E4
:10288000D220FFF7DAF80020FFF7D7F8D820FFF7BB
:10289000D4F80020FFF7D1F8E020FFF7CEF80020B1
:1028A000FFF7CBF8F320FFF7C8F80020FFF7C5F8D3
:1028B000E22000E082E3FFF7CCF80520FFF7BDF847
:1028C0000020FFF7BAF80B20FFF7B7F80020FFF75A
:1028D000B4F81B20FFF7B1F80020FFF7AEF8342062
:1028E000FFF7ABF80020FFF7A8F84420FFF7A5F8A2
:1028F0000020FFF7A2F84F20FFF79FF80020FFF716
:102900009CF86120FFF799F80020FFF796F87920EE
:10291000FFF793F80020FFF790F88820FFF78DF875
:102920000020FFF78AF89720FFF787F80020FFF7CD
:1029300084F8A620FFF781F80020FFF77EF8B72083
:10294000FFF77BF80020FFF778F8C220FFF775F853
:102950000020FFF772F8C720FFF76FF80020FFF79D
:102960006CF8D120FFF769F80020FFF766F8D62051
:10297000FFF763F80020FFF760F8DD20FFF75DF850
:102980000020FFF75AF8F320FFF757F80020FFF771
:1029900054F8E320FFF75DF80520FFF74EF800201C
:1029A000FFF74BF80A2000E006E3FFF746F80020A7
:1029B000FFF743F81C20FFF740F80020FFF73DF831
:1029C0003320FFF73AF80020FFF737F84420FFF7ED
:1029D00034F80020FFF731F85020FFF72EF80020E0
:1029E000FFF72BF86220FFF728F80020FFF725F803
:1029F0007820FFF722F80020FFF71FF88820FFF764
:102A00001CF80020FFF719F89720FFF716F80020B0
:102A1000FFF713F8A620FFF710F80020FFF70DF8D6
:102A2000B720FFF70AF80020FFF707F8C220FFF7EA
:102A300004F80020FFF701F8C720FEF7FEFF002092
:102A4000FEF7FBFFD120FEF7F8FF0020FEF7F5FFB1
:102A5000D520FEF7F2FF0020FEF7EFFFDD20FEF7A6
:102A6000ECFF0020FEF7E9FFF320FEF7E6FF002071
:102A7000FEF7E3FFE420FEF7ECFF0120FEF7DDFFA9
:102A80000020FEF7DAFF0120FEF7D7FF0020FEF757
:102A9000D4FF0220FEF7D1FF0020FEF7CEFF2A2050
:102AA000FEF7CBFF0020FEF7C8FF3C20FEF7C5FF76
:102AB0000020FEF7C2FF4B20FEF7BFFF0020FEF70D
:102AC000BCFF5D20FEF7B9FF0020FEF7B6FF7420C3
:102AD000FEF7B3FF0020FEF7B0FF8420FEF7ADFF46
:102AE0000020FEF7AAFF9320FEF7A7FF0020FEF7C5
:102AF000A4FFA220FEF7A1FF0020FEF79EFFB32057
:102B0000FEF79BFF0020FEF798FFBE20FEF795FF23
:102B10000020FEF792FFC420FEF78FFF0020FEF793
:102B20008CFFCD20FEF789FF0020FEF786FFD32023
:102B3000FEF783FF0020FEF780FFDD20FEF77DFF1C
:102B40000020FEF77AFFF320FEF777FF0020FEF764
:102B500074FFE520FEF77DFF0020FEF76EFF0020EA
:102B6000FEF76BFF0020FEF768FF0020FEF765FF11
:102B70000220FEF762FF0020FEF75FFF2920FEF72C
:102B80005CFF0020FEF759FF3C20FEF756FF0020B7
:102B9000FEF753FF4B20FEF750FF0020FEF74DFFDE
:102BA0005D20FEF74AFF0020FEF747FF7420FEF786
:102BB00044FF0020FEF741FF8420FEF73EFF002087
:102BC000FEF73BFF9320FEF738FF0020FEF735FFAE
:102BD000A220FEF732FF0020FEF72FFFB320FEF702
:102BE0002CFF0020FEF729FFBE20FEF726FF002065
:102BF000FEF723FFC420FEF720FF0020FEF71DFF95
:102C0000CD20FEF71AFF0020FEF717FFD320FEF7B6
:102C100014FF0020FEF711FFDC20FEF70EFF00205E
:102C2000FEF70BFFF320FEF708FF0020FEF705FF7D
:102C3000E620FEF70EFF1120FEF7FFFE0020FEF754
:102C4000FCFE3420FEF7F9FE0020FEF7F6FE5620CB
:102C5000FEF7F3FE0020FEF7F0FE7620FEF7EDFE15
:102C60000020FEF7EAFE7720FEF7E7FE0020FEF7E1
:102C7000E4FE6620FEF7E1FE0020FEF7DEFE88207F
:102C8000FEF7DBFE0020FEF7D8FE9920FEF7D5FE0A
:102C90000020FEF7D2FEBB20FEF7CFFE0020FEF79D
:102CA000CCFE9920FEF7C9FE0020FEF7C6FE662086
:102CB000FEF7C3FE0020FEF7C0FE5520FEF7BDFE66
:102CC0000020FEF7BAFE5520FEF7B7FE0020FEF703
:102CD000B4FE4520FEF7B1FE0020FEF7AEFE432015
:102CE000FEF7ABFE0020FEF7A8FE4420FEF7A5FE8F
:102CF0000020FEF7A2FEE720FEF7ABFE3220FEF733
:102D00009CFE0020FEF799FE5520FEF796FE00205F
:102D1000FEF793FE7620FEF790FE0020FEF78DFE74
:102D20006620FEF78AFE0020FEF787FE6720FEF78A
:102D300084FE0020FEF781FE6720FEF77EFE002065
:102D4000FEF77BFE8720FEF778FE0020FEF775FE7B
:102D50009920FEF772FE0020FEF76FFEBB20FEF703
:102D60006CFE0020FEF769FE9920FEF766FE00204B
:102D7000FEF763FE7720FEF760FE0020FEF75DFEA3
:102D80004420FEF75AFE0020FEF757FE5620FEF7BD
:102D900054FE0020FEF751FE2320FEF74EFE0020D9
:102DA000FEF74BFE3320FEF748FE0020FEF745FEFF
:102DB0004520FEF742FE0020FEF73FFEE820FEF72A
:102DC00048FE0020FEF739FE0020FEF736FE99206F
:102DD000FEF733FE0020FEF730FE8720FEF72DFEC3
:102DE0000020FEF72AFE8820FEF727FE0020FEF7CF
:102DF00024FE7720FEF721FE0020FEF71EFE66204F
:102E0000FEF71BFE0020FEF718FE8820FEF715FED9
:102E10000020FEF712FEAA20FEF70FFE0020FEF7AC
:102E20000CFEBB20FEF709FE0020FEF706FE9920EF
:102E3000FEF703FE0020FEF700FE6620FEF7FDFD14
:102E40000020FEF7FAFD5520FEF7F7FD0020FEF703
:102E5000F4FD5520FEF7F1FD0020FEF7EEFD4420C5
:102E6000FEF7EBFD0020FEF7E8FD4420FEF7E5FD50
:102E70000020FEF7E2FD5520FEF7DFFD0020FEF703
:102E8000DCFDE920FEF7E5FDAA20FEF7D6FD0020D7
:102E9000FEF7D3FD0020FEF7D0FD0020FEF7CDFDAC
:102EA0000020FEF7D6FDAA20FEF7C7FDCF20FEF7D3
:102EB000D0FD0020FEF7C1FD0020FEF7BEFD002082
:102EC000FEF7BBFD0020FEF7B8FD0020FEF7B5FDC4
:102ED0000020FEF7B2FD0020FEF7AFFD0020FEF758
:102EE000ACFD0020FEF7A9FD0020FEF7A6FD0020A6
:102EF000FEF7A3FD0020FEF7A0FD0020FEF79DFDDC
:102F00000020FEF79AFD0020FEF797FD0020FEF757
:102F100094FD0020FEF791FDF020FEF79AFD0020C1
:102F2000FEF78BFD5020FEF788FD0020FEF785FDA3
:102F30000020FEF782FD0020FEF77FFDF320FEF764
:102F400088FD0020FEF779FDF920FEF782FD0620BE
:102F5000FEF773FD1020FEF770FD2920FEF76DFDD2
:102F60000020FEF76AFD3A20FEF773FD5520FEF7BC
:102F700064FD1120FEF76DFD6420FDF727FB29207D
:102F8000FEF767FD3520FEF764FD0020FEF755FDD6
:102F90005120FEF75EFDFF20FEF74FFD5320FEF7A8
:102FA00058FD2C20FEF749FD5520FEF752FD8220EA
:102FB000FEF743FD2C20FCE3A8427CD14FF4704384
:102FC00055211846FEF75CFD4FF2010AAA21504632
:102FD000FEF756FD4FF2020B52215846FEF750FD08
:102FE00008214FF20300FEF74BFD01214FF20400D0
:102FF000FEF746FD0D214FF43040FEF741FD0D2157
:103000004BF20100FEF73CFD0D214BF20200FEF7F2
:1030100037FD34214FF43640FEF732FD34214BF2B8
:103020000160FEF72DFD34214BF20260FEF728FD12
:103030000D214FF43140FEF723FD0D214BF201101D
:10304000FEF71EFD0D214BF20210FEF719FD342193
:103050004FF43740FEF714FD34214BF20170FEF7B8
:103060000FFD34214BF20270FEF70AFD00214FF4F0
:103070003240FEF705FD00214BF20120FEF700FD76
:1030800000214BF20220FEF7FBFC24214FF43840D4
:10309000FEF7F6FC24214BF60100FEF7F1FC24219B
:1030A0004BF60200FEF7ECFC01214FF43F40FEF727
:1030B000E7FC0F2100E0FDE34FF43340FEF7E0FCB6
:1030C0000F214BF20130FEF7DBFC0F214BF20230F7
:1030D000FEF7D6FC34214FF43940FEF7D1FC342101
:1030E0004BF60110FEF7CCFC34214BF60210FEF734
:1030F000C7FC08214FF43540FEF7C2FC08214BF213
:103100000150FEF7BDFC08214BF20250FEF7B8FC5F
:1031100003214FF44240FEF7B3FC24214FF43A4020
:10312000FEF7AEFC24214BF60120FEF7A9FC24217A
:103130004BF60220FEF7A4FC00214FF43C40FEF7C2
:103140009FFC78214BF60140FEF79AFC00214BF6DC
:103150000240FEF795FC00214FF43D40FEF790FC45
:1031600078214BF60150FEF78BFC00214BF6025004
:10317000FEF786FC00214FF43E40FEF781FC6421FF
:103180004BF60160FEF77CFC00214FF45140FEF746
:1031900077FC33214DF20110FEF772FC00214DF255
:1031A0000210FEF76DFC34214DF20310FEF768FCAF
:1031B00000214DF20410FEF763FC3A214DF2051098
:1031C000FEF75EFC00214DF20610FEF759FC4A2185
:1031D0004DF20710FEF754FC00214DF20810FEF7E7
:1031E0004FFC5C214DF20910FEF74AFC00214DF224
:1031F0000A10FEF745FC81214DF20B10FEF740FC52
:1032000000214DF20C10FEF73BFCA6214DF20D10F3
:10321000FEF736FC00214DF20E10FEF731FCE521E1
:103220004DF20F10FEF72CFC01214DF21010FEF7AD
:1032300027FC13214DF21110FEF722FC01214DF263
:103240001210FEF71DFC54214DF21310FEF718FC6E
:1032500001214DF21410FEF713FC82214DF21510DE
:10326000FEF70EFC01214DF21610FEF709FCCA21F3
:103270004DF21710FEF704FC02214DF21810FEF774
:10328000FFFB00214DF21910FEF7FAFB02214DF26F
:103290001A10FEF7F5FB01214DF21B10FEF7F0FBB3
:1032A00002214DF21C10FEF7EBFB34214DF21D10F4
:1032B000FEF7E6FB02214DF21E10FEF7E1FB67214F
:1032C0004DF21F10FEF7DCFB02214DF22010FEF73D
:1032D000D7FB84214DF22110FEF7D2FB02214DF2E3
:1032E0002210FEF7CDFBA4214DF22310FEF7C8FB00
:1032F00002214DF22410FEF7C3FBB7214DF2251039
:10330000FEF7BEFB02214DF22610FEF7B9FBCF21DE
:103310004DF22710FEF7B4FB02214DF22810FEF704
:10332000AFFBDE214DF22910FEF7AAFB02214DF280
:103330002A10FEF7A5FBF2214DF22B10FEF7A0FBA1
:1033400002214DF22C10FEF79BFBFE214DF22D10B9
:10335000FEF796FB03214DF22E10FEF791FB102194
:103360004DF22F10FEF78CFB03214DF23010FEF7CB
:1033700087FB33214DF23110FEF782FB03214DF222
:103380003210FEF77DFB6D214DF23310FEF778FB16
:1033900000214FF45240FEF773FB33214DF2012020
:1033A000FEF76EFB00214DF20220FEF769FB34218F
:1033B0004DF20320FEF764FB00214DF20420FEF7DE
:1033C0005FFB3A214DF20520FEF75AFB00214DF23A
:1033D0000620FEF755FB4A214DF20720FEF750FB71
:1033E00000214DF20820FEF74BFB5C214DF2092035
:1033F000FEF746FB00214DF20A20FEF741FB81213A
:103400004DF20B20FEF73CFB00214DF20C20FEF7A5
:1034100037FBA6214DF20D20FEF732FB00214DF2C5
:103420000E20FEF72DFBE5214DF20F20FEF728FBC5
:1034300001214DF21020FEF723FB13214DF2112044
:10344000FEF71EFB01214DF21220FEF719FB54215D
:103450004DF21320FEF714FB01214DF21420FEF76C
:103460000FFB82214DF21520FEF70AFB01214DF2E0
:103470001620FEF705FBCA214DF21720FEF700FBD0
:1034800002214DF21820FEF7FBFA00214DF219201F
:10349000FEF7F6FA02214DF21A20FEF7F1FA0121A9
:1034A0004DF21B20FEF7ECFA02214DF21C20FEF734
:1034B000E7FA34214DF21D20FEF7E2FA02214DF227
:1034C0001E20FEF7DDFA67214DF21F20FEF7D8FA25
:1034D00002214DF22020FEF7D3FA84214DF2212063
:1034E000FEF7CEFA02214DF22220FEF7C9FAA421FE
:1034F0004DF22320FEF7C4FA02214DF22420FEF7FC
:10350000BFFAB7214DF22520FEF7BAFA02214DF29B
:103510002620FEF7B5FACF214DF22720FEF7B0FAAC
:1035200002214DF22820FEF7ABFADE214DF22920D0
:10353000FEF7A6FA02214DF22A20FEF7A1FAF221A7
:103540004DF22B20FEF79CFA02214DF22C20FEF7C3
:1035500097FAFE214DF22D20FEF792FA03214DF24B
:103560002E20FEF78DFA10214DF22F20FEF788FA5B
:1035700003214DF23020FEF783FA33214DF2312042
:10358000FEF77EFA03214DF23220FEF779FA6D2123
:103590004DF23320FEF774FA00214FF45340FEF74A
:1035A0006FFA33214DF20130FEF76AFA00214DF235
:1035B0000230FEF765FA34214DF20330FEF760FA6F
:1035C00000214DF20430FEF75BFA3A214DF205304E
:1035D000FEF756FA00214DF20630FEF751FA4A2165
:1035E0004DF20730FEF74CFA00214DF20830FEF79D
:1035F00047FA5C214DF20930FEF742FA00214DF204
:103600000A30FEF73DFA81214DF20B30FEF738FA11
:1036100000214DF20C30FEF733FAA6214DF20D30A9
:10362000FEF72EFA00214DF20E30FEF729FAE521C1
:103630004DF20F30FEF724FA01214DF21030FEF763
:103640001FFA13214DF21130FEF71AFA01214DF243
:103650001230FEF715FA54214DF21330FEF710FA2E
:1036600001214DF21430FEF70BFA82214DF2153094
:10367000FEF706FA01214DF21630FEF701FACA21D3
:103680004DF21730FEF7FCF902214DF21830FEF72B
:10369000F7F900214DF21930FEF7F2F902214DF24F
:1036A0001A30FEF7EDF901214DF21B30FEF7E8F973
:1036B00002214DF21C30FEF7E3F934214DF21D30AA
:1036C000FEF7DEF902214DF21E30FEF7D9F967212F
:1036D0004DF21F30FEF7D4F902214DF22030FEF7F3
:1036E000CFF984214DF22130FEF7CAF902214DF2C3
:1036F0002230FEF7C5F9A4214DF22330FEF7C0F9C0
:1037000002214DF22430FEF7BBF9B7214DF22530EE
:10371000FEF7B6F902214DF22630FEF7B1F9CF21BE
:103720004DF22730FEF7ACF902214DF22830FEF7BA
:10373000A7F9DE214DF22930FEF7A2F902214DF260
:103740002A30FEF79DF9F2214DF22B30FEF798F961
:1037500002214DF22C30FEF793F9FE214DF22D306F
:10376000FEF78EF903214DF22E30FEF789F9102174
:103770004DF22F30FEF784F903214DF23030FEF781
:103780007FF933214DF23130FEF77AF903214DF202
:103790003230FEF775F96D214DF23330FEF770F9D6
:1037A00000214FF45440FEF76BF933214DF20140F4
:1037B00000E084E3FEF764F900214DF20240FEF7D9
:1037C0005FF934214DF20340FEF75AF900214DF222
:1037D0000440FEF755F93A214DF20540FEF750F945
:1037E00000214DF20640FEF74BF94A214DF2074009
:1037F000FEF746F900214DF20840FEF741F95C2141
:103800004DF20940FEF73CF900214DF20A40FEF767
:1038100037F981214DF20B40FEF732F900214DF2CC
:103820000C40FEF72DF9A6214DF20D40FEF728F9C8
:1038300000214DF20E40FEF723F9E5214DF20F4035
:10384000FEF71EF901214DF21040FEF719F9132180
:103850004DF21140FEF714F901214DF21240FEF72E
:103860000FF954214DF21340FEF70AF901214DF2F0
:103870001440FEF705F982214DF21540FEF700F9DC
:1038800001214DF21640FEF7FBF8CA214DF2174018
:10389000FEF7F6F802214DF21840FEF7F1F800218C
:1038A0004DF21940FEF7ECF802214DF21A40FEF7F6
:1038B000E7F800E006E301214DF21B40FEF7E0F8D7
:1038C00002214DF21C40FEF7DBF834214DF21D4081
:1038D000FEF7D6F802214DF21E40FEF7D1F867211F
:1038E0004DF21F40FEF7CCF802214DF22040FEF7CA
:1038F000C7F884214DF22140FEF7C2F802214DF2B3
:103900002240FEF7BDF8A4214DF22340FEF7B8F89F
:1039100002214DF22440FEF7B3F8B7214DF22540C5
:10392000FEF7AEF802214DF22640FEF7A9F8CF21AE
:103930004DF22740FEF7A4F802214DF22840FEF791
:103940009FF8DE214DF22940FEF79AF802214DF250
:103950002A40FEF795F8F2214DF22B40FEF790F841
:1039600002214DF22C40FEF78BF8FE214DF22D4046
:10397000FEF786F803214DF22E40FEF781F8102164
:103980004DF22F40FEF77CF803214DF23040FEF758
:1039900077F833214DF23140FEF772F803214DF2F2
:1039A0003240FEF76DF86D214DF23340FEF768F8B6
:1039B00000214FF45540FEF763F833214DF20150DA
:1039C000FEF75EF800214DF20250FEF759F834215F
:1039D0004DF20350FEF754F800214DF20450FEF76B
:1039E0004FF83A214DF20550FEF74AF800214DF20A
:1039F0000650FEF745F84A214DF20750FEF740F811
:103A000000214DF20850FEF73BF85C214DF20950C1
:103A1000FEF736F800214DF20A50FEF731F8812109
:103A20004DF20B50FEF72CF800214DF20C50FEF732
:103A300027F8A6214DF20D50FEF722F800214DF295
:103A40000E50FEF71DF8E5214DF20F50FEF718F865
:103A500001214DF21050FEF713F813214DF21150D1
:103A6000FEF70EF801214DF21250FEF709F854212D
:103A70004DF21350FEF704F801214DF21450FDF7FA
:103A8000FFFF82214DF21550FDF7FAFF01214DF2A3
:103A90001650FDF7F5FFCA214DF21750FDF7F0FF64
:103AA00002214DF21850FDF7EBFF00214DF21950A5
:103AB000FDF7E6FF02214DF21A50FDF7E1FF01216B
:103AC0004DF21B50FDF7DCFF02214DF21C50FDF7BB
:103AD000D7FF34214DF21D50FDF7D2FF02214DF2E8
:103AE0001E50FDF7CDFF67214DF21F50FDF7C8FFB7
:103AF00002214DF22050FDF7C3FF84214DF22150E9
:103B0000FDF7BEFF02214DF22250FDF7B9FFA421BF
:103B10004DF22350FDF7B4FF02214DF22450FDF782
:103B2000AFFFB7214DF22550FDF7AAFF02214DF25C
:103B30002650FDF7A5FFCF214DF22750FDF7A0FF3E
:103B400002214DF22850FDF79BFFDE214DF2295056
:103B5000FDF796FF02214DF22A50FDF791FFF22169
:103B60004DF22B50FDF78CFF02214DF22C50FDF74A
:103B700087FFFE214DF22D50FDF782FF03214DF20C
:103B80002E50FDF77DFF10214DF22F50FDF778FFED
:103B900003214DF23050FDF773FF33214DF23150C8
:103BA000FDF76EFF03214DF23250FDF769FF6D21E5
:103BB0004DF23350FDF764FF00214FF45640FDF7FE
:103BC0005FFF33214DF20160FDF75AFF00214DF2F6
:103BD0000260FDF755FF34214DF20360FDF750FF01
:103BE00000214DF20460FDF74BFF3A214DF20560D4
:103BF000FDF746FF00214DF20660FDF741FF4A2127
:103C00004DF20760FDF73CFF00214DF20860FDF723
:103C100037FF5C214DF20960FDF732FF00214DF2C4
:103C20000A60FDF72DFF81214DF20B60FDF728FFA3
:103C300000214DF20C60FDF723FFA6214DF20D602F
:103C4000FDF71EFF00214DF20E60FDF719FFE52183
:103C50004DF20F60FDF714FF01214DF21060FDF7EA
:103C60000FFF13214DF21160FDF70AFF01214DF204
:103C70001260FDF705FF54214DF21360FDF700FFC0
:103C800001214DF21460FDF7FBFE82214DF215601B
:103C9000FDF7F6FE01214DF21660FDF7F1FECA2197
:103CA0004DF21760FDF7ECFE02214DF21860FDF7B2
:103CB000E7FE00214DF21960FDF7E2FE02214DF210
:103CC0001A60FDF7DDFE01214DF21B60FDF7D8FE05
:103CD00002214DF21C60FDF7D3FE34214DF21D6030
:103CE000FDF7CEFE02214DF21E60FDF7C9FE6721F1
:103CF0004DF21F60FDF7C4FE02214DF22060FDF77A
:103D0000BFFE84214DF22160FDF7BAFE02214DF283
:103D10002260FDF7B5FEA4214DF22360FDF7B0FE51
:103D200002214DF22460FDF7ABFEB7214DF2256074
:103D3000FDF7A6FE02214DF22660FDF7A1FECF2180
:103D40004DF22760FDF79CFE02214DF22860FDF741
:103D500097FEDE214DF22960FDF792FE02214DF221
:103D60002A60FDF78DFEF2214DF22B60FDF788FEF3
:103D700002214DF22C60FDF783FEFE214DF22D60F5
:103D8000FDF77EFE03214DF22E60FDF779FE102136
:103D90004DF22F60FDF774FE03214DF23060FDF708
:103DA0006FFE33214DF23160FDF76AFE03214DF2C3
:103DB0003260FDF765FE6D214DF23360FDF760FE68
:103DC00055211846FDF75CFEAA215046FDF758FE26
:103DD00052215846FDF754FE08214FF20300FDF72B
:103DE0004FFE00214FF20400FDF74AFECC214FF4B4
:103DF0003140FDF745FE00214BF20110FDF740FE7A
:103E000005214FF43640FDF73BFE70214FF437405B
:103E1000FDF736FE70214BF20170FDF731FE0121F6
:103E20004FF43840FDF72CFE03214BF60100FDF75F
:103E300027FE03214BF60200FDF722FE03214BF67D
:103E40000300FDF71DFE02214FF43C40FDF718FE74
:103E500000214BF60140FDF713FE00214BF6024016
:103E6000FDF70EFED0214FF44940FDF709FE022177
:103E70004CF60110FDF704FE50214CF60210FDF740
:103E8000FFFD50214CF60310FDF7FAFD50214CF6D2
:103E90000410FDF7F5FD00214FF45450FDF7F0FD3F
:103EA00055214FF46850FDF7EBFD4FF48850FDF7B6
:103EB000D0FD7720401EC0B2FCD24FF42450FDF755
:103EC000C8FDBAE04045FCD1E220FDF7C2FD1D204F
:103ED000FDF7B3FD0220FDF7B0FD0420FDF7ADFDB9
:103EE0006320401EC0B2FCD2E020FDF7B2FD0120ED
:103EF000FDF7A3FD0A20FCF769FBE020FDF7A9FD13
:103F00000320FDF79AFD0C20FCF760FB0120FDF774
:103F1000A0FD0A20FCF75AFBE620FDF79AFD2F20B2
:103F2000FDF78BFDFF20FDF788FDFF20FDF785FDE8
:103F3000B020FDF78EFD2020FDF77FFD0020FDF76E
:103F40007CFD0320FDF779FD40F21F30FDF775FD84
:103F50000120FDF772FD40F2DF10FDF76EFD00203D
:103F6000FDF76BFDB420FDF774FD0420FDF765FD42
:103F700040F21F40FDF761FD0020FDF75EFD2E20A1
:103F8000FDF75BFD0020FDF758FD0020FDF755FD16
:103F90000020FDF752FD0020FDF74FFDB620FDF794
:103FA00058FD0220FDF749FD4FF40370FDF745FD74
:103FB0000020FDF742FD1720FDF73FFD1520FDF71E
:103FC0003CFD0020FDF739FD0020FDF736FDF02017
:103FD000FDF73FFD0320FDF730FD2920FDF739FDFA
:103FE000D020FDF736FD0020FDF727FDBE20FDF7B0
:103FF00030FD0520FDF721FDFE20FDF71EFD01200F
:10400000FDF71BFD0020FDF718FD0020FDF715FD55
:104010000020FDF712FDB820FDF71BFD0320FDF782
:104020000CFD0120FDF709FDBA20FDF712FD01206E
:10403000FDF703FD6420FDF79BFAA088B04205D090
:10404000B84203D0A84201D0404519D14FF02040DA
:10405000D0F81C1121F00F01C0F81C11D0F81C1170
:1040600021F47061C0F81C11D0F81C1141F003015B
:10407000C0F81C11D0F81C1141F40071C0F81C11DB
:104080000020FDF769F90548016841F4004101602D
:104090004846BDE8F05FFDF745B900001404024052
:1040A000F0B50268254C264D264E274F274B4FF082
:1040B000804CA04209D0604507D0A84205D0B0424C
:1040C00003D0B84201D0984204D122F0700E4A6861
:1040D00042EA0E02A0421BD0604519D0A84217D078
:1040E000B04215D0B84213D0984211D0184DA84212
:1040F0000ED0184DA8420BD0174DA84208D0174D2E
:10410000A84205D0164DA84202D0164DA84203D1B0
:1041100022F44075CA682A434D6922F080022A437E
:1041200002608A68C2620A688262A04201D0984234
:1041300001D10969016301214161F0BD0000014025
:104140000004004000080040000C00400004014052
:104150000040014000440140004801400018004078
:10416000001C00400020004010B5806B0021C1857C
:10417000C184FCF771FF10BD0168CA6822F4907217
:10418000CA6001684A6922F001024A61202180F870
:104190003A10704710B590F83A10222901D0022049
:1041A00010BD8168B1F5805F11D0016900290168F7
:1041B0001FD0496801F07F03816A4A1C82620B703C
:1041C000C18D491E0904090CC18518D02BE0026974
:1041D000816A002A0268526805D0D2B20A80816AD8
:1041E000491C8162ECE7C2F308020A80816A891CDB
:1041F000F7E74A68816A4B1C83620A70E0E701684E
:10420000CA6822F02002CA600168CA6822F480727B
:10421000CA6001684A6922F001024A61202180F8DF
:104220003A10FDF715F8002010BD00002DE9F0410F
:10423000044600680169E26821F4405111430161BC
:104240002169A068E2690843616911430843216854
:10425000CA6849F20C639A430243CA602068416904
:10426000A26921F4407111434161E0691927642575
:104270003226B0F5004F354A354920684FF0000826
:1042800006D0884201D0904236D1FCF73DFC35E0A3
:10429000884201D0904202D1FCF736FC01E0FCF7E5
:1042A00023FC61684A18A0FB070148EB0803FBF7F1
:1042B00087FF0146B0FBF5F00201B1FBF5F06FF0AE
:1042C0001803584301EB800006EBC000B0FBF5F08B
:1042D00000F0F80002EB4002B1FBF5F0584301EBAF
:1042E000800006EBC000B0FBF5F000F0070021688D
:1042F00010448860BDE8F081FCF7F6FB61688B0F25
:104300008A00A0FB0701FBF75BFF0146B0FBF5F05D
:104310006FF01802504301EB800006EB0010B0FB79
:10432000F5F000F0F002B1FBF5F002EB0012B1FB8A
:10433000F5F06FF01803584301EB800006EB001016
:10434000B0FBF5F000F00F00D1E7000000140140D1
:104350000010014090F83910212901D00220704747
:104360008168B1F5805F016A0BD04A1C0262026865
:1043700009785160C18C491E0904090CC1840ED012
:1043800017E009880268C1F308015160016900293A
:10439000016A02D0491C0162ECE7891CFBE7016855
:1043A000CA6822F08002CA600068C16841F040011A
:1043B000C1600020704700000148FCF74FBE0000BC
:1043C00004010020FEE70907090E002804DB00F1C4
:1043D000E02080F80014704700F00F0000F1E020AA
:1043E00080F8141D704702E008C8121F08C1002A97
:1043F000FAD170477047002001E001C1121F002A66
:10440000FBD170474FF4FA5148434FF0E021486127
:104410000020886101220A610A69D30701D0D20312
:10442000FAD50861886170472DE9FE4F824625A0C4
:104430001027CDE90070002401F1100083B28B46F3
:1044400025468DF80840EF225046FDF789FA3E04D4
:104450000122214602A8FCF799F89DF8080004F50E
:104460008054401C8DF80800B442F1D3002401228E
:10447000214602A8FCF77EF8B146B8460AF1780654
:104480001DE00122214602A8FCF774F8BCB19DF89A
:104490000800B84211D900BF9DF80800CDE9008599
:1044A000C01B401C0004820BB0B204235946FDF728
:1044B00081FA04F580544C45E3D3BDE8FE8F9DF8A6
:1044C0000870E9E74578204D656D6F727920546575
:1044D00073743A202020304B420000001CB50024A9
:1044E0002546FCF7D5F9FDF709FCFDF73BFBFDF789
:1044F000CDFAFDF7E1FBFDF7BDFBFDF74FFC4FF6F5
:10450000FF70FCF70FFF18203DA1CDE90001034625
:10451000D2220A211E20FDF723FA3E4F4FF47840A5
:10452000102638603CA0CDE900603346C822322115
:104530001E20FDF715FA3DA0CDE900601023C8222A
:1045400046211E20FDF70CFA3BA0CDE900601023A8
:10455000C8225A211E20FDF703FA3BA0CDE90060D6
:104560001023C8226E211E20FDF7FAF939A0CDE9EB
:1045700000601023C82282211E20FDF7F1F939A026
:10458000CDE900601023C82296211E20FDF7E8F92E
:104590001F203860374F384847F825506D1C85423A
:1045A000FAD3DFF8D8B04FF0000980464FF4007A14
:1045B0000020FCF751FE01280ED0022811D00A205D
:1045C000FFF720FF641CE4B2142CF1D10024514603
:1045D0005846FCF742F9EBE7AA213C20FFF724FFFD
:1045E000F0E70025CDE9006957F825200623BE2114
:1045F0003C20FDF7DFF96D1C4545F3D3E2E70000F1
:104600004D59206E616D652069732059594A656462
:1046100021000000180000204578706C6F726572F0
:104620002053544D33324634000000005352414D64
:10463000205445535400000041544F4D40414C49D3
:10464000454E54454B000000323031342F352F3168
:10465000340000004B4559303A546573742053724E
:10466000616D00004B4559313A5445535420446123
:10467000746100000000006890D003000014024044
:104680000000000000000000010203040607080902
:104690000000000001020304000000000000000010
:1046A00000000000000000003F400000000000008B
:1046B00000003000400030004000000009000BC046
:1046C0003D000BC03D00090018C024407FE022409F
:1046D00031800000180024C01B000D803240018092
:1046E00003801C4027401C800740004010006000F1
:1046F00000000000000000000000000000001F801B
:10470000204040200000402020401F80000000008A
:10471000090006001F8006000900000004000400D4
:104720003F80040004000000001000600000000052
:104730000000000004000400040004000400000065
:10474000000000400000000000000000002001C048
:1047500006003800400000001F802040204020401C
:104760001F800000000010403FC00040000000001B
:1047700018C02140224024401840000010802040F2
:10478000244024401B80000002000D0011003FC0A7
:10479000014000003C80244024402440238000004D
:1047A0001F8024402440344003800000300020005B
:1047B00027C03800200000001B80244024402440F3
:1047C0001B8000001C0022C0224022401F800000ED
:1047D0000000000008400000000000000000000091
:1047E0000460000000000000000004000A00110046
:1047F000208040400900090009000900090000006C
:1048000000004040208011000A0004001800200031
:1048100023402400180000001F802040274029402A
:104820001F400000004007C039000F0001C00040D9
:1048300020403FC0244024401B8000001F802040B7
:10484000204020403080000020403FC020402040D9
:104850001F80000020403FC024402E4030C0000098
:1048600020403FC024402E00300000000F00108088
:10487000204022403380020020403FC0040004005A
:104880003FC02040204020403FC02040204000004A
:104890000060202020203FC02000200020403FC09A
:1048A00024400B0030C0204020403FC0204000404A
:1048B000004000C03FC03C0003C03C003FC00000BF
:1048C00020403FC00C4023003FC020001F802040FC
:1048D000204020401F80000020403FC02440240092
:1048E000180000001F802140214020E01FA0000090
:1048F00020403FC02440260019C0004018C024407A
:104900002440224031800000300020403FC0204041
:104910003000000020003F80004000403F80200029
:1049200020003E0001C0070038002000380007C00A
:104930003C0007C038000000204039C0060039C0E4
:10494000204000002000384007C038402000000010
:10495000304021C02640384020C000000000000048
:104960007FE0402040200000000070000C00038029
:10497000004000000000402040207FE000000000D8
:104980000000200040002000000000000010001087
:104990000010001000100010000000004000000097
:1049A00000000000000002800540054003C00040F8
:1049B00020003FC00440044003800000000003804A
:1049C00004400440064000000000038004402440EE
:1049D0003FC0004000000380054005400340000048
:1049E000000004401FC0244024402000000002E0DA
:1049F000055005500650042020403FC004400400EC
:104A000003C000400000044027C000400000000038
:104A100000100010041027E00000000020403FC0FC
:104A20000140070004C00440204020403FC0004037
:104A30000040000007C0040007C0040003C00000DD
:104A4000044007C00440040003C00040000003808D
:104A50000440044003800000041007F004500440A8
:104A600003800000000003800440045007F00010A1
:104A7000044007C00240040004000000000006409B
:104A80000540054004C00000000004001F800440F1
:104A900000400000040007800040044007C00040C0
:104AA0000400070004C0018006000400060001C0E5
:104AB000070001C006000000044006C0010006C057
:104AC000044000000410071004E001800600040008
:104AD0000000044005C00640044000000000000043
:104AE00004007BE040200000000000000000FFF018
:104AF00000000000000040207BE0040000000000F7
:104B00004000800040002000200040000000000025
:104B10000000000000000000000000000000000095
:104B200000001FCC000C0000000000000000080086
:104B3000300060000800300060000000022003FC2C
:104B40001E20022003FC1E200220000000000E1880
:104B500011043FFF10840C78000000000F00108447
:104B60000F3800C0077818840078000000780F84A0
:104B700010C411240E9800E40084000808006800A6
:104B800070000000000000000000000000000000B5
:104B9000000007E018182004400200000000400256
:104BA0002004181807E00000000000000240024046
:104BB00001800FF001800240024000000080008070
:104BC00000800FF800800080008000000001000DD0
:104BD000000E000000000000000000000000008047
:104BE0000080008000800080008000800000000CB9
:104BF000000C0000000000000000000000000006A3
:104C0000001800600180060018002000000007F076
:104C1000080810041004080807F000000000080449
:104C200008041FFC000400040000000000000E0C3B
:104C300010141024104411840E0C000000000C18F5
:104C400010041104110412880C700000000000E030
:104C50000320042408241FFC0024000000001F98E7
:104C6000108411041104108810700000000007F077
:104C700008881104110418880070000000001C004E
:104C8000100010FC13001C001000000000000E3883
:104C900011441084108411440E38000000000700F5
:104CA000088C10441044088807F000000000000041
:104CB0000000030C030C00000000000000000000D6
:104CC000000101060000000000000000000000805C
:104CD00001400220041008081004000002200220F5
:104CE0000220022002200220022000000000100406
:104CF00008080410022001400080000000000E009F
:104D00001200100C106C10800F00000003E00C1853
:104D100013E4142417C4082807D000000004003C42
:104D200003C41C40074000E4001C000410041FFCE6
:104D30001104110411040E880070000003E00C1827
:104D400010041004100410081C10000010041FFCB4
:104D5000100410041004080807F0000010041FFCE1
:104D60001104110417C410040818000010041FFCDB
:104D70001104110017C010000800000003E00C1817
:104D80001004100410441C780040000010041FFCA4
:104D900010840080008010841FFC100400001004A8
:104DA00010041FFC100410040000000000030001A8
:104DB000100110011FFE10001000000010041FFC65
:104DC000110403801464181C1004000010041FFC5C
:104DD0001004000400040004000C000010041FFC78
:104DE0001F0000FC1F001FFC1004000010041FFC2B
:104DF0000C04030000E010181FFC100007F0080866
:104E0000100410041004080807F0000010041FFC30
:104E100010841080108010800F00000007F0081828
:104E200010241024101C080A07F2000010041FFCB4
:104E30001104110011C011300E0C000400000E1CF2
:104E400011041084108410441C3800001800100055
:104E500010041FFC100410001800000010001FF8C0
:104E600010040004000410041FF8100010001E00BD
:104E700011E0001C007013801C0010001FC0103CCB
:104E800000E01F0000E0103C1FC000001004180CE0
:104E9000163401C001C01634180C100410001C0098
:104EA000130400FC13041C00100000000804101C74
:104EB0001064108413041C0410180000000000008B
:104EC00000007FFE4002400240020000000030006F
:104ED0000C0003800060001C000300000000400282
:104EE000400240027FFE00000000000000000000C1
:104EF00020004000400040002000000000010001B0
:104F0000000100010001000100010001000040005B
:104F10004000200000000000000000000000009899
:104F2000012401440144014400FC000410001FFC62
:104F30000088010401040088007000000000007077
:104F400000880104010401040088000000000070D2
:104F500000880104010411081FFC0004000000F88F
:104F6000014401440144014400C800000000010460
:104F700001040FFC1104110411001800000000D6F8
:104F800001290129012901C90106000010041FFCA3
:104F9000008401000100010400FC00040000010481
:104FA000190419FC000400040000000000000003C4
:104FB00000010101190119FE0000000010041FFC8E
:104FC0000024004001B4010C0104000000001004A2
:104FD00010041FFC0004000400000000010401FC98
:104FE0000104010001FC0104010000FC010401FCBA
:104FF000008401000100010400FC0004000000F82E
:10500000010401040104010400F80000010101FF92
:105010000085010401040088007000000000007099
:10502000008801040104010501FF000101040104DD
:1050300001FC00840104010001800000000000CC9C
:105040000124012401240124019800000000010032
:10505000010007F80104010400000000010001F84C
:10506000000400040004010801FC000401000180A8
:105070000170000C001001600180010001F0010CC2
:10508000003001C00030010C01F0010000000104FB
:10509000018C00740170018C010400000101018188
:1050A0000171000E00180160018001000000018400
:1050B000010C013401440184010C000000000000D7
:1050C0000000000001003EFC400240020000000021
:1050D00000000000FFFF0000000000000000400290
:1050E00040023EFC010000000000000000006000E3
:1050F00080008000400040002000200000000000F0
:10510000000000000000000000000000000000009F
:10511000000000000000000000000000000000008F
:105120000000000000000000000000000000000F70
:1051300080380FFE380F80380000000000000000AB
:105140000000000000000000000001000006000058
:105150000C00003800003100000600000C00003890
:1051600000003000000000000000000061800067C7
:10517000F807F98000618000618000618000618033
:105180000067F807F980006180000000000000005F
:10519000000001C0E003E0F00630080418081FFF1B
:1051A000FE040E080787F00381E000000000000005
:1051B00001F000060C00040408060C7001F9C000A0
:1051C0000E00003BE000EC18070808040C18000370
:1051D000E00000000001E00007F003F818041C08DC
:1051E00004170807E1D003C0E00023B0003C08002A
:1051F0002008000010000000000000010000310045
:10520000003200001C000000000000000000000050
:10521000000000000000000000000000000000008E
:105220000000000000000000000000007F0001FFFF
:10523000C00780F00C0018100004200002000000DD
:105240000000002000021000040C00180780F0018C
:10525000FFC0007F00000000000000000000000010
:105260000000000000000000420000660000660030
:10527000003C0000180003FFC0001800003C0000C4
:105280006600006600004200000000000800000800
:105290000000080000080000080001FFC00008002E
:1052A00000080000080000080000080000000000DE
:1052B000000100003100003200001C00000000006E
:1052C00000000000000000000000000000000000DE
:1052D00000000000080000080000080000080000AE
:1052E000080000080000080000080000080000088E
:1052F000000000000000000000000000380000383E
:105300000000380000000000000000000000000065
:105310000000000000000000000000000006000087
:105320001C000070000180000E0000380000C0006A
:105330000700001C0000300000000000000000001A
:105340007F8001FFE003807006001804000804005D
:105350000806001803807001FFE0007F8000000055
:10536000000000000000010008010008010008031F
:10537000FFF807FFF8000008000008000008000020
:105380000000000000000001C03802C0580400986E
:10539000040118040218040418061C1803F8180164
:1053A000E0F800000000000000000001C0E003C0C1
:1053B000F004000804080804080806180803F41894
:1053C00001E7F00001E00000000000000000000024
:1053D0000300000D000011000061000081080301BE
:1053E0000807FFF80FFFF80001080001080000009F
:1053F0000000000000E007FCD006080806100806C0
:105400001008061008061838060FF00607C000003E
:1054100000000000000000003F8001FFE003843036
:1054200002081804100804100804100807181003D4
:105430000FF00007C000000000000000000003C0E3
:10544000000700000600000600F80607F80618002E
:1054500006E0000700000600000000000000000158
:10546000E1E003F7F0063410041808041808040CEF
:1054700008040C0806161803F3F001C1E000000050
:1054800000000000F80003FC3003063804020804A2
:1054900002080402080404100308F001FFC0007FA2
:1054A00000000000000000000000000000000000FC
:1054B00000000000703800703800703800000000F4
:1054C00000000000000000000000000000000000DC
:1054D0000000000000000000301A00301C00000036
:1054E00000000000000000000000000000000000BC
:1054F00000000008000014000022000041000080AD
:105500008001004002002004001008000800000094
:105510000000000021000021000021000021000007
:1055200021000021000021000021000021000021B5
:105530000000000000000000000008000804001047
:105540000200200100400080800041000022000095
:10555000140000080000000000000003C00004C0A8
:1055600000040000080038080F3808083808100048
:105570000C300007E00003C0000000000000000045
:105580003F8000FFE0038070020F1006708804C0A7
:1055900088048308047F8802C09003012000FE4035
:1055A0000000080000180001F8003E0801C20007D2
:1055B000020007E20000FE00001FC80001F8000022
:1055C0003800000804000807FFF807FFF80408087F
:1055D00004080804080804080806180803F4180159
:1055E000E7F00001E0000000000000003F8001FF44
:1055F000E00380700200180400080400080400089A
:105600000400100600200780C00000000400080706
:10561000FFF807FFF804000804000804000804006D
:105620001802001003807001FFE0007F800000007E
:1056300004000807FFF807FFF80408080408080436
:105640000808040808043E080400080600180100C1
:105650006000000004000807FFF807FFF8040808CE
:10566000040800040800040800043E0006000006C8
:105670000000018000000000000000003F8001FFEA
:10568000E003807006001804000804020804020801
:105690000203F00783F00002000002000400080784
:1056A000FFF807FFF80408080008000008000008D9
:1056B0000000080004080807FFF807FFF8040008C6
:1056C00000000000000004000804000804000807AF
:1056D000FFF807FFF80400080400080400080000B1
:1056E00000000000000000000006000007000001AC
:1056F00004000104000104000307FFFE07FFFC048F
:10570000000004000004000004000807FFF807FF81
:10571000F8040C08001800003E0004C7800503C808
:105720000600F80400380400180000080400080708
:10573000FFF807FFF8040008000008000008000058
:1057400008000008000008000018000060000000C9
:1057500004000807FFF807800807FC00007FC0006E
:1057600003F80007C000780007800807FFF807FF6C
:10577000F804000804000807FFF807000803C00049
:1057800000E000003800001E000007000001C00417
:1057900000F007FFF8040000000000007F8001FF18
:1057A000E0038070060018040008040008060018D2
:1057B00003003001FFE0007F8000000004000807C4
:1057C000FFF807FFF80404080404000404000404BC
:1057D00000040400060C0003F80001F000000000C3
:1057E000000000007F8001FFE00380700600880455
:1057F00000880400C806003C03003E01FFE6007F6D
:105800008400000004000807FFF807FFF8040808F8
:10581000040800040C00040F00040BC00610F00381
:10582000F03801E00800000800000001E0F803F093
:1058300030063010041808041808040C08040C087A
:105840000206180207F00781E00000000180000650
:10585000000004000004000004000807FFF807FF30
:10586000F8040008040000040000060000018000A5
:1058700004000007FFE007FFF00400180000080024
:10588000000800000800000800000804001007FFDE
:10589000E004000004000006000007E00007FE002E
:1058A000041FE00001F80000380001E0043E00079A
:1058B000C00006000004000004000007E00007FF2D
:1058C000C0041FF80007C007F80007FF80043FF876
:1058D0000007C004F80007000004000000000004F6
:1058E000000806001807C07805F1C8003E00001F38
:1058F000800463E80780F806001804000800000030
:1059000004000006000007800007E008047C08008F
:105910001FF80007F800180804E008070000060058
:10592000000400000000000100080600380400F830
:105930000403E8040F08047C0805F00807C0080702
:1059400000180400600000000000000000000000DB
:10595000000000000000003FFFFE200002200002C7
:1059600020000220000220000200000000000000D1
:10597000000008000007000000C00000380000061A
:10598000000001C000003000000E00000100000017
:105990000000000000002000022000022000022081
:1059A00000022000023FFFFE000000000000000097
:1059B00000000000000000000000000000080000DF
:1059C000100000300000200000300000100000082F
:1059D00000000000000000000000010000010000C5
:1059E00001000001000001000001000001000001B1
:1059F00000000100000100000100000100000000A3
:105A00000000000000200000200000100000100036
:105A10000000000000000000000000000000000086
:105A20000000000000F00019F8001B180022080018
:105A30002608002408002410003FF8001FF800008A
:105A40000800001800000004000007FFF80FFFF036
:105A50000018180010080020080020080030180066
:105A60001FF0000FC00000000000000007C0001F72
:105A7000F0001830002008002008002008003C0832
:105A8000001C10000060000000000000000000008A
:105A900007C0001FF0003818002008002008002070
:105AA0000804101007FFF80FFFF0000010000000BE
:105AB0000000000000000007C0001FF000123000CE
:105AC0002218002208002208003208001E10000ED2
:105AD0002000000000000000200000200800200836
